{
  "address": "0x2279B7A0a67DB372996a5FaB50D91eAA73d2eBe6",
  "abi": [
    {
      "inputs": [
        {
          "internalType": "address",
          "name": "_metric",
          "type": "address"
        },
        {
          "internalType": "address",
          "name": "_vault",
          "type": "address"
        }
      ],
      "stateMutability": "nonpayable",
      "type": "constructor"
    },
    {
      "inputs": [],
      "name": "NotTheApi",
      "type": "error"
    },
    {
      "anonymous": false,
      "inputs": [
        {
          "indexed": true,
          "internalType": "address",
          "name": "previousOwner",
          "type": "address"
        },
        {
          "indexed": true,
          "internalType": "address",
          "name": "newOwner",
          "type": "address"
        }
      ],
      "name": "OwnershipTransferred",
      "type": "event"
    },
    {
      "inputs": [
        {
          "internalType": "enum ACTION",
          "name": "",
          "type": "uint8"
        }
      ],
      "name": "actionCost",
      "outputs": [
        {
          "internalType": "uint256",
          "name": "",
          "type": "uint256"
        }
      ],
      "stateMutability": "view",
      "type": "function"
    },
    {
      "inputs": [
        {
          "internalType": "enum ACTION",
          "name": "",
          "type": "uint8"
        }
      ],
      "name": "actionStage",
      "outputs": [
        {
          "internalType": "enum STAGE",
          "name": "",
          "type": "uint8"
        }
      ],
      "stateMutability": "view",
      "type": "function"
    },
    {
      "inputs": [
        {
          "internalType": "enum ACTION",
          "name": "action",
          "type": "uint8"
        }
      ],
      "name": "getActionCost",
      "outputs": [
        {
          "internalType": "uint256",
          "name": "",
          "type": "uint256"
        }
      ],
      "stateMutability": "view",
      "type": "function"
    },
    {
      "inputs": [],
      "name": "owner",
      "outputs": [
        {
          "internalType": "address",
          "name": "",
          "type": "address"
        }
      ],
      "stateMutability": "view",
      "type": "function"
    },
    {
      "inputs": [
        {
          "internalType": "address",
          "name": "_user",
          "type": "address"
        },
        {
          "internalType": "uint256",
          "name": "questionId",
          "type": "uint256"
        },
        {
          "internalType": "enum ACTION",
          "name": "action",
          "type": "uint8"
        }
      ],
      "name": "payForAction",
      "outputs": [],
      "stateMutability": "nonpayable",
      "type": "function"
    },
    {
      "inputs": [],
      "name": "questionApi",
      "outputs": [
        {
          "internalType": "address",
          "name": "",
          "type": "address"
        }
      ],
      "stateMutability": "view",
      "type": "function"
    },
    {
      "inputs": [],
      "name": "renounceOwnership",
      "outputs": [],
      "stateMutability": "nonpayable",
      "type": "function"
    },
    {
      "inputs": [
        {
          "internalType": "enum ACTION",
          "name": "action",
          "type": "uint8"
        },
        {
          "internalType": "uint256",
          "name": "cost",
          "type": "uint256"
        }
      ],
      "name": "setActionCost",
      "outputs": [],
      "stateMutability": "nonpayable",
      "type": "function"
    },
    {
      "inputs": [
        {
          "internalType": "address",
          "name": "_metric",
          "type": "address"
        }
      ],
      "name": "setMetric",
      "outputs": [],
      "stateMutability": "nonpayable",
      "type": "function"
    },
    {
      "inputs": [
        {
          "internalType": "address",
          "name": "_newApi",
          "type": "address"
        }
      ],
      "name": "setQuestionApi",
      "outputs": [],
      "stateMutability": "nonpayable",
      "type": "function"
    },
    {
      "inputs": [
        {
          "internalType": "address",
          "name": "newOwner",
          "type": "address"
        }
      ],
      "name": "transferOwnership",
      "outputs": [],
      "stateMutability": "nonpayable",
      "type": "function"
    }
  ],
  "transactionHash": "0x8b6e6a90f7dbc26a8f38ba456160b2b6a2ea8aa6804a27ad6a32c041937872e4",
  "args": [
    "0x5FbDB2315678afecb367f032d93F642f64180aa3",
    "0xa513E6E4b8f2a923D98304ec87F64353C4D5C853"
  ],
  "numDeployments": 1,
  "solcInputHash": "287f6c3732ce0c40e91a2add091a5090",
  "bytecode": "0x60806040523480156200001157600080fd5b50604051620011d3380380620011d3833981810160405281019062000037919062000432565b620000576200004b620002fc60201b60201c565b6200030460201b60201c565b81600260006101000a81548173ffffffffffffffffffffffffffffffffffffffff021916908373ffffffffffffffffffffffffffffffffffffffff16021790555080600360006101000a81548173ffffffffffffffffffffffffffffffffffffffff021916908373ffffffffffffffffffffffffffffffffffffffff160217905550670de0b6b3a764000060046000806002811115620000fc57620000fb62000479565b5b600281111562000111576200011062000479565b5b815260200190815260200160002081905550670de0b6b3a7640000600460006001600281111562000147576200014662000479565b5b60028111156200015c576200015b62000479565b5b815260200190815260200160002081905550670de0b6b3a76400006004600060028081111562000191576200019062000479565b5b6002811115620001a657620001a562000479565b5b815260200190815260200160002081905550600060056000806002811115620001d457620001d362000479565b5b6002811115620001e957620001e862000479565b5b815260200190815260200160002060006101000a81548160ff021916908360048111156200021c576200021b62000479565b5b0217905550600060056000600160028111156200023e576200023d62000479565b5b600281111562000253576200025262000479565b5b815260200190815260200160002060006101000a81548160ff0219169083600481111562000286576200028562000479565b5b0217905550600260056000600280811115620002a757620002a662000479565b5b6002811115620002bc57620002bb62000479565b5b815260200190815260200160002060006101000a81548160ff02191690836004811115620002ef57620002ee62000479565b5b02179055505050620004a8565b600033905090565b60008060009054906101000a900473ffffffffffffffffffffffffffffffffffffffff169050816000806101000a81548173ffffffffffffffffffffffffffffffffffffffff021916908373ffffffffffffffffffffffffffffffffffffffff1602179055508173ffffffffffffffffffffffffffffffffffffffff168173ffffffffffffffffffffffffffffffffffffffff167f8be0079c531659141344cd1fd0a4f28419497f9722a3daafe3b4186f6b6457e060405160405180910390a35050565b600080fd5b600073ffffffffffffffffffffffffffffffffffffffff82169050919050565b6000620003fa82620003cd565b9050919050565b6200040c81620003ed565b81146200041857600080fd5b50565b6000815190506200042c8162000401565b92915050565b600080604083850312156200044c576200044b620003c8565b5b60006200045c858286016200041b565b92505060206200046f858286016200041b565b9150509250929050565b7f4e487b7100000000000000000000000000000000000000000000000000000000600052602160045260246000fd5b610d1b80620004b86000396000f3fe608060405234801561001057600080fd5b50600436106100a95760003560e01c80636baef497116100715780636baef49714610162578063715018a6146101805780638da5cb5b1461018a578063c0875dfd146101a8578063d9eecddf146101c4578063f2fde38b146101f4576100a9565b8063099ef7d7146100ae578063101a6181146100de5780631956f19c146100fa5780631d67644d1461012a57806347365f5c14610146575b600080fd5b6100c860048036038101906100c3919061092a565b610210565b6040516100d59190610970565b60405180910390f35b6100f860048036038101906100f391906109b7565b610251565b005b610114600480360381019061010f919061092a565b61030d565b6040516101219190610a6e565b60405180910390f35b610144600480360381019061013f9190610ae7565b61032d565b005b610160600480360381019061015b9190610b3a565b6104ce565b005b61016a61058e565b6040516101779190610b76565b60405180910390f35b6101886105b4565b005b61019261063c565b60405161019f9190610b76565b60405180910390f35b6101c260048036038101906101bd9190610b3a565b610665565b005b6101de60048036038101906101d9919061092a565b610725565b6040516101eb9190610970565b60405180910390f35b61020e60048036038101906102099190610b3a565b61073d565b005b600060046000836002811115610229576102286109f7565b5b600281111561023b5761023a6109f7565b5b8152602001908152602001600020549050919050565b610259610834565b73ffffffffffffffffffffffffffffffffffffffff1661027761063c565b73ffffffffffffffffffffffffffffffffffffffff16146102cd576040517f08c379a00000000000000000000000000000000000000000000000000000000081526004016102c490610bee565b60405180910390fd5b80600460008460028111156102e5576102e46109f7565b5b60028111156102f7576102f66109f7565b5b8152602001908152602001600020819055505050565b60056020528060005260406000206000915054906101000a900460ff1681565b600160009054906101000a900473ffffffffffffffffffffffffffffffffffffffff1673ffffffffffffffffffffffffffffffffffffffff1661036e610834565b73ffffffffffffffffffffffffffffffffffffffff16146103bb576040517f92471d5b00000000000000000000000000000000000000000000000000000000815260040160405180910390fd5b600360009054906101000a900473ffffffffffffffffffffffffffffffffffffffff1673ffffffffffffffffffffffffffffffffffffffff1663b2cb2d6f8460046000856002811115610411576104106109f7565b5b6002811115610423576104226109f7565b5b815260200190815260200160002054856005600087600281111561044a576104496109f7565b5b600281111561045c5761045b6109f7565b5b815260200190815260200160002060009054906101000a900460ff166040518563ffffffff1660e01b81526004016104979493929190610c0e565b600060405180830381600087803b1580156104b157600080fd5b505af11580156104c5573d6000803e3d6000fd5b50505050505050565b6104d6610834565b73ffffffffffffffffffffffffffffffffffffffff166104f461063c565b73ffffffffffffffffffffffffffffffffffffffff161461054a576040517f08c379a000000000000000000000000000000000000000000000000000000000815260040161054190610bee565b60405180910390fd5b80600260006101000a81548173ffffffffffffffffffffffffffffffffffffffff021916908373ffffffffffffffffffffffffffffffffffffffff16021790555050565b600160009054906101000a900473ffffffffffffffffffffffffffffffffffffffff1681565b6105bc610834565b73ffffffffffffffffffffffffffffffffffffffff166105da61063c565b73ffffffffffffffffffffffffffffffffffffffff1614610630576040517f08c379a000000000000000000000000000000000000000000000000000000000815260040161062790610bee565b60405180910390fd5b61063a600061083c565b565b60008060009054906101000a900473ffffffffffffffffffffffffffffffffffffffff16905090565b61066d610834565b73ffffffffffffffffffffffffffffffffffffffff1661068b61063c565b73ffffffffffffffffffffffffffffffffffffffff16146106e1576040517f08c379a00000000000000000000000000000000000000000000000000000000081526004016106d890610bee565b60405180910390fd5b80600160006101000a81548173ffffffffffffffffffffffffffffffffffffffff021916908373ffffffffffffffffffffffffffffffffffffffff16021790555050565b60046020528060005260406000206000915090505481565b610745610834565b73ffffffffffffffffffffffffffffffffffffffff1661076361063c565b73ffffffffffffffffffffffffffffffffffffffff16146107b9576040517f08c379a00000000000000000000000000000000000000000000000000000000081526004016107b090610bee565b60405180910390fd5b600073ffffffffffffffffffffffffffffffffffffffff168173ffffffffffffffffffffffffffffffffffffffff1603610828576040517f08c379a000000000000000000000000000000000000000000000000000000000815260040161081f90610cc5565b60405180910390fd5b6108318161083c565b50565b600033905090565b60008060009054906101000a900473ffffffffffffffffffffffffffffffffffffffff169050816000806101000a81548173ffffffffffffffffffffffffffffffffffffffff021916908373ffffffffffffffffffffffffffffffffffffffff1602179055508173ffffffffffffffffffffffffffffffffffffffff168173ffffffffffffffffffffffffffffffffffffffff167f8be0079c531659141344cd1fd0a4f28419497f9722a3daafe3b4186f6b6457e060405160405180910390a35050565b600080fd5b6003811061091257600080fd5b50565b60008135905061092481610905565b92915050565b6000602082840312156109405761093f610900565b5b600061094e84828501610915565b91505092915050565b6000819050919050565b61096a81610957565b82525050565b60006020820190506109856000830184610961565b92915050565b61099481610957565b811461099f57600080fd5b50565b6000813590506109b18161098b565b92915050565b600080604083850312156109ce576109cd610900565b5b60006109dc85828601610915565b92505060206109ed858286016109a2565b9150509250929050565b7f4e487b7100000000000000000000000000000000000000000000000000000000600052602160045260246000fd5b60058110610a3757610a366109f7565b5b50565b6000819050610a4882610a26565b919050565b6000610a5882610a3a565b9050919050565b610a6881610a4d565b82525050565b6000602082019050610a836000830184610a5f565b92915050565b600073ffffffffffffffffffffffffffffffffffffffff82169050919050565b6000610ab482610a89565b9050919050565b610ac481610aa9565b8114610acf57600080fd5b50565b600081359050610ae181610abb565b92915050565b600080600060608486031215610b0057610aff610900565b5b6000610b0e86828701610ad2565b9350506020610b1f868287016109a2565b9250506040610b3086828701610915565b9150509250925092565b600060208284031215610b5057610b4f610900565b5b6000610b5e84828501610ad2565b91505092915050565b610b7081610aa9565b82525050565b6000602082019050610b8b6000830184610b67565b92915050565b600082825260208201905092915050565b7f4f776e61626c653a2063616c6c6572206973206e6f7420746865206f776e6572600082015250565b6000610bd8602083610b91565b9150610be382610ba2565b602082019050919050565b60006020820190508181036000830152610c0781610bcb565b9050919050565b6000608082019050610c236000830187610b67565b610c306020830186610961565b610c3d6040830185610961565b610c4a6060830184610a5f565b95945050505050565b7f4f776e61626c653a206e6577206f776e657220697320746865207a65726f206160008201527f6464726573730000000000000000000000000000000000000000000000000000602082015250565b6000610caf602683610b91565b9150610cba82610c53565b604082019050919050565b60006020820190508181036000830152610cde81610ca2565b905091905056fea264697066735822122089b6b48969c3344a70f69f051cf75e71a3cb09117565eeb35baf69965563eeea64736f6c634300080d0033",
  "devdoc": {
    "kind": "dev",
    "methods": {
      "owner()": {
        "details": "Returns the address of the current owner."
      },
      "renounceOwnership()": {
        "details": "Leaves the contract without owner. It will not be possible to call `onlyOwner` functions anymore. Can only be called by the current owner. NOTE: Renouncing ownership will leave the contract without an owner, thereby removing any functionality that is only available to the owner."
      },
      "setActionCost(uint8,uint256)": {
        "params": {
          "cost": "The new cost of creating a question"
        }
      },
      "setQuestionApi(address)": {
        "params": {
          "_newApi": "The new address of the question API."
        }
      },
      "transferOwnership(address)": {
        "details": "Transfers ownership of the contract to a new account (`newOwner`). Can only be called by the current owner."
      }
    },
    "version": 1
  },
  "userdoc": {
    "kind": "user",
    "methods": {
      "setActionCost(uint8,uint256)": {
        "notice": "Changes the cost of creating a question"
      },
      "setQuestionApi(address)": {
        "notice": "Sets the address of the question API."
      }
    },
    "version": 1
  },
  "storageLayout": {
    "storage": [
      {
        "astId": 7,
        "contract": "src/contracts/Protocol/ActionCostController.sol:ActionCostController",
        "label": "_owner",
        "offset": 0,
        "slot": "0",
        "type": "t_address"
      },
      {
        "astId": 3882,
        "contract": "src/contracts/Protocol/ActionCostController.sol:ActionCostController",
        "label": "questionApi",
        "offset": 0,
        "slot": "1",
        "type": "t_address"
      },
      {
        "astId": 1067,
        "contract": "src/contracts/Protocol/ActionCostController.sol:ActionCostController",
        "label": "metric",
        "offset": 0,
        "slot": "2",
        "type": "t_contract(IERC20)773"
      },
      {
        "astId": 1070,
        "contract": "src/contracts/Protocol/ActionCostController.sol:ActionCostController",
        "label": "vault",
        "offset": 0,
        "slot": "3",
        "type": "t_contract(Vault)3612"
      },
      {
        "astId": 1075,
        "contract": "src/contracts/Protocol/ActionCostController.sol:ActionCostController",
        "label": "actionCost",
        "offset": 0,
        "slot": "4",
        "type": "t_mapping(t_enum(ACTION)1706,t_uint256)"
      },
      {
        "astId": 1081,
        "contract": "src/contracts/Protocol/ActionCostController.sol:ActionCostController",
        "label": "actionStage",
        "offset": 0,
        "slot": "5",
        "type": "t_mapping(t_enum(ACTION)1706,t_enum(STAGE)1729)"
      }
    ],
    "types": {
      "t_address": {
        "encoding": "inplace",
        "label": "address",
        "numberOfBytes": "20"
      },
      "t_contract(IERC20)773": {
        "encoding": "inplace",
        "label": "contract IERC20",
        "numberOfBytes": "20"
      },
      "t_contract(Vault)3612": {
        "encoding": "inplace",
        "label": "contract Vault",
        "numberOfBytes": "20"
      },
      "t_enum(ACTION)1706": {
        "encoding": "inplace",
        "label": "enum ACTION",
        "numberOfBytes": "1"
      },
      "t_enum(STAGE)1729": {
        "encoding": "inplace",
        "label": "enum STAGE",
        "numberOfBytes": "1"
      },
      "t_mapping(t_enum(ACTION)1706,t_enum(STAGE)1729)": {
        "encoding": "mapping",
        "key": "t_enum(ACTION)1706",
        "label": "mapping(enum ACTION => enum STAGE)",
        "numberOfBytes": "32",
        "value": "t_enum(STAGE)1729"
      },
      "t_mapping(t_enum(ACTION)1706,t_uint256)": {
        "encoding": "mapping",
        "key": "t_enum(ACTION)1706",
        "label": "mapping(enum ACTION => uint256)",
        "numberOfBytes": "32",
        "value": "t_uint256"
      },
      "t_uint256": {
        "encoding": "inplace",
        "label": "uint256",
        "numberOfBytes": "32"
      }
    }
  }
}