{
  "address": "0xDc64a140Aa3E981100a9becA4E685f962f0cF6C9",
  "abi": [
    {
      "inputs": [
        {
          "internalType": "address",
          "name": "_metric",
          "type": "address"
        }
      ],
      "stateMutability": "nonpayable",
      "type": "constructor"
    },
    {
      "inputs": [],
      "name": "NotTheApi",
      "type": "error"
    },
    {
      "anonymous": false,
      "inputs": [
        {
          "indexed": true,
          "internalType": "address",
          "name": "previousOwner",
          "type": "address"
        },
        {
          "indexed": true,
          "internalType": "address",
          "name": "newOwner",
          "type": "address"
        }
      ],
      "name": "OwnershipTransferred",
      "type": "event"
    },
    {
      "inputs": [],
      "name": "createCost",
      "outputs": [
        {
          "internalType": "uint256",
          "name": "",
          "type": "uint256"
        }
      ],
      "stateMutability": "view",
      "type": "function"
    },
    {
      "inputs": [
        {
          "internalType": "address",
          "name": "_user",
          "type": "address"
        }
      ],
      "name": "getLockedPerUser",
      "outputs": [
        {
          "internalType": "uint256",
          "name": "",
          "type": "uint256"
        }
      ],
      "stateMutability": "view",
      "type": "function"
    },
    {
      "inputs": [],
      "name": "owner",
      "outputs": [
        {
          "internalType": "address",
          "name": "",
          "type": "address"
        }
      ],
      "stateMutability": "view",
      "type": "function"
    },
    {
      "inputs": [
        {
          "internalType": "address",
          "name": "_user",
          "type": "address"
        }
      ],
      "name": "payForCreateQuestion",
      "outputs": [],
      "stateMutability": "nonpayable",
      "type": "function"
    },
    {
      "inputs": [],
      "name": "questionApi",
      "outputs": [
        {
          "internalType": "address",
          "name": "",
          "type": "address"
        }
      ],
      "stateMutability": "view",
      "type": "function"
    },
    {
      "inputs": [],
      "name": "renounceOwnership",
      "outputs": [],
      "stateMutability": "nonpayable",
      "type": "function"
    },
    {
      "inputs": [
        {
          "internalType": "uint256",
          "name": "_cost",
          "type": "uint256"
        }
      ],
      "name": "setCreateCost",
      "outputs": [],
      "stateMutability": "nonpayable",
      "type": "function"
    },
    {
      "inputs": [
        {
          "internalType": "address",
          "name": "_metric",
          "type": "address"
        }
      ],
      "name": "setMetric",
      "outputs": [],
      "stateMutability": "nonpayable",
      "type": "function"
    },
    {
      "inputs": [
        {
          "internalType": "address",
          "name": "_newApi",
          "type": "address"
        }
      ],
      "name": "setQuestionApi",
      "outputs": [],
      "stateMutability": "nonpayable",
      "type": "function"
    },
    {
      "inputs": [
        {
          "internalType": "address",
          "name": "newOwner",
          "type": "address"
        }
      ],
      "name": "transferOwnership",
      "outputs": [],
      "stateMutability": "nonpayable",
      "type": "function"
    }
  ],
  "transactionHash": "0x4227c52318cb42b47daf260a98179ccd1f8d7d5688e7f0b6282443dd3bd88fb3",
  "args": [
    "0x5FbDB2315678afecb367f032d93F642f64180aa3"
  ],
  "numDeployments": 1,
  "solcInputHash": "ccee38e7ecfebbf64ca3637d709f41ca",
  "bytecode": "0x60806040523480156200001157600080fd5b506040516200133c3803806200133c8339818101604052810190620000379190620001e4565b620000576200004b620000ae60201b60201c565b620000b660201b60201c565b80600260006101000a81548173ffffffffffffffffffffffffffffffffffffffff021916908373ffffffffffffffffffffffffffffffffffffffff160217905550670de0b6b3a76400006003819055505062000216565b600033905090565b60008060009054906101000a900473ffffffffffffffffffffffffffffffffffffffff169050816000806101000a81548173ffffffffffffffffffffffffffffffffffffffff021916908373ffffffffffffffffffffffffffffffffffffffff1602179055508173ffffffffffffffffffffffffffffffffffffffff168173ffffffffffffffffffffffffffffffffffffffff167f8be0079c531659141344cd1fd0a4f28419497f9722a3daafe3b4186f6b6457e060405160405180910390a35050565b600080fd5b600073ffffffffffffffffffffffffffffffffffffffff82169050919050565b6000620001ac826200017f565b9050919050565b620001be816200019f565b8114620001ca57600080fd5b50565b600081519050620001de81620001b3565b92915050565b600060208284031215620001fd57620001fc6200017a565b5b60006200020d84828501620001cd565b91505092915050565b61111680620002266000396000f3fe608060405234801561001057600080fd5b506004361061009e5760003560e01c8063ba0bd64a11610066578063ba0bd64a14610135578063c0875dfd14610153578063c13890e21461016f578063c7bca4091461018b578063f2fde38b146101a75761009e565b806347365f5c146100a35780636baef497146100bf578063715018a6146100dd57806377f72a01146100e75780638da5cb5b14610117575b600080fd5b6100bd60048036038101906100b89190610b34565b6101c3565b005b6100c7610283565b6040516100d49190610b70565b60405180910390f35b6100e56102a9565b005b61010160048036038101906100fc9190610b34565b610331565b60405161010e9190610ba4565b60405180910390f35b61011f61037a565b60405161012c9190610b70565b60405180910390f35b61013d6103a3565b60405161014a9190610ba4565b60405180910390f35b61016d60048036038101906101689190610b34565b6103a9565b005b61018960048036038101906101849190610b34565b610469565b005b6101a560048036038101906101a09190610beb565b610582565b005b6101c160048036038101906101bc9190610b34565b610608565b005b6101cb6106ff565b73ffffffffffffffffffffffffffffffffffffffff166101e961037a565b73ffffffffffffffffffffffffffffffffffffffff161461023f576040517f08c379a000000000000000000000000000000000000000000000000000000000815260040161023690610c75565b60405180910390fd5b80600260006101000a81548173ffffffffffffffffffffffffffffffffffffffff021916908373ffffffffffffffffffffffffffffffffffffffff16021790555050565b600160009054906101000a900473ffffffffffffffffffffffffffffffffffffffff1681565b6102b16106ff565b73ffffffffffffffffffffffffffffffffffffffff166102cf61037a565b73ffffffffffffffffffffffffffffffffffffffff1614610325576040517f08c379a000000000000000000000000000000000000000000000000000000000815260040161031c90610c75565b60405180910390fd5b61032f6000610707565b565b6000600460008373ffffffffffffffffffffffffffffffffffffffff1673ffffffffffffffffffffffffffffffffffffffff168152602001908152602001600020549050919050565b60008060009054906101000a900473ffffffffffffffffffffffffffffffffffffffff16905090565b60035481565b6103b16106ff565b73ffffffffffffffffffffffffffffffffffffffff166103cf61037a565b73ffffffffffffffffffffffffffffffffffffffff1614610425576040517f08c379a000000000000000000000000000000000000000000000000000000000815260040161041c90610c75565b60405180910390fd5b80600160006101000a81548173ffffffffffffffffffffffffffffffffffffffff021916908373ffffffffffffffffffffffffffffffffffffffff16021790555050565b600160009054906101000a900473ffffffffffffffffffffffffffffffffffffffff1673ffffffffffffffffffffffffffffffffffffffff166104aa6106ff565b73ffffffffffffffffffffffffffffffffffffffff16146104f7576040517f92471d5b00000000000000000000000000000000000000000000000000000000815260040160405180910390fd5b600354600460008373ffffffffffffffffffffffffffffffffffffffff1673ffffffffffffffffffffffffffffffffffffffff16815260200190815260200160002060008282546105489190610cc4565b9250508190555061057f600260009054906101000a900473ffffffffffffffffffffffffffffffffffffffff1682306003546107cb565b50565b61058a6106ff565b73ffffffffffffffffffffffffffffffffffffffff166105a861037a565b73ffffffffffffffffffffffffffffffffffffffff16146105fe576040517f08c379a00000000000000000000000000000000000000000000000000000000081526004016105f590610c75565b60405180910390fd5b8060038190555050565b6106106106ff565b73ffffffffffffffffffffffffffffffffffffffff1661062e61037a565b73ffffffffffffffffffffffffffffffffffffffff1614610684576040517f08c379a000000000000000000000000000000000000000000000000000000000815260040161067b90610c75565b60405180910390fd5b600073ffffffffffffffffffffffffffffffffffffffff168173ffffffffffffffffffffffffffffffffffffffff16036106f3576040517f08c379a00000000000000000000000000000000000000000000000000000000081526004016106ea90610d8c565b60405180910390fd5b6106fc81610707565b50565b600033905090565b60008060009054906101000a900473ffffffffffffffffffffffffffffffffffffffff169050816000806101000a81548173ffffffffffffffffffffffffffffffffffffffff021916908373ffffffffffffffffffffffffffffffffffffffff1602179055508173ffffffffffffffffffffffffffffffffffffffff168173ffffffffffffffffffffffffffffffffffffffff167f8be0079c531659141344cd1fd0a4f28419497f9722a3daafe3b4186f6b6457e060405160405180910390a35050565b61084e846323b872dd60e01b8585856040516024016107ec93929190610dac565b604051602081830303815290604052907bffffffffffffffffffffffffffffffffffffffffffffffffffffffff19166020820180517bffffffffffffffffffffffffffffffffffffffffffffffffffffffff8381831617835250505050610854565b50505050565b60006108b6826040518060400160405280602081526020017f5361666545524332303a206c6f772d6c6576656c2063616c6c206661696c65648152508573ffffffffffffffffffffffffffffffffffffffff1661091b9092919063ffffffff16565b905060008151111561091657808060200190518101906108d69190610e1b565b610915576040517f08c379a000000000000000000000000000000000000000000000000000000000815260040161090c90610eba565b60405180910390fd5b5b505050565b606061092a8484600085610933565b90509392505050565b606082471015610978576040517f08c379a000000000000000000000000000000000000000000000000000000000815260040161096f90610f4c565b60405180910390fd5b61098185610a47565b6109c0576040517f08c379a00000000000000000000000000000000000000000000000000000000081526004016109b790610fb8565b60405180910390fd5b6000808673ffffffffffffffffffffffffffffffffffffffff1685876040516109e99190611052565b60006040518083038185875af1925050503d8060008114610a26576040519150601f19603f3d011682016040523d82523d6000602084013e610a2b565b606091505b5091509150610a3b828286610a6a565b92505050949350505050565b6000808273ffffffffffffffffffffffffffffffffffffffff163b119050919050565b60608315610a7a57829050610aca565b600083511115610a8d5782518084602001fd5b816040517f08c379a0000000000000000000000000000000000000000000000000000000008152600401610ac191906110be565b60405180910390fd5b9392505050565b600080fd5b600073ffffffffffffffffffffffffffffffffffffffff82169050919050565b6000610b0182610ad6565b9050919050565b610b1181610af6565b8114610b1c57600080fd5b50565b600081359050610b2e81610b08565b92915050565b600060208284031215610b4a57610b49610ad1565b5b6000610b5884828501610b1f565b91505092915050565b610b6a81610af6565b82525050565b6000602082019050610b856000830184610b61565b92915050565b6000819050919050565b610b9e81610b8b565b82525050565b6000602082019050610bb96000830184610b95565b92915050565b610bc881610b8b565b8114610bd357600080fd5b50565b600081359050610be581610bbf565b92915050565b600060208284031215610c0157610c00610ad1565b5b6000610c0f84828501610bd6565b91505092915050565b600082825260208201905092915050565b7f4f776e61626c653a2063616c6c6572206973206e6f7420746865206f776e6572600082015250565b6000610c5f602083610c18565b9150610c6a82610c29565b602082019050919050565b60006020820190508181036000830152610c8e81610c52565b9050919050565b7f4e487b7100000000000000000000000000000000000000000000000000000000600052601160045260246000fd5b6000610ccf82610b8b565b9150610cda83610b8b565b9250827fffffffffffffffffffffffffffffffffffffffffffffffffffffffffffffffff03821115610d0f57610d0e610c95565b5b828201905092915050565b7f4f776e61626c653a206e6577206f776e657220697320746865207a65726f206160008201527f6464726573730000000000000000000000000000000000000000000000000000602082015250565b6000610d76602683610c18565b9150610d8182610d1a565b604082019050919050565b60006020820190508181036000830152610da581610d69565b9050919050565b6000606082019050610dc16000830186610b61565b610dce6020830185610b61565b610ddb6040830184610b95565b949350505050565b60008115159050919050565b610df881610de3565b8114610e0357600080fd5b50565b600081519050610e1581610def565b92915050565b600060208284031215610e3157610e30610ad1565b5b6000610e3f84828501610e06565b91505092915050565b7f5361666545524332303a204552433230206f7065726174696f6e20646964206e60008201527f6f74207375636365656400000000000000000000000000000000000000000000602082015250565b6000610ea4602a83610c18565b9150610eaf82610e48565b604082019050919050565b60006020820190508181036000830152610ed381610e97565b9050919050565b7f416464726573733a20696e73756666696369656e742062616c616e636520666f60008201527f722063616c6c0000000000000000000000000000000000000000000000000000602082015250565b6000610f36602683610c18565b9150610f4182610eda565b604082019050919050565b60006020820190508181036000830152610f6581610f29565b9050919050565b7f416464726573733a2063616c6c20746f206e6f6e2d636f6e7472616374000000600082015250565b6000610fa2601d83610c18565b9150610fad82610f6c565b602082019050919050565b60006020820190508181036000830152610fd181610f95565b9050919050565b600081519050919050565b600081905092915050565b60005b8381101561100c578082015181840152602081019050610ff1565b8381111561101b576000848401525b50505050565b600061102c82610fd8565b6110368185610fe3565b9350611046818560208601610fee565b80840191505092915050565b600061105e8284611021565b915081905092915050565b600081519050919050565b6000601f19601f8301169050919050565b600061109082611069565b61109a8185610c18565b93506110aa818560208601610fee565b6110b381611074565b840191505092915050565b600060208201905081810360008301526110d88184611085565b90509291505056fea2646970667358221220a26d8775aa70ba0954d64b957dcd48cda7f67c20c18e26fbcaa3a5937e3fd2f164736f6c634300080d0033",
  "devdoc": {
    "kind": "dev",
    "methods": {
      "owner()": {
        "details": "Returns the address of the current owner."
      },
      "payForCreateQuestion(address)": {
        "params": {
          "_user": "The address of the user who wants to pay for creating a question."
        }
      },
      "renounceOwnership()": {
        "details": "Leaves the contract without owner. It will not be possible to call `onlyOwner` functions anymore. Can only be called by the current owner. NOTE: Renouncing ownership will leave the contract without an owner, thereby removing any functionality that is only available to the owner."
      },
      "setCreateCost(uint256)": {
        "params": {
          "_cost": "The new cost of creating a question"
        }
      },
      "setQuestionApi(address)": {
        "params": {
          "_newApi": "The new address of the question API."
        }
      },
      "transferOwnership(address)": {
        "details": "Transfers ownership of the contract to a new account (`newOwner`). Can only be called by the current owner."
      }
    },
    "version": 1
  },
  "userdoc": {
    "kind": "user",
    "methods": {
      "payForCreateQuestion(address)": {
        "notice": "Makes a user pay for creating a question.  We transfer the funds from the user executing the function to  the contract."
      },
      "setCreateCost(uint256)": {
        "notice": "Changes the cost of creating a question"
      },
      "setQuestionApi(address)": {
        "notice": "Sets the address of the question API."
      }
    },
    "version": 1
  },
  "storageLayout": {
    "storage": [
      {
        "astId": 7,
        "contract": "src/contracts/Protocol/ActionCostController.sol:ActionCostController",
        "label": "_owner",
        "offset": 0,
        "slot": "0",
        "type": "t_address"
      },
      {
        "astId": 4977,
        "contract": "src/contracts/Protocol/ActionCostController.sol:ActionCostController",
        "label": "questionApi",
        "offset": 0,
        "slot": "1",
        "type": "t_address"
      },
      {
        "astId": 3733,
        "contract": "src/contracts/Protocol/ActionCostController.sol:ActionCostController",
        "label": "metric",
        "offset": 0,
        "slot": "2",
        "type": "t_contract(IERC20)865"
      },
      {
        "astId": 3735,
        "contract": "src/contracts/Protocol/ActionCostController.sol:ActionCostController",
        "label": "createCost",
        "offset": 0,
        "slot": "3",
        "type": "t_uint256"
      },
      {
        "astId": 3739,
        "contract": "src/contracts/Protocol/ActionCostController.sol:ActionCostController",
        "label": "lockedPerUser",
        "offset": 0,
        "slot": "4",
        "type": "t_mapping(t_address,t_uint256)"
      }
    ],
    "types": {
      "t_address": {
        "encoding": "inplace",
        "label": "address",
        "numberOfBytes": "20"
      },
      "t_contract(IERC20)865": {
        "encoding": "inplace",
        "label": "contract IERC20",
        "numberOfBytes": "20"
      },
      "t_mapping(t_address,t_uint256)": {
        "encoding": "mapping",
        "key": "t_address",
        "label": "mapping(address => uint256)",
        "numberOfBytes": "32",
        "value": "t_uint256"
      },
      "t_uint256": {
        "encoding": "inplace",
        "label": "uint256",
        "numberOfBytes": "32"
      }
    }
  }
}