{
  "address": "0xDc64a140Aa3E981100a9becA4E685f962f0cF6C9",
  "abi": [
    {
      "inputs": [],
      "stateMutability": "nonpayable",
      "type": "constructor"
    },
    {
      "inputs": [],
      "name": "NotTheApi",
      "type": "error"
    },
    {
      "anonymous": false,
      "inputs": [
        {
          "indexed": true,
          "internalType": "address",
          "name": "owner",
          "type": "address"
        },
        {
          "indexed": true,
          "internalType": "address",
          "name": "approved",
          "type": "address"
        },
        {
          "indexed": true,
          "internalType": "uint256",
          "name": "tokenId",
          "type": "uint256"
        }
      ],
      "name": "Approval",
      "type": "event"
    },
    {
      "anonymous": false,
      "inputs": [
        {
          "indexed": true,
          "internalType": "address",
          "name": "owner",
          "type": "address"
        },
        {
          "indexed": true,
          "internalType": "address",
          "name": "operator",
          "type": "address"
        },
        {
          "indexed": false,
          "internalType": "bool",
          "name": "approved",
          "type": "bool"
        }
      ],
      "name": "ApprovalForAll",
      "type": "event"
    },
    {
      "anonymous": false,
      "inputs": [
        {
          "indexed": true,
          "internalType": "address",
          "name": "previousOwner",
          "type": "address"
        },
        {
          "indexed": true,
          "internalType": "address",
          "name": "newOwner",
          "type": "address"
        }
      ],
      "name": "OwnershipTransferred",
      "type": "event"
    },
    {
      "anonymous": false,
      "inputs": [
        {
          "indexed": true,
          "internalType": "address",
          "name": "from",
          "type": "address"
        },
        {
          "indexed": true,
          "internalType": "address",
          "name": "to",
          "type": "address"
        },
        {
          "indexed": true,
          "internalType": "uint256",
          "name": "tokenId",
          "type": "uint256"
        }
      ],
      "name": "Transfer",
      "type": "event"
    },
    {
      "inputs": [
        {
          "internalType": "address",
          "name": "to",
          "type": "address"
        },
        {
          "internalType": "uint256",
          "name": "tokenId",
          "type": "uint256"
        }
      ],
      "name": "approve",
      "outputs": [],
      "stateMutability": "nonpayable",
      "type": "function"
    },
    {
      "inputs": [
        {
          "internalType": "address",
          "name": "",
          "type": "address"
        },
        {
          "internalType": "uint256",
          "name": "",
          "type": "uint256"
        }
      ],
      "name": "authors",
      "outputs": [
        {
          "internalType": "uint256",
          "name": "",
          "type": "uint256"
        }
      ],
      "stateMutability": "view",
      "type": "function"
    },
    {
      "inputs": [
        {
          "internalType": "address",
          "name": "owner",
          "type": "address"
        }
      ],
      "name": "balanceOf",
      "outputs": [
        {
          "internalType": "uint256",
          "name": "",
          "type": "uint256"
        }
      ],
      "stateMutability": "view",
      "type": "function"
    },
    {
      "inputs": [
        {
          "internalType": "uint256",
          "name": "tokenId",
          "type": "uint256"
        }
      ],
      "name": "burn",
      "outputs": [],
      "stateMutability": "nonpayable",
      "type": "function"
    },
    {
      "inputs": [
        {
          "internalType": "uint256",
          "name": "tokenId",
          "type": "uint256"
        }
      ],
      "name": "getApproved",
      "outputs": [
        {
          "internalType": "address",
          "name": "",
          "type": "address"
        }
      ],
      "stateMutability": "view",
      "type": "function"
    },
    {
      "inputs": [
        {
          "internalType": "address",
          "name": "user",
          "type": "address"
        }
      ],
      "name": "getAuthor",
      "outputs": [
        {
          "internalType": "uint256[]",
          "name": "",
          "type": "uint256[]"
        }
      ],
      "stateMutability": "view",
      "type": "function"
    },
    {
      "inputs": [
        {
          "internalType": "address",
          "name": "owner",
          "type": "address"
        },
        {
          "internalType": "address",
          "name": "operator",
          "type": "address"
        }
      ],
      "name": "isApprovedForAll",
      "outputs": [
        {
          "internalType": "bool",
          "name": "",
          "type": "bool"
        }
      ],
      "stateMutability": "view",
      "type": "function"
    },
    {
      "inputs": [],
      "name": "name",
      "outputs": [
        {
          "internalType": "string",
          "name": "",
          "type": "string"
        }
      ],
      "stateMutability": "view",
      "type": "function"
    },
    {
      "inputs": [],
      "name": "owner",
      "outputs": [
        {
          "internalType": "address",
          "name": "",
          "type": "address"
        }
      ],
      "stateMutability": "view",
      "type": "function"
    },
    {
      "inputs": [
        {
          "internalType": "uint256",
          "name": "tokenId",
          "type": "uint256"
        }
      ],
      "name": "ownerOf",
      "outputs": [
        {
          "internalType": "address",
          "name": "",
          "type": "address"
        }
      ],
      "stateMutability": "view",
      "type": "function"
    },
    {
      "inputs": [],
      "name": "questionApi",
      "outputs": [
        {
          "internalType": "address",
          "name": "",
          "type": "address"
        }
      ],
      "stateMutability": "view",
      "type": "function"
    },
    {
      "inputs": [],
      "name": "renounceOwnership",
      "outputs": [],
      "stateMutability": "nonpayable",
      "type": "function"
    },
    {
      "inputs": [
        {
          "internalType": "address",
          "name": "to",
          "type": "address"
        },
        {
          "internalType": "string",
          "name": "uri",
          "type": "string"
        }
      ],
      "name": "safeMint",
      "outputs": [
        {
          "internalType": "uint256",
          "name": "",
          "type": "uint256"
        }
      ],
      "stateMutability": "nonpayable",
      "type": "function"
    },
    {
      "inputs": [
        {
          "internalType": "address",
          "name": "from",
          "type": "address"
        },
        {
          "internalType": "address",
          "name": "to",
          "type": "address"
        },
        {
          "internalType": "uint256",
          "name": "tokenId",
          "type": "uint256"
        }
      ],
      "name": "safeTransferFrom",
      "outputs": [],
      "stateMutability": "nonpayable",
      "type": "function"
    },
    {
      "inputs": [
        {
          "internalType": "address",
          "name": "from",
          "type": "address"
        },
        {
          "internalType": "address",
          "name": "to",
          "type": "address"
        },
        {
          "internalType": "uint256",
          "name": "tokenId",
          "type": "uint256"
        },
        {
          "internalType": "bytes",
          "name": "_data",
          "type": "bytes"
        }
      ],
      "name": "safeTransferFrom",
      "outputs": [],
      "stateMutability": "nonpayable",
      "type": "function"
    },
    {
      "inputs": [
        {
          "internalType": "address",
          "name": "operator",
          "type": "address"
        },
        {
          "internalType": "bool",
          "name": "approved",
          "type": "bool"
        }
      ],
      "name": "setApprovalForAll",
      "outputs": [],
      "stateMutability": "nonpayable",
      "type": "function"
    },
    {
      "inputs": [
        {
          "internalType": "address",
          "name": "_newApi",
          "type": "address"
        }
      ],
      "name": "setQuestionApi",
      "outputs": [],
      "stateMutability": "nonpayable",
      "type": "function"
    },
    {
      "inputs": [
        {
          "internalType": "bytes4",
          "name": "interfaceId",
          "type": "bytes4"
        }
      ],
      "name": "supportsInterface",
      "outputs": [
        {
          "internalType": "bool",
          "name": "",
          "type": "bool"
        }
      ],
      "stateMutability": "view",
      "type": "function"
    },
    {
      "inputs": [],
      "name": "symbol",
      "outputs": [
        {
          "internalType": "string",
          "name": "",
          "type": "string"
        }
      ],
      "stateMutability": "view",
      "type": "function"
    },
    {
      "inputs": [
        {
          "internalType": "uint256",
          "name": "index",
          "type": "uint256"
        }
      ],
      "name": "tokenByIndex",
      "outputs": [
        {
          "internalType": "uint256",
          "name": "",
          "type": "uint256"
        }
      ],
      "stateMutability": "view",
      "type": "function"
    },
    {
      "inputs": [
        {
          "internalType": "address",
          "name": "owner",
          "type": "address"
        },
        {
          "internalType": "uint256",
          "name": "index",
          "type": "uint256"
        }
      ],
      "name": "tokenOfOwnerByIndex",
      "outputs": [
        {
          "internalType": "uint256",
          "name": "",
          "type": "uint256"
        }
      ],
      "stateMutability": "view",
      "type": "function"
    },
    {
      "inputs": [
        {
          "internalType": "uint256",
          "name": "tokenId",
          "type": "uint256"
        }
      ],
      "name": "tokenURI",
      "outputs": [
        {
          "internalType": "string",
          "name": "",
          "type": "string"
        }
      ],
      "stateMutability": "view",
      "type": "function"
    },
    {
      "inputs": [],
      "name": "totalSupply",
      "outputs": [
        {
          "internalType": "uint256",
          "name": "",
          "type": "uint256"
        }
      ],
      "stateMutability": "view",
      "type": "function"
    },
    {
      "inputs": [
        {
          "internalType": "address",
          "name": "from",
          "type": "address"
        },
        {
          "internalType": "address",
          "name": "to",
          "type": "address"
        },
        {
          "internalType": "uint256",
          "name": "tokenId",
          "type": "uint256"
        }
      ],
      "name": "transferFrom",
      "outputs": [],
      "stateMutability": "nonpayable",
      "type": "function"
    },
    {
      "inputs": [
        {
          "internalType": "address",
          "name": "newOwner",
          "type": "address"
        }
      ],
      "name": "transferOwnership",
      "outputs": [],
      "stateMutability": "nonpayable",
      "type": "function"
    }
  ],
  "transactionHash": "0xfb2740006eec87abebea7ebaa3c5508145ca61c1a762a785588e078cbacd7661",
  "args": [],
  "numDeployments": 1,
  "solcInputHash": "ccee38e7ecfebbf64ca3637d709f41ca",
  "bytecode": "0x60806040523480156200001157600080fd5b506040518060400160405280601381526020017f4d65747269637344414f205175657374696f6e000000000000000000000000008152506040518060400160405280600381526020017f4d44510000000000000000000000000000000000000000000000000000000000815250816000908051906020019062000096929190620001d3565b508060019080519060200190620000af929190620001d3565b505050620000d2620000c6620000ef60201b60201c565b620000f760201b60201c565b620000e9600d620001bd60201b620011271760201c565b620002e7565b600033905090565b6000600b60009054906101000a900473ffffffffffffffffffffffffffffffffffffffff16905081600b60006101000a81548173ffffffffffffffffffffffffffffffffffffffff021916908373ffffffffffffffffffffffffffffffffffffffff1602179055508173ffffffffffffffffffffffffffffffffffffffff168173ffffffffffffffffffffffffffffffffffffffff167f8be0079c531659141344cd1fd0a4f28419497f9722a3daafe3b4186f6b6457e060405160405180910390a35050565b6001816000016000828254019250508190555050565b828054620001e190620002b2565b90600052602060002090601f01602090048101928262000205576000855562000251565b82601f106200022057805160ff191683800117855562000251565b8280016001018555821562000251579182015b828111156200025057825182559160200191906001019062000233565b5b50905062000260919062000264565b5090565b5b808211156200027f57600081600090555060010162000265565b5090565b7f4e487b7100000000000000000000000000000000000000000000000000000000600052602260045260246000fd5b60006002820490506001821680620002cb57607f821691505b602082108103620002e157620002e062000283565b5b50919050565b613f0e80620002f76000396000f3fe608060405234801561001057600080fd5b50600436106101735760003560e01c80636baef497116100de578063a22cb46511610097578063c87b56dd11610071578063c87b56dd1461045c578063d204c45e1461048c578063e985e9c5146104bc578063f2fde38b146104ec57610173565b8063a22cb46514610408578063b88d4fde14610424578063c0875dfd1461044057610173565b80636baef4971461034457806370a0823114610362578063715018a614610392578063779746161461039c5780638da5cb5b146103cc57806395d89b41146103ea57610173565b806323b872dd1161013057806323b872dd146102605780632f745c591461027c57806342842e0e146102ac57806342966c68146102c85780634f6ccce7146102e45780636352211e1461031457610173565b806301ffc9a71461017857806306fdde03146101a8578063081812fc146101c6578063095ea7b3146101f65780630ab300931461021257806318160ddd14610242575b600080fd5b610192600480360381019061018d91906128ec565b610508565b60405161019f9190612934565b60405180910390f35b6101b061051a565b6040516101bd91906129e8565b60405180910390f35b6101e060048036038101906101db9190612a40565b6105ac565b6040516101ed9190612aae565b60405180910390f35b610210600480360381019061020b9190612af5565b610631565b005b61022c60048036038101906102279190612b35565b610748565b6040516102399190612c20565b60405180910390f35b61024a6107df565b6040516102579190612c51565b60405180910390f35b61027a60048036038101906102759190612c6c565b6107ec565b005b61029660048036038101906102919190612af5565b61084c565b6040516102a39190612c51565b60405180910390f35b6102c660048036038101906102c19190612c6c565b6108f1565b005b6102e260048036038101906102dd9190612a40565b610911565b005b6102fe60048036038101906102f99190612a40565b61096d565b60405161030b9190612c51565b60405180910390f35b61032e60048036038101906103299190612a40565b6109de565b60405161033b9190612aae565b60405180910390f35b61034c610a8f565b6040516103599190612aae565b60405180910390f35b61037c60048036038101906103779190612b35565b610ab5565b6040516103899190612c51565b60405180910390f35b61039a610b6c565b005b6103b660048036038101906103b19190612af5565b610bf4565b6040516103c39190612c51565b60405180910390f35b6103d4610c25565b6040516103e19190612aae565b60405180910390f35b6103f2610c4f565b6040516103ff91906129e8565b60405180910390f35b610422600480360381019061041d9190612ceb565b610ce1565b005b61043e60048036038101906104399190612e60565b610cf7565b005b61045a60048036038101906104559190612b35565b610d59565b005b61047660048036038101906104719190612a40565b610e19565b60405161048391906129e8565b60405180910390f35b6104a660048036038101906104a19190612f43565b610e2b565b6040516104b39190612c51565b60405180910390f35b6104d660048036038101906104d19190612fa3565b610f9c565b6040516104e39190612934565b60405180910390f35b61050660048036038101906105019190612b35565b611030565b005b60006105138261113d565b9050919050565b60606000805461052990613012565b80601f016020809104026020016040519081016040528092919081815260200182805461055590613012565b80156105a25780601f10610577576101008083540402835291602001916105a2565b820191906000526020600020905b81548152906001019060200180831161058557829003601f168201915b5050505050905090565b60006105b7826111b7565b6105f6576040517f08c379a00000000000000000000000000000000000000000000000000000000081526004016105ed906130b5565b60405180910390fd5b6004600083815260200190815260200160002060009054906101000a900473ffffffffffffffffffffffffffffffffffffffff169050919050565b600061063c826109de565b90508073ffffffffffffffffffffffffffffffffffffffff168373ffffffffffffffffffffffffffffffffffffffff16036106ac576040517f08c379a00000000000000000000000000000000000000000000000000000000081526004016106a390613147565b60405180910390fd5b8073ffffffffffffffffffffffffffffffffffffffff166106cb611223565b73ffffffffffffffffffffffffffffffffffffffff1614806106fa57506106f9816106f4611223565b610f9c565b5b610739576040517f08c379a0000000000000000000000000000000000000000000000000000000008152600401610730906131d9565b60405180910390fd5b610743838361122b565b505050565b6060600e60008373ffffffffffffffffffffffffffffffffffffffff1673ffffffffffffffffffffffffffffffffffffffff1681526020019081526020016000208054806020026020016040519081016040528092919081815260200182805480156107d357602002820191906000526020600020905b8154815260200190600101908083116107bf575b50505050509050919050565b6000600880549050905090565b6107fd6107f7611223565b826112e4565b61083c576040517f08c379a00000000000000000000000000000000000000000000000000000000081526004016108339061326b565b60405180910390fd5b6108478383836113c2565b505050565b600061085783610ab5565b8210610898576040517f08c379a000000000000000000000000000000000000000000000000000000000815260040161088f906132fd565b60405180910390fd5b600660008473ffffffffffffffffffffffffffffffffffffffff1673ffffffffffffffffffffffffffffffffffffffff168152602001908152602001600020600083815260200190815260200160002054905092915050565b61090c83838360405180602001604052806000815250610cf7565b505050565b61092261091c611223565b826112e4565b610961576040517f08c379a00000000000000000000000000000000000000000000000000000000081526004016109589061338f565b60405180910390fd5b61096a81611628565b50565b60006109776107df565b82106109b8576040517f08c379a00000000000000000000000000000000000000000000000000000000081526004016109af90613421565b60405180910390fd5b600882815481106109cc576109cb613441565b5b90600052602060002001549050919050565b6000806002600084815260200190815260200160002060009054906101000a900473ffffffffffffffffffffffffffffffffffffffff169050600073ffffffffffffffffffffffffffffffffffffffff168173ffffffffffffffffffffffffffffffffffffffff1603610a86576040517f08c379a0000000000000000000000000000000000000000000000000000000008152600401610a7d906134e2565b60405180910390fd5b80915050919050565b600c60009054906101000a900473ffffffffffffffffffffffffffffffffffffffff1681565b60008073ffffffffffffffffffffffffffffffffffffffff168273ffffffffffffffffffffffffffffffffffffffff1603610b25576040517f08c379a0000000000000000000000000000000000000000000000000000000008152600401610b1c90613574565b60405180910390fd5b600360008373ffffffffffffffffffffffffffffffffffffffff1673ffffffffffffffffffffffffffffffffffffffff168152602001908152602001600020549050919050565b610b74611223565b73ffffffffffffffffffffffffffffffffffffffff16610b92610c25565b73ffffffffffffffffffffffffffffffffffffffff1614610be8576040517f08c379a0000000000000000000000000000000000000000000000000000000008152600401610bdf906135e0565b60405180910390fd5b610bf26000611634565b565b600e6020528160005260406000208181548110610c1057600080fd5b90600052602060002001600091509150505481565b6000600b60009054906101000a900473ffffffffffffffffffffffffffffffffffffffff16905090565b606060018054610c5e90613012565b80601f0160208091040260200160405190810160405280929190818152602001828054610c8a90613012565b8015610cd75780601f10610cac57610100808354040283529160200191610cd7565b820191906000526020600020905b815481529060010190602001808311610cba57829003601f168201915b5050505050905090565b610cf3610cec611223565b83836116fa565b5050565b610d08610d02611223565b836112e4565b610d47576040517f08c379a0000000000000000000000000000000000000000000000000000000008152600401610d3e9061326b565b60405180910390fd5b610d5384848484611866565b50505050565b610d61611223565b73ffffffffffffffffffffffffffffffffffffffff16610d7f610c25565b73ffffffffffffffffffffffffffffffffffffffff1614610dd5576040517f08c379a0000000000000000000000000000000000000000000000000000000008152600401610dcc906135e0565b60405180910390fd5b80600c60006101000a81548173ffffffffffffffffffffffffffffffffffffffff021916908373ffffffffffffffffffffffffffffffffffffffff16021790555050565b6060610e24826118c2565b9050919050565b6000600c60009054906101000a900473ffffffffffffffffffffffffffffffffffffffff1673ffffffffffffffffffffffffffffffffffffffff16610e6e611223565b73ffffffffffffffffffffffffffffffffffffffff1614610ebb576040517f92471d5b00000000000000000000000000000000000000000000000000000000815260040160405180910390fd5b6000610ec7600d611a13565b9050610ed3600d611127565b610edd8582611a21565b610f2b8185858080601f016020809104026020016040519081016040528093929190818152602001838380828437600081840152601f19601f82011690508083019250505050505050611a3f565b600e60008673ffffffffffffffffffffffffffffffffffffffff1673ffffffffffffffffffffffffffffffffffffffff168152602001908152602001600020819080600181540180825580915050600190039060005260206000200160009091909190915055809150509392505050565b6000600560008473ffffffffffffffffffffffffffffffffffffffff1673ffffffffffffffffffffffffffffffffffffffff16815260200190815260200160002060008373ffffffffffffffffffffffffffffffffffffffff1673ffffffffffffffffffffffffffffffffffffffff16815260200190815260200160002060009054906101000a900460ff16905092915050565b611038611223565b73ffffffffffffffffffffffffffffffffffffffff16611056610c25565b73ffffffffffffffffffffffffffffffffffffffff16146110ac576040517f08c379a00000000000000000000000000000000000000000000000000000000081526004016110a3906135e0565b60405180910390fd5b600073ffffffffffffffffffffffffffffffffffffffff168173ffffffffffffffffffffffffffffffffffffffff160361111b576040517f08c379a000000000000000000000000000000000000000000000000000000000815260040161111290613672565b60405180910390fd5b61112481611634565b50565b6001816000016000828254019250508190555050565b60007f780e9d63000000000000000000000000000000000000000000000000000000007bffffffffffffffffffffffffffffffffffffffffffffffffffffffff1916827bffffffffffffffffffffffffffffffffffffffffffffffffffffffff191614806111b057506111af82611ab3565b5b9050919050565b60008073ffffffffffffffffffffffffffffffffffffffff166002600084815260200190815260200160002060009054906101000a900473ffffffffffffffffffffffffffffffffffffffff1673ffffffffffffffffffffffffffffffffffffffff1614159050919050565b600033905090565b816004600083815260200190815260200160002060006101000a81548173ffffffffffffffffffffffffffffffffffffffff021916908373ffffffffffffffffffffffffffffffffffffffff160217905550808273ffffffffffffffffffffffffffffffffffffffff1661129e836109de565b73ffffffffffffffffffffffffffffffffffffffff167f8c5be1e5ebec7d5bd14f71427d1e84f3dd0314c0f7b2291e5b200ac8c7c3b92560405160405180910390a45050565b60006112ef826111b7565b61132e576040517f08c379a000000000000000000000000000000000000000000000000000000000815260040161132590613704565b60405180910390fd5b6000611339836109de565b90508073ffffffffffffffffffffffffffffffffffffffff168473ffffffffffffffffffffffffffffffffffffffff1614806113a857508373ffffffffffffffffffffffffffffffffffffffff16611390846105ac565b73ffffffffffffffffffffffffffffffffffffffff16145b806113b957506113b88185610f9c565b5b91505092915050565b8273ffffffffffffffffffffffffffffffffffffffff166113e2826109de565b73ffffffffffffffffffffffffffffffffffffffff1614611438576040517f08c379a000000000000000000000000000000000000000000000000000000000815260040161142f90613796565b60405180910390fd5b600073ffffffffffffffffffffffffffffffffffffffff168273ffffffffffffffffffffffffffffffffffffffff16036114a7576040517f08c379a000000000000000000000000000000000000000000000000000000000815260040161149e90613828565b60405180910390fd5b6114b2838383611b95565b6114bd60008261122b565b6001600360008573ffffffffffffffffffffffffffffffffffffffff1673ffffffffffffffffffffffffffffffffffffffff168152602001908152602001600020600082825461150d9190613877565b925050819055506001600360008473ffffffffffffffffffffffffffffffffffffffff1673ffffffffffffffffffffffffffffffffffffffff168152602001908152602001600020600082825461156491906138ab565b92505081905550816002600083815260200190815260200160002060006101000a81548173ffffffffffffffffffffffffffffffffffffffff021916908373ffffffffffffffffffffffffffffffffffffffff160217905550808273ffffffffffffffffffffffffffffffffffffffff168473ffffffffffffffffffffffffffffffffffffffff167fddf252ad1be2c89b69c2b068fc378daa952ba7f163c4a11628f55a4df523b3ef60405160405180910390a4611623838383611ba5565b505050565b61163181611baa565b50565b6000600b60009054906101000a900473ffffffffffffffffffffffffffffffffffffffff16905081600b60006101000a81548173ffffffffffffffffffffffffffffffffffffffff021916908373ffffffffffffffffffffffffffffffffffffffff1602179055508173ffffffffffffffffffffffffffffffffffffffff168173ffffffffffffffffffffffffffffffffffffffff167f8be0079c531659141344cd1fd0a4f28419497f9722a3daafe3b4186f6b6457e060405160405180910390a35050565b8173ffffffffffffffffffffffffffffffffffffffff168373ffffffffffffffffffffffffffffffffffffffff1603611768576040517f08c379a000000000000000000000000000000000000000000000000000000000815260040161175f9061394d565b60405180910390fd5b80600560008573ffffffffffffffffffffffffffffffffffffffff1673ffffffffffffffffffffffffffffffffffffffff16815260200190815260200160002060008473ffffffffffffffffffffffffffffffffffffffff1673ffffffffffffffffffffffffffffffffffffffff16815260200190815260200160002060006101000a81548160ff0219169083151502179055508173ffffffffffffffffffffffffffffffffffffffff168373ffffffffffffffffffffffffffffffffffffffff167f17307eab39ab6107e8899845ad3d59bd9653f200f220920489ca2b5937696c31836040516118599190612934565b60405180910390a3505050565b6118718484846113c2565b61187d84848484611bfd565b6118bc576040517f08c379a00000000000000000000000000000000000000000000000000000000081526004016118b3906139df565b60405180910390fd5b50505050565b60606118cd826111b7565b61190c576040517f08c379a000000000000000000000000000000000000000000000000000000000815260040161190390613a71565b60405180910390fd5b6000600a6000848152602001908152602001600020805461192c90613012565b80601f016020809104026020016040519081016040528092919081815260200182805461195890613012565b80156119a55780601f1061197a576101008083540402835291602001916119a5565b820191906000526020600020905b81548152906001019060200180831161198857829003601f168201915b5050505050905060006119b6611d84565b905060008151036119cb578192505050611a0e565b600082511115611a005780826040516020016119e8929190613acd565b60405160208183030381529060405292505050611a0e565b611a0984611d9b565b925050505b919050565b600081600001549050919050565b611a3b828260405180602001604052806000815250611e42565b5050565b611a48826111b7565b611a87576040517f08c379a0000000000000000000000000000000000000000000000000000000008152600401611a7e90613b63565b60405180910390fd5b80600a60008481526020019081526020016000209080519060200190611aae92919061279d565b505050565b60007f80ac58cd000000000000000000000000000000000000000000000000000000007bffffffffffffffffffffffffffffffffffffffffffffffffffffffff1916827bffffffffffffffffffffffffffffffffffffffffffffffffffffffff19161480611b7e57507f5b5e139f000000000000000000000000000000000000000000000000000000007bffffffffffffffffffffffffffffffffffffffffffffffffffffffff1916827bffffffffffffffffffffffffffffffffffffffffffffffffffffffff1916145b80611b8e5750611b8d82611e9d565b5b9050919050565b611ba0838383611f07565b505050565b505050565b611bb381612019565b6000600a60008381526020019081526020016000208054611bd390613012565b905014611bfa57600a60008281526020019081526020016000206000611bf99190612823565b5b50565b6000611c1e8473ffffffffffffffffffffffffffffffffffffffff16612136565b15611d77578373ffffffffffffffffffffffffffffffffffffffff1663150b7a02611c47611223565b8786866040518563ffffffff1660e01b8152600401611c699493929190613bd8565b6020604051808303816000875af1925050508015611ca557506040513d601f19601f82011682018060405250810190611ca29190613c39565b60015b611d27573d8060008114611cd5576040519150601f19603f3d011682016040523d82523d6000602084013e611cda565b606091505b506000815103611d1f576040517f08c379a0000000000000000000000000000000000000000000000000000000008152600401611d16906139df565b60405180910390fd5b805181602001fd5b63150b7a0260e01b7bffffffffffffffffffffffffffffffffffffffffffffffffffffffff1916817bffffffffffffffffffffffffffffffffffffffffffffffffffffffff191614915050611d7c565b600190505b949350505050565b606060405180602001604052806000815250905090565b6060611da6826111b7565b611de5576040517f08c379a0000000000000000000000000000000000000000000000000000000008152600401611ddc90613cd8565b60405180910390fd5b6000611def611d84565b90506000815111611e0f5760405180602001604052806000815250611e3a565b80611e1984612159565b604051602001611e2a929190613acd565b6040516020818303038152906040525b915050919050565b611e4c83836122b9565b611e596000848484611bfd565b611e98576040517f08c379a0000000000000000000000000000000000000000000000000000000008152600401611e8f906139df565b60405180910390fd5b505050565b60007f01ffc9a7000000000000000000000000000000000000000000000000000000007bffffffffffffffffffffffffffffffffffffffffffffffffffffffff1916827bffffffffffffffffffffffffffffffffffffffffffffffffffffffff1916149050919050565b611f12838383612492565b600073ffffffffffffffffffffffffffffffffffffffff168373ffffffffffffffffffffffffffffffffffffffff1603611f5457611f4f81612497565b611f93565b8173ffffffffffffffffffffffffffffffffffffffff168373ffffffffffffffffffffffffffffffffffffffff1614611f9257611f9183826124e0565b5b5b600073ffffffffffffffffffffffffffffffffffffffff168273ffffffffffffffffffffffffffffffffffffffff1603611fd557611fd08161264d565b612014565b8273ffffffffffffffffffffffffffffffffffffffff168273ffffffffffffffffffffffffffffffffffffffff161461201357612012828261271e565b5b5b505050565b6000612024826109de565b905061203281600084611b95565b61203d60008361122b565b6001600360008373ffffffffffffffffffffffffffffffffffffffff1673ffffffffffffffffffffffffffffffffffffffff168152602001908152602001600020600082825461208d9190613877565b925050819055506002600083815260200190815260200160002060006101000a81549073ffffffffffffffffffffffffffffffffffffffff021916905581600073ffffffffffffffffffffffffffffffffffffffff168273ffffffffffffffffffffffffffffffffffffffff167fddf252ad1be2c89b69c2b068fc378daa952ba7f163c4a11628f55a4df523b3ef60405160405180910390a461213281600084611ba5565b5050565b6000808273ffffffffffffffffffffffffffffffffffffffff163b119050919050565b6060600082036121a0576040518060400160405280600181526020017f300000000000000000000000000000000000000000000000000000000000000081525090506122b4565b600082905060005b600082146121d25780806121bb90613cf8565b915050600a826121cb9190613d6f565b91506121a8565b60008167ffffffffffffffff8111156121ee576121ed612d35565b5b6040519080825280601f01601f1916602001820160405280156122205781602001600182028036833780820191505090505b5090505b600085146122ad576001826122399190613877565b9150600a856122489190613da0565b603061225491906138ab565b60f81b81838151811061226a57612269613441565b5b60200101907effffffffffffffffffffffffffffffffffffffffffffffffffffffffffffff1916908160001a905350600a856122a69190613d6f565b9450612224565b8093505050505b919050565b600073ffffffffffffffffffffffffffffffffffffffff168273ffffffffffffffffffffffffffffffffffffffff1603612328576040517f08c379a000000000000000000000000000000000000000000000000000000000815260040161231f90613e1d565b60405180910390fd5b612331816111b7565b15612371576040517f08c379a000000000000000000000000000000000000000000000000000000000815260040161236890613e89565b60405180910390fd5b61237d60008383611b95565b6001600360008473ffffffffffffffffffffffffffffffffffffffff1673ffffffffffffffffffffffffffffffffffffffff16815260200190815260200160002060008282546123cd91906138ab565b92505081905550816002600083815260200190815260200160002060006101000a81548173ffffffffffffffffffffffffffffffffffffffff021916908373ffffffffffffffffffffffffffffffffffffffff160217905550808273ffffffffffffffffffffffffffffffffffffffff16600073ffffffffffffffffffffffffffffffffffffffff167fddf252ad1be2c89b69c2b068fc378daa952ba7f163c4a11628f55a4df523b3ef60405160405180910390a461248e60008383611ba5565b5050565b505050565b6008805490506009600083815260200190815260200160002081905550600881908060018154018082558091505060019003906000526020600020016000909190919091505550565b600060016124ed84610ab5565b6124f79190613877565b90506000600760008481526020019081526020016000205490508181146125dc576000600660008673ffffffffffffffffffffffffffffffffffffffff1673ffffffffffffffffffffffffffffffffffffffff168152602001908152602001600020600084815260200190815260200160002054905080600660008773ffffffffffffffffffffffffffffffffffffffff1673ffffffffffffffffffffffffffffffffffffffff168152602001908152602001600020600084815260200190815260200160002081905550816007600083815260200190815260200160002081905550505b6007600084815260200190815260200160002060009055600660008573ffffffffffffffffffffffffffffffffffffffff1673ffffffffffffffffffffffffffffffffffffffff16815260200190815260200160002060008381526020019081526020016000206000905550505050565b600060016008805490506126619190613877565b905060006009600084815260200190815260200160002054905060006008838154811061269157612690613441565b5b9060005260206000200154905080600883815481106126b3576126b2613441565b5b90600052602060002001819055508160096000838152602001908152602001600020819055506009600085815260200190815260200160002060009055600880548061270257612701613ea9565b5b6001900381819060005260206000200160009055905550505050565b600061272983610ab5565b905081600660008573ffffffffffffffffffffffffffffffffffffffff1673ffffffffffffffffffffffffffffffffffffffff168152602001908152602001600020600083815260200190815260200160002081905550806007600084815260200190815260200160002081905550505050565b8280546127a990613012565b90600052602060002090601f0160209004810192826127cb5760008555612812565b82601f106127e457805160ff1916838001178555612812565b82800160010185558215612812579182015b828111156128115782518255916020019190600101906127f6565b5b50905061281f9190612863565b5090565b50805461282f90613012565b6000825580601f106128415750612860565b601f01602090049060005260206000209081019061285f9190612863565b5b50565b5b8082111561287c576000816000905550600101612864565b5090565b6000604051905090565b600080fd5b600080fd5b60007fffffffff0000000000000000000000000000000000000000000000000000000082169050919050565b6128c981612894565b81146128d457600080fd5b50565b6000813590506128e6816128c0565b92915050565b6000602082840312156129025761290161288a565b5b6000612910848285016128d7565b91505092915050565b60008115159050919050565b61292e81612919565b82525050565b60006020820190506129496000830184612925565b92915050565b600081519050919050565b600082825260208201905092915050565b60005b8381101561298957808201518184015260208101905061296e565b83811115612998576000848401525b50505050565b6000601f19601f8301169050919050565b60006129ba8261294f565b6129c4818561295a565b93506129d481856020860161296b565b6129dd8161299e565b840191505092915050565b60006020820190508181036000830152612a0281846129af565b905092915050565b6000819050919050565b612a1d81612a0a565b8114612a2857600080fd5b50565b600081359050612a3a81612a14565b92915050565b600060208284031215612a5657612a5561288a565b5b6000612a6484828501612a2b565b91505092915050565b600073ffffffffffffffffffffffffffffffffffffffff82169050919050565b6000612a9882612a6d565b9050919050565b612aa881612a8d565b82525050565b6000602082019050612ac36000830184612a9f565b92915050565b612ad281612a8d565b8114612add57600080fd5b50565b600081359050612aef81612ac9565b92915050565b60008060408385031215612b0c57612b0b61288a565b5b6000612b1a85828601612ae0565b9250506020612b2b85828601612a2b565b9150509250929050565b600060208284031215612b4b57612b4a61288a565b5b6000612b5984828501612ae0565b91505092915050565b600081519050919050565b600082825260208201905092915050565b6000819050602082019050919050565b612b9781612a0a565b82525050565b6000612ba98383612b8e565b60208301905092915050565b6000602082019050919050565b6000612bcd82612b62565b612bd78185612b6d565b9350612be283612b7e565b8060005b83811015612c13578151612bfa8882612b9d565b9750612c0583612bb5565b925050600181019050612be6565b5085935050505092915050565b60006020820190508181036000830152612c3a8184612bc2565b905092915050565b612c4b81612a0a565b82525050565b6000602082019050612c666000830184612c42565b92915050565b600080600060608486031215612c8557612c8461288a565b5b6000612c9386828701612ae0565b9350506020612ca486828701612ae0565b9250506040612cb586828701612a2b565b9150509250925092565b612cc881612919565b8114612cd357600080fd5b50565b600081359050612ce581612cbf565b92915050565b60008060408385031215612d0257612d0161288a565b5b6000612d1085828601612ae0565b9250506020612d2185828601612cd6565b9150509250929050565b600080fd5b600080fd5b7f4e487b7100000000000000000000000000000000000000000000000000000000600052604160045260246000fd5b612d6d8261299e565b810181811067ffffffffffffffff82111715612d8c57612d8b612d35565b5b80604052505050565b6000612d9f612880565b9050612dab8282612d64565b919050565b600067ffffffffffffffff821115612dcb57612dca612d35565b5b612dd48261299e565b9050602081019050919050565b82818337600083830152505050565b6000612e03612dfe84612db0565b612d95565b905082815260208101848484011115612e1f57612e1e612d30565b5b612e2a848285612de1565b509392505050565b600082601f830112612e4757612e46612d2b565b5b8135612e57848260208601612df0565b91505092915050565b60008060008060808587031215612e7a57612e7961288a565b5b6000612e8887828801612ae0565b9450506020612e9987828801612ae0565b9350506040612eaa87828801612a2b565b925050606085013567ffffffffffffffff811115612ecb57612eca61288f565b5b612ed787828801612e32565b91505092959194509250565b600080fd5b600080fd5b60008083601f840112612f0357612f02612d2b565b5b8235905067ffffffffffffffff811115612f2057612f1f612ee3565b5b602083019150836001820283011115612f3c57612f3b612ee8565b5b9250929050565b600080600060408486031215612f5c57612f5b61288a565b5b6000612f6a86828701612ae0565b935050602084013567ffffffffffffffff811115612f8b57612f8a61288f565b5b612f9786828701612eed565b92509250509250925092565b60008060408385031215612fba57612fb961288a565b5b6000612fc885828601612ae0565b9250506020612fd985828601612ae0565b9150509250929050565b7f4e487b7100000000000000000000000000000000000000000000000000000000600052602260045260246000fd5b6000600282049050600182168061302a57607f821691505b60208210810361303d5761303c612fe3565b5b50919050565b7f4552433732313a20617070726f76656420717565727920666f72206e6f6e657860008201527f697374656e7420746f6b656e0000000000000000000000000000000000000000602082015250565b600061309f602c8361295a565b91506130aa82613043565b604082019050919050565b600060208201905081810360008301526130ce81613092565b9050919050565b7f4552433732313a20617070726f76616c20746f2063757272656e74206f776e6560008201527f7200000000000000000000000000000000000000000000000000000000000000602082015250565b600061313160218361295a565b915061313c826130d5565b604082019050919050565b6000602082019050818103600083015261316081613124565b9050919050565b7f4552433732313a20617070726f76652063616c6c6572206973206e6f74206f7760008201527f6e6572206e6f7220617070726f76656420666f7220616c6c0000000000000000602082015250565b60006131c360388361295a565b91506131ce82613167565b604082019050919050565b600060208201905081810360008301526131f2816131b6565b9050919050565b7f4552433732313a207472616e736665722063616c6c6572206973206e6f74206f60008201527f776e6572206e6f7220617070726f766564000000000000000000000000000000602082015250565b600061325560318361295a565b9150613260826131f9565b604082019050919050565b6000602082019050818103600083015261328481613248565b9050919050565b7f455243373231456e756d657261626c653a206f776e657220696e646578206f7560008201527f74206f6620626f756e6473000000000000000000000000000000000000000000602082015250565b60006132e7602b8361295a565b91506132f28261328b565b604082019050919050565b60006020820190508181036000830152613316816132da565b9050919050565b7f4552433732314275726e61626c653a2063616c6c6572206973206e6f74206f7760008201527f6e6572206e6f7220617070726f76656400000000000000000000000000000000602082015250565b600061337960308361295a565b91506133848261331d565b604082019050919050565b600060208201905081810360008301526133a88161336c565b9050919050565b7f455243373231456e756d657261626c653a20676c6f62616c20696e646578206f60008201527f7574206f6620626f756e64730000000000000000000000000000000000000000602082015250565b600061340b602c8361295a565b9150613416826133af565b604082019050919050565b6000602082019050818103600083015261343a816133fe565b9050919050565b7f4e487b7100000000000000000000000000000000000000000000000000000000600052603260045260246000fd5b7f4552433732313a206f776e657220717565727920666f72206e6f6e657869737460008201527f656e7420746f6b656e0000000000000000000000000000000000000000000000602082015250565b60006134cc60298361295a565b91506134d782613470565b604082019050919050565b600060208201905081810360008301526134fb816134bf565b9050919050565b7f4552433732313a2062616c616e636520717565727920666f7220746865207a6560008201527f726f206164647265737300000000000000000000000000000000000000000000602082015250565b600061355e602a8361295a565b915061356982613502565b604082019050919050565b6000602082019050818103600083015261358d81613551565b9050919050565b7f4f776e61626c653a2063616c6c6572206973206e6f7420746865206f776e6572600082015250565b60006135ca60208361295a565b91506135d582613594565b602082019050919050565b600060208201905081810360008301526135f9816135bd565b9050919050565b7f4f776e61626c653a206e6577206f776e657220697320746865207a65726f206160008201527f6464726573730000000000000000000000000000000000000000000000000000602082015250565b600061365c60268361295a565b915061366782613600565b604082019050919050565b6000602082019050818103600083015261368b8161364f565b9050919050565b7f4552433732313a206f70657261746f7220717565727920666f72206e6f6e657860008201527f697374656e7420746f6b656e0000000000000000000000000000000000000000602082015250565b60006136ee602c8361295a565b91506136f982613692565b604082019050919050565b6000602082019050818103600083015261371d816136e1565b9050919050565b7f4552433732313a207472616e736665722066726f6d20696e636f72726563742060008201527f6f776e6572000000000000000000000000000000000000000000000000000000602082015250565b600061378060258361295a565b915061378b82613724565b604082019050919050565b600060208201905081810360008301526137af81613773565b9050919050565b7f4552433732313a207472616e7366657220746f20746865207a65726f2061646460008201527f7265737300000000000000000000000000000000000000000000000000000000602082015250565b600061381260248361295a565b915061381d826137b6565b604082019050919050565b6000602082019050818103600083015261384181613805565b9050919050565b7f4e487b7100000000000000000000000000000000000000000000000000000000600052601160045260246000fd5b600061388282612a0a565b915061388d83612a0a565b9250828210156138a05761389f613848565b5b828203905092915050565b60006138b682612a0a565b91506138c183612a0a565b9250827fffffffffffffffffffffffffffffffffffffffffffffffffffffffffffffffff038211156138f6576138f5613848565b5b828201905092915050565b7f4552433732313a20617070726f766520746f2063616c6c657200000000000000600082015250565b600061393760198361295a565b915061394282613901565b602082019050919050565b600060208201905081810360008301526139668161392a565b9050919050565b7f4552433732313a207472616e7366657220746f206e6f6e20455243373231526560008201527f63656976657220696d706c656d656e7465720000000000000000000000000000602082015250565b60006139c960328361295a565b91506139d48261396d565b604082019050919050565b600060208201905081810360008301526139f8816139bc565b9050919050565b7f45524337323155524953746f726167653a2055524920717565727920666f722060008201527f6e6f6e6578697374656e7420746f6b656e000000000000000000000000000000602082015250565b6000613a5b60318361295a565b9150613a66826139ff565b604082019050919050565b60006020820190508181036000830152613a8a81613a4e565b9050919050565b600081905092915050565b6000613aa78261294f565b613ab18185613a91565b9350613ac181856020860161296b565b80840191505092915050565b6000613ad98285613a9c565b9150613ae58284613a9c565b91508190509392505050565b7f45524337323155524953746f726167653a2055524920736574206f66206e6f6e60008201527f6578697374656e7420746f6b656e000000000000000000000000000000000000602082015250565b6000613b4d602e8361295a565b9150613b5882613af1565b604082019050919050565b60006020820190508181036000830152613b7c81613b40565b9050919050565b600081519050919050565b600082825260208201905092915050565b6000613baa82613b83565b613bb48185613b8e565b9350613bc481856020860161296b565b613bcd8161299e565b840191505092915050565b6000608082019050613bed6000830187612a9f565b613bfa6020830186612a9f565b613c076040830185612c42565b8181036060830152613c198184613b9f565b905095945050505050565b600081519050613c33816128c0565b92915050565b600060208284031215613c4f57613c4e61288a565b5b6000613c5d84828501613c24565b91505092915050565b7f4552433732314d657461646174613a2055524920717565727920666f72206e6f60008201527f6e6578697374656e7420746f6b656e0000000000000000000000000000000000602082015250565b6000613cc2602f8361295a565b9150613ccd82613c66565b604082019050919050565b60006020820190508181036000830152613cf181613cb5565b9050919050565b6000613d0382612a0a565b91507fffffffffffffffffffffffffffffffffffffffffffffffffffffffffffffffff8203613d3557613d34613848565b5b600182019050919050565b7f4e487b7100000000000000000000000000000000000000000000000000000000600052601260045260246000fd5b6000613d7a82612a0a565b9150613d8583612a0a565b925082613d9557613d94613d40565b5b828204905092915050565b6000613dab82612a0a565b9150613db683612a0a565b925082613dc657613dc5613d40565b5b828206905092915050565b7f4552433732313a206d696e7420746f20746865207a65726f2061646472657373600082015250565b6000613e0760208361295a565b9150613e1282613dd1565b602082019050919050565b60006020820190508181036000830152613e3681613dfa565b9050919050565b7f4552433732313a20746f6b656e20616c7265616479206d696e74656400000000600082015250565b6000613e73601c8361295a565b9150613e7e82613e3d565b602082019050919050565b60006020820190508181036000830152613ea281613e66565b9050919050565b7f4e487b7100000000000000000000000000000000000000000000000000000000600052603160045260246000fdfea2646970667358221220123bb73a7e6cc2e8dd143e244b5b1e16284edecfa1040e78f191994033e96e8e64736f6c634300080d0033",
  "devdoc": {
    "custom:security-contact": "contracts@metricsdao.xyz",
    "kind": "dev",
    "methods": {
      "approve(address,uint256)": {
        "details": "See {IERC721-approve}."
      },
      "balanceOf(address)": {
        "details": "See {IERC721-balanceOf}."
      },
      "burn(uint256)": {
        "details": "Burns `tokenId`. See {ERC721-_burn}. Requirements: - The caller must own `tokenId` or be an approved operator."
      },
      "getApproved(uint256)": {
        "details": "See {IERC721-getApproved}."
      },
      "isApprovedForAll(address,address)": {
        "details": "See {IERC721-isApprovedForAll}."
      },
      "name()": {
        "details": "See {IERC721Metadata-name}."
      },
      "owner()": {
        "details": "Returns the address of the current owner."
      },
      "ownerOf(uint256)": {
        "details": "See {IERC721-ownerOf}."
      },
      "renounceOwnership()": {
        "details": "Leaves the contract without owner. It will not be possible to call `onlyOwner` functions anymore. Can only be called by the current owner. NOTE: Renouncing ownership will leave the contract without an owner, thereby removing any functionality that is only available to the owner."
      },
      "safeTransferFrom(address,address,uint256)": {
        "details": "See {IERC721-safeTransferFrom}."
      },
      "safeTransferFrom(address,address,uint256,bytes)": {
        "details": "See {IERC721-safeTransferFrom}."
      },
      "setApprovalForAll(address,bool)": {
        "details": "See {IERC721-setApprovalForAll}."
      },
      "setQuestionApi(address)": {
        "params": {
          "_newApi": "The new address of the question API."
        }
      },
      "symbol()": {
        "details": "See {IERC721Metadata-symbol}."
      },
      "tokenByIndex(uint256)": {
        "details": "See {IERC721Enumerable-tokenByIndex}."
      },
      "tokenOfOwnerByIndex(address,uint256)": {
        "details": "See {IERC721Enumerable-tokenOfOwnerByIndex}."
      },
      "totalSupply()": {
        "details": "See {IERC721Enumerable-totalSupply}."
      },
      "transferFrom(address,address,uint256)": {
        "details": "See {IERC721-transferFrom}."
      },
      "transferOwnership(address)": {
        "details": "Transfers ownership of the contract to a new account (`newOwner`). Can only be called by the current owner."
      }
    },
    "version": 1
  },
  "userdoc": {
    "kind": "user",
    "methods": {
      "setQuestionApi(address)": {
        "notice": "Sets the address of the question API."
      }
    },
    "version": 1
  },
  "storageLayout": {
    "storage": [
      {
        "astId": 1177,
        "contract": "src/contracts/Protocol/BountyQuestion.sol:BountyQuestion",
        "label": "_name",
        "offset": 0,
        "slot": "0",
        "type": "t_string_storage"
      },
      {
        "astId": 1179,
        "contract": "src/contracts/Protocol/BountyQuestion.sol:BountyQuestion",
        "label": "_symbol",
        "offset": 0,
        "slot": "1",
        "type": "t_string_storage"
      },
      {
        "astId": 1183,
        "contract": "src/contracts/Protocol/BountyQuestion.sol:BountyQuestion",
        "label": "_owners",
        "offset": 0,
        "slot": "2",
        "type": "t_mapping(t_uint256,t_address)"
      },
      {
        "astId": 1187,
        "contract": "src/contracts/Protocol/BountyQuestion.sol:BountyQuestion",
        "label": "_balances",
        "offset": 0,
        "slot": "3",
        "type": "t_mapping(t_address,t_uint256)"
      },
      {
        "astId": 1191,
        "contract": "src/contracts/Protocol/BountyQuestion.sol:BountyQuestion",
        "label": "_tokenApprovals",
        "offset": 0,
        "slot": "4",
        "type": "t_mapping(t_uint256,t_address)"
      },
      {
        "astId": 1197,
        "contract": "src/contracts/Protocol/BountyQuestion.sol:BountyQuestion",
        "label": "_operatorApprovals",
        "offset": 0,
        "slot": "5",
        "type": "t_mapping(t_address,t_mapping(t_address,t_bool))"
      },
      {
        "astId": 2196,
        "contract": "src/contracts/Protocol/BountyQuestion.sol:BountyQuestion",
        "label": "_ownedTokens",
        "offset": 0,
        "slot": "6",
        "type": "t_mapping(t_address,t_mapping(t_uint256,t_uint256))"
      },
      {
        "astId": 2200,
        "contract": "src/contracts/Protocol/BountyQuestion.sol:BountyQuestion",
        "label": "_ownedTokensIndex",
        "offset": 0,
        "slot": "7",
        "type": "t_mapping(t_uint256,t_uint256)"
      },
      {
        "astId": 2203,
        "contract": "src/contracts/Protocol/BountyQuestion.sol:BountyQuestion",
        "label": "_allTokens",
        "offset": 0,
        "slot": "8",
        "type": "t_array(t_uint256)dyn_storage"
      },
      {
        "astId": 2207,
        "contract": "src/contracts/Protocol/BountyQuestion.sol:BountyQuestion",
        "label": "_allTokensIndex",
        "offset": 0,
        "slot": "9",
        "type": "t_mapping(t_uint256,t_uint256)"
      },
      {
        "astId": 2532,
        "contract": "src/contracts/Protocol/BountyQuestion.sol:BountyQuestion",
        "label": "_tokenURIs",
        "offset": 0,
        "slot": "10",
        "type": "t_mapping(t_uint256,t_string_storage)"
      },
      {
        "astId": 7,
        "contract": "src/contracts/Protocol/BountyQuestion.sol:BountyQuestion",
        "label": "_owner",
        "offset": 0,
        "slot": "11",
        "type": "t_address"
      },
      {
        "astId": 4977,
        "contract": "src/contracts/Protocol/BountyQuestion.sol:BountyQuestion",
        "label": "questionApi",
        "offset": 0,
        "slot": "12",
        "type": "t_address"
      },
      {
        "astId": 3851,
        "contract": "src/contracts/Protocol/BountyQuestion.sol:BountyQuestion",
        "label": "_tokenIdCounter",
        "offset": 0,
        "slot": "13",
        "type": "t_struct(Counter)3028_storage"
      },
      {
        "astId": 3856,
        "contract": "src/contracts/Protocol/BountyQuestion.sol:BountyQuestion",
        "label": "authors",
        "offset": 0,
        "slot": "14",
        "type": "t_mapping(t_address,t_array(t_uint256)dyn_storage)"
      },
      {
        "astId": 3860,
        "contract": "src/contracts/Protocol/BountyQuestion.sol:BountyQuestion",
        "label": "_createdAt",
        "offset": 0,
        "slot": "15",
        "type": "t_mapping(t_uint256,t_uint256)"
      }
    ],
    "types": {
      "t_address": {
        "encoding": "inplace",
        "label": "address",
        "numberOfBytes": "20"
      },
      "t_array(t_uint256)dyn_storage": {
        "base": "t_uint256",
        "encoding": "dynamic_array",
        "label": "uint256[]",
        "numberOfBytes": "32"
      },
      "t_bool": {
        "encoding": "inplace",
        "label": "bool",
        "numberOfBytes": "1"
      },
      "t_mapping(t_address,t_array(t_uint256)dyn_storage)": {
        "encoding": "mapping",
        "key": "t_address",
        "label": "mapping(address => uint256[])",
        "numberOfBytes": "32",
        "value": "t_array(t_uint256)dyn_storage"
      },
      "t_mapping(t_address,t_bool)": {
        "encoding": "mapping",
        "key": "t_address",
        "label": "mapping(address => bool)",
        "numberOfBytes": "32",
        "value": "t_bool"
      },
      "t_mapping(t_address,t_mapping(t_address,t_bool))": {
        "encoding": "mapping",
        "key": "t_address",
        "label": "mapping(address => mapping(address => bool))",
        "numberOfBytes": "32",
        "value": "t_mapping(t_address,t_bool)"
      },
      "t_mapping(t_address,t_mapping(t_uint256,t_uint256))": {
        "encoding": "mapping",
        "key": "t_address",
        "label": "mapping(address => mapping(uint256 => uint256))",
        "numberOfBytes": "32",
        "value": "t_mapping(t_uint256,t_uint256)"
      },
      "t_mapping(t_address,t_uint256)": {
        "encoding": "mapping",
        "key": "t_address",
        "label": "mapping(address => uint256)",
        "numberOfBytes": "32",
        "value": "t_uint256"
      },
      "t_mapping(t_uint256,t_address)": {
        "encoding": "mapping",
        "key": "t_uint256",
        "label": "mapping(uint256 => address)",
        "numberOfBytes": "32",
        "value": "t_address"
      },
      "t_mapping(t_uint256,t_string_storage)": {
        "encoding": "mapping",
        "key": "t_uint256",
        "label": "mapping(uint256 => string)",
        "numberOfBytes": "32",
        "value": "t_string_storage"
      },
      "t_mapping(t_uint256,t_uint256)": {
        "encoding": "mapping",
        "key": "t_uint256",
        "label": "mapping(uint256 => uint256)",
        "numberOfBytes": "32",
        "value": "t_uint256"
      },
      "t_string_storage": {
        "encoding": "bytes",
        "label": "string",
        "numberOfBytes": "32"
      },
      "t_struct(Counter)3028_storage": {
        "encoding": "inplace",
        "label": "struct Counters.Counter",
        "members": [
          {
            "astId": 3027,
            "contract": "src/contracts/Protocol/BountyQuestion.sol:BountyQuestion",
            "label": "_value",
            "offset": 0,
            "slot": "0",
            "type": "t_uint256"
          }
        ],
        "numberOfBytes": "32"
      },
      "t_uint256": {
        "encoding": "inplace",
        "label": "uint256",
        "numberOfBytes": "32"
      }
    }
  }
}