{
  "address": "0xe7f1725E7734CE288F8367e1Bb143E90bb3F0512",
  "abi": [
    {
      "inputs": [],
      "stateMutability": "nonpayable",
      "type": "constructor"
    },
    {
      "inputs": [],
      "name": "NotTheApi",
      "type": "error"
    },
    {
      "anonymous": false,
      "inputs": [
        {
          "indexed": true,
          "internalType": "address",
          "name": "owner",
          "type": "address"
        },
        {
          "indexed": true,
          "internalType": "address",
          "name": "approved",
          "type": "address"
        },
        {
          "indexed": true,
          "internalType": "uint256",
          "name": "tokenId",
          "type": "uint256"
        }
      ],
      "name": "Approval",
      "type": "event"
    },
    {
      "anonymous": false,
      "inputs": [
        {
          "indexed": true,
          "internalType": "address",
          "name": "owner",
          "type": "address"
        },
        {
          "indexed": true,
          "internalType": "address",
          "name": "operator",
          "type": "address"
        },
        {
          "indexed": false,
          "internalType": "bool",
          "name": "approved",
          "type": "bool"
        }
      ],
      "name": "ApprovalForAll",
      "type": "event"
    },
    {
      "anonymous": false,
      "inputs": [
        {
          "indexed": true,
          "internalType": "address",
          "name": "previousOwner",
          "type": "address"
        },
        {
          "indexed": true,
          "internalType": "address",
          "name": "newOwner",
          "type": "address"
        }
      ],
      "name": "OwnershipTransferred",
      "type": "event"
    },
    {
      "anonymous": false,
      "inputs": [
        {
          "indexed": true,
          "internalType": "address",
          "name": "from",
          "type": "address"
        },
        {
          "indexed": true,
          "internalType": "address",
          "name": "to",
          "type": "address"
        },
        {
          "indexed": true,
          "internalType": "uint256",
          "name": "tokenId",
          "type": "uint256"
        }
      ],
      "name": "Transfer",
      "type": "event"
    },
    {
      "inputs": [
        {
          "internalType": "address",
          "name": "to",
          "type": "address"
        },
        {
          "internalType": "uint256",
          "name": "tokenId",
          "type": "uint256"
        }
      ],
      "name": "approve",
      "outputs": [],
      "stateMutability": "nonpayable",
      "type": "function"
    },
    {
      "inputs": [
        {
          "internalType": "address",
          "name": "",
          "type": "address"
        },
        {
          "internalType": "uint256",
          "name": "",
          "type": "uint256"
        }
      ],
      "name": "authors",
      "outputs": [
        {
          "internalType": "uint256",
          "name": "tokenId",
          "type": "uint256"
        },
        {
          "internalType": "string",
          "name": "url",
          "type": "string"
        }
      ],
      "stateMutability": "view",
      "type": "function"
    },
    {
      "inputs": [
        {
          "internalType": "address",
          "name": "owner",
          "type": "address"
        }
      ],
      "name": "balanceOf",
      "outputs": [
        {
          "internalType": "uint256",
          "name": "",
          "type": "uint256"
        }
      ],
      "stateMutability": "view",
      "type": "function"
    },
    {
      "inputs": [
        {
          "internalType": "uint256",
          "name": "tokenId",
          "type": "uint256"
        }
      ],
      "name": "burn",
      "outputs": [],
      "stateMutability": "nonpayable",
      "type": "function"
    },
    {
      "inputs": [
        {
          "internalType": "uint256",
          "name": "tokenId",
          "type": "uint256"
        }
      ],
      "name": "getApproved",
      "outputs": [
        {
          "internalType": "address",
          "name": "",
          "type": "address"
        }
      ],
      "stateMutability": "view",
      "type": "function"
    },
    {
      "inputs": [
        {
          "internalType": "address",
          "name": "user",
          "type": "address"
        }
      ],
      "name": "getAuthor",
      "outputs": [
        {
          "components": [
            {
              "internalType": "uint256",
              "name": "tokenId",
              "type": "uint256"
            },
            {
              "internalType": "string",
              "name": "url",
              "type": "string"
            }
          ],
          "internalType": "struct BountyQuestion.QuestionData[]",
          "name": "",
          "type": "tuple[]"
        }
      ],
      "stateMutability": "view",
      "type": "function"
    },
    {
      "inputs": [
        {
          "internalType": "address",
          "name": "owner",
          "type": "address"
        },
        {
          "internalType": "address",
          "name": "operator",
          "type": "address"
        }
      ],
      "name": "isApprovedForAll",
      "outputs": [
        {
          "internalType": "bool",
          "name": "",
          "type": "bool"
        }
      ],
      "stateMutability": "view",
      "type": "function"
    },
    {
      "inputs": [],
      "name": "name",
      "outputs": [
        {
          "internalType": "string",
          "name": "",
          "type": "string"
        }
      ],
      "stateMutability": "view",
      "type": "function"
    },
    {
      "inputs": [],
      "name": "owner",
      "outputs": [
        {
          "internalType": "address",
          "name": "",
          "type": "address"
        }
      ],
      "stateMutability": "view",
      "type": "function"
    },
    {
      "inputs": [
        {
          "internalType": "uint256",
          "name": "tokenId",
          "type": "uint256"
        }
      ],
      "name": "ownerOf",
      "outputs": [
        {
          "internalType": "address",
          "name": "",
          "type": "address"
        }
      ],
      "stateMutability": "view",
      "type": "function"
    },
    {
      "inputs": [],
      "name": "questionApi",
      "outputs": [
        {
          "internalType": "address",
          "name": "",
          "type": "address"
        }
      ],
      "stateMutability": "view",
      "type": "function"
    },
    {
      "inputs": [],
      "name": "renounceOwnership",
      "outputs": [],
      "stateMutability": "nonpayable",
      "type": "function"
    },
    {
      "inputs": [
        {
          "internalType": "address",
          "name": "to",
          "type": "address"
        },
        {
          "internalType": "string",
          "name": "uri",
          "type": "string"
        }
      ],
      "name": "safeMint",
      "outputs": [
        {
          "internalType": "uint256",
          "name": "",
          "type": "uint256"
        }
      ],
      "stateMutability": "nonpayable",
      "type": "function"
    },
    {
      "inputs": [
        {
          "internalType": "address",
          "name": "from",
          "type": "address"
        },
        {
          "internalType": "address",
          "name": "to",
          "type": "address"
        },
        {
          "internalType": "uint256",
          "name": "tokenId",
          "type": "uint256"
        }
      ],
      "name": "safeTransferFrom",
      "outputs": [],
      "stateMutability": "nonpayable",
      "type": "function"
    },
    {
      "inputs": [
        {
          "internalType": "address",
          "name": "from",
          "type": "address"
        },
        {
          "internalType": "address",
          "name": "to",
          "type": "address"
        },
        {
          "internalType": "uint256",
          "name": "tokenId",
          "type": "uint256"
        },
        {
          "internalType": "bytes",
          "name": "_data",
          "type": "bytes"
        }
      ],
      "name": "safeTransferFrom",
      "outputs": [],
      "stateMutability": "nonpayable",
      "type": "function"
    },
    {
      "inputs": [
        {
          "internalType": "address",
          "name": "operator",
          "type": "address"
        },
        {
          "internalType": "bool",
          "name": "approved",
          "type": "bool"
        }
      ],
      "name": "setApprovalForAll",
      "outputs": [],
      "stateMutability": "nonpayable",
      "type": "function"
    },
    {
      "inputs": [
        {
          "internalType": "address",
          "name": "_newApi",
          "type": "address"
        }
      ],
      "name": "setQuestionApi",
      "outputs": [],
      "stateMutability": "nonpayable",
      "type": "function"
    },
    {
      "inputs": [
        {
          "internalType": "bytes4",
          "name": "interfaceId",
          "type": "bytes4"
        }
      ],
      "name": "supportsInterface",
      "outputs": [
        {
          "internalType": "bool",
          "name": "",
          "type": "bool"
        }
      ],
      "stateMutability": "view",
      "type": "function"
    },
    {
      "inputs": [],
      "name": "symbol",
      "outputs": [
        {
          "internalType": "string",
          "name": "",
          "type": "string"
        }
      ],
      "stateMutability": "view",
      "type": "function"
    },
    {
      "inputs": [
        {
          "internalType": "uint256",
          "name": "index",
          "type": "uint256"
        }
      ],
      "name": "tokenByIndex",
      "outputs": [
        {
          "internalType": "uint256",
          "name": "",
          "type": "uint256"
        }
      ],
      "stateMutability": "view",
      "type": "function"
    },
    {
      "inputs": [
        {
          "internalType": "address",
          "name": "owner",
          "type": "address"
        },
        {
          "internalType": "uint256",
          "name": "index",
          "type": "uint256"
        }
      ],
      "name": "tokenOfOwnerByIndex",
      "outputs": [
        {
          "internalType": "uint256",
          "name": "",
          "type": "uint256"
        }
      ],
      "stateMutability": "view",
      "type": "function"
    },
    {
      "inputs": [
        {
          "internalType": "uint256",
          "name": "tokenId",
          "type": "uint256"
        }
      ],
      "name": "tokenURI",
      "outputs": [
        {
          "internalType": "string",
          "name": "",
          "type": "string"
        }
      ],
      "stateMutability": "view",
      "type": "function"
    },
    {
      "inputs": [],
      "name": "totalSupply",
      "outputs": [
        {
          "internalType": "uint256",
          "name": "",
          "type": "uint256"
        }
      ],
      "stateMutability": "view",
      "type": "function"
    },
    {
      "inputs": [
        {
          "internalType": "address",
          "name": "from",
          "type": "address"
        },
        {
          "internalType": "address",
          "name": "to",
          "type": "address"
        },
        {
          "internalType": "uint256",
          "name": "tokenId",
          "type": "uint256"
        }
      ],
      "name": "transferFrom",
      "outputs": [],
      "stateMutability": "nonpayable",
      "type": "function"
    },
    {
      "inputs": [
        {
          "internalType": "address",
          "name": "newOwner",
          "type": "address"
        }
      ],
      "name": "transferOwnership",
      "outputs": [],
      "stateMutability": "nonpayable",
      "type": "function"
    }
  ],
  "transactionHash": "0xb5183739a8a2c964b0a3064aae7f93119d034721353a54ffa18def53a3aea610",
  "args": [],
  "numDeployments": 1,
  "solcInputHash": "317fd9e8321b5dc84c3d6b3e414237e0",
  "bytecode": "0x60806040523480156200001157600080fd5b506040518060400160405280601381526020017f4d65747269637344414f205175657374696f6e000000000000000000000000008152506040518060400160405280600381526020017f4d44510000000000000000000000000000000000000000000000000000000000815250816000908051906020019062000096929190620001d3565b508060019080519060200190620000af929190620001d3565b505050620000d2620000c6620000ef60201b60201c565b620000f760201b60201c565b620000e9600d620001bd60201b620012ed1760201c565b620002e7565b600033905090565b6000600b60009054906101000a900473ffffffffffffffffffffffffffffffffffffffff16905081600b60006101000a81548173ffffffffffffffffffffffffffffffffffffffff021916908373ffffffffffffffffffffffffffffffffffffffff1602179055508173ffffffffffffffffffffffffffffffffffffffff168173ffffffffffffffffffffffffffffffffffffffff167f8be0079c531659141344cd1fd0a4f28419497f9722a3daafe3b4186f6b6457e060405160405180910390a35050565b6001816000016000828254019250508190555050565b828054620001e190620002b2565b90600052602060002090601f01602090048101928262000205576000855562000251565b82601f106200022057805160ff191683800117855562000251565b8280016001018555821562000251579182015b828111156200025057825182559160200191906001019062000233565b5b50905062000260919062000264565b5090565b5b808211156200027f57600081600090555060010162000265565b5090565b7f4e487b7100000000000000000000000000000000000000000000000000000000600052602260045260246000fd5b60006002820490506001821680620002cb57607f821691505b602082108103620002e157620002e062000283565b5b50919050565b61419e80620002f76000396000f3fe608060405234801561001057600080fd5b50600436106101735760003560e01c80636baef497116100de578063a22cb46511610097578063c87b56dd11610071578063c87b56dd1461045d578063d204c45e1461048d578063e985e9c5146104bd578063f2fde38b146104ed57610173565b8063a22cb46514610409578063b88d4fde14610425578063c0875dfd1461044157610173565b80636baef4971461034457806370a0823114610362578063715018a614610392578063779746161461039c5780638da5cb5b146103cd57806395d89b41146103eb57610173565b806323b872dd1161013057806323b872dd146102605780632f745c591461027c57806342842e0e146102ac57806342966c68146102c85780634f6ccce7146102e45780636352211e1461031457610173565b806301ffc9a71461017857806306fdde03146101a8578063081812fc146101c6578063095ea7b3146101f65780630ab300931461021257806318160ddd14610242575b600080fd5b610192600480360381019061018d9190612ab2565b610509565b60405161019f9190612afa565b60405180910390f35b6101b061051b565b6040516101bd9190612bae565b60405180910390f35b6101e060048036038101906101db9190612c06565b6105ad565b6040516101ed9190612c74565b60405180910390f35b610210600480360381019061020b9190612cbb565b610632565b005b61022c60048036038101906102279190612cfb565b610749565b6040516102399190612e80565b60405180910390f35b61024a610883565b6040516102579190612eb1565b60405180910390f35b61027a60048036038101906102759190612ecc565b610890565b005b61029660048036038101906102919190612cbb565b6108f0565b6040516102a39190612eb1565b60405180910390f35b6102c660048036038101906102c19190612ecc565b610995565b005b6102e260048036038101906102dd9190612c06565b6109b5565b005b6102fe60048036038101906102f99190612c06565b610a11565b60405161030b9190612eb1565b60405180910390f35b61032e60048036038101906103299190612c06565b610a82565b60405161033b9190612c74565b60405180910390f35b61034c610b33565b6040516103599190612c74565b60405180910390f35b61037c60048036038101906103779190612cfb565b610b59565b6040516103899190612eb1565b60405180910390f35b61039a610c10565b005b6103b660048036038101906103b19190612cbb565b610c98565b6040516103c4929190612f1f565b60405180910390f35b6103d5610d61565b6040516103e29190612c74565b60405180910390f35b6103f3610d8b565b6040516104009190612bae565b60405180910390f35b610423600480360381019061041e9190612f7b565b610e1d565b005b61043f600480360381019061043a91906130f0565b610e33565b005b61045b60048036038101906104569190612cfb565b610e95565b005b61047760048036038101906104729190612c06565b610f55565b6040516104849190612bae565b60405180910390f35b6104a760048036038101906104a291906131d3565b610f67565b6040516104b49190612eb1565b60405180910390f35b6104d760048036038101906104d29190613233565b611162565b6040516104e49190612afa565b60405180910390f35b61050760048036038101906105029190612cfb565b6111f6565b005b600061051482611303565b9050919050565b60606000805461052a906132a2565b80601f0160208091040260200160405190810160405280929190818152602001828054610556906132a2565b80156105a35780601f10610578576101008083540402835291602001916105a3565b820191906000526020600020905b81548152906001019060200180831161058657829003601f168201915b5050505050905090565b60006105b88261137d565b6105f7576040517f08c379a00000000000000000000000000000000000000000000000000000000081526004016105ee90613345565b60405180910390fd5b6004600083815260200190815260200160002060009054906101000a900473ffffffffffffffffffffffffffffffffffffffff169050919050565b600061063d82610a82565b90508073ffffffffffffffffffffffffffffffffffffffff168373ffffffffffffffffffffffffffffffffffffffff16036106ad576040517f08c379a00000000000000000000000000000000000000000000000000000000081526004016106a4906133d7565b60405180910390fd5b8073ffffffffffffffffffffffffffffffffffffffff166106cc6113e9565b73ffffffffffffffffffffffffffffffffffffffff1614806106fb57506106fa816106f56113e9565b611162565b5b61073a576040517f08c379a000000000000000000000000000000000000000000000000000000000815260040161073190613469565b60405180910390fd5b61074483836113f1565b505050565b6060600e60008373ffffffffffffffffffffffffffffffffffffffff1673ffffffffffffffffffffffffffffffffffffffff168152602001908152602001600020805480602002602001604051908101604052809291908181526020016000905b828210156108785783829060005260206000209060020201604051806040016040529081600082015481526020016001820180546107e7906132a2565b80601f0160208091040260200160405190810160405280929190818152602001828054610813906132a2565b80156108605780601f1061083557610100808354040283529160200191610860565b820191906000526020600020905b81548152906001019060200180831161084357829003601f168201915b505050505081525050815260200190600101906107aa565b505050509050919050565b6000600880549050905090565b6108a161089b6113e9565b826114aa565b6108e0576040517f08c379a00000000000000000000000000000000000000000000000000000000081526004016108d7906134fb565b60405180910390fd5b6108eb838383611588565b505050565b60006108fb83610b59565b821061093c576040517f08c379a00000000000000000000000000000000000000000000000000000000081526004016109339061358d565b60405180910390fd5b600660008473ffffffffffffffffffffffffffffffffffffffff1673ffffffffffffffffffffffffffffffffffffffff168152602001908152602001600020600083815260200190815260200160002054905092915050565b6109b083838360405180602001604052806000815250610e33565b505050565b6109c66109c06113e9565b826114aa565b610a05576040517f08c379a00000000000000000000000000000000000000000000000000000000081526004016109fc9061361f565b60405180910390fd5b610a0e816117ee565b50565b6000610a1b610883565b8210610a5c576040517f08c379a0000000000000000000000000000000000000000000000000000000008152600401610a53906136b1565b60405180910390fd5b60088281548110610a7057610a6f6136d1565b5b90600052602060002001549050919050565b6000806002600084815260200190815260200160002060009054906101000a900473ffffffffffffffffffffffffffffffffffffffff169050600073ffffffffffffffffffffffffffffffffffffffff168173ffffffffffffffffffffffffffffffffffffffff1603610b2a576040517f08c379a0000000000000000000000000000000000000000000000000000000008152600401610b2190613772565b60405180910390fd5b80915050919050565b600c60009054906101000a900473ffffffffffffffffffffffffffffffffffffffff1681565b60008073ffffffffffffffffffffffffffffffffffffffff168273ffffffffffffffffffffffffffffffffffffffff1603610bc9576040517f08c379a0000000000000000000000000000000000000000000000000000000008152600401610bc090613804565b60405180910390fd5b600360008373ffffffffffffffffffffffffffffffffffffffff1673ffffffffffffffffffffffffffffffffffffffff168152602001908152602001600020549050919050565b610c186113e9565b73ffffffffffffffffffffffffffffffffffffffff16610c36610d61565b73ffffffffffffffffffffffffffffffffffffffff1614610c8c576040517f08c379a0000000000000000000000000000000000000000000000000000000008152600401610c8390613870565b60405180910390fd5b610c9660006117fa565b565b600e6020528160005260406000208181548110610cb457600080fd5b906000526020600020906002020160009150915050806000015490806001018054610cde906132a2565b80601f0160208091040260200160405190810160405280929190818152602001828054610d0a906132a2565b8015610d575780601f10610d2c57610100808354040283529160200191610d57565b820191906000526020600020905b815481529060010190602001808311610d3a57829003601f168201915b5050505050905082565b6000600b60009054906101000a900473ffffffffffffffffffffffffffffffffffffffff16905090565b606060018054610d9a906132a2565b80601f0160208091040260200160405190810160405280929190818152602001828054610dc6906132a2565b8015610e135780601f10610de857610100808354040283529160200191610e13565b820191906000526020600020905b815481529060010190602001808311610df657829003601f168201915b5050505050905090565b610e2f610e286113e9565b83836118c0565b5050565b610e44610e3e6113e9565b836114aa565b610e83576040517f08c379a0000000000000000000000000000000000000000000000000000000008152600401610e7a906134fb565b60405180910390fd5b610e8f84848484611a2c565b50505050565b610e9d6113e9565b73ffffffffffffffffffffffffffffffffffffffff16610ebb610d61565b73ffffffffffffffffffffffffffffffffffffffff1614610f11576040517f08c379a0000000000000000000000000000000000000000000000000000000008152600401610f0890613870565b60405180910390fd5b80600c60006101000a81548173ffffffffffffffffffffffffffffffffffffffff021916908373ffffffffffffffffffffffffffffffffffffffff16021790555050565b6060610f6082611a88565b9050919050565b6000600c60009054906101000a900473ffffffffffffffffffffffffffffffffffffffff1673ffffffffffffffffffffffffffffffffffffffff16610faa6113e9565b73ffffffffffffffffffffffffffffffffffffffff1614610ff7576040517f92471d5b00000000000000000000000000000000000000000000000000000000815260040160405180910390fd5b6000611003600d611bd9565b905061100f600d6112ed565b6110198582611be7565b6110678185858080601f016020809104026020016040519081016040528093929190818152602001838380828437600081840152601f19601f82011690508083019250505050505050611c05565b6000604051806040016040528083815260200186868080601f016020809104026020016040519081016040528093929190818152602001838380828437600081840152601f19601f820116905080830192505050505050508152509050600e60008773ffffffffffffffffffffffffffffffffffffffff1673ffffffffffffffffffffffffffffffffffffffff168152602001908152602001600020819080600181540180825580915050600190039060005260206000209060020201600090919091909150600082015181600001556020820151816001019080519060200190611153929190612963565b50505081925050509392505050565b6000600560008473ffffffffffffffffffffffffffffffffffffffff1673ffffffffffffffffffffffffffffffffffffffff16815260200190815260200160002060008373ffffffffffffffffffffffffffffffffffffffff1673ffffffffffffffffffffffffffffffffffffffff16815260200190815260200160002060009054906101000a900460ff16905092915050565b6111fe6113e9565b73ffffffffffffffffffffffffffffffffffffffff1661121c610d61565b73ffffffffffffffffffffffffffffffffffffffff1614611272576040517f08c379a000000000000000000000000000000000000000000000000000000000815260040161126990613870565b60405180910390fd5b600073ffffffffffffffffffffffffffffffffffffffff168173ffffffffffffffffffffffffffffffffffffffff16036112e1576040517f08c379a00000000000000000000000000000000000000000000000000000000081526004016112d890613902565b60405180910390fd5b6112ea816117fa565b50565b6001816000016000828254019250508190555050565b60007f780e9d63000000000000000000000000000000000000000000000000000000007bffffffffffffffffffffffffffffffffffffffffffffffffffffffff1916827bffffffffffffffffffffffffffffffffffffffffffffffffffffffff19161480611376575061137582611c79565b5b9050919050565b60008073ffffffffffffffffffffffffffffffffffffffff166002600084815260200190815260200160002060009054906101000a900473ffffffffffffffffffffffffffffffffffffffff1673ffffffffffffffffffffffffffffffffffffffff1614159050919050565b600033905090565b816004600083815260200190815260200160002060006101000a81548173ffffffffffffffffffffffffffffffffffffffff021916908373ffffffffffffffffffffffffffffffffffffffff160217905550808273ffffffffffffffffffffffffffffffffffffffff1661146483610a82565b73ffffffffffffffffffffffffffffffffffffffff167f8c5be1e5ebec7d5bd14f71427d1e84f3dd0314c0f7b2291e5b200ac8c7c3b92560405160405180910390a45050565b60006114b58261137d565b6114f4576040517f08c379a00000000000000000000000000000000000000000000000000000000081526004016114eb90613994565b60405180910390fd5b60006114ff83610a82565b90508073ffffffffffffffffffffffffffffffffffffffff168473ffffffffffffffffffffffffffffffffffffffff16148061156e57508373ffffffffffffffffffffffffffffffffffffffff16611556846105ad565b73ffffffffffffffffffffffffffffffffffffffff16145b8061157f575061157e8185611162565b5b91505092915050565b8273ffffffffffffffffffffffffffffffffffffffff166115a882610a82565b73ffffffffffffffffffffffffffffffffffffffff16146115fe576040517f08c379a00000000000000000000000000000000000000000000000000000000081526004016115f590613a26565b60405180910390fd5b600073ffffffffffffffffffffffffffffffffffffffff168273ffffffffffffffffffffffffffffffffffffffff160361166d576040517f08c379a000000000000000000000000000000000000000000000000000000000815260040161166490613ab8565b60405180910390fd5b611678838383611d5b565b6116836000826113f1565b6001600360008573ffffffffffffffffffffffffffffffffffffffff1673ffffffffffffffffffffffffffffffffffffffff16815260200190815260200160002060008282546116d39190613b07565b925050819055506001600360008473ffffffffffffffffffffffffffffffffffffffff1673ffffffffffffffffffffffffffffffffffffffff168152602001908152602001600020600082825461172a9190613b3b565b92505081905550816002600083815260200190815260200160002060006101000a81548173ffffffffffffffffffffffffffffffffffffffff021916908373ffffffffffffffffffffffffffffffffffffffff160217905550808273ffffffffffffffffffffffffffffffffffffffff168473ffffffffffffffffffffffffffffffffffffffff167fddf252ad1be2c89b69c2b068fc378daa952ba7f163c4a11628f55a4df523b3ef60405160405180910390a46117e9838383611d6b565b505050565b6117f781611d70565b50565b6000600b60009054906101000a900473ffffffffffffffffffffffffffffffffffffffff16905081600b60006101000a81548173ffffffffffffffffffffffffffffffffffffffff021916908373ffffffffffffffffffffffffffffffffffffffff1602179055508173ffffffffffffffffffffffffffffffffffffffff168173ffffffffffffffffffffffffffffffffffffffff167f8be0079c531659141344cd1fd0a4f28419497f9722a3daafe3b4186f6b6457e060405160405180910390a35050565b8173ffffffffffffffffffffffffffffffffffffffff168373ffffffffffffffffffffffffffffffffffffffff160361192e576040517f08c379a000000000000000000000000000000000000000000000000000000000815260040161192590613bdd565b60405180910390fd5b80600560008573ffffffffffffffffffffffffffffffffffffffff1673ffffffffffffffffffffffffffffffffffffffff16815260200190815260200160002060008473ffffffffffffffffffffffffffffffffffffffff1673ffffffffffffffffffffffffffffffffffffffff16815260200190815260200160002060006101000a81548160ff0219169083151502179055508173ffffffffffffffffffffffffffffffffffffffff168373ffffffffffffffffffffffffffffffffffffffff167f17307eab39ab6107e8899845ad3d59bd9653f200f220920489ca2b5937696c3183604051611a1f9190612afa565b60405180910390a3505050565b611a37848484611588565b611a4384848484611dc3565b611a82576040517f08c379a0000000000000000000000000000000000000000000000000000000008152600401611a7990613c6f565b60405180910390fd5b50505050565b6060611a938261137d565b611ad2576040517f08c379a0000000000000000000000000000000000000000000000000000000008152600401611ac990613d01565b60405180910390fd5b6000600a60008481526020019081526020016000208054611af2906132a2565b80601f0160208091040260200160405190810160405280929190818152602001828054611b1e906132a2565b8015611b6b5780601f10611b4057610100808354040283529160200191611b6b565b820191906000526020600020905b815481529060010190602001808311611b4e57829003601f168201915b505050505090506000611b7c611f4a565b90506000815103611b91578192505050611bd4565b600082511115611bc6578082604051602001611bae929190613d5d565b60405160208183030381529060405292505050611bd4565b611bcf84611f61565b925050505b919050565b600081600001549050919050565b611c01828260405180602001604052806000815250612008565b5050565b611c0e8261137d565b611c4d576040517f08c379a0000000000000000000000000000000000000000000000000000000008152600401611c4490613df3565b60405180910390fd5b80600a60008481526020019081526020016000209080519060200190611c74929190612963565b505050565b60007f80ac58cd000000000000000000000000000000000000000000000000000000007bffffffffffffffffffffffffffffffffffffffffffffffffffffffff1916827bffffffffffffffffffffffffffffffffffffffffffffffffffffffff19161480611d4457507f5b5e139f000000000000000000000000000000000000000000000000000000007bffffffffffffffffffffffffffffffffffffffffffffffffffffffff1916827bffffffffffffffffffffffffffffffffffffffffffffffffffffffff1916145b80611d545750611d5382612063565b5b9050919050565b611d668383836120cd565b505050565b505050565b611d79816121df565b6000600a60008381526020019081526020016000208054611d99906132a2565b905014611dc057600a60008281526020019081526020016000206000611dbf91906129e9565b5b50565b6000611de48473ffffffffffffffffffffffffffffffffffffffff166122fc565b15611f3d578373ffffffffffffffffffffffffffffffffffffffff1663150b7a02611e0d6113e9565b8786866040518563ffffffff1660e01b8152600401611e2f9493929190613e68565b6020604051808303816000875af1925050508015611e6b57506040513d601f19601f82011682018060405250810190611e689190613ec9565b60015b611eed573d8060008114611e9b576040519150601f19603f3d011682016040523d82523d6000602084013e611ea0565b606091505b506000815103611ee5576040517f08c379a0000000000000000000000000000000000000000000000000000000008152600401611edc90613c6f565b60405180910390fd5b805181602001fd5b63150b7a0260e01b7bffffffffffffffffffffffffffffffffffffffffffffffffffffffff1916817bffffffffffffffffffffffffffffffffffffffffffffffffffffffff191614915050611f42565b600190505b949350505050565b606060405180602001604052806000815250905090565b6060611f6c8261137d565b611fab576040517f08c379a0000000000000000000000000000000000000000000000000000000008152600401611fa290613f68565b60405180910390fd5b6000611fb5611f4a565b90506000815111611fd55760405180602001604052806000815250612000565b80611fdf8461231f565b604051602001611ff0929190613d5d565b6040516020818303038152906040525b915050919050565b612012838361247f565b61201f6000848484611dc3565b61205e576040517f08c379a000000000000000000000000000000000000000000000000000000000815260040161205590613c6f565b60405180910390fd5b505050565b60007f01ffc9a7000000000000000000000000000000000000000000000000000000007bffffffffffffffffffffffffffffffffffffffffffffffffffffffff1916827bffffffffffffffffffffffffffffffffffffffffffffffffffffffff1916149050919050565b6120d8838383612658565b600073ffffffffffffffffffffffffffffffffffffffff168373ffffffffffffffffffffffffffffffffffffffff160361211a576121158161265d565b612159565b8173ffffffffffffffffffffffffffffffffffffffff168373ffffffffffffffffffffffffffffffffffffffff16146121585761215783826126a6565b5b5b600073ffffffffffffffffffffffffffffffffffffffff168273ffffffffffffffffffffffffffffffffffffffff160361219b5761219681612813565b6121da565b8273ffffffffffffffffffffffffffffffffffffffff168273ffffffffffffffffffffffffffffffffffffffff16146121d9576121d882826128e4565b5b5b505050565b60006121ea82610a82565b90506121f881600084611d5b565b6122036000836113f1565b6001600360008373ffffffffffffffffffffffffffffffffffffffff1673ffffffffffffffffffffffffffffffffffffffff16815260200190815260200160002060008282546122539190613b07565b925050819055506002600083815260200190815260200160002060006101000a81549073ffffffffffffffffffffffffffffffffffffffff021916905581600073ffffffffffffffffffffffffffffffffffffffff168273ffffffffffffffffffffffffffffffffffffffff167fddf252ad1be2c89b69c2b068fc378daa952ba7f163c4a11628f55a4df523b3ef60405160405180910390a46122f881600084611d6b565b5050565b6000808273ffffffffffffffffffffffffffffffffffffffff163b119050919050565b606060008203612366576040518060400160405280600181526020017f3000000000000000000000000000000000000000000000000000000000000000815250905061247a565b600082905060005b6000821461239857808061238190613f88565b915050600a826123919190613fff565b915061236e565b60008167ffffffffffffffff8111156123b4576123b3612fc5565b5b6040519080825280601f01601f1916602001820160405280156123e65781602001600182028036833780820191505090505b5090505b60008514612473576001826123ff9190613b07565b9150600a8561240e9190614030565b603061241a9190613b3b565b60f81b8183815181106124305761242f6136d1565b5b60200101907effffffffffffffffffffffffffffffffffffffffffffffffffffffffffffff1916908160001a905350600a8561246c9190613fff565b94506123ea565b8093505050505b919050565b600073ffffffffffffffffffffffffffffffffffffffff168273ffffffffffffffffffffffffffffffffffffffff16036124ee576040517f08c379a00000000000000000000000000000000000000000000000000000000081526004016124e5906140ad565b60405180910390fd5b6124f78161137d565b15612537576040517f08c379a000000000000000000000000000000000000000000000000000000000815260040161252e90614119565b60405180910390fd5b61254360008383611d5b565b6001600360008473ffffffffffffffffffffffffffffffffffffffff1673ffffffffffffffffffffffffffffffffffffffff16815260200190815260200160002060008282546125939190613b3b565b92505081905550816002600083815260200190815260200160002060006101000a81548173ffffffffffffffffffffffffffffffffffffffff021916908373ffffffffffffffffffffffffffffffffffffffff160217905550808273ffffffffffffffffffffffffffffffffffffffff16600073ffffffffffffffffffffffffffffffffffffffff167fddf252ad1be2c89b69c2b068fc378daa952ba7f163c4a11628f55a4df523b3ef60405160405180910390a461265460008383611d6b565b5050565b505050565b6008805490506009600083815260200190815260200160002081905550600881908060018154018082558091505060019003906000526020600020016000909190919091505550565b600060016126b384610b59565b6126bd9190613b07565b90506000600760008481526020019081526020016000205490508181146127a2576000600660008673ffffffffffffffffffffffffffffffffffffffff1673ffffffffffffffffffffffffffffffffffffffff168152602001908152602001600020600084815260200190815260200160002054905080600660008773ffffffffffffffffffffffffffffffffffffffff1673ffffffffffffffffffffffffffffffffffffffff168152602001908152602001600020600084815260200190815260200160002081905550816007600083815260200190815260200160002081905550505b6007600084815260200190815260200160002060009055600660008573ffffffffffffffffffffffffffffffffffffffff1673ffffffffffffffffffffffffffffffffffffffff16815260200190815260200160002060008381526020019081526020016000206000905550505050565b600060016008805490506128279190613b07565b9050600060096000848152602001908152602001600020549050600060088381548110612857576128566136d1565b5b906000526020600020015490508060088381548110612879576128786136d1565b5b9060005260206000200181905550816009600083815260200190815260200160002081905550600960008581526020019081526020016000206000905560088054806128c8576128c7614139565b5b6001900381819060005260206000200160009055905550505050565b60006128ef83610b59565b905081600660008573ffffffffffffffffffffffffffffffffffffffff1673ffffffffffffffffffffffffffffffffffffffff168152602001908152602001600020600083815260200190815260200160002081905550806007600084815260200190815260200160002081905550505050565b82805461296f906132a2565b90600052602060002090601f01602090048101928261299157600085556129d8565b82601f106129aa57805160ff19168380011785556129d8565b828001600101855582156129d8579182015b828111156129d75782518255916020019190600101906129bc565b5b5090506129e59190612a29565b5090565b5080546129f5906132a2565b6000825580601f10612a075750612a26565b601f016020900490600052602060002090810190612a259190612a29565b5b50565b5b80821115612a42576000816000905550600101612a2a565b5090565b6000604051905090565b600080fd5b600080fd5b60007fffffffff0000000000000000000000000000000000000000000000000000000082169050919050565b612a8f81612a5a565b8114612a9a57600080fd5b50565b600081359050612aac81612a86565b92915050565b600060208284031215612ac857612ac7612a50565b5b6000612ad684828501612a9d565b91505092915050565b60008115159050919050565b612af481612adf565b82525050565b6000602082019050612b0f6000830184612aeb565b92915050565b600081519050919050565b600082825260208201905092915050565b60005b83811015612b4f578082015181840152602081019050612b34565b83811115612b5e576000848401525b50505050565b6000601f19601f8301169050919050565b6000612b8082612b15565b612b8a8185612b20565b9350612b9a818560208601612b31565b612ba381612b64565b840191505092915050565b60006020820190508181036000830152612bc88184612b75565b905092915050565b6000819050919050565b612be381612bd0565b8114612bee57600080fd5b50565b600081359050612c0081612bda565b92915050565b600060208284031215612c1c57612c1b612a50565b5b6000612c2a84828501612bf1565b91505092915050565b600073ffffffffffffffffffffffffffffffffffffffff82169050919050565b6000612c5e82612c33565b9050919050565b612c6e81612c53565b82525050565b6000602082019050612c896000830184612c65565b92915050565b612c9881612c53565b8114612ca357600080fd5b50565b600081359050612cb581612c8f565b92915050565b60008060408385031215612cd257612cd1612a50565b5b6000612ce085828601612ca6565b9250506020612cf185828601612bf1565b9150509250929050565b600060208284031215612d1157612d10612a50565b5b6000612d1f84828501612ca6565b91505092915050565b600081519050919050565b600082825260208201905092915050565b6000819050602082019050919050565b612d5d81612bd0565b82525050565b600082825260208201905092915050565b6000612d7f82612b15565b612d898185612d63565b9350612d99818560208601612b31565b612da281612b64565b840191505092915050565b6000604083016000830151612dc56000860182612d54565b5060208301518482036020860152612ddd8282612d74565b9150508091505092915050565b6000612df68383612dad565b905092915050565b6000602082019050919050565b6000612e1682612d28565b612e208185612d33565b935083602082028501612e3285612d44565b8060005b85811015612e6e5784840389528151612e4f8582612dea565b9450612e5a83612dfe565b925060208a01995050600181019050612e36565b50829750879550505050505092915050565b60006020820190508181036000830152612e9a8184612e0b565b905092915050565b612eab81612bd0565b82525050565b6000602082019050612ec66000830184612ea2565b92915050565b600080600060608486031215612ee557612ee4612a50565b5b6000612ef386828701612ca6565b9350506020612f0486828701612ca6565b9250506040612f1586828701612bf1565b9150509250925092565b6000604082019050612f346000830185612ea2565b8181036020830152612f468184612b75565b90509392505050565b612f5881612adf565b8114612f6357600080fd5b50565b600081359050612f7581612f4f565b92915050565b60008060408385031215612f9257612f91612a50565b5b6000612fa085828601612ca6565b9250506020612fb185828601612f66565b9150509250929050565b600080fd5b600080fd5b7f4e487b7100000000000000000000000000000000000000000000000000000000600052604160045260246000fd5b612ffd82612b64565b810181811067ffffffffffffffff8211171561301c5761301b612fc5565b5b80604052505050565b600061302f612a46565b905061303b8282612ff4565b919050565b600067ffffffffffffffff82111561305b5761305a612fc5565b5b61306482612b64565b9050602081019050919050565b82818337600083830152505050565b600061309361308e84613040565b613025565b9050828152602081018484840111156130af576130ae612fc0565b5b6130ba848285613071565b509392505050565b600082601f8301126130d7576130d6612fbb565b5b81356130e7848260208601613080565b91505092915050565b6000806000806080858703121561310a57613109612a50565b5b600061311887828801612ca6565b945050602061312987828801612ca6565b935050604061313a87828801612bf1565b925050606085013567ffffffffffffffff81111561315b5761315a612a55565b5b613167878288016130c2565b91505092959194509250565b600080fd5b600080fd5b60008083601f84011261319357613192612fbb565b5b8235905067ffffffffffffffff8111156131b0576131af613173565b5b6020830191508360018202830111156131cc576131cb613178565b5b9250929050565b6000806000604084860312156131ec576131eb612a50565b5b60006131fa86828701612ca6565b935050602084013567ffffffffffffffff81111561321b5761321a612a55565b5b6132278682870161317d565b92509250509250925092565b6000806040838503121561324a57613249612a50565b5b600061325885828601612ca6565b925050602061326985828601612ca6565b9150509250929050565b7f4e487b7100000000000000000000000000000000000000000000000000000000600052602260045260246000fd5b600060028204905060018216806132ba57607f821691505b6020821081036132cd576132cc613273565b5b50919050565b7f4552433732313a20617070726f76656420717565727920666f72206e6f6e657860008201527f697374656e7420746f6b656e0000000000000000000000000000000000000000602082015250565b600061332f602c83612b20565b915061333a826132d3565b604082019050919050565b6000602082019050818103600083015261335e81613322565b9050919050565b7f4552433732313a20617070726f76616c20746f2063757272656e74206f776e6560008201527f7200000000000000000000000000000000000000000000000000000000000000602082015250565b60006133c1602183612b20565b91506133cc82613365565b604082019050919050565b600060208201905081810360008301526133f0816133b4565b9050919050565b7f4552433732313a20617070726f76652063616c6c6572206973206e6f74206f7760008201527f6e6572206e6f7220617070726f76656420666f7220616c6c0000000000000000602082015250565b6000613453603883612b20565b915061345e826133f7565b604082019050919050565b6000602082019050818103600083015261348281613446565b9050919050565b7f4552433732313a207472616e736665722063616c6c6572206973206e6f74206f60008201527f776e6572206e6f7220617070726f766564000000000000000000000000000000602082015250565b60006134e5603183612b20565b91506134f082613489565b604082019050919050565b60006020820190508181036000830152613514816134d8565b9050919050565b7f455243373231456e756d657261626c653a206f776e657220696e646578206f7560008201527f74206f6620626f756e6473000000000000000000000000000000000000000000602082015250565b6000613577602b83612b20565b91506135828261351b565b604082019050919050565b600060208201905081810360008301526135a68161356a565b9050919050565b7f4552433732314275726e61626c653a2063616c6c6572206973206e6f74206f7760008201527f6e6572206e6f7220617070726f76656400000000000000000000000000000000602082015250565b6000613609603083612b20565b9150613614826135ad565b604082019050919050565b60006020820190508181036000830152613638816135fc565b9050919050565b7f455243373231456e756d657261626c653a20676c6f62616c20696e646578206f60008201527f7574206f6620626f756e64730000000000000000000000000000000000000000602082015250565b600061369b602c83612b20565b91506136a68261363f565b604082019050919050565b600060208201905081810360008301526136ca8161368e565b9050919050565b7f4e487b7100000000000000000000000000000000000000000000000000000000600052603260045260246000fd5b7f4552433732313a206f776e657220717565727920666f72206e6f6e657869737460008201527f656e7420746f6b656e0000000000000000000000000000000000000000000000602082015250565b600061375c602983612b20565b915061376782613700565b604082019050919050565b6000602082019050818103600083015261378b8161374f565b9050919050565b7f4552433732313a2062616c616e636520717565727920666f7220746865207a6560008201527f726f206164647265737300000000000000000000000000000000000000000000602082015250565b60006137ee602a83612b20565b91506137f982613792565b604082019050919050565b6000602082019050818103600083015261381d816137e1565b9050919050565b7f4f776e61626c653a2063616c6c6572206973206e6f7420746865206f776e6572600082015250565b600061385a602083612b20565b915061386582613824565b602082019050919050565b600060208201905081810360008301526138898161384d565b9050919050565b7f4f776e61626c653a206e6577206f776e657220697320746865207a65726f206160008201527f6464726573730000000000000000000000000000000000000000000000000000602082015250565b60006138ec602683612b20565b91506138f782613890565b604082019050919050565b6000602082019050818103600083015261391b816138df565b9050919050565b7f4552433732313a206f70657261746f7220717565727920666f72206e6f6e657860008201527f697374656e7420746f6b656e0000000000000000000000000000000000000000602082015250565b600061397e602c83612b20565b915061398982613922565b604082019050919050565b600060208201905081810360008301526139ad81613971565b9050919050565b7f4552433732313a207472616e736665722066726f6d20696e636f72726563742060008201527f6f776e6572000000000000000000000000000000000000000000000000000000602082015250565b6000613a10602583612b20565b9150613a1b826139b4565b604082019050919050565b60006020820190508181036000830152613a3f81613a03565b9050919050565b7f4552433732313a207472616e7366657220746f20746865207a65726f2061646460008201527f7265737300000000000000000000000000000000000000000000000000000000602082015250565b6000613aa2602483612b20565b9150613aad82613a46565b604082019050919050565b60006020820190508181036000830152613ad181613a95565b9050919050565b7f4e487b7100000000000000000000000000000000000000000000000000000000600052601160045260246000fd5b6000613b1282612bd0565b9150613b1d83612bd0565b925082821015613b3057613b2f613ad8565b5b828203905092915050565b6000613b4682612bd0565b9150613b5183612bd0565b9250827fffffffffffffffffffffffffffffffffffffffffffffffffffffffffffffffff03821115613b8657613b85613ad8565b5b828201905092915050565b7f4552433732313a20617070726f766520746f2063616c6c657200000000000000600082015250565b6000613bc7601983612b20565b9150613bd282613b91565b602082019050919050565b60006020820190508181036000830152613bf681613bba565b9050919050565b7f4552433732313a207472616e7366657220746f206e6f6e20455243373231526560008201527f63656976657220696d706c656d656e7465720000000000000000000000000000602082015250565b6000613c59603283612b20565b9150613c6482613bfd565b604082019050919050565b60006020820190508181036000830152613c8881613c4c565b9050919050565b7f45524337323155524953746f726167653a2055524920717565727920666f722060008201527f6e6f6e6578697374656e7420746f6b656e000000000000000000000000000000602082015250565b6000613ceb603183612b20565b9150613cf682613c8f565b604082019050919050565b60006020820190508181036000830152613d1a81613cde565b9050919050565b600081905092915050565b6000613d3782612b15565b613d418185613d21565b9350613d51818560208601612b31565b80840191505092915050565b6000613d698285613d2c565b9150613d758284613d2c565b91508190509392505050565b7f45524337323155524953746f726167653a2055524920736574206f66206e6f6e60008201527f6578697374656e7420746f6b656e000000000000000000000000000000000000602082015250565b6000613ddd602e83612b20565b9150613de882613d81565b604082019050919050565b60006020820190508181036000830152613e0c81613dd0565b9050919050565b600081519050919050565b600082825260208201905092915050565b6000613e3a82613e13565b613e448185613e1e565b9350613e54818560208601612b31565b613e5d81612b64565b840191505092915050565b6000608082019050613e7d6000830187612c65565b613e8a6020830186612c65565b613e976040830185612ea2565b8181036060830152613ea98184613e2f565b905095945050505050565b600081519050613ec381612a86565b92915050565b600060208284031215613edf57613ede612a50565b5b6000613eed84828501613eb4565b91505092915050565b7f4552433732314d657461646174613a2055524920717565727920666f72206e6f60008201527f6e6578697374656e7420746f6b656e0000000000000000000000000000000000602082015250565b6000613f52602f83612b20565b9150613f5d82613ef6565b604082019050919050565b60006020820190508181036000830152613f8181613f45565b9050919050565b6000613f9382612bd0565b91507fffffffffffffffffffffffffffffffffffffffffffffffffffffffffffffffff8203613fc557613fc4613ad8565b5b600182019050919050565b7f4e487b7100000000000000000000000000000000000000000000000000000000600052601260045260246000fd5b600061400a82612bd0565b915061401583612bd0565b92508261402557614024613fd0565b5b828204905092915050565b600061403b82612bd0565b915061404683612bd0565b92508261405657614055613fd0565b5b828206905092915050565b7f4552433732313a206d696e7420746f20746865207a65726f2061646472657373600082015250565b6000614097602083612b20565b91506140a282614061565b602082019050919050565b600060208201905081810360008301526140c68161408a565b9050919050565b7f4552433732313a20746f6b656e20616c7265616479206d696e74656400000000600082015250565b6000614103601c83612b20565b915061410e826140cd565b602082019050919050565b60006020820190508181036000830152614132816140f6565b9050919050565b7f4e487b7100000000000000000000000000000000000000000000000000000000600052603160045260246000fdfea2646970667358221220925f6e54403aeeeaf337660553a802fdf2e4a944568f10638e60d5953bbcfbcd64736f6c634300080d0033",
  "devdoc": {
    "custom:security-contact": "contracts@metricsdao.xyz",
    "kind": "dev",
    "methods": {
      "approve(address,uint256)": {
        "details": "See {IERC721-approve}."
      },
      "balanceOf(address)": {
        "details": "See {IERC721-balanceOf}."
      },
      "burn(uint256)": {
        "details": "Burns `tokenId`. See {ERC721-_burn}. Requirements: - The caller must own `tokenId` or be an approved operator."
      },
      "getApproved(uint256)": {
        "details": "See {IERC721-getApproved}."
      },
      "isApprovedForAll(address,address)": {
        "details": "See {IERC721-isApprovedForAll}."
      },
      "name()": {
        "details": "See {IERC721Metadata-name}."
      },
      "owner()": {
        "details": "Returns the address of the current owner."
      },
      "ownerOf(uint256)": {
        "details": "See {IERC721-ownerOf}."
      },
      "renounceOwnership()": {
        "details": "Leaves the contract without owner. It will not be possible to call `onlyOwner` functions anymore. Can only be called by the current owner. NOTE: Renouncing ownership will leave the contract without an owner, thereby removing any functionality that is only available to the owner."
      },
      "safeTransferFrom(address,address,uint256)": {
        "details": "See {IERC721-safeTransferFrom}."
      },
      "safeTransferFrom(address,address,uint256,bytes)": {
        "details": "See {IERC721-safeTransferFrom}."
      },
      "setApprovalForAll(address,bool)": {
        "details": "See {IERC721-setApprovalForAll}."
      },
      "setQuestionApi(address)": {
        "params": {
          "_newApi": "The new address of the question API."
        }
      },
      "symbol()": {
        "details": "See {IERC721Metadata-symbol}."
      },
      "tokenByIndex(uint256)": {
        "details": "See {IERC721Enumerable-tokenByIndex}."
      },
      "tokenOfOwnerByIndex(address,uint256)": {
        "details": "See {IERC721Enumerable-tokenOfOwnerByIndex}."
      },
      "totalSupply()": {
        "details": "See {IERC721Enumerable-totalSupply}."
      },
      "transferFrom(address,address,uint256)": {
        "details": "See {IERC721-transferFrom}."
      },
      "transferOwnership(address)": {
        "details": "Transfers ownership of the contract to a new account (`newOwner`). Can only be called by the current owner."
      }
    },
    "version": 1
  },
  "userdoc": {
    "kind": "user",
    "methods": {
      "setQuestionApi(address)": {
        "notice": "Sets the address of the question API."
      }
    },
    "version": 1
  },
  "storageLayout": {
    "storage": [
      {
        "astId": 1177,
        "contract": "src/contracts/Protocol/BountyQuestion.sol:BountyQuestion",
        "label": "_name",
        "offset": 0,
        "slot": "0",
        "type": "t_string_storage"
      },
      {
        "astId": 1179,
        "contract": "src/contracts/Protocol/BountyQuestion.sol:BountyQuestion",
        "label": "_symbol",
        "offset": 0,
        "slot": "1",
        "type": "t_string_storage"
      },
      {
        "astId": 1183,
        "contract": "src/contracts/Protocol/BountyQuestion.sol:BountyQuestion",
        "label": "_owners",
        "offset": 0,
        "slot": "2",
        "type": "t_mapping(t_uint256,t_address)"
      },
      {
        "astId": 1187,
        "contract": "src/contracts/Protocol/BountyQuestion.sol:BountyQuestion",
        "label": "_balances",
        "offset": 0,
        "slot": "3",
        "type": "t_mapping(t_address,t_uint256)"
      },
      {
        "astId": 1191,
        "contract": "src/contracts/Protocol/BountyQuestion.sol:BountyQuestion",
        "label": "_tokenApprovals",
        "offset": 0,
        "slot": "4",
        "type": "t_mapping(t_uint256,t_address)"
      },
      {
        "astId": 1197,
        "contract": "src/contracts/Protocol/BountyQuestion.sol:BountyQuestion",
        "label": "_operatorApprovals",
        "offset": 0,
        "slot": "5",
        "type": "t_mapping(t_address,t_mapping(t_address,t_bool))"
      },
      {
        "astId": 2196,
        "contract": "src/contracts/Protocol/BountyQuestion.sol:BountyQuestion",
        "label": "_ownedTokens",
        "offset": 0,
        "slot": "6",
        "type": "t_mapping(t_address,t_mapping(t_uint256,t_uint256))"
      },
      {
        "astId": 2200,
        "contract": "src/contracts/Protocol/BountyQuestion.sol:BountyQuestion",
        "label": "_ownedTokensIndex",
        "offset": 0,
        "slot": "7",
        "type": "t_mapping(t_uint256,t_uint256)"
      },
      {
        "astId": 2203,
        "contract": "src/contracts/Protocol/BountyQuestion.sol:BountyQuestion",
        "label": "_allTokens",
        "offset": 0,
        "slot": "8",
        "type": "t_array(t_uint256)dyn_storage"
      },
      {
        "astId": 2207,
        "contract": "src/contracts/Protocol/BountyQuestion.sol:BountyQuestion",
        "label": "_allTokensIndex",
        "offset": 0,
        "slot": "9",
        "type": "t_mapping(t_uint256,t_uint256)"
      },
      {
        "astId": 2532,
        "contract": "src/contracts/Protocol/BountyQuestion.sol:BountyQuestion",
        "label": "_tokenURIs",
        "offset": 0,
        "slot": "10",
        "type": "t_mapping(t_uint256,t_string_storage)"
      },
      {
        "astId": 7,
        "contract": "src/contracts/Protocol/BountyQuestion.sol:BountyQuestion",
        "label": "_owner",
        "offset": 0,
        "slot": "11",
        "type": "t_address"
      },
      {
        "astId": 5052,
        "contract": "src/contracts/Protocol/BountyQuestion.sol:BountyQuestion",
        "label": "questionApi",
        "offset": 0,
        "slot": "12",
        "type": "t_address"
      },
      {
        "astId": 3851,
        "contract": "src/contracts/Protocol/BountyQuestion.sol:BountyQuestion",
        "label": "_tokenIdCounter",
        "offset": 0,
        "slot": "13",
        "type": "t_struct(Counter)3028_storage"
      },
      {
        "astId": 3857,
        "contract": "src/contracts/Protocol/BountyQuestion.sol:BountyQuestion",
        "label": "authors",
        "offset": 0,
        "slot": "14",
        "type": "t_mapping(t_address,t_array(t_struct(QuestionData)4011_storage)dyn_storage)"
      },
      {
        "astId": 3861,
        "contract": "src/contracts/Protocol/BountyQuestion.sol:BountyQuestion",
        "label": "_createdAt",
        "offset": 0,
        "slot": "15",
        "type": "t_mapping(t_uint256,t_uint256)"
      }
    ],
    "types": {
      "t_address": {
        "encoding": "inplace",
        "label": "address",
        "numberOfBytes": "20"
      },
      "t_array(t_struct(QuestionData)4011_storage)dyn_storage": {
        "base": "t_struct(QuestionData)4011_storage",
        "encoding": "dynamic_array",
        "label": "struct BountyQuestion.QuestionData[]",
        "numberOfBytes": "32"
      },
      "t_array(t_uint256)dyn_storage": {
        "base": "t_uint256",
        "encoding": "dynamic_array",
        "label": "uint256[]",
        "numberOfBytes": "32"
      },
      "t_bool": {
        "encoding": "inplace",
        "label": "bool",
        "numberOfBytes": "1"
      },
      "t_mapping(t_address,t_array(t_struct(QuestionData)4011_storage)dyn_storage)": {
        "encoding": "mapping",
        "key": "t_address",
        "label": "mapping(address => struct BountyQuestion.QuestionData[])",
        "numberOfBytes": "32",
        "value": "t_array(t_struct(QuestionData)4011_storage)dyn_storage"
      },
      "t_mapping(t_address,t_bool)": {
        "encoding": "mapping",
        "key": "t_address",
        "label": "mapping(address => bool)",
        "numberOfBytes": "32",
        "value": "t_bool"
      },
      "t_mapping(t_address,t_mapping(t_address,t_bool))": {
        "encoding": "mapping",
        "key": "t_address",
        "label": "mapping(address => mapping(address => bool))",
        "numberOfBytes": "32",
        "value": "t_mapping(t_address,t_bool)"
      },
      "t_mapping(t_address,t_mapping(t_uint256,t_uint256))": {
        "encoding": "mapping",
        "key": "t_address",
        "label": "mapping(address => mapping(uint256 => uint256))",
        "numberOfBytes": "32",
        "value": "t_mapping(t_uint256,t_uint256)"
      },
      "t_mapping(t_address,t_uint256)": {
        "encoding": "mapping",
        "key": "t_address",
        "label": "mapping(address => uint256)",
        "numberOfBytes": "32",
        "value": "t_uint256"
      },
      "t_mapping(t_uint256,t_address)": {
        "encoding": "mapping",
        "key": "t_uint256",
        "label": "mapping(uint256 => address)",
        "numberOfBytes": "32",
        "value": "t_address"
      },
      "t_mapping(t_uint256,t_string_storage)": {
        "encoding": "mapping",
        "key": "t_uint256",
        "label": "mapping(uint256 => string)",
        "numberOfBytes": "32",
        "value": "t_string_storage"
      },
      "t_mapping(t_uint256,t_uint256)": {
        "encoding": "mapping",
        "key": "t_uint256",
        "label": "mapping(uint256 => uint256)",
        "numberOfBytes": "32",
        "value": "t_uint256"
      },
      "t_string_storage": {
        "encoding": "bytes",
        "label": "string",
        "numberOfBytes": "32"
      },
      "t_struct(Counter)3028_storage": {
        "encoding": "inplace",
        "label": "struct Counters.Counter",
        "members": [
          {
            "astId": 3027,
            "contract": "src/contracts/Protocol/BountyQuestion.sol:BountyQuestion",
            "label": "_value",
            "offset": 0,
            "slot": "0",
            "type": "t_uint256"
          }
        ],
        "numberOfBytes": "32"
      },
      "t_struct(QuestionData)4011_storage": {
        "encoding": "inplace",
        "label": "struct BountyQuestion.QuestionData",
        "members": [
          {
            "astId": 4008,
            "contract": "src/contracts/Protocol/BountyQuestion.sol:BountyQuestion",
            "label": "tokenId",
            "offset": 0,
            "slot": "0",
            "type": "t_uint256"
          },
          {
            "astId": 4010,
            "contract": "src/contracts/Protocol/BountyQuestion.sol:BountyQuestion",
            "label": "url",
            "offset": 0,
            "slot": "1",
            "type": "t_string_storage"
          }
        ],
        "numberOfBytes": "64"
      },
      "t_uint256": {
        "encoding": "inplace",
        "label": "uint256",
        "numberOfBytes": "32"
      }
    }
  }
}