{
  "address": "0x5FC8d32690cc91D4c39d9d3abcBD16989F875707",
  "abi": [
    {
      "inputs": [],
      "name": "AlreadyClaimed",
      "type": "error"
    },
    {
      "inputs": [],
      "name": "ClaimLimitReached",
      "type": "error"
    },
    {
      "inputs": [],
      "name": "NeedClaimToAnswer",
      "type": "error"
    },
    {
      "inputs": [],
      "name": "NoClaimToRelease",
      "type": "error"
    },
    {
      "inputs": [],
      "name": "NotTheApi",
      "type": "error"
    },
    {
      "anonymous": false,
      "inputs": [
        {
          "indexed": true,
          "internalType": "address",
          "name": "previousOwner",
          "type": "address"
        },
        {
          "indexed": true,
          "internalType": "address",
          "name": "newOwner",
          "type": "address"
        }
      ],
      "name": "OwnershipTransferred",
      "type": "event"
    },
    {
      "inputs": [
        {
          "internalType": "address",
          "name": "user",
          "type": "address"
        },
        {
          "internalType": "uint256",
          "name": "questionId",
          "type": "uint256"
        },
        {
          "internalType": "string",
          "name": "answerURL",
          "type": "string"
        }
      ],
      "name": "answer",
      "outputs": [],
      "stateMutability": "nonpayable",
      "type": "function"
    },
    {
      "inputs": [
        {
          "internalType": "uint256",
          "name": "",
          "type": "uint256"
        },
        {
          "internalType": "address",
          "name": "",
          "type": "address"
        }
      ],
      "name": "answers",
      "outputs": [
        {
          "internalType": "enum CLAIM_STATE",
          "name": "state",
          "type": "uint8"
        },
        {
          "internalType": "address",
          "name": "author",
          "type": "address"
        },
        {
          "internalType": "string",
          "name": "answerURL",
          "type": "string"
        },
        {
          "internalType": "uint256",
          "name": "finalGrade",
          "type": "uint256"
        },
        {
          "internalType": "string",
          "name": "scoringMetaDataURI",
          "type": "string"
        }
      ],
      "stateMutability": "view",
      "type": "function"
    },
    {
      "inputs": [
        {
          "internalType": "address",
          "name": "user",
          "type": "address"
        },
        {
          "internalType": "uint256",
          "name": "questionId",
          "type": "uint256"
        }
      ],
      "name": "claim",
      "outputs": [],
      "stateMutability": "nonpayable",
      "type": "function"
    },
    {
      "inputs": [
        {
          "internalType": "uint256",
          "name": "",
          "type": "uint256"
        }
      ],
      "name": "claimCounts",
      "outputs": [
        {
          "internalType": "uint256",
          "name": "",
          "type": "uint256"
        }
      ],
      "stateMutability": "view",
      "type": "function"
    },
    {
      "inputs": [
        {
          "internalType": "uint256",
          "name": "",
          "type": "uint256"
        }
      ],
      "name": "claimLimits",
      "outputs": [
        {
          "internalType": "uint256",
          "name": "",
          "type": "uint256"
        }
      ],
      "stateMutability": "view",
      "type": "function"
    },
    {
      "inputs": [
        {
          "internalType": "uint256",
          "name": "",
          "type": "uint256"
        },
        {
          "internalType": "uint256",
          "name": "",
          "type": "uint256"
        }
      ],
      "name": "claims",
      "outputs": [
        {
          "internalType": "address",
          "name": "",
          "type": "address"
        }
      ],
      "stateMutability": "view",
      "type": "function"
    },
    {
      "inputs": [
        {
          "internalType": "uint256",
          "name": "questionId",
          "type": "uint256"
        },
        {
          "internalType": "address",
          "name": "user",
          "type": "address"
        }
      ],
      "name": "getClaimDataForUser",
      "outputs": [
        {
          "components": [
            {
              "internalType": "enum CLAIM_STATE",
              "name": "state",
              "type": "uint8"
            },
            {
              "internalType": "address",
              "name": "author",
              "type": "address"
            },
            {
              "internalType": "string",
              "name": "answerURL",
              "type": "string"
            },
            {
              "internalType": "uint256",
              "name": "finalGrade",
              "type": "uint256"
            },
            {
              "internalType": "string",
              "name": "scoringMetaDataURI",
              "type": "string"
            }
          ],
          "internalType": "struct Answer",
          "name": "_answer",
          "type": "tuple"
        }
      ],
      "stateMutability": "view",
      "type": "function"
    },
    {
      "inputs": [
        {
          "internalType": "uint256",
          "name": "questionId",
          "type": "uint256"
        }
      ],
      "name": "getClaimLimit",
      "outputs": [
        {
          "internalType": "uint256",
          "name": "",
          "type": "uint256"
        }
      ],
      "stateMutability": "view",
      "type": "function"
    },
    {
      "inputs": [
        {
          "internalType": "uint256",
          "name": "questionId",
          "type": "uint256"
        }
      ],
      "name": "getClaims",
      "outputs": [
        {
          "internalType": "address[]",
          "name": "_claims",
          "type": "address[]"
        }
      ],
      "stateMutability": "view",
      "type": "function"
    },
    {
      "inputs": [
        {
          "internalType": "uint256",
          "name": "questionId",
          "type": "uint256"
        },
        {
          "internalType": "address",
          "name": "user",
          "type": "address"
        }
      ],
      "name": "getQuestionClaimState",
      "outputs": [
        {
          "internalType": "enum CLAIM_STATE",
          "name": "claimState",
          "type": "uint8"
        }
      ],
      "stateMutability": "view",
      "type": "function"
    },
    {
      "inputs": [
        {
          "internalType": "uint256",
          "name": "questionId",
          "type": "uint256"
        },
        {
          "internalType": "uint256",
          "name": "claimLimit",
          "type": "uint256"
        }
      ],
      "name": "initializeQuestion",
      "outputs": [],
      "stateMutability": "nonpayable",
      "type": "function"
    },
    {
      "inputs": [],
      "name": "owner",
      "outputs": [
        {
          "internalType": "address",
          "name": "",
          "type": "address"
        }
      ],
      "stateMutability": "view",
      "type": "function"
    },
    {
      "inputs": [],
      "name": "questionApi",
      "outputs": [
        {
          "internalType": "address",
          "name": "",
          "type": "address"
        }
      ],
      "stateMutability": "view",
      "type": "function"
    },
    {
      "inputs": [
        {
          "internalType": "address",
          "name": "user",
          "type": "address"
        },
        {
          "internalType": "uint256",
          "name": "questionId",
          "type": "uint256"
        }
      ],
      "name": "releaseClaim",
      "outputs": [],
      "stateMutability": "nonpayable",
      "type": "function"
    },
    {
      "inputs": [],
      "name": "renounceOwnership",
      "outputs": [],
      "stateMutability": "nonpayable",
      "type": "function"
    },
    {
      "inputs": [
        {
          "internalType": "address",
          "name": "_newApi",
          "type": "address"
        }
      ],
      "name": "setQuestionApi",
      "outputs": [],
      "stateMutability": "nonpayable",
      "type": "function"
    },
    {
      "inputs": [
        {
          "internalType": "address",
          "name": "newOwner",
          "type": "address"
        }
      ],
      "name": "transferOwnership",
      "outputs": [],
      "stateMutability": "nonpayable",
      "type": "function"
    }
  ],
  "transactionHash": "0x22ce72bfa5b6b9bbe3f3d3f23c636de0a4c213e07d0976e1c2a76fb8e384eabd",
  "args": [],
  "numDeployments": 1,
  "solcInputHash": "287f6c3732ce0c40e91a2add091a5090",
  "bytecode": "0x608060405234801561001057600080fd5b5061002d61002261003260201b60201c565b61003a60201b60201c565b6100fe565b600033905090565b60008060009054906101000a900473ffffffffffffffffffffffffffffffffffffffff169050816000806101000a81548173ffffffffffffffffffffffffffffffffffffffff021916908373ffffffffffffffffffffffffffffffffffffffff1602179055508173ffffffffffffffffffffffffffffffffffffffff168173ffffffffffffffffffffffffffffffffffffffff167f8be0079c531659141344cd1fd0a4f28419497f9722a3daafe3b4186f6b6457e060405160405180910390a35050565b611e998061010d6000396000f3fe608060405234801561001057600080fd5b506004361061010b5760003560e01c80638da5cb5b116100a2578063bdb686de11610071578063bdb686de146102ce578063c0875dfd146102fe578063de9951a61461031a578063f2fde38b14610336578063f894160e146103525761010b565b80638da5cb5b14610234578063a461272b14610252578063aad3ec9614610282578063b92e274a1461029e5761010b565b8063701776f7116100de578063701776f7146101aa578063715018a6146101c65780637dfca71c146101d0578063888af91d146102045761010b565b8063469724e1146101105780634e2f46291461012c5780636baef4971461015c5780636e3c4dd71461017a575b600080fd5b61012a600480360381019061012591906116ab565b610382565b005b610146600480360381019061014191906116eb565b610622565b6040516101539190611727565b60405180910390f35b61016461063a565b6040516101719190611751565b60405180910390f35b610194600480360381019061018f91906116eb565b610660565b6040516101a19190611727565b60405180910390f35b6101c460048036038101906101bf919061176c565b610678565b005b6101ce610722565b005b6101ea60048036038101906101e591906117ac565b6107aa565b6040516101fb9594939291906118fc565b60405180910390f35b61021e600480360381019061021991906116eb565b61092a565b60405161022b9190611a1b565b60405180910390f35b61023c6109cb565b6040516102499190611751565b60405180910390f35b61026c600480360381019061026791906116eb565b6109f4565b6040516102799190611727565b60405180910390f35b61029c600480360381019061029791906116ab565b610a11565b005b6102b860048036038101906102b391906117ac565b610d84565b6040516102c59190611a3d565b60405180910390f35b6102e860048036038101906102e391906117ac565b610def565b6040516102f59190611b3d565b60405180910390f35b61031860048036038101906103139190611b5f565b611019565b005b610334600480360381019061032f9190611bf1565b6110d9565b005b610350600480360381019061034b9190611b5f565b61127c565b005b61036c6004803603810190610367919061176c565b611373565b6040516103799190611751565b60405180910390f35b600160009054906101000a900473ffffffffffffffffffffffffffffffffffffffff1673ffffffffffffffffffffffffffffffffffffffff166103c36113c1565b73ffffffffffffffffffffffffffffffffffffffff1614610410576040517f92471d5b00000000000000000000000000000000000000000000000000000000815260040160405180910390fd5b8173ffffffffffffffffffffffffffffffffffffffff166004600083815260200190815260200160002060008473ffffffffffffffffffffffffffffffffffffffff1673ffffffffffffffffffffffffffffffffffffffff16815260200190815260200160002060000160019054906101000a900473ffffffffffffffffffffffffffffffffffffffff1673ffffffffffffffffffffffffffffffffffffffff16146104e8576040517f70d169c800000000000000000000000000000000000000000000000000000000815260040160405180910390fd5b60026004600083815260200190815260200160002060008473ffffffffffffffffffffffffffffffffffffffff1673ffffffffffffffffffffffffffffffffffffffff16815260200190815260200160002060000160006101000a81548160ff0219169083600381111561055f5761055e6117ec565b5b021790555060006004600083815260200190815260200160002060008473ffffffffffffffffffffffffffffffffffffffff1673ffffffffffffffffffffffffffffffffffffffff16815260200190815260200160002060000160016101000a81548173ffffffffffffffffffffffffffffffffffffffff021916908373ffffffffffffffffffffffffffffffffffffffff160217905550600360008281526020019081526020016000206000815461061790611c94565b919050819055505050565b60036020528060005260406000206000915090505481565b600160009054906101000a900473ffffffffffffffffffffffffffffffffffffffff1681565b60026020528060005260406000206000915090505481565b600160009054906101000a900473ffffffffffffffffffffffffffffffffffffffff1673ffffffffffffffffffffffffffffffffffffffff166106b96113c1565b73ffffffffffffffffffffffffffffffffffffffff1614610706576040517f92471d5b00000000000000000000000000000000000000000000000000000000815260040160405180910390fd5b8060026000848152602001908152602001600020819055505050565b61072a6113c1565b73ffffffffffffffffffffffffffffffffffffffff166107486109cb565b73ffffffffffffffffffffffffffffffffffffffff161461079e576040517f08c379a000000000000000000000000000000000000000000000000000000000815260040161079590611d09565b60405180910390fd5b6107a860006113c9565b565b6004602052816000526040600020602052806000526040600020600091509150508060000160009054906101000a900460ff16908060000160019054906101000a900473ffffffffffffffffffffffffffffffffffffffff169080600101805461081390611d58565b80601f016020809104026020016040519081016040528092919081815260200182805461083f90611d58565b801561088c5780601f106108615761010080835404028352916020019161088c565b820191906000526020600020905b81548152906001019060200180831161086f57829003601f168201915b5050505050908060020154908060030180546108a790611d58565b80601f01602080910402602001604051908101604052809291908181526020018280546108d390611d58565b80156109205780601f106108f557610100808354040283529160200191610920565b820191906000526020600020905b81548152906001019060200180831161090357829003601f168201915b5050505050905085565b6060600560008381526020019081526020016000208054806020026020016040519081016040528092919081815260200182805480156109bf57602002820191906000526020600020905b8160009054906101000a900473ffffffffffffffffffffffffffffffffffffffff1673ffffffffffffffffffffffffffffffffffffffff1681526020019060010190808311610975575b50505050509050919050565b60008060009054906101000a900473ffffffffffffffffffffffffffffffffffffffff16905090565b600060026000838152602001908152602001600020549050919050565b600160009054906101000a900473ffffffffffffffffffffffffffffffffffffffff1673ffffffffffffffffffffffffffffffffffffffff16610a526113c1565b73ffffffffffffffffffffffffffffffffffffffff1614610a9f576040517f92471d5b00000000000000000000000000000000000000000000000000000000815260040160405180910390fd5b6002600082815260200190815260200160002054600360008381526020019081526020016000205410610afe576040517f9907008b00000000000000000000000000000000000000000000000000000000815260040160405180910390fd5b8173ffffffffffffffffffffffffffffffffffffffff166004600083815260200190815260200160002060008473ffffffffffffffffffffffffffffffffffffffff1673ffffffffffffffffffffffffffffffffffffffff16815260200190815260200160002060000160019054906101000a900473ffffffffffffffffffffffffffffffffffffffff1673ffffffffffffffffffffffffffffffffffffffff1603610bd6576040517f646cf55800000000000000000000000000000000000000000000000000000000815260040160405180910390fd5b6003600082815260200190815260200160002060008154610bf690611d89565b9190508190555060006040518060a0016040528060016003811115610c1e57610c1d6117ec565b5b81526020018473ffffffffffffffffffffffffffffffffffffffff16815260200160405180602001604052806000815250815260200160008152602001604051806020016040528060008152508152509050806004600084815260200190815260200160002060008573ffffffffffffffffffffffffffffffffffffffff1673ffffffffffffffffffffffffffffffffffffffff16815260200190815260200160002060008201518160000160006101000a81548160ff02191690836003811115610cec57610ceb6117ec565b5b021790555060208201518160000160016101000a81548173ffffffffffffffffffffffffffffffffffffffff021916908373ffffffffffffffffffffffffffffffffffffffff1602179055506040820151816001019080519060200190610d5492919061148d565b50606082015181600201556080820151816003019080519060200190610d7b92919061148d565b50905050505050565b60006004600084815260200190815260200160002060008373ffffffffffffffffffffffffffffffffffffffff1673ffffffffffffffffffffffffffffffffffffffff16815260200190815260200160002060000160009054906101000a900460ff16905092915050565b610df7611513565b6004600084815260200190815260200160002060008373ffffffffffffffffffffffffffffffffffffffff1673ffffffffffffffffffffffffffffffffffffffff1681526020019081526020016000206040518060a00160405290816000820160009054906101000a900460ff166003811115610e7757610e766117ec565b5b6003811115610e8957610e886117ec565b5b81526020016000820160019054906101000a900473ffffffffffffffffffffffffffffffffffffffff1673ffffffffffffffffffffffffffffffffffffffff1673ffffffffffffffffffffffffffffffffffffffff168152602001600182018054610ef390611d58565b80601f0160208091040260200160405190810160405280929190818152602001828054610f1f90611d58565b8015610f6c5780601f10610f4157610100808354040283529160200191610f6c565b820191906000526020600020905b815481529060010190602001808311610f4f57829003601f168201915b5050505050815260200160028201548152602001600382018054610f8f90611d58565b80601f0160208091040260200160405190810160405280929190818152602001828054610fbb90611d58565b80156110085780601f10610fdd57610100808354040283529160200191611008565b820191906000526020600020905b815481529060010190602001808311610feb57829003601f168201915b505050505081525050905092915050565b6110216113c1565b73ffffffffffffffffffffffffffffffffffffffff1661103f6109cb565b73ffffffffffffffffffffffffffffffffffffffff1614611095576040517f08c379a000000000000000000000000000000000000000000000000000000000815260040161108c90611d09565b60405180910390fd5b80600160006101000a81548173ffffffffffffffffffffffffffffffffffffffff021916908373ffffffffffffffffffffffffffffffffffffffff16021790555050565b6110e16113c1565b73ffffffffffffffffffffffffffffffffffffffff166110ff6109cb565b73ffffffffffffffffffffffffffffffffffffffff1614611155576040517f08c379a000000000000000000000000000000000000000000000000000000000815260040161114c90611d09565b60405180910390fd5b60016003811115611169576111686117ec565b5b6004600085815260200190815260200160002060008673ffffffffffffffffffffffffffffffffffffffff1673ffffffffffffffffffffffffffffffffffffffff16815260200190815260200160002060000160009054906101000a900460ff1660038111156111dc576111db6117ec565b5b14611213576040517f54a0346a00000000000000000000000000000000000000000000000000000000815260040160405180910390fd5b81816004600086815260200190815260200160002060008773ffffffffffffffffffffffffffffffffffffffff1673ffffffffffffffffffffffffffffffffffffffff168152602001908152602001600020600101919061127592919061156a565b5050505050565b6112846113c1565b73ffffffffffffffffffffffffffffffffffffffff166112a26109cb565b73ffffffffffffffffffffffffffffffffffffffff16146112f8576040517f08c379a00000000000000000000000000000000000000000000000000000000081526004016112ef90611d09565b60405180910390fd5b600073ffffffffffffffffffffffffffffffffffffffff168173ffffffffffffffffffffffffffffffffffffffff1603611367576040517f08c379a000000000000000000000000000000000000000000000000000000000815260040161135e90611e43565b60405180910390fd5b611370816113c9565b50565b6005602052816000526040600020818154811061138f57600080fd5b906000526020600020016000915091509054906101000a900473ffffffffffffffffffffffffffffffffffffffff1681565b600033905090565b60008060009054906101000a900473ffffffffffffffffffffffffffffffffffffffff169050816000806101000a81548173ffffffffffffffffffffffffffffffffffffffff021916908373ffffffffffffffffffffffffffffffffffffffff1602179055508173ffffffffffffffffffffffffffffffffffffffff168173ffffffffffffffffffffffffffffffffffffffff167f8be0079c531659141344cd1fd0a4f28419497f9722a3daafe3b4186f6b6457e060405160405180910390a35050565b82805461149990611d58565b90600052602060002090601f0160209004810192826114bb5760008555611502565b82601f106114d457805160ff1916838001178555611502565b82800160010185558215611502579182015b828111156115015782518255916020019190600101906114e6565b5b50905061150f91906115f0565b5090565b6040518060a0016040528060006003811115611532576115316117ec565b5b8152602001600073ffffffffffffffffffffffffffffffffffffffff1681526020016060815260200160008152602001606081525090565b82805461157690611d58565b90600052602060002090601f01602090048101928261159857600085556115df565b82601f106115b157803560ff19168380011785556115df565b828001600101855582156115df579182015b828111156115de5782358255916020019190600101906115c3565b5b5090506115ec91906115f0565b5090565b5b808211156116095760008160009055506001016115f1565b5090565b600080fd5b600080fd5b600073ffffffffffffffffffffffffffffffffffffffff82169050919050565b600061164282611617565b9050919050565b61165281611637565b811461165d57600080fd5b50565b60008135905061166f81611649565b92915050565b6000819050919050565b61168881611675565b811461169357600080fd5b50565b6000813590506116a58161167f565b92915050565b600080604083850312156116c2576116c161160d565b5b60006116d085828601611660565b92505060206116e185828601611696565b9150509250929050565b6000602082840312156117015761170061160d565b5b600061170f84828501611696565b91505092915050565b61172181611675565b82525050565b600060208201905061173c6000830184611718565b92915050565b61174b81611637565b82525050565b60006020820190506117666000830184611742565b92915050565b600080604083850312156117835761178261160d565b5b600061179185828601611696565b92505060206117a285828601611696565b9150509250929050565b600080604083850312156117c3576117c261160d565b5b60006117d185828601611696565b92505060206117e285828601611660565b9150509250929050565b7f4e487b7100000000000000000000000000000000000000000000000000000000600052602160045260246000fd5b6004811061182c5761182b6117ec565b5b50565b600081905061183d8261181b565b919050565b600061184d8261182f565b9050919050565b61185d81611842565b82525050565b600081519050919050565b600082825260208201905092915050565b60005b8381101561189d578082015181840152602081019050611882565b838111156118ac576000848401525b50505050565b6000601f19601f8301169050919050565b60006118ce82611863565b6118d8818561186e565b93506118e881856020860161187f565b6118f1816118b2565b840191505092915050565b600060a0820190506119116000830188611854565b61191e6020830187611742565b818103604083015261193081866118c3565b905061193f6060830185611718565b818103608083015261195181846118c3565b90509695505050505050565b600081519050919050565b600082825260208201905092915050565b6000819050602082019050919050565b61199281611637565b82525050565b60006119a48383611989565b60208301905092915050565b6000602082019050919050565b60006119c88261195d565b6119d28185611968565b93506119dd83611979565b8060005b83811015611a0e5781516119f58882611998565b9750611a00836119b0565b9250506001810190506119e1565b5085935050505092915050565b60006020820190508181036000830152611a3581846119bd565b905092915050565b6000602082019050611a526000830184611854565b92915050565b611a6181611842565b82525050565b600082825260208201905092915050565b6000611a8382611863565b611a8d8185611a67565b9350611a9d81856020860161187f565b611aa6816118b2565b840191505092915050565b611aba81611675565b82525050565b600060a083016000830151611ad86000860182611a58565b506020830151611aeb6020860182611989565b5060408301518482036040860152611b038282611a78565b9150506060830151611b186060860182611ab1565b5060808301518482036080860152611b308282611a78565b9150508091505092915050565b60006020820190508181036000830152611b578184611ac0565b905092915050565b600060208284031215611b7557611b7461160d565b5b6000611b8384828501611660565b91505092915050565b600080fd5b600080fd5b600080fd5b60008083601f840112611bb157611bb0611b8c565b5b8235905067ffffffffffffffff811115611bce57611bcd611b91565b5b602083019150836001820283011115611bea57611be9611b96565b5b9250929050565b60008060008060608587031215611c0b57611c0a61160d565b5b6000611c1987828801611660565b9450506020611c2a87828801611696565b935050604085013567ffffffffffffffff811115611c4b57611c4a611612565b5b611c5787828801611b9b565b925092505092959194509250565b7f4e487b7100000000000000000000000000000000000000000000000000000000600052601160045260246000fd5b6000611c9f82611675565b915060008203611cb257611cb1611c65565b5b600182039050919050565b7f4f776e61626c653a2063616c6c6572206973206e6f7420746865206f776e6572600082015250565b6000611cf360208361186e565b9150611cfe82611cbd565b602082019050919050565b60006020820190508181036000830152611d2281611ce6565b9050919050565b7f4e487b7100000000000000000000000000000000000000000000000000000000600052602260045260246000fd5b60006002820490506001821680611d7057607f821691505b602082108103611d8357611d82611d29565b5b50919050565b6000611d9482611675565b91507fffffffffffffffffffffffffffffffffffffffffffffffffffffffffffffffff8203611dc657611dc5611c65565b5b600182019050919050565b7f4f776e61626c653a206e6577206f776e657220697320746865207a65726f206160008201527f6464726573730000000000000000000000000000000000000000000000000000602082015250565b6000611e2d60268361186e565b9150611e3882611dd1565b604082019050919050565b60006020820190508181036000830152611e5c81611e20565b905091905056fea2646970667358221220a7544e9c820f6f898203e9f17f4a62c10299bdc4d2d3d328bad603b9ef63b79064736f6c634300080d0033",
  "devdoc": {
    "kind": "dev",
    "methods": {
      "initializeQuestion(uint256,uint256)": {
        "params": {
          "claimLimit": "The limit for the amount of people that can claim the question",
          "questionId": "The id of the question"
        }
      },
      "owner()": {
        "details": "Returns the address of the current owner."
      },
      "renounceOwnership()": {
        "details": "Leaves the contract without owner. It will not be possible to call `onlyOwner` functions anymore. Can only be called by the current owner. NOTE: Renouncing ownership will leave the contract without an owner, thereby removing any functionality that is only available to the owner."
      },
      "setQuestionApi(address)": {
        "params": {
          "_newApi": "The new address of the question API."
        }
      },
      "transferOwnership(address)": {
        "details": "Transfers ownership of the contract to a new account (`newOwner`). Can only be called by the current owner."
      }
    },
    "version": 1
  },
  "userdoc": {
    "errors": {
      "AlreadyClaimed()": [
        {
          "notice": "Throw if analyst tries to claim a question multiple times"
        }
      ],
      "ClaimLimitReached()": [
        {
          "notice": "Throw if user tries to claim a question that is past its limit"
        }
      ],
      "NeedClaimToAnswer()": [
        {
          "notice": "Throw if a analyst tries to answer a question that it has not claimed"
        }
      ],
      "NoClaimToRelease()": [
        {
          "notice": "Throw if analyst tries to release a claim it did not claim"
        }
      ]
    },
    "kind": "user",
    "methods": {
      "answers(uint256,address)": {
        "notice": "maps answers to the question they belong to"
      },
      "claimCounts(uint256)": {
        "notice": "Keeps track of claim counts per question"
      },
      "claimLimits(uint256)": {
        "notice": "Keeps track of claim limits per question"
      },
      "claims(uint256,uint256)": {
        "notice": "maps all claimers to a question"
      },
      "initializeQuestion(uint256,uint256)": {
        "notice": "Initializes a question to receive claims"
      },
      "setQuestionApi(address)": {
        "notice": "Sets the address of the question API."
      }
    },
    "version": 1
  },
  "storageLayout": {
    "storage": [
      {
        "astId": 7,
        "contract": "src/contracts/Protocol/ClaimController.sol:ClaimController",
        "label": "_owner",
        "offset": 0,
        "slot": "0",
        "type": "t_address"
      },
      {
        "astId": 3882,
        "contract": "src/contracts/Protocol/ClaimController.sol:ClaimController",
        "label": "questionApi",
        "offset": 0,
        "slot": "1",
        "type": "t_address"
      },
      {
        "astId": 1450,
        "contract": "src/contracts/Protocol/ClaimController.sol:ClaimController",
        "label": "claimLimits",
        "offset": 0,
        "slot": "2",
        "type": "t_mapping(t_uint256,t_uint256)"
      },
      {
        "astId": 1455,
        "contract": "src/contracts/Protocol/ClaimController.sol:ClaimController",
        "label": "claimCounts",
        "offset": 0,
        "slot": "3",
        "type": "t_mapping(t_uint256,t_uint256)"
      },
      {
        "astId": 1463,
        "contract": "src/contracts/Protocol/ClaimController.sol:ClaimController",
        "label": "answers",
        "offset": 0,
        "slot": "4",
        "type": "t_mapping(t_uint256,t_mapping(t_address,t_struct(Answer)2822_storage))"
      },
      {
        "astId": 1469,
        "contract": "src/contracts/Protocol/ClaimController.sol:ClaimController",
        "label": "claims",
        "offset": 0,
        "slot": "5",
        "type": "t_mapping(t_uint256,t_array(t_address)dyn_storage)"
      }
    ],
    "types": {
      "t_address": {
        "encoding": "inplace",
        "label": "address",
        "numberOfBytes": "20"
      },
      "t_array(t_address)dyn_storage": {
        "base": "t_address",
        "encoding": "dynamic_array",
        "label": "address[]",
        "numberOfBytes": "32"
      },
      "t_enum(CLAIM_STATE)1713": {
        "encoding": "inplace",
        "label": "enum CLAIM_STATE",
        "numberOfBytes": "1"
      },
      "t_mapping(t_address,t_struct(Answer)2822_storage)": {
        "encoding": "mapping",
        "key": "t_address",
        "label": "mapping(address => struct Answer)",
        "numberOfBytes": "32",
        "value": "t_struct(Answer)2822_storage"
      },
      "t_mapping(t_uint256,t_array(t_address)dyn_storage)": {
        "encoding": "mapping",
        "key": "t_uint256",
        "label": "mapping(uint256 => address[])",
        "numberOfBytes": "32",
        "value": "t_array(t_address)dyn_storage"
      },
      "t_mapping(t_uint256,t_mapping(t_address,t_struct(Answer)2822_storage))": {
        "encoding": "mapping",
        "key": "t_uint256",
        "label": "mapping(uint256 => mapping(address => struct Answer))",
        "numberOfBytes": "32",
        "value": "t_mapping(t_address,t_struct(Answer)2822_storage)"
      },
      "t_mapping(t_uint256,t_uint256)": {
        "encoding": "mapping",
        "key": "t_uint256",
        "label": "mapping(uint256 => uint256)",
        "numberOfBytes": "32",
        "value": "t_uint256"
      },
      "t_string_storage": {
        "encoding": "bytes",
        "label": "string",
        "numberOfBytes": "32"
      },
      "t_struct(Answer)2822_storage": {
        "encoding": "inplace",
        "label": "struct Answer",
        "members": [
          {
            "astId": 2813,
            "contract": "src/contracts/Protocol/ClaimController.sol:ClaimController",
            "label": "state",
            "offset": 0,
            "slot": "0",
            "type": "t_enum(CLAIM_STATE)1713"
          },
          {
            "astId": 2815,
            "contract": "src/contracts/Protocol/ClaimController.sol:ClaimController",
            "label": "author",
            "offset": 1,
            "slot": "0",
            "type": "t_address"
          },
          {
            "astId": 2817,
            "contract": "src/contracts/Protocol/ClaimController.sol:ClaimController",
            "label": "answerURL",
            "offset": 0,
            "slot": "1",
            "type": "t_string_storage"
          },
          {
            "astId": 2819,
            "contract": "src/contracts/Protocol/ClaimController.sol:ClaimController",
            "label": "finalGrade",
            "offset": 0,
            "slot": "2",
            "type": "t_uint256"
          },
          {
            "astId": 2821,
            "contract": "src/contracts/Protocol/ClaimController.sol:ClaimController",
            "label": "scoringMetaDataURI",
            "offset": 0,
            "slot": "3",
            "type": "t_string_storage"
          }
        ],
        "numberOfBytes": "128"
      },
      "t_uint256": {
        "encoding": "inplace",
        "label": "uint256",
        "numberOfBytes": "32"
      }
    }
  }
}