{
  "address": "0x8A791620dd6260079BF849Dc5567aDC3F2FdC318",
  "abi": [
    {
      "inputs": [
        {
          "internalType": "address",
          "name": "bountyQuestion",
          "type": "address"
        },
        {
          "internalType": "address",
          "name": "questionStateController",
          "type": "address"
        },
        {
          "internalType": "address",
          "name": "claimController",
          "type": "address"
        },
        {
          "internalType": "address",
          "name": "costController",
          "type": "address"
        }
      ],
      "stateMutability": "nonpayable",
      "type": "constructor"
    },
    {
      "inputs": [],
      "name": "CannotVoteForOwnQuestion",
      "type": "error"
    },
    {
      "inputs": [],
      "name": "ClaimsNotOpen",
      "type": "error"
    },
    {
      "inputs": [],
      "name": "DoesNotHold",
      "type": "error"
    },
    {
      "inputs": [],
      "name": "FunctionIsLocked",
      "type": "error"
    },
    {
      "inputs": [],
      "name": "InvalidAddress",
      "type": "error"
    },
    {
      "inputs": [],
      "name": "NotAtBenchmark",
      "type": "error"
    },
    {
      "anonymous": false,
      "inputs": [
        {
          "indexed": true,
          "internalType": "uint256",
          "name": "questionId",
          "type": "uint256"
        },
        {
          "indexed": true,
          "internalType": "address",
          "name": "challengeCreator",
          "type": "address"
        }
      ],
      "name": "ChallengeCreated",
      "type": "event"
    },
    {
      "anonymous": false,
      "inputs": [
        {
          "indexed": true,
          "internalType": "address",
          "name": "previousOwner",
          "type": "address"
        },
        {
          "indexed": true,
          "internalType": "address",
          "name": "newOwner",
          "type": "address"
        }
      ],
      "name": "OwnershipTransferred",
      "type": "event"
    },
    {
      "anonymous": false,
      "inputs": [
        {
          "indexed": true,
          "internalType": "uint256",
          "name": "questionId",
          "type": "uint256"
        },
        {
          "indexed": true,
          "internalType": "address",
          "name": "answerer",
          "type": "address"
        }
      ],
      "name": "QuestionAnswered",
      "type": "event"
    },
    {
      "anonymous": false,
      "inputs": [
        {
          "indexed": true,
          "internalType": "uint256",
          "name": "questionId",
          "type": "uint256"
        },
        {
          "indexed": true,
          "internalType": "address",
          "name": "claimant",
          "type": "address"
        }
      ],
      "name": "QuestionClaimed",
      "type": "event"
    },
    {
      "anonymous": false,
      "inputs": [
        {
          "indexed": true,
          "internalType": "uint256",
          "name": "questionId",
          "type": "uint256"
        },
        {
          "indexed": true,
          "internalType": "address",
          "name": "creator",
          "type": "address"
        }
      ],
      "name": "QuestionCreated",
      "type": "event"
    },
    {
      "anonymous": false,
      "inputs": [
        {
          "indexed": true,
          "internalType": "uint256",
          "name": "questionId",
          "type": "uint256"
        },
        {
          "indexed": true,
          "internalType": "address",
          "name": "disqualifier",
          "type": "address"
        }
      ],
      "name": "QuestionDisqualified",
      "type": "event"
    },
    {
      "anonymous": false,
      "inputs": [
        {
          "indexed": true,
          "internalType": "uint256",
          "name": "questionId",
          "type": "uint256"
        },
        {
          "indexed": true,
          "internalType": "address",
          "name": "publisher",
          "type": "address"
        }
      ],
      "name": "QuestionPublished",
      "type": "event"
    },
    {
      "anonymous": false,
      "inputs": [
        {
          "indexed": true,
          "internalType": "uint256",
          "name": "questionId",
          "type": "uint256"
        },
        {
          "indexed": true,
          "internalType": "address",
          "name": "voter",
          "type": "address"
        }
      ],
      "name": "QuestionUnvoted",
      "type": "event"
    },
    {
      "anonymous": false,
      "inputs": [
        {
          "indexed": true,
          "internalType": "uint256",
          "name": "questionId",
          "type": "uint256"
        },
        {
          "indexed": true,
          "internalType": "address",
          "name": "voter",
          "type": "address"
        }
      ],
      "name": "QuestionUpvoted",
      "type": "event"
    },
    {
      "inputs": [],
      "name": "ADMIN_ROLE",
      "outputs": [
        {
          "internalType": "bytes32",
          "name": "",
          "type": "bytes32"
        }
      ],
      "stateMutability": "view",
      "type": "function"
    },
    {
      "inputs": [],
      "name": "PROGRAM_MANAGER_ROLE",
      "outputs": [
        {
          "internalType": "bytes32",
          "name": "",
          "type": "bytes32"
        }
      ],
      "stateMutability": "view",
      "type": "function"
    },
    {
      "inputs": [
        {
          "internalType": "bytes32",
          "name": "role",
          "type": "bytes32"
        },
        {
          "internalType": "address",
          "name": "nft",
          "type": "address"
        }
      ],
      "name": "addHolderRole",
      "outputs": [],
      "stateMutability": "nonpayable",
      "type": "function"
    },
    {
      "inputs": [
        {
          "internalType": "uint256",
          "name": "questionId",
          "type": "uint256"
        },
        {
          "internalType": "string",
          "name": "answerURL",
          "type": "string"
        }
      ],
      "name": "answerQuestion",
      "outputs": [],
      "stateMutability": "nonpayable",
      "type": "function"
    },
    {
      "inputs": [
        {
          "internalType": "uint256",
          "name": "questionId",
          "type": "uint256"
        }
      ],
      "name": "claimQuestion",
      "outputs": [],
      "stateMutability": "nonpayable",
      "type": "function"
    },
    {
      "inputs": [
        {
          "internalType": "string",
          "name": "uri",
          "type": "string"
        },
        {
          "internalType": "uint256",
          "name": "claimLimit",
          "type": "uint256"
        }
      ],
      "name": "createChallenge",
      "outputs": [
        {
          "internalType": "uint256",
          "name": "",
          "type": "uint256"
        }
      ],
      "stateMutability": "nonpayable",
      "type": "function"
    },
    {
      "inputs": [
        {
          "internalType": "string",
          "name": "uri",
          "type": "string"
        }
      ],
      "name": "createQuestion",
      "outputs": [
        {
          "internalType": "uint256",
          "name": "",
          "type": "uint256"
        }
      ],
      "stateMutability": "nonpayable",
      "type": "function"
    },
    {
      "inputs": [
        {
          "internalType": "uint256",
          "name": "questionId",
          "type": "uint256"
        }
      ],
      "name": "disqualifyQuestion",
      "outputs": [],
      "stateMutability": "nonpayable",
      "type": "function"
    },
    {
      "inputs": [],
      "name": "owner",
      "outputs": [
        {
          "internalType": "address",
          "name": "",
          "type": "address"
        }
      ],
      "stateMutability": "view",
      "type": "function"
    },
    {
      "inputs": [
        {
          "internalType": "uint256",
          "name": "questionId",
          "type": "uint256"
        },
        {
          "internalType": "uint256",
          "name": "claimLimit",
          "type": "uint256"
        }
      ],
      "name": "publishQuestion",
      "outputs": [],
      "stateMutability": "nonpayable",
      "type": "function"
    },
    {
      "inputs": [
        {
          "internalType": "uint256",
          "name": "questionId",
          "type": "uint256"
        }
      ],
      "name": "releaseClaim",
      "outputs": [],
      "stateMutability": "nonpayable",
      "type": "function"
    },
    {
      "inputs": [],
      "name": "renounceOwnership",
      "outputs": [],
      "stateMutability": "nonpayable",
      "type": "function"
    },
    {
      "inputs": [
        {
          "internalType": "address",
          "name": "newQuestion",
          "type": "address"
        }
      ],
      "name": "setClaimController",
      "outputs": [],
      "stateMutability": "nonpayable",
      "type": "function"
    },
    {
      "inputs": [
        {
          "internalType": "address",
          "name": "newCost",
          "type": "address"
        }
      ],
      "name": "setCostController",
      "outputs": [],
      "stateMutability": "nonpayable",
      "type": "function"
    },
    {
      "inputs": [
        {
          "internalType": "address",
          "name": "newQuestion",
          "type": "address"
        }
      ],
      "name": "setQuestionProxy",
      "outputs": [],
      "stateMutability": "nonpayable",
      "type": "function"
    },
    {
      "inputs": [
        {
          "internalType": "address",
          "name": "newQuestion",
          "type": "address"
        }
      ],
      "name": "setQuestionStateController",
      "outputs": [],
      "stateMutability": "nonpayable",
      "type": "function"
    },
    {
      "inputs": [],
      "name": "toggleLock",
      "outputs": [],
      "stateMutability": "nonpayable",
      "type": "function"
    },
    {
      "inputs": [
        {
          "internalType": "address",
          "name": "newOwner",
          "type": "address"
        }
      ],
      "name": "transferOwnership",
      "outputs": [],
      "stateMutability": "nonpayable",
      "type": "function"
    },
    {
      "inputs": [
        {
          "internalType": "uint256",
          "name": "questionId",
          "type": "uint256"
        }
      ],
      "name": "unvoteQuestion",
      "outputs": [],
      "stateMutability": "nonpayable",
      "type": "function"
    },
    {
      "inputs": [
        {
          "internalType": "uint256",
          "name": "questionId",
          "type": "uint256"
        }
      ],
      "name": "upvoteQuestion",
      "outputs": [],
      "stateMutability": "nonpayable",
      "type": "function"
    }
  ],
  "transactionHash": "0xff8d0d23a18c7fa278b294c0a2eced7fba88111eb240f5d3ab56d44a24a08d60",
  "args": [
    "0xDc64a140Aa3E981100a9becA4E685f962f0cF6C9",
    "0x0165878A594ca255338adfa4d48449f69242Eb8F",
    "0x5FC8d32690cc91D4c39d9d3abcBD16989F875707",
    "0x2279B7A0a67DB372996a5FaB50D91eAA73d2eBe6"
  ],
  "numDeployments": 1,
  "solcInputHash": "287f6c3732ce0c40e91a2add091a5090",
  "bytecode": "0x60806040523480156200001157600080fd5b506040516200279c3803806200279c83398181016040528101906200003791906200029b565b620000576200004b6200016560201b60201c565b6200016d60201b60201c565b83600260016101000a81548173ffffffffffffffffffffffffffffffffffffffff021916908373ffffffffffffffffffffffffffffffffffffffff16021790555082600360006101000a81548173ffffffffffffffffffffffffffffffffffffffff021916908373ffffffffffffffffffffffffffffffffffffffff16021790555081600460006101000a81548173ffffffffffffffffffffffffffffffffffffffff021916908373ffffffffffffffffffffffffffffffffffffffff16021790555080600560006101000a81548173ffffffffffffffffffffffffffffffffffffffff021916908373ffffffffffffffffffffffffffffffffffffffff160217905550505050506200030d565b600033905090565b60008060009054906101000a900473ffffffffffffffffffffffffffffffffffffffff169050816000806101000a81548173ffffffffffffffffffffffffffffffffffffffff021916908373ffffffffffffffffffffffffffffffffffffffff1602179055508173ffffffffffffffffffffffffffffffffffffffff168173ffffffffffffffffffffffffffffffffffffffff167f8be0079c531659141344cd1fd0a4f28419497f9722a3daafe3b4186f6b6457e060405160405180910390a35050565b600080fd5b600073ffffffffffffffffffffffffffffffffffffffff82169050919050565b6000620002638262000236565b9050919050565b620002758162000256565b81146200028157600080fd5b50565b60008151905062000295816200026a565b92915050565b60008060008060808587031215620002b857620002b762000231565b5b6000620002c88782880162000284565b9450506020620002db8782880162000284565b9350506040620002ee8782880162000284565b9250506060620003018782880162000284565b91505092959194509250565b61247f806200031d6000396000f3fe608060405234801561001057600080fd5b506004361061012c5760003560e01c8063a8bde4eb116100ad578063ec8f677711610071578063ec8f6777146102f1578063ecb63d721461030d578063f0f6420114610329578063f2fde38b14610345578063ff9413d8146103615761012c565b8063a8bde4eb1461024f578063b3580c1e1461026b578063bc4102971461029b578063e11041c3146102b7578063e9d8c381146102d35761012c565b8063715018a6116100f4578063715018a6146101bd57806375b238fc146101c75780638da5cb5b146101e557806398c9f1df146102035780639a6110b4146102335761012c565b80630ef4b531146101315780631919bcd61461014d578063314c3e9814610169578063447e52a0146101855780636ee5a1b1146101a1575b600080fd5b61014b60048036038101906101469190611d47565b61036b565b005b61016760048036038101906101629190611dd2565b6105e1565b005b610183600480360381019061017e9190611e35565b610707565b005b61019f600480360381019061019a9190611eda565b6107d9565b005b6101bb60048036038101906101b69190611d47565b61090a565b005b6101c56109ee565b005b6101cf610a76565b6040516101dc9190611f49565b60405180910390f35b6101ed610a9a565b6040516101fa9190611f73565b60405180910390f35b61021d60048036038101906102189190611f8e565b610ac3565b60405161022a9190611ffd565b60405180910390f35b61024d60048036038101906102489190611d47565b610d9c565b005b61026960048036038101906102649190611d47565b610f3a565b005b61028560048036038101906102809190612018565b610fd3565b6040516102929190611ffd565b60405180910390f35b6102b560048036038101906102b09190611dd2565b6111fc565b005b6102d160048036038101906102cc9190611d47565b611322565b005b6102db6115a6565b6040516102e89190611f49565b60405180910390f35b61030b60048036038101906103069190611dd2565b6115ca565b005b61032760048036038101906103229190612065565b6116f0565b005b610343600480360381019061033e9190611dd2565b611886565b005b61035f600480360381019061035a9190611dd2565b6119ac565b005b610369611aa3565b005b6002600481111561037f5761037e6120a5565b5b600360009054906101000a900473ffffffffffffffffffffffffffffffffffffffff1673ffffffffffffffffffffffffffffffffffffffff166344c9af28836040518263ffffffff1660e01b81526004016103da9190611ffd565b602060405180830381865afa1580156103f7573d6000803e3d6000fd5b505050506040513d601f19601f8201168201806040525081019061041b91906120f9565b600481111561042d5761042c6120a5565b5b14610464576040517f3b03644900000000000000000000000000000000000000000000000000000000815260040160405180910390fd5b600460009054906101000a900473ffffffffffffffffffffffffffffffffffffffff1673ffffffffffffffffffffffffffffffffffffffff1663aad3ec966104aa611b4b565b836040518363ffffffff1660e01b81526004016104c8929190612126565b600060405180830381600087803b1580156104e257600080fd5b505af11580156104f6573d6000803e3d6000fd5b50505050600560009054906101000a900473ffffffffffffffffffffffffffffffffffffffff1673ffffffffffffffffffffffffffffffffffffffff16631d67644d610540611b4b565b8360026040518463ffffffff1660e01b815260040161056193929190612197565b600060405180830381600087803b15801561057b57600080fd5b505af115801561058f573d6000803e3d6000fd5b5050505061059b611b4b565b73ffffffffffffffffffffffffffffffffffffffff16817f8420685f160085bdc75c7d5265ef561ea88eb1ab5b58b0cd38b68babcf537cb560405160405180910390a350565b6105e9611b4b565b73ffffffffffffffffffffffffffffffffffffffff16610607610a9a565b73ffffffffffffffffffffffffffffffffffffffff161461065d576040517f08c379a00000000000000000000000000000000000000000000000000000000081526004016106549061222b565b60405180910390fd5b600073ffffffffffffffffffffffffffffffffffffffff168173ffffffffffffffffffffffffffffffffffffffff16036106c3576040517fe6c4247b00000000000000000000000000000000000000000000000000000000815260040160405180910390fd5b80600560006101000a81548173ffffffffffffffffffffffffffffffffffffffff021916908373ffffffffffffffffffffffffffffffffffffffff16021790555050565b61070f611b4b565b73ffffffffffffffffffffffffffffffffffffffff1661072d610a9a565b73ffffffffffffffffffffffffffffffffffffffff1614610783576040517f08c379a000000000000000000000000000000000000000000000000000000000815260040161077a9061222b565b60405180910390fd5b806001600084815260200190815260200160002060006101000a81548173ffffffffffffffffffffffffffffffffffffffff021916908373ffffffffffffffffffffffffffffffffffffffff1602179055505050565b600260009054906101000a900460ff1615610820576040517f77e9811b00000000000000000000000000000000000000000000000000000000815260040160405180910390fd5b600460009054906101000a900473ffffffffffffffffffffffffffffffffffffffff1673ffffffffffffffffffffffffffffffffffffffff1663de9951a6610866611b4b565b8585856040518563ffffffff1660e01b81526004016108889493929190612298565b600060405180830381600087803b1580156108a257600080fd5b505af11580156108b6573d6000803e3d6000fd5b505050506108c2611b4b565b73ffffffffffffffffffffffffffffffffffffffff16837f3523d3f08d443a3de3a7a5e0213c8b3728df4dcaa7ce5182097cadd88689766d60405160405180910390a3505050565b600360009054906101000a900473ffffffffffffffffffffffffffffffffffffffff1673ffffffffffffffffffffffffffffffffffffffff1663e78daa75610950611b4b565b836040518363ffffffff1660e01b815260040161096e929190612126565b600060405180830381600087803b15801561098857600080fd5b505af115801561099c573d6000803e3d6000fd5b505050506109a8611b4b565b73ffffffffffffffffffffffffffffffffffffffff16817f2ce8d0b5aac2aac75df5d055eba39e1a943c8ee924ac71efd94de57b4b6fa49b60405160405180910390a350565b6109f6611b4b565b73ffffffffffffffffffffffffffffffffffffffff16610a14610a9a565b73ffffffffffffffffffffffffffffffffffffffff1614610a6a576040517f08c379a0000000000000000000000000000000000000000000000000000000008152600401610a619061222b565b60405180910390fd5b610a746000611b53565b565b7fa49807205ce4d355092ef5a8a18f56e8913cf4a201fbe287825b095693c2177581565b60008060009054906101000a900473ffffffffffffffffffffffffffffffffffffffff16905090565b60007f104852406e94df2c5112860c28c2d2e43c02e322bc0cf95e2d0159faf296d7fb610aef81611c17565b6000600260019054906101000a900473ffffffffffffffffffffffffffffffffffffffff1673ffffffffffffffffffffffffffffffffffffffff1663dab6dbce610b37611b4b565b88886040518463ffffffff1660e01b8152600401610b57939291906122d8565b6020604051808303816000875af1158015610b76573d6000803e3d6000fd5b505050506040513d601f19601f82011682018060405250810190610b9a919061231f565b9050600360009054906101000a900473ffffffffffffffffffffffffffffffffffffffff1673ffffffffffffffffffffffffffffffffffffffff1663d6a8f797826040518263ffffffff1660e01b8152600401610bf79190611ffd565b600060405180830381600087803b158015610c1157600080fd5b505af1158015610c25573d6000803e3d6000fd5b50505050600460009054906101000a900473ffffffffffffffffffffffffffffffffffffffff1673ffffffffffffffffffffffffffffffffffffffff1663701776f782866040518363ffffffff1660e01b8152600401610c8692919061234c565b600060405180830381600087803b158015610ca057600080fd5b505af1158015610cb4573d6000803e3d6000fd5b50505050600360009054906101000a900473ffffffffffffffffffffffffffffffffffffffff1673ffffffffffffffffffffffffffffffffffffffff1663cc4ef119826040518263ffffffff1660e01b8152600401610d139190611ffd565b600060405180830381600087803b158015610d2d57600080fd5b505af1158015610d41573d6000803e3d6000fd5b50505050610d4d611b4b565b73ffffffffffffffffffffffffffffffffffffffff16817f83a97ccca8e136a4d58fd664739225fcfe9db9a5b0bebf35df44614f2aa9b63a60405160405180910390a380925050509392505050565b610da4611b4b565b73ffffffffffffffffffffffffffffffffffffffff16610dc2610a9a565b73ffffffffffffffffffffffffffffffffffffffff1614610e18576040517f08c379a0000000000000000000000000000000000000000000000000000000008152600401610e0f9061222b565b60405180910390fd5b600260009054906101000a900460ff1615610e5f576040517f77e9811b00000000000000000000000000000000000000000000000000000000815260040160405180910390fd5b600360009054906101000a900473ffffffffffffffffffffffffffffffffffffffff1673ffffffffffffffffffffffffffffffffffffffff1663ecf24b31826040518263ffffffff1660e01b8152600401610eba9190611ffd565b600060405180830381600087803b158015610ed457600080fd5b505af1158015610ee8573d6000803e3d6000fd5b50505050610ef4611b4b565b73ffffffffffffffffffffffffffffffffffffffff16817ff71fc70f190ad1360e34d483a2c00ef97b0da48cf5c510686ff1b3961176db1360405160405180910390a350565b600460009054906101000a900473ffffffffffffffffffffffffffffffffffffffff1673ffffffffffffffffffffffffffffffffffffffff1663469724e1610f80611b4b565b836040518363ffffffff1660e01b8152600401610f9e929190612126565b600060405180830381600087803b158015610fb857600080fd5b505af1158015610fcc573d6000803e3d6000fd5b5050505050565b600080600260019054906101000a900473ffffffffffffffffffffffffffffffffffffffff1673ffffffffffffffffffffffffffffffffffffffff1663dab6dbce61101c611b4b565b86866040518463ffffffff1660e01b815260040161103c939291906122d8565b6020604051808303816000875af115801561105b573d6000803e3d6000fd5b505050506040513d601f19601f8201168201806040525081019061107f919061231f565b9050600360009054906101000a900473ffffffffffffffffffffffffffffffffffffffff1673ffffffffffffffffffffffffffffffffffffffff1663d6a8f797826040518263ffffffff1660e01b81526004016110dc9190611ffd565b600060405180830381600087803b1580156110f657600080fd5b505af115801561110a573d6000803e3d6000fd5b50505050600560009054906101000a900473ffffffffffffffffffffffffffffffffffffffff1673ffffffffffffffffffffffffffffffffffffffff16631d67644d611154611b4b565b8360006040518463ffffffff1660e01b815260040161117593929190612197565b600060405180830381600087803b15801561118f57600080fd5b505af11580156111a3573d6000803e3d6000fd5b505050506111af611b4b565b73ffffffffffffffffffffffffffffffffffffffff16817fe507074282a0f805a6f370a3dfca4b5578056337d6fe37524243a02ca7a3cae160405160405180910390a38091505092915050565b611204611b4b565b73ffffffffffffffffffffffffffffffffffffffff16611222610a9a565b73ffffffffffffffffffffffffffffffffffffffff1614611278576040517f08c379a000000000000000000000000000000000000000000000000000000000815260040161126f9061222b565b60405180910390fd5b600073ffffffffffffffffffffffffffffffffffffffff168173ffffffffffffffffffffffffffffffffffffffff16036112de576040517fe6c4247b00000000000000000000000000000000000000000000000000000000815260040160405180910390fd5b80600260016101000a81548173ffffffffffffffffffffffffffffffffffffffff021916908373ffffffffffffffffffffffffffffffffffffffff16021790555050565b61132a611b4b565b73ffffffffffffffffffffffffffffffffffffffff16600260019054906101000a900473ffffffffffffffffffffffffffffffffffffffff1673ffffffffffffffffffffffffffffffffffffffff1663710bc3cd836040518263ffffffff1660e01b815260040161139b9190611ffd565b602060405180830381865afa1580156113b8573d6000803e3d6000fd5b505050506040513d601f19601f820116820180604052508101906113dc919061238a565b73ffffffffffffffffffffffffffffffffffffffff1603611429576040517f549bb9b900000000000000000000000000000000000000000000000000000000815260040160405180910390fd5b600360009054906101000a900473ffffffffffffffffffffffffffffffffffffffff1673ffffffffffffffffffffffffffffffffffffffff166324d6d60161146f611b4b565b836040518363ffffffff1660e01b815260040161148d929190612126565b600060405180830381600087803b1580156114a757600080fd5b505af11580156114bb573d6000803e3d6000fd5b50505050600560009054906101000a900473ffffffffffffffffffffffffffffffffffffffff1673ffffffffffffffffffffffffffffffffffffffff16631d67644d611505611b4b565b8360016040518463ffffffff1660e01b815260040161152693929190612197565b600060405180830381600087803b15801561154057600080fd5b505af1158015611554573d6000803e3d6000fd5b50505050611560611b4b565b73ffffffffffffffffffffffffffffffffffffffff16817f2d41d13a6e38ae738043e6c4811b1f16f9608295287f54de44621ed6e4b4505660405160405180910390a350565b7f104852406e94df2c5112860c28c2d2e43c02e322bc0cf95e2d0159faf296d7fb81565b6115d2611b4b565b73ffffffffffffffffffffffffffffffffffffffff166115f0610a9a565b73ffffffffffffffffffffffffffffffffffffffff1614611646576040517f08c379a000000000000000000000000000000000000000000000000000000000815260040161163d9061222b565b60405180910390fd5b600073ffffffffffffffffffffffffffffffffffffffff168173ffffffffffffffffffffffffffffffffffffffff16036116ac576040517fe6c4247b00000000000000000000000000000000000000000000000000000000815260040160405180910390fd5b80600460006101000a81548173ffffffffffffffffffffffffffffffffffffffff021916908373ffffffffffffffffffffffffffffffffffffffff16021790555050565b7fa49807205ce4d355092ef5a8a18f56e8913cf4a201fbe287825b095693c2177561171a81611c17565b600360009054906101000a900473ffffffffffffffffffffffffffffffffffffffff1673ffffffffffffffffffffffffffffffffffffffff1663cc4ef119846040518263ffffffff1660e01b81526004016117759190611ffd565b600060405180830381600087803b15801561178f57600080fd5b505af11580156117a3573d6000803e3d6000fd5b50505050600460009054906101000a900473ffffffffffffffffffffffffffffffffffffffff1673ffffffffffffffffffffffffffffffffffffffff1663701776f784846040518363ffffffff1660e01b815260040161180492919061234c565b600060405180830381600087803b15801561181e57600080fd5b505af1158015611832573d6000803e3d6000fd5b5050505061183e611b4b565b73ffffffffffffffffffffffffffffffffffffffff16837f48b3755b206fcea70a67e15db40f89daf0a8391f12082cc27d6c4412eb73158f60405160405180910390a3505050565b61188e611b4b565b73ffffffffffffffffffffffffffffffffffffffff166118ac610a9a565b73ffffffffffffffffffffffffffffffffffffffff1614611902576040517f08c379a00000000000000000000000000000000000000000000000000000000081526004016118f99061222b565b60405180910390fd5b600073ffffffffffffffffffffffffffffffffffffffff168173ffffffffffffffffffffffffffffffffffffffff1603611968576040517fe6c4247b00000000000000000000000000000000000000000000000000000000815260040160405180910390fd5b80600360006101000a81548173ffffffffffffffffffffffffffffffffffffffff021916908373ffffffffffffffffffffffffffffffffffffffff16021790555050565b6119b4611b4b565b73ffffffffffffffffffffffffffffffffffffffff166119d2610a9a565b73ffffffffffffffffffffffffffffffffffffffff1614611a28576040517f08c379a0000000000000000000000000000000000000000000000000000000008152600401611a1f9061222b565b60405180910390fd5b600073ffffffffffffffffffffffffffffffffffffffff168173ffffffffffffffffffffffffffffffffffffffff1603611a97576040517f08c379a0000000000000000000000000000000000000000000000000000000008152600401611a8e90612429565b60405180910390fd5b611aa081611b53565b50565b611aab611b4b565b73ffffffffffffffffffffffffffffffffffffffff16611ac9610a9a565b73ffffffffffffffffffffffffffffffffffffffff1614611b1f576040517f08c379a0000000000000000000000000000000000000000000000000000000008152600401611b169061222b565b60405180910390fd5b600260009054906101000a900460ff1615600260006101000a81548160ff021916908315150217905550565b600033905090565b60008060009054906101000a900473ffffffffffffffffffffffffffffffffffffffff169050816000806101000a81548173ffffffffffffffffffffffffffffffffffffffff021916908373ffffffffffffffffffffffffffffffffffffffff1602179055508173ffffffffffffffffffffffffffffffffffffffff168173ffffffffffffffffffffffffffffffffffffffff167f8be0079c531659141344cd1fd0a4f28419497f9722a3daafe3b4186f6b6457e060405160405180910390a35050565b60006001600083815260200190815260200160002060009054906101000a900473ffffffffffffffffffffffffffffffffffffffff1673ffffffffffffffffffffffffffffffffffffffff166370a08231611c70611b4b565b6040518263ffffffff1660e01b8152600401611c8c9190611f73565b602060405180830381865afa158015611ca9573d6000803e3d6000fd5b505050506040513d601f19601f82011682018060405250810190611ccd919061231f565b03611d04576040517fbddc845600000000000000000000000000000000000000000000000000000000815260040160405180910390fd5b50565b600080fd5b600080fd5b6000819050919050565b611d2481611d11565b8114611d2f57600080fd5b50565b600081359050611d4181611d1b565b92915050565b600060208284031215611d5d57611d5c611d07565b5b6000611d6b84828501611d32565b91505092915050565b600073ffffffffffffffffffffffffffffffffffffffff82169050919050565b6000611d9f82611d74565b9050919050565b611daf81611d94565b8114611dba57600080fd5b50565b600081359050611dcc81611da6565b92915050565b600060208284031215611de857611de7611d07565b5b6000611df684828501611dbd565b91505092915050565b6000819050919050565b611e1281611dff565b8114611e1d57600080fd5b50565b600081359050611e2f81611e09565b92915050565b60008060408385031215611e4c57611e4b611d07565b5b6000611e5a85828601611e20565b9250506020611e6b85828601611dbd565b9150509250929050565b600080fd5b600080fd5b600080fd5b60008083601f840112611e9a57611e99611e75565b5b8235905067ffffffffffffffff811115611eb757611eb6611e7a565b5b602083019150836001820283011115611ed357611ed2611e7f565b5b9250929050565b600080600060408486031215611ef357611ef2611d07565b5b6000611f0186828701611d32565b935050602084013567ffffffffffffffff811115611f2257611f21611d0c565b5b611f2e86828701611e84565b92509250509250925092565b611f4381611dff565b82525050565b6000602082019050611f5e6000830184611f3a565b92915050565b611f6d81611d94565b82525050565b6000602082019050611f886000830184611f64565b92915050565b600080600060408486031215611fa757611fa6611d07565b5b600084013567ffffffffffffffff811115611fc557611fc4611d0c565b5b611fd186828701611e84565b93509350506020611fe486828701611d32565b9150509250925092565b611ff781611d11565b82525050565b60006020820190506120126000830184611fee565b92915050565b6000806020838503121561202f5761202e611d07565b5b600083013567ffffffffffffffff81111561204d5761204c611d0c565b5b61205985828601611e84565b92509250509250929050565b6000806040838503121561207c5761207b611d07565b5b600061208a85828601611d32565b925050602061209b85828601611d32565b9150509250929050565b7f4e487b7100000000000000000000000000000000000000000000000000000000600052602160045260246000fd5b600581106120e157600080fd5b50565b6000815190506120f3816120d4565b92915050565b60006020828403121561210f5761210e611d07565b5b600061211d848285016120e4565b91505092915050565b600060408201905061213b6000830185611f64565b6121486020830184611fee565b9392505050565b600381106121605761215f6120a5565b5b50565b60008190506121718261214f565b919050565b600061218182612163565b9050919050565b61219181612176565b82525050565b60006060820190506121ac6000830186611f64565b6121b96020830185611fee565b6121c66040830184612188565b949350505050565b600082825260208201905092915050565b7f4f776e61626c653a2063616c6c6572206973206e6f7420746865206f776e6572600082015250565b60006122156020836121ce565b9150612220826121df565b602082019050919050565b6000602082019050818103600083015261224481612208565b9050919050565b82818337600083830152505050565b6000601f19601f8301169050919050565b600061227783856121ce565b935061228483858461224b565b61228d8361225a565b840190509392505050565b60006060820190506122ad6000830187611f64565b6122ba6020830186611fee565b81810360408301526122cd81848661226b565b905095945050505050565b60006040820190506122ed6000830186611f64565b818103602083015261230081848661226b565b9050949350505050565b60008151905061231981611d1b565b92915050565b60006020828403121561233557612334611d07565b5b60006123438482850161230a565b91505092915050565b60006040820190506123616000830185611fee565b61236e6020830184611fee565b9392505050565b60008151905061238481611da6565b92915050565b6000602082840312156123a05761239f611d07565b5b60006123ae84828501612375565b91505092915050565b7f4f776e61626c653a206e6577206f776e657220697320746865207a65726f206160008201527f6464726573730000000000000000000000000000000000000000000000000000602082015250565b60006124136026836121ce565b915061241e826123b7565b604082019050919050565b6000602082019050818103600083015261244281612406565b905091905056fea2646970667358221220301c90f58d12a05c4ec50546a51f5578f78ef71a0642d8ec65837f58fa458bdb64736f6c634300080d0033",
  "devdoc": {
    "author": "MetricsDAO team",
    "kind": "dev",
    "methods": {
      "answerQuestion(uint256,string)": {
        "params": {
          "answerURL": "THE IPFS hash of the answer.",
          "questionId": "The questionId of the question to answer."
        }
      },
      "claimQuestion(uint256)": {
        "params": {
          "questionId": "The questionId of the question to disqualify"
        }
      },
      "constructor": {
        "params": {
          "bountyQuestion": "BountyQuestion contract instance.",
          "claimController": "The claim controller address.",
          "costController": "The action cost controller address.",
          "questionStateController": "The question state controller address."
        }
      },
      "createChallenge(string,uint256)": {
        "params": {
          "claimLimit": "The limit for the amount of people that can claim the challenge",
          "uri": "The IPFS hash of the challenge"
        },
        "returns": {
          "_0": "questionId The question id"
        }
      },
      "createQuestion(string)": {
        "params": {
          "uri": "The IPFS hash of the question."
        },
        "returns": {
          "_0": "The question id"
        }
      },
      "disqualifyQuestion(uint256)": {
        "params": {
          "questionId": "The questionId of the question to disqualify."
        }
      },
      "owner()": {
        "details": "Returns the address of the current owner."
      },
      "publishQuestion(uint256,uint256)": {
        "params": {
          "claimLimit": "The amount of claims per question.",
          "questionId": "The questionId of the question to publish"
        }
      },
      "renounceOwnership()": {
        "details": "Leaves the contract without owner. It will not be possible to call `onlyOwner` functions anymore. Can only be called by the current owner. NOTE: Renouncing ownership will leave the contract without an owner, thereby removing any functionality that is only available to the owner."
      },
      "setClaimController(address)": {
        "params": {
          "newQuestion": "The address of the new ClaimController contract."
        }
      },
      "setCostController(address)": {
        "params": {
          "newCost": "The address of the new CostController contract."
        }
      },
      "setQuestionProxy(address)": {
        "params": {
          "newQuestion": "The address of the new BountyQuestion contract."
        }
      },
      "setQuestionStateController(address)": {
        "params": {
          "newQuestion": "The address of the new BountyQuestion contract."
        }
      },
      "transferOwnership(address)": {
        "details": "Transfers ownership of the contract to a new account (`newOwner`). Can only be called by the current owner."
      },
      "unvoteQuestion(uint256)": {
        "params": {
          "questionId": "The questionId of the question to upvote."
        }
      },
      "upvoteQuestion(uint256)": {
        "params": {
          "questionId": "The questionId of the question to upvote."
        }
      }
    },
    "title": "MetricsDAO question API",
    "version": 1
  },
  "userdoc": {
    "errors": {
      "CannotVoteForOwnQuestion()": [
        {
          "notice": "Throw if user tries to vote for own question"
        }
      ],
      "ClaimsNotOpen()": [
        {
          "notice": "Throw if analysts tries to claim a question that is not published."
        }
      ],
      "InvalidAddress()": [
        {
          "notice": "Throw if address is equal to address(0)."
        }
      ],
      "NotAtBenchmark()": [
        {
          "notice": "Throw if a question has not reached the benchmark for being published (yet)."
        }
      ]
    },
    "events": {
      "ChallengeCreated(uint256,address)": {
        "notice": "Emitted when a challenge is created."
      },
      "QuestionAnswered(uint256,address)": {
        "notice": "Emitted when a question is answered."
      },
      "QuestionClaimed(uint256,address)": {
        "notice": "Emitted when a question is claimed."
      },
      "QuestionCreated(uint256,address)": {
        "notice": "Emitted when a question is created."
      },
      "QuestionDisqualified(uint256,address)": {
        "notice": "Emitted when a question is disqualified."
      },
      "QuestionPublished(uint256,address)": {
        "notice": "Emitted when a question is published."
      },
      "QuestionUnvoted(uint256,address)": {
        "notice": "Emitted when a question is unvoted."
      },
      "QuestionUpvoted(uint256,address)": {
        "notice": "Emitted when a question is upvoted."
      }
    },
    "kind": "user",
    "methods": {
      "answerQuestion(uint256,string)": {
        "notice": "Allows a claimed question to be answered by an analyst."
      },
      "claimQuestion(uint256)": {
        "notice": "Allows anm analyst to claim a question and submit an answer before the dealine."
      },
      "constructor": {
        "notice": "Constructor sets the question state controller, claim controller, and action cost controller."
      },
      "createChallenge(string,uint256)": {
        "notice": "Directly creates a challenge, this is an optional feature for program managers that would like to create challenges directly (skipping the voting stage)."
      },
      "createQuestion(string)": {
        "notice": "Creates a question."
      },
      "disqualifyQuestion(uint256)": {
        "notice": "Allows the owner to disqualify a question."
      },
      "publishQuestion(uint256,uint256)": {
        "notice": "Publishes a question and allows it to be claimed and receive answers."
      },
      "setClaimController(address)": {
        "notice": "Allows the owner to set the ClaimController contract address."
      },
      "setCostController(address)": {
        "notice": "Allows the owner to set the CostController contract address."
      },
      "setQuestionProxy(address)": {
        "notice": "Allows the owner to set the BountyQuestion contract address."
      },
      "setQuestionStateController(address)": {
        "notice": "Allows the owner to set the QuestionStateController contract address."
      },
      "unvoteQuestion(uint256)": {
        "notice": "Unvotes a question."
      },
      "upvoteQuestion(uint256)": {
        "notice": "Upvotes a question."
      }
    },
    "notice": "This contract is an API for MetricsDAO that allows for interacting with questions & challenges.",
    "version": 1
  },
  "storageLayout": {
    "storage": [
      {
        "astId": 7,
        "contract": "src/contracts/Protocol/QuestionAPI.sol:QuestionAPI",
        "label": "_owner",
        "offset": 0,
        "slot": "0",
        "type": "t_address"
      },
      {
        "astId": 3825,
        "contract": "src/contracts/Protocol/QuestionAPI.sol:QuestionAPI",
        "label": "_nfts",
        "offset": 0,
        "slot": "1",
        "type": "t_mapping(t_bytes32,t_address)"
      },
      {
        "astId": 3782,
        "contract": "src/contracts/Protocol/QuestionAPI.sol:QuestionAPI",
        "label": "isLocked",
        "offset": 0,
        "slot": "2",
        "type": "t_bool"
      },
      {
        "astId": 1755,
        "contract": "src/contracts/Protocol/QuestionAPI.sol:QuestionAPI",
        "label": "_question",
        "offset": 1,
        "slot": "2",
        "type": "t_contract(BountyQuestion)1432"
      },
      {
        "astId": 1758,
        "contract": "src/contracts/Protocol/QuestionAPI.sol:QuestionAPI",
        "label": "_questionStateController",
        "offset": 0,
        "slot": "3",
        "type": "t_contract(IQuestionStateController)3763"
      },
      {
        "astId": 1761,
        "contract": "src/contracts/Protocol/QuestionAPI.sol:QuestionAPI",
        "label": "_claimController",
        "offset": 0,
        "slot": "4",
        "type": "t_contract(IClaimController)3713"
      },
      {
        "astId": 1764,
        "contract": "src/contracts/Protocol/QuestionAPI.sol:QuestionAPI",
        "label": "_costController",
        "offset": 0,
        "slot": "5",
        "type": "t_contract(IActionCostController)3634"
      }
    ],
    "types": {
      "t_address": {
        "encoding": "inplace",
        "label": "address",
        "numberOfBytes": "20"
      },
      "t_bool": {
        "encoding": "inplace",
        "label": "bool",
        "numberOfBytes": "1"
      },
      "t_bytes32": {
        "encoding": "inplace",
        "label": "bytes32",
        "numberOfBytes": "32"
      },
      "t_contract(BountyQuestion)1432": {
        "encoding": "inplace",
        "label": "contract BountyQuestion",
        "numberOfBytes": "20"
      },
      "t_contract(IActionCostController)3634": {
        "encoding": "inplace",
        "label": "contract IActionCostController",
        "numberOfBytes": "20"
      },
      "t_contract(IClaimController)3713": {
        "encoding": "inplace",
        "label": "contract IClaimController",
        "numberOfBytes": "20"
      },
      "t_contract(IQuestionStateController)3763": {
        "encoding": "inplace",
        "label": "contract IQuestionStateController",
        "numberOfBytes": "20"
      },
      "t_mapping(t_bytes32,t_address)": {
        "encoding": "mapping",
        "key": "t_bytes32",
        "label": "mapping(bytes32 => address)",
        "numberOfBytes": "32",
        "value": "t_address"
      }
    }
  }
}