{
  "address": "0xCf7Ed3AccA5a467e9e704C703E8D87F634fB0Fc9",
  "abi": [
    {
      "inputs": [],
      "name": "HasAlreadyVotedForQuestion",
      "type": "error"
    },
    {
      "inputs": [],
      "name": "HasNotVotedForQuestion",
      "type": "error"
    },
    {
      "inputs": [],
      "name": "InvalidStateTransition",
      "type": "error"
    },
    {
      "inputs": [],
      "name": "NotTheApi",
      "type": "error"
    },
    {
      "anonymous": false,
      "inputs": [
        {
          "indexed": true,
          "internalType": "address",
          "name": "previousOwner",
          "type": "address"
        },
        {
          "indexed": true,
          "internalType": "address",
          "name": "newOwner",
          "type": "address"
        }
      ],
      "name": "OwnershipTransferred",
      "type": "event"
    },
    {
      "inputs": [
        {
          "internalType": "enum IQuestionStateController.STATE",
          "name": "currentState",
          "type": "uint8"
        }
      ],
      "name": "getQuestionsByState",
      "outputs": [
        {
          "components": [
            {
              "internalType": "uint256",
              "name": "questionId",
              "type": "uint256"
            },
            {
              "internalType": "string",
              "name": "url",
              "type": "string"
            },
            {
              "internalType": "uint256",
              "name": "totalVotes",
              "type": "uint256"
            }
          ],
          "internalType": "struct QuestionStateController.QuestionData[]",
          "name": "",
          "type": "tuple[]"
        }
      ],
      "stateMutability": "view",
      "type": "function"
    },
    {
      "inputs": [
        {
          "internalType": "uint256",
          "name": "quesitonId",
          "type": "uint256"
        }
      ],
      "name": "getState",
      "outputs": [
        {
          "internalType": "uint256",
          "name": "currentState",
          "type": "uint256"
        }
      ],
      "stateMutability": "view",
      "type": "function"
    },
    {
      "inputs": [
        {
          "internalType": "uint256",
          "name": "questionId",
          "type": "uint256"
        }
      ],
      "name": "getTotalVotes",
      "outputs": [
        {
          "internalType": "uint256",
          "name": "",
          "type": "uint256"
        }
      ],
      "stateMutability": "view",
      "type": "function"
    },
    {
      "inputs": [
        {
          "internalType": "uint256",
          "name": "questionId",
          "type": "uint256"
        }
      ],
      "name": "getVotes",
      "outputs": [
        {
          "components": [
            {
              "internalType": "address",
              "name": "voter",
              "type": "address"
            },
            {
              "internalType": "uint256",
              "name": "amount",
              "type": "uint256"
            }
          ],
          "internalType": "struct QuestionStateController.Vote[]",
          "name": "_votes",
          "type": "tuple[]"
        }
      ],
      "stateMutability": "view",
      "type": "function"
    },
    {
      "inputs": [
        {
          "internalType": "address",
          "name": "",
          "type": "address"
        },
        {
          "internalType": "uint256",
          "name": "",
          "type": "uint256"
        }
      ],
      "name": "hasVoted",
      "outputs": [
        {
          "internalType": "bool",
          "name": "",
          "type": "bool"
        }
      ],
      "stateMutability": "view",
      "type": "function"
    },
    {
      "inputs": [
        {
          "internalType": "uint256",
          "name": "questionId",
          "type": "uint256"
        },
        {
          "internalType": "string",
          "name": "uri",
          "type": "string"
        }
      ],
      "name": "initializeQuestion",
      "outputs": [],
      "stateMutability": "nonpayable",
      "type": "function"
    },
    {
      "inputs": [],
      "name": "owner",
      "outputs": [
        {
          "internalType": "address",
          "name": "",
          "type": "address"
        }
      ],
      "stateMutability": "view",
      "type": "function"
    },
    {
      "inputs": [
        {
          "internalType": "uint256",
          "name": "questionId",
          "type": "uint256"
        }
      ],
      "name": "publish",
      "outputs": [],
      "stateMutability": "nonpayable",
      "type": "function"
    },
    {
      "inputs": [],
      "name": "questionApi",
      "outputs": [
        {
          "internalType": "address",
          "name": "",
          "type": "address"
        }
      ],
      "stateMutability": "view",
      "type": "function"
    },
    {
      "inputs": [
        {
          "internalType": "enum IQuestionStateController.STATE",
          "name": "",
          "type": "uint8"
        },
        {
          "internalType": "uint256",
          "name": "",
          "type": "uint256"
        }
      ],
      "name": "questionByState",
      "outputs": [
        {
          "internalType": "uint256",
          "name": "questionId",
          "type": "uint256"
        },
        {
          "internalType": "string",
          "name": "url",
          "type": "string"
        },
        {
          "internalType": "uint256",
          "name": "totalVotes",
          "type": "uint256"
        }
      ],
      "stateMutability": "view",
      "type": "function"
    },
    {
      "inputs": [
        {
          "internalType": "address",
          "name": "",
          "type": "address"
        },
        {
          "internalType": "uint256",
          "name": "",
          "type": "uint256"
        }
      ],
      "name": "questionIndex",
      "outputs": [
        {
          "internalType": "uint256",
          "name": "",
          "type": "uint256"
        }
      ],
      "stateMutability": "view",
      "type": "function"
    },
    {
      "inputs": [],
      "name": "renounceOwnership",
      "outputs": [],
      "stateMutability": "nonpayable",
      "type": "function"
    },
    {
      "inputs": [
        {
          "internalType": "uint256",
          "name": "questionId",
          "type": "uint256"
        }
      ],
      "name": "setBadState",
      "outputs": [],
      "stateMutability": "nonpayable",
      "type": "function"
    },
    {
      "inputs": [
        {
          "internalType": "address",
          "name": "_newApi",
          "type": "address"
        }
      ],
      "name": "setQuestionApi",
      "outputs": [],
      "stateMutability": "nonpayable",
      "type": "function"
    },
    {
      "inputs": [
        {
          "internalType": "uint256",
          "name": "",
          "type": "uint256"
        }
      ],
      "name": "state",
      "outputs": [
        {
          "internalType": "enum IQuestionStateController.STATE",
          "name": "",
          "type": "uint8"
        }
      ],
      "stateMutability": "view",
      "type": "function"
    },
    {
      "inputs": [
        {
          "internalType": "address",
          "name": "newOwner",
          "type": "address"
        }
      ],
      "name": "transferOwnership",
      "outputs": [],
      "stateMutability": "nonpayable",
      "type": "function"
    },
    {
      "inputs": [
        {
          "internalType": "address",
          "name": "_user",
          "type": "address"
        },
        {
          "internalType": "uint256",
          "name": "questionId",
          "type": "uint256"
        }
      ],
      "name": "unvoteFor",
      "outputs": [],
      "stateMutability": "nonpayable",
      "type": "function"
    },
    {
      "inputs": [
        {
          "internalType": "address",
          "name": "_user",
          "type": "address"
        },
        {
          "internalType": "uint256",
          "name": "questionId",
          "type": "uint256"
        },
        {
          "internalType": "uint256",
          "name": "amount",
          "type": "uint256"
        }
      ],
      "name": "voteFor",
      "outputs": [],
      "stateMutability": "nonpayable",
      "type": "function"
    },
    {
      "inputs": [
        {
          "internalType": "uint256",
          "name": "",
          "type": "uint256"
        }
      ],
      "name": "votes",
      "outputs": [
        {
          "internalType": "uint256",
          "name": "totalVoteCount",
          "type": "uint256"
        }
      ],
      "stateMutability": "view",
      "type": "function"
    }
  ],
  "transactionHash": "0xa5bc73d9c607685d433a2034f3b3f3a37a39637cd92d85c11f36989a34023d10",
  "args": [],
  "numDeployments": 1,
  "solcInputHash": "317fd9e8321b5dc84c3d6b3e414237e0",
  "bytecode": "0x608060405234801561001057600080fd5b5061002d61002261003260201b60201c565b61003a60201b60201c565b6100fe565b600033905090565b60008060009054906101000a900473ffffffffffffffffffffffffffffffffffffffff169050816000806101000a81548173ffffffffffffffffffffffffffffffffffffffff021916908373ffffffffffffffffffffffffffffffffffffffff1602179055508173ffffffffffffffffffffffffffffffffffffffff168173ffffffffffffffffffffffffffffffffffffffff167f8be0079c531659141344cd1fd0a4f28419497f9722a3daafe3b4186f6b6457e060405160405180910390a35050565b611fac8061010d6000396000f3fe608060405234801561001057600080fd5b50600436106101215760003560e01c80637644bd8f116100ad578063d68993e511610071578063d68993e51461032e578063e78daa751461035e578063f2fde38b1461037a578063f68952f314610396578063ff981099146103b257610121565b80637644bd8f146102a05780638da5cb5b146102bc578063c0875dfd146102da578063cc4ef119146102f6578063d257d16d1461031257610121565b806344c9af28116100f457806344c9af28146101e65780635aa1d1aa146102165780635df81330146102485780636baef49714610278578063715018a61461029657610121565b80632ce35e11146101265780633e4f49e6146101565780633e578fba1461018657806342545825146101b6575b600080fd5b610140600480360381019061013b91906115ff565b6103e2565b60405161014d919061163b565b60405180910390f35b610170600480360381019061016b91906115ff565b610402565b60405161017d91906116cd565b60405180910390f35b6101a0600480360381019061019b919061170d565b610422565b6040516101ad91906118f4565b60405180910390f35b6101d060048036038101906101cb9190611974565b61055e565b6040516101dd91906119cf565b60405180910390f35b61020060048036038101906101fb91906115ff565b61058d565b60405161020d919061163b565b60405180910390f35b610230600480360381019061022b91906119ea565b6105c9565b60405161023f93929190611a74565b60405180910390f35b610262600480360381019061025d91906115ff565b610698565b60405161026f919061163b565b60405180910390f35b6102806106b6565b60405161028d9190611ac1565b60405180910390f35b61029e6106dc565b005b6102ba60048036038101906102b59190611adc565b610764565b005b6102c4610ae1565b6040516102d19190611ac1565b60405180910390f35b6102f460048036038101906102ef9190611b2f565b610b0a565b005b610310600480360381019061030b91906115ff565b610bca565b005b61032c60048036038101906103279190611bc1565b610d19565b005b61034860048036038101906103439190611974565b610ee9565b604051610355919061163b565b60405180910390f35b61037860048036038101906103739190611974565b610f0e565b005b610394600480360381019061038f9190611b2f565b6111b7565b005b6103b060048036038101906103ab91906115ff565b6112ae565b005b6103cc60048036038101906103c791906115ff565b61137b565b6040516103d99190611d0e565b60405180910390f35b600060026000838152602001908152602001600020600101549050919050565b60036020528060005260406000206000915054906101000a900460ff1681565b60606006600083600681111561043b5761043a611656565b5b600681111561044d5761044c611656565b5b8152602001908152602001600020805480602002602001604051908101604052809291908181526020016000905b828210156105535783829060005260206000209060030201604051806060016040529081600082015481526020016001820180546104b890611d5f565b80601f01602080910402602001604051908101604052809291908181526020018280546104e490611d5f565b80156105315780601f1061050657610100808354040283529160200191610531565b820191906000526020600020905b81548152906001019060200180831161051457829003601f168201915b505050505081526020016002820154815250508152602001906001019061047b565b505050509050919050565b60046020528160005260406000206020528060005260406000206000915091509054906101000a900460ff1681565b60006003600083815260200190815260200160002060009054906101000a900460ff1660068111156105c2576105c1611656565b5b9050919050565b600660205281600052604060002081815481106105e557600080fd5b90600052602060002090600302016000915091505080600001549080600101805461060f90611d5f565b80601f016020809104026020016040519081016040528092919081815260200182805461063b90611d5f565b80156106885780601f1061065d57610100808354040283529160200191610688565b820191906000526020600020905b81548152906001019060200180831161066b57829003601f168201915b5050505050908060020154905083565b60026020528060005260406000206000915090508060010154905081565b600160009054906101000a900473ffffffffffffffffffffffffffffffffffffffff1681565b6106e4611450565b73ffffffffffffffffffffffffffffffffffffffff16610702610ae1565b73ffffffffffffffffffffffffffffffffffffffff1614610758576040517f08c379a000000000000000000000000000000000000000000000000000000000815260040161074f90611ddc565b60405180910390fd5b6107626000611458565b565b600160009054906101000a900473ffffffffffffffffffffffffffffffffffffffff1673ffffffffffffffffffffffffffffffffffffffff166107a5611450565b73ffffffffffffffffffffffffffffffffffffffff16146107f2576040517f92471d5b00000000000000000000000000000000000000000000000000000000815260040160405180910390fd5b6001826003600082815260200190815260200160002060009054906101000a900460ff16600681111561082857610827611656565b5b82600681111561083b5761083a611656565b5b14610872576040517f8f9a780c00000000000000000000000000000000000000000000000000000000815260040160405180910390fd5b600460008673ffffffffffffffffffffffffffffffffffffffff1673ffffffffffffffffffffffffffffffffffffffff168152602001908152602001600020600085815260200190815260200160002060009054906101000a900460ff1615610907576040517f285d4e4b00000000000000000000000000000000000000000000000000000000815260040160405180910390fd5b600060405180604001604052808773ffffffffffffffffffffffffffffffffffffffff1681526020018581525090506002600086815260200190815260200160002060000181908060018154018082558091505060019003906000526020600020906002020160009091909190915060008201518160000160006101000a81548173ffffffffffffffffffffffffffffffffffffffff021916908373ffffffffffffffffffffffffffffffffffffffff1602179055506020820151816001015550506001600460008873ffffffffffffffffffffffffffffffffffffffff1673ffffffffffffffffffffffffffffffffffffffff168152602001908152602001600020600087815260200190815260200160002060006101000a81548160ff02191690831515021790555060016002600087815260200190815260200160002060000180549050610a589190611e2b565b600560008873ffffffffffffffffffffffffffffffffffffffff1673ffffffffffffffffffffffffffffffffffffffff16815260200190815260200160002060008781526020019081526020016000208190555083600260008781526020019081526020016000206001016000828254610ad29190611e5f565b92505081905550505050505050565b60008060009054906101000a900473ffffffffffffffffffffffffffffffffffffffff16905090565b610b12611450565b73ffffffffffffffffffffffffffffffffffffffff16610b30610ae1565b73ffffffffffffffffffffffffffffffffffffffff1614610b86576040517f08c379a0000000000000000000000000000000000000000000000000000000008152600401610b7d90611ddc565b60405180910390fd5b80600160006101000a81548173ffffffffffffffffffffffffffffffffffffffff021916908373ffffffffffffffffffffffffffffffffffffffff16021790555050565b600160009054906101000a900473ffffffffffffffffffffffffffffffffffffffff1673ffffffffffffffffffffffffffffffffffffffff16610c0b611450565b73ffffffffffffffffffffffffffffffffffffffff1614610c58576040517f92471d5b00000000000000000000000000000000000000000000000000000000815260040160405180910390fd5b6001816003600082815260200190815260200160002060009054906101000a900460ff166006811115610c8e57610c8d611656565b5b826006811115610ca157610ca0611656565b5b14610cd8576040517f8f9a780c00000000000000000000000000000000000000000000000000000000815260040160405180910390fd5b60026003600085815260200190815260200160002060006101000a81548160ff02191690836006811115610d0f57610d0e611656565b5b0217905550505050565b600160009054906101000a900473ffffffffffffffffffffffffffffffffffffffff1673ffffffffffffffffffffffffffffffffffffffff16610d5a611450565b73ffffffffffffffffffffffffffffffffffffffff1614610da7576040517f92471d5b00000000000000000000000000000000000000000000000000000000815260040160405180910390fd5b60016003600085815260200190815260200160002060006101000a81548160ff02191690836006811115610dde57610ddd611656565b5b02179055506000604051806060016040528085815260200184848080601f016020809104026020016040519081016040528093929190818152602001838380828437600081840152601f19601f820116905080830192505050505050508152602001610e49866103e2565b81525090506006600060016006811115610e6657610e65611656565b5b6006811115610e7857610e77611656565b5b8152602001908152602001600020819080600181540180825580915050600190039060005260206000209060030201600090919091909150600082015181600001556020820151816001019080519060200190610ed692919061151c565b5060408201518160020155505050505050565b6005602052816000526040600020602052806000526040600020600091509150505481565b600160009054906101000a900473ffffffffffffffffffffffffffffffffffffffff1673ffffffffffffffffffffffffffffffffffffffff16610f4f611450565b73ffffffffffffffffffffffffffffffffffffffff1614610f9c576040517f92471d5b00000000000000000000000000000000000000000000000000000000815260040160405180910390fd5b6001816003600082815260200190815260200160002060009054906101000a900460ff166006811115610fd257610fd1611656565b5b826006811115610fe557610fe4611656565b5b1461101c576040517f8f9a780c00000000000000000000000000000000000000000000000000000000815260040160405180910390fd5b600460008573ffffffffffffffffffffffffffffffffffffffff1673ffffffffffffffffffffffffffffffffffffffff168152602001908152602001600020600084815260200190815260200160002060009054906101000a900460ff166110b0576040517f4c0e0faf00000000000000000000000000000000000000000000000000000000815260040160405180910390fd5b6000600560008673ffffffffffffffffffffffffffffffffffffffff1673ffffffffffffffffffffffffffffffffffffffff1681526020019081526020016000206000858152602001908152602001600020549050600060026000868152602001908152602001600020600001828154811061112f5761112e611eb5565b5b9060005260206000209060020201600101549050600060026000878152602001908152602001600020600001838154811061116d5761116c611eb5565b5b906000526020600020906002020160010181905550806002600087815260200190815260200160002060010160008282546111a89190611e2b565b92505081905550505050505050565b6111bf611450565b73ffffffffffffffffffffffffffffffffffffffff166111dd610ae1565b73ffffffffffffffffffffffffffffffffffffffff1614611233576040517f08c379a000000000000000000000000000000000000000000000000000000000815260040161122a90611ddc565b60405180910390fd5b600073ffffffffffffffffffffffffffffffffffffffff168173ffffffffffffffffffffffffffffffffffffffff16036112a2576040517f08c379a000000000000000000000000000000000000000000000000000000000815260040161129990611f56565b60405180910390fd5b6112ab81611458565b50565b600160009054906101000a900473ffffffffffffffffffffffffffffffffffffffff1673ffffffffffffffffffffffffffffffffffffffff166112ef611450565b73ffffffffffffffffffffffffffffffffffffffff161461133c576040517f92471d5b00000000000000000000000000000000000000000000000000000000815260040160405180910390fd5b60066003600083815260200190815260200160002060006101000a81548160ff0219169083600681111561137357611372611656565b5b021790555050565b606060026000838152602001908152602001600020600001805480602002602001604051908101604052809291908181526020016000905b8282101561144557838290600052602060002090600202016040518060400160405290816000820160009054906101000a900473ffffffffffffffffffffffffffffffffffffffff1673ffffffffffffffffffffffffffffffffffffffff1673ffffffffffffffffffffffffffffffffffffffff168152602001600182015481525050815260200190600101906113b3565b505050509050919050565b600033905090565b60008060009054906101000a900473ffffffffffffffffffffffffffffffffffffffff169050816000806101000a81548173ffffffffffffffffffffffffffffffffffffffff021916908373ffffffffffffffffffffffffffffffffffffffff1602179055508173ffffffffffffffffffffffffffffffffffffffff168173ffffffffffffffffffffffffffffffffffffffff167f8be0079c531659141344cd1fd0a4f28419497f9722a3daafe3b4186f6b6457e060405160405180910390a35050565b82805461152890611d5f565b90600052602060002090601f01602090048101928261154a5760008555611591565b82601f1061156357805160ff1916838001178555611591565b82800160010185558215611591579182015b82811115611590578251825591602001919060010190611575565b5b50905061159e91906115a2565b5090565b5b808211156115bb5760008160009055506001016115a3565b5090565b600080fd5b600080fd5b6000819050919050565b6115dc816115c9565b81146115e757600080fd5b50565b6000813590506115f9816115d3565b92915050565b600060208284031215611615576116146115bf565b5b6000611623848285016115ea565b91505092915050565b611635816115c9565b82525050565b6000602082019050611650600083018461162c565b92915050565b7f4e487b7100000000000000000000000000000000000000000000000000000000600052602160045260246000fd5b6007811061169657611695611656565b5b50565b60008190506116a782611685565b919050565b60006116b782611699565b9050919050565b6116c7816116ac565b82525050565b60006020820190506116e260008301846116be565b92915050565b600781106116f557600080fd5b50565b600081359050611707816116e8565b92915050565b600060208284031215611723576117226115bf565b5b6000611731848285016116f8565b91505092915050565b600081519050919050565b600082825260208201905092915050565b6000819050602082019050919050565b61176f816115c9565b82525050565b600081519050919050565b600082825260208201905092915050565b60005b838110156117af578082015181840152602081019050611794565b838111156117be576000848401525b50505050565b6000601f19601f8301169050919050565b60006117e082611775565b6117ea8185611780565b93506117fa818560208601611791565b611803816117c4565b840191505092915050565b60006060830160008301516118266000860182611766565b506020830151848203602086015261183e82826117d5565b91505060408301516118536040860182611766565b508091505092915050565b600061186a838361180e565b905092915050565b6000602082019050919050565b600061188a8261173a565b6118948185611745565b9350836020820285016118a685611756565b8060005b858110156118e257848403895281516118c3858261185e565b94506118ce83611872565b925060208a019950506001810190506118aa565b50829750879550505050505092915050565b6000602082019050818103600083015261190e818461187f565b905092915050565b600073ffffffffffffffffffffffffffffffffffffffff82169050919050565b600061194182611916565b9050919050565b61195181611936565b811461195c57600080fd5b50565b60008135905061196e81611948565b92915050565b6000806040838503121561198b5761198a6115bf565b5b60006119998582860161195f565b92505060206119aa858286016115ea565b9150509250929050565b60008115159050919050565b6119c9816119b4565b82525050565b60006020820190506119e460008301846119c0565b92915050565b60008060408385031215611a0157611a006115bf565b5b6000611a0f858286016116f8565b9250506020611a20858286016115ea565b9150509250929050565b600082825260208201905092915050565b6000611a4682611775565b611a508185611a2a565b9350611a60818560208601611791565b611a69816117c4565b840191505092915050565b6000606082019050611a89600083018661162c565b8181036020830152611a9b8185611a3b565b9050611aaa604083018461162c565b949350505050565b611abb81611936565b82525050565b6000602082019050611ad66000830184611ab2565b92915050565b600080600060608486031215611af557611af46115bf565b5b6000611b038682870161195f565b9350506020611b14868287016115ea565b9250506040611b25868287016115ea565b9150509250925092565b600060208284031215611b4557611b446115bf565b5b6000611b538482850161195f565b91505092915050565b600080fd5b600080fd5b600080fd5b60008083601f840112611b8157611b80611b5c565b5b8235905067ffffffffffffffff811115611b9e57611b9d611b61565b5b602083019150836001820283011115611bba57611bb9611b66565b5b9250929050565b600080600060408486031215611bda57611bd96115bf565b5b6000611be8868287016115ea565b935050602084013567ffffffffffffffff811115611c0957611c086115c4565b5b611c1586828701611b6b565b92509250509250925092565b600081519050919050565b600082825260208201905092915050565b6000819050602082019050919050565b611c5681611936565b82525050565b604082016000820151611c726000850182611c4d565b506020820151611c856020850182611766565b50505050565b6000611c978383611c5c565b60408301905092915050565b6000602082019050919050565b6000611cbb82611c21565b611cc58185611c2c565b9350611cd083611c3d565b8060005b83811015611d01578151611ce88882611c8b565b9750611cf383611ca3565b925050600181019050611cd4565b5085935050505092915050565b60006020820190508181036000830152611d288184611cb0565b905092915050565b7f4e487b7100000000000000000000000000000000000000000000000000000000600052602260045260246000fd5b60006002820490506001821680611d7757607f821691505b602082108103611d8a57611d89611d30565b5b50919050565b7f4f776e61626c653a2063616c6c6572206973206e6f7420746865206f776e6572600082015250565b6000611dc6602083611a2a565b9150611dd182611d90565b602082019050919050565b60006020820190508181036000830152611df581611db9565b9050919050565b7f4e487b7100000000000000000000000000000000000000000000000000000000600052601160045260246000fd5b6000611e36826115c9565b9150611e41836115c9565b925082821015611e5457611e53611dfc565b5b828203905092915050565b6000611e6a826115c9565b9150611e75836115c9565b9250827fffffffffffffffffffffffffffffffffffffffffffffffffffffffffffffffff03821115611eaa57611ea9611dfc565b5b828201905092915050565b7f4e487b7100000000000000000000000000000000000000000000000000000000600052603260045260246000fd5b7f4f776e61626c653a206e6577206f776e657220697320746865207a65726f206160008201527f6464726573730000000000000000000000000000000000000000000000000000602082015250565b6000611f40602683611a2a565b9150611f4b82611ee4565b604082019050919050565b60006020820190508181036000830152611f6f81611f33565b905091905056fea2646970667358221220c0716a6feb63e3135ba9697e96f290888921712f90032a314d048d1e32ea8b3e64736f6c634300080d0033",
  "devdoc": {
    "kind": "dev",
    "methods": {
      "initializeQuestion(uint256,string)": {
        "params": {
          "questionId": "The id of the question"
        }
      },
      "owner()": {
        "details": "Returns the address of the current owner."
      },
      "renounceOwnership()": {
        "details": "Leaves the contract without owner. It will not be possible to call `onlyOwner` functions anymore. Can only be called by the current owner. NOTE: Renouncing ownership will leave the contract without an owner, thereby removing any functionality that is only available to the owner."
      },
      "setQuestionApi(address)": {
        "params": {
          "_newApi": "The new address of the question API."
        }
      },
      "transferOwnership(address)": {
        "details": "Transfers ownership of the contract to a new account (`newOwner`). Can only be called by the current owner."
      }
    },
    "version": 1
  },
  "userdoc": {
    "kind": "user",
    "methods": {
      "initializeQuestion(uint256,string)": {
        "notice": "Initializes a question to draft."
      },
      "setQuestionApi(address)": {
        "notice": "Sets the address of the question API."
      }
    },
    "version": 1
  },
  "storageLayout": {
    "storage": [
      {
        "astId": 7,
        "contract": "src/contracts/Protocol/QuestionStateController.sol:QuestionStateController",
        "label": "_owner",
        "offset": 0,
        "slot": "0",
        "type": "t_address"
      },
      {
        "astId": 5052,
        "contract": "src/contracts/Protocol/QuestionStateController.sol:QuestionStateController",
        "label": "questionApi",
        "offset": 0,
        "slot": "1",
        "type": "t_address"
      },
      {
        "astId": 4558,
        "contract": "src/contracts/Protocol/QuestionStateController.sol:QuestionStateController",
        "label": "votes",
        "offset": 0,
        "slot": "2",
        "type": "t_mapping(t_uint256,t_struct(QuestionVote)4874_storage)"
      },
      {
        "astId": 4563,
        "contract": "src/contracts/Protocol/QuestionStateController.sol:QuestionStateController",
        "label": "state",
        "offset": 0,
        "slot": "3",
        "type": "t_mapping(t_uint256,t_enum(STATE)4979)"
      },
      {
        "astId": 4569,
        "contract": "src/contracts/Protocol/QuestionStateController.sol:QuestionStateController",
        "label": "hasVoted",
        "offset": 0,
        "slot": "4",
        "type": "t_mapping(t_address,t_mapping(t_uint256,t_bool))"
      },
      {
        "astId": 4575,
        "contract": "src/contracts/Protocol/QuestionStateController.sol:QuestionStateController",
        "label": "questionIndex",
        "offset": 0,
        "slot": "5",
        "type": "t_mapping(t_address,t_mapping(t_uint256,t_uint256))"
      },
      {
        "astId": 4582,
        "contract": "src/contracts/Protocol/QuestionStateController.sol:QuestionStateController",
        "label": "questionByState",
        "offset": 0,
        "slot": "6",
        "type": "t_mapping(t_enum(STATE)4979,t_array(t_struct(QuestionData)4886_storage)dyn_storage)"
      }
    ],
    "types": {
      "t_address": {
        "encoding": "inplace",
        "label": "address",
        "numberOfBytes": "20"
      },
      "t_array(t_struct(QuestionData)4886_storage)dyn_storage": {
        "base": "t_struct(QuestionData)4886_storage",
        "encoding": "dynamic_array",
        "label": "struct QuestionStateController.QuestionData[]",
        "numberOfBytes": "32"
      },
      "t_array(t_struct(Vote)4879_storage)dyn_storage": {
        "base": "t_struct(Vote)4879_storage",
        "encoding": "dynamic_array",
        "label": "struct QuestionStateController.Vote[]",
        "numberOfBytes": "32"
      },
      "t_bool": {
        "encoding": "inplace",
        "label": "bool",
        "numberOfBytes": "1"
      },
      "t_enum(STATE)4979": {
        "encoding": "inplace",
        "label": "enum IQuestionStateController.STATE",
        "numberOfBytes": "1"
      },
      "t_mapping(t_address,t_mapping(t_uint256,t_bool))": {
        "encoding": "mapping",
        "key": "t_address",
        "label": "mapping(address => mapping(uint256 => bool))",
        "numberOfBytes": "32",
        "value": "t_mapping(t_uint256,t_bool)"
      },
      "t_mapping(t_address,t_mapping(t_uint256,t_uint256))": {
        "encoding": "mapping",
        "key": "t_address",
        "label": "mapping(address => mapping(uint256 => uint256))",
        "numberOfBytes": "32",
        "value": "t_mapping(t_uint256,t_uint256)"
      },
      "t_mapping(t_enum(STATE)4979,t_array(t_struct(QuestionData)4886_storage)dyn_storage)": {
        "encoding": "mapping",
        "key": "t_enum(STATE)4979",
        "label": "mapping(enum IQuestionStateController.STATE => struct QuestionStateController.QuestionData[])",
        "numberOfBytes": "32",
        "value": "t_array(t_struct(QuestionData)4886_storage)dyn_storage"
      },
      "t_mapping(t_uint256,t_bool)": {
        "encoding": "mapping",
        "key": "t_uint256",
        "label": "mapping(uint256 => bool)",
        "numberOfBytes": "32",
        "value": "t_bool"
      },
      "t_mapping(t_uint256,t_enum(STATE)4979)": {
        "encoding": "mapping",
        "key": "t_uint256",
        "label": "mapping(uint256 => enum IQuestionStateController.STATE)",
        "numberOfBytes": "32",
        "value": "t_enum(STATE)4979"
      },
      "t_mapping(t_uint256,t_struct(QuestionVote)4874_storage)": {
        "encoding": "mapping",
        "key": "t_uint256",
        "label": "mapping(uint256 => struct QuestionStateController.QuestionVote)",
        "numberOfBytes": "32",
        "value": "t_struct(QuestionVote)4874_storage"
      },
      "t_mapping(t_uint256,t_uint256)": {
        "encoding": "mapping",
        "key": "t_uint256",
        "label": "mapping(uint256 => uint256)",
        "numberOfBytes": "32",
        "value": "t_uint256"
      },
      "t_string_storage": {
        "encoding": "bytes",
        "label": "string",
        "numberOfBytes": "32"
      },
      "t_struct(QuestionData)4886_storage": {
        "encoding": "inplace",
        "label": "struct QuestionStateController.QuestionData",
        "members": [
          {
            "astId": 4881,
            "contract": "src/contracts/Protocol/QuestionStateController.sol:QuestionStateController",
            "label": "questionId",
            "offset": 0,
            "slot": "0",
            "type": "t_uint256"
          },
          {
            "astId": 4883,
            "contract": "src/contracts/Protocol/QuestionStateController.sol:QuestionStateController",
            "label": "url",
            "offset": 0,
            "slot": "1",
            "type": "t_string_storage"
          },
          {
            "astId": 4885,
            "contract": "src/contracts/Protocol/QuestionStateController.sol:QuestionStateController",
            "label": "totalVotes",
            "offset": 0,
            "slot": "2",
            "type": "t_uint256"
          }
        ],
        "numberOfBytes": "96"
      },
      "t_struct(QuestionVote)4874_storage": {
        "encoding": "inplace",
        "label": "struct QuestionStateController.QuestionVote",
        "members": [
          {
            "astId": 4871,
            "contract": "src/contracts/Protocol/QuestionStateController.sol:QuestionStateController",
            "label": "votes",
            "offset": 0,
            "slot": "0",
            "type": "t_array(t_struct(Vote)4879_storage)dyn_storage"
          },
          {
            "astId": 4873,
            "contract": "src/contracts/Protocol/QuestionStateController.sol:QuestionStateController",
            "label": "totalVoteCount",
            "offset": 0,
            "slot": "1",
            "type": "t_uint256"
          }
        ],
        "numberOfBytes": "64"
      },
      "t_struct(Vote)4879_storage": {
        "encoding": "inplace",
        "label": "struct QuestionStateController.Vote",
        "members": [
          {
            "astId": 4876,
            "contract": "src/contracts/Protocol/QuestionStateController.sol:QuestionStateController",
            "label": "voter",
            "offset": 0,
            "slot": "0",
            "type": "t_address"
          },
          {
            "astId": 4878,
            "contract": "src/contracts/Protocol/QuestionStateController.sol:QuestionStateController",
            "label": "amount",
            "offset": 0,
            "slot": "1",
            "type": "t_uint256"
          }
        ],
        "numberOfBytes": "64"
      },
      "t_uint256": {
        "encoding": "inplace",
        "label": "uint256",
        "numberOfBytes": "32"
      }
    }
  }
}