{
  "address": "0xc5a5C42992dECbae36851359345FE25997F5C42d",
  "abi": [
    {
      "inputs": [
        {
          "internalType": "address",
          "name": "bountyQuestion",
          "type": "address"
        },
        {
          "internalType": "address",
          "name": "questionStateController",
          "type": "address"
        },
        {
          "internalType": "address",
          "name": "claimController",
          "type": "address"
        },
        {
          "internalType": "address",
          "name": "costController",
          "type": "address"
        }
      ],
      "stateMutability": "nonpayable",
      "type": "constructor"
    },
    {
      "inputs": [],
      "name": "CannotVoteForOwnQuestion",
      "type": "error"
    },
    {
      "inputs": [],
      "name": "ClaimsNotOpen",
      "type": "error"
    },
    {
      "inputs": [],
      "name": "DoesNotHold",
      "type": "error"
    },
    {
      "inputs": [],
      "name": "FunctionIsLocked",
      "type": "error"
    },
    {
      "inputs": [],
      "name": "InvalidAddress",
      "type": "error"
    },
    {
      "inputs": [],
      "name": "NotAtBenchmark",
      "type": "error"
    },
    {
      "anonymous": false,
      "inputs": [
        {
          "indexed": true,
          "internalType": "uint256",
          "name": "questionId",
          "type": "uint256"
        },
        {
          "indexed": true,
          "internalType": "address",
          "name": "challengeCreator",
          "type": "address"
        }
      ],
      "name": "ChallengeCreated",
      "type": "event"
    },
    {
      "anonymous": false,
      "inputs": [
        {
          "indexed": true,
          "internalType": "address",
          "name": "previousOwner",
          "type": "address"
        },
        {
          "indexed": true,
          "internalType": "address",
          "name": "newOwner",
          "type": "address"
        }
      ],
      "name": "OwnershipTransferred",
      "type": "event"
    },
    {
      "anonymous": false,
      "inputs": [
        {
          "indexed": true,
          "internalType": "uint256",
          "name": "questionId",
          "type": "uint256"
        },
        {
          "indexed": true,
          "internalType": "address",
          "name": "answerer",
          "type": "address"
        }
      ],
      "name": "QuestionAnswered",
      "type": "event"
    },
    {
      "anonymous": false,
      "inputs": [
        {
          "indexed": true,
          "internalType": "uint256",
          "name": "questionId",
          "type": "uint256"
        },
        {
          "indexed": true,
          "internalType": "address",
          "name": "claimant",
          "type": "address"
        }
      ],
      "name": "QuestionClaimed",
      "type": "event"
    },
    {
      "anonymous": false,
      "inputs": [
        {
          "indexed": true,
          "internalType": "uint256",
          "name": "questionId",
          "type": "uint256"
        },
        {
          "indexed": true,
          "internalType": "address",
          "name": "creator",
          "type": "address"
        }
      ],
      "name": "QuestionCreated",
      "type": "event"
    },
    {
      "anonymous": false,
      "inputs": [
        {
          "indexed": true,
          "internalType": "uint256",
          "name": "questionId",
          "type": "uint256"
        },
        {
          "indexed": true,
          "internalType": "address",
          "name": "disqualifier",
          "type": "address"
        }
      ],
      "name": "QuestionDisqualified",
      "type": "event"
    },
    {
      "anonymous": false,
      "inputs": [
        {
          "indexed": true,
          "internalType": "uint256",
          "name": "questionId",
          "type": "uint256"
        },
        {
          "indexed": true,
          "internalType": "address",
          "name": "publisher",
          "type": "address"
        }
      ],
      "name": "QuestionPublished",
      "type": "event"
    },
    {
      "anonymous": false,
      "inputs": [
        {
          "indexed": true,
          "internalType": "uint256",
          "name": "questionId",
          "type": "uint256"
        },
        {
          "indexed": true,
          "internalType": "address",
          "name": "voter",
          "type": "address"
        }
      ],
      "name": "QuestionUnvoted",
      "type": "event"
    },
    {
      "anonymous": false,
      "inputs": [
        {
          "indexed": true,
          "internalType": "uint256",
          "name": "questionId",
          "type": "uint256"
        },
        {
          "indexed": true,
          "internalType": "address",
          "name": "voter",
          "type": "address"
        }
      ],
      "name": "QuestionUpvoted",
      "type": "event"
    },
    {
      "inputs": [],
      "name": "ADMIN_ROLE",
      "outputs": [
        {
          "internalType": "bytes32",
          "name": "",
          "type": "bytes32"
        }
      ],
      "stateMutability": "view",
      "type": "function"
    },
    {
      "inputs": [],
      "name": "PROGRAM_MANAGER_ROLE",
      "outputs": [
        {
          "internalType": "bytes32",
          "name": "",
          "type": "bytes32"
        }
      ],
      "stateMutability": "view",
      "type": "function"
    },
    {
      "inputs": [
        {
          "internalType": "bytes32",
          "name": "role",
          "type": "bytes32"
        },
        {
          "internalType": "address",
          "name": "nft",
          "type": "address"
        }
      ],
      "name": "addHolderRole",
      "outputs": [],
      "stateMutability": "nonpayable",
      "type": "function"
    },
    {
      "inputs": [
        {
          "internalType": "uint256",
          "name": "questionId",
          "type": "uint256"
        },
        {
          "internalType": "string",
          "name": "answerURL",
          "type": "string"
        }
      ],
      "name": "answerQuestion",
      "outputs": [],
      "stateMutability": "nonpayable",
      "type": "function"
    },
    {
      "inputs": [
        {
          "internalType": "uint256",
          "name": "questionId",
          "type": "uint256"
        }
      ],
      "name": "claimQuestion",
      "outputs": [],
      "stateMutability": "nonpayable",
      "type": "function"
    },
    {
      "inputs": [
        {
          "internalType": "string",
          "name": "uri",
          "type": "string"
        },
        {
          "internalType": "uint256",
          "name": "claimLimit",
          "type": "uint256"
        }
      ],
      "name": "createChallenge",
      "outputs": [
        {
          "internalType": "uint256",
          "name": "",
          "type": "uint256"
        }
      ],
      "stateMutability": "nonpayable",
      "type": "function"
    },
    {
      "inputs": [
        {
          "internalType": "string",
          "name": "uri",
          "type": "string"
        }
      ],
      "name": "createQuestion",
      "outputs": [
        {
          "internalType": "uint256",
          "name": "",
          "type": "uint256"
        }
      ],
      "stateMutability": "nonpayable",
      "type": "function"
    },
    {
      "inputs": [
        {
          "internalType": "uint256",
          "name": "questionId",
          "type": "uint256"
        }
      ],
      "name": "disqualifyQuestion",
      "outputs": [],
      "stateMutability": "nonpayable",
      "type": "function"
    },
    {
      "inputs": [],
      "name": "owner",
      "outputs": [
        {
          "internalType": "address",
          "name": "",
          "type": "address"
        }
      ],
      "stateMutability": "view",
      "type": "function"
    },
    {
      "inputs": [
        {
          "internalType": "uint256",
          "name": "questionId",
          "type": "uint256"
        },
        {
          "internalType": "uint256",
          "name": "claimLimit",
          "type": "uint256"
        }
      ],
      "name": "publishQuestion",
      "outputs": [],
      "stateMutability": "nonpayable",
      "type": "function"
    },
    {
      "inputs": [
        {
          "internalType": "uint256",
          "name": "questionId",
          "type": "uint256"
        }
      ],
      "name": "releaseClaim",
      "outputs": [],
      "stateMutability": "nonpayable",
      "type": "function"
    },
    {
      "inputs": [],
      "name": "renounceOwnership",
      "outputs": [],
      "stateMutability": "nonpayable",
      "type": "function"
    },
    {
      "inputs": [
        {
          "internalType": "address",
          "name": "newQuestion",
          "type": "address"
        }
      ],
      "name": "setClaimController",
      "outputs": [],
      "stateMutability": "nonpayable",
      "type": "function"
    },
    {
      "inputs": [
        {
          "internalType": "address",
          "name": "newCost",
          "type": "address"
        }
      ],
      "name": "setCostController",
      "outputs": [],
      "stateMutability": "nonpayable",
      "type": "function"
    },
    {
      "inputs": [
        {
          "internalType": "address",
          "name": "newQuestion",
          "type": "address"
        }
      ],
      "name": "setQuestionProxy",
      "outputs": [],
      "stateMutability": "nonpayable",
      "type": "function"
    },
    {
      "inputs": [
        {
          "internalType": "address",
          "name": "newQuestion",
          "type": "address"
        }
      ],
      "name": "setQuestionStateController",
      "outputs": [],
      "stateMutability": "nonpayable",
      "type": "function"
    },
    {
      "inputs": [],
      "name": "toggleLock",
      "outputs": [],
      "stateMutability": "nonpayable",
      "type": "function"
    },
    {
      "inputs": [
        {
          "internalType": "address",
          "name": "newOwner",
          "type": "address"
        }
      ],
      "name": "transferOwnership",
      "outputs": [],
      "stateMutability": "nonpayable",
      "type": "function"
    },
    {
      "inputs": [
        {
          "internalType": "uint256",
          "name": "questionId",
          "type": "uint256"
        }
      ],
      "name": "unvoteQuestion",
      "outputs": [],
      "stateMutability": "nonpayable",
      "type": "function"
    },
    {
      "inputs": [
        {
          "internalType": "uint256",
          "name": "questionId",
          "type": "uint256"
        }
      ],
      "name": "upvoteQuestion",
      "outputs": [],
      "stateMutability": "nonpayable",
      "type": "function"
    }
  ],
  "transactionHash": "0xc08e3cec044df2be70fa89976ff8097aa3217524f759fa3168d0a685f413e071",
  "args": [
    "0x322813Fd9A801c5507c9de605d63CEA4f2CE6c44",
    "0x4A679253410272dd5232B3Ff7cF5dbB88f295319",
    "0xa85233C63b9Ee964Add6F2cffe00Fd84eb32338f",
    "0x09635F643e140090A9A8Dcd712eD6285858ceBef"
  ],
  "numDeployments": 1,
  "solcInputHash": "4a2696ec6ec05bd8e211447d338ac135",
  "bytecode": "0x60806040523480156200001157600080fd5b50604051620028713803806200287183398181016040528101906200003791906200029b565b620000576200004b6200016560201b60201c565b6200016d60201b60201c565b83600260016101000a81548173ffffffffffffffffffffffffffffffffffffffff021916908373ffffffffffffffffffffffffffffffffffffffff16021790555082600360006101000a81548173ffffffffffffffffffffffffffffffffffffffff021916908373ffffffffffffffffffffffffffffffffffffffff16021790555081600460006101000a81548173ffffffffffffffffffffffffffffffffffffffff021916908373ffffffffffffffffffffffffffffffffffffffff16021790555080600560006101000a81548173ffffffffffffffffffffffffffffffffffffffff021916908373ffffffffffffffffffffffffffffffffffffffff160217905550505050506200030d565b600033905090565b60008060009054906101000a900473ffffffffffffffffffffffffffffffffffffffff169050816000806101000a81548173ffffffffffffffffffffffffffffffffffffffff021916908373ffffffffffffffffffffffffffffffffffffffff1602179055508173ffffffffffffffffffffffffffffffffffffffff168173ffffffffffffffffffffffffffffffffffffffff167f8be0079c531659141344cd1fd0a4f28419497f9722a3daafe3b4186f6b6457e060405160405180910390a35050565b600080fd5b600073ffffffffffffffffffffffffffffffffffffffff82169050919050565b6000620002638262000236565b9050919050565b620002758162000256565b81146200028157600080fd5b50565b60008151905062000295816200026a565b92915050565b60008060008060808587031215620002b857620002b762000231565b5b6000620002c88782880162000284565b9450506020620002db8782880162000284565b9350506040620002ee8782880162000284565b9250506060620003018782880162000284565b91505092959194509250565b612554806200031d6000396000f3fe608060405234801561001057600080fd5b506004361061012c5760003560e01c8063a8bde4eb116100ad578063ec8f677711610071578063ec8f6777146102f1578063ecb63d721461030d578063f0f6420114610329578063f2fde38b14610345578063ff9413d8146103615761012c565b8063a8bde4eb1461024f578063b3580c1e1461026b578063bc4102971461029b578063e11041c3146102b7578063e9d8c381146102d35761012c565b8063715018a6116100f4578063715018a6146101bd57806375b238fc146101c75780638da5cb5b146101e557806398c9f1df146102035780639a6110b4146102335761012c565b80630ef4b531146101315780631919bcd61461014d578063314c3e9814610169578063447e52a0146101855780636ee5a1b1146101a1575b600080fd5b61014b60048036038101906101469190611e1c565b61036b565b005b61016760048036038101906101629190611ea7565b610628565b005b610183600480360381019061017e9190611f0a565b61074e565b005b61019f600480360381019061019a9190611faf565b610820565b005b6101bb60048036038101906101b69190611e1c565b610951565b005b6101c5610a35565b005b6101cf610abd565b6040516101dc919061201e565b60405180910390f35b6101ed610ae1565b6040516101fa9190612048565b60405180910390f35b61021d60048036038101906102189190612063565b610b0a565b60405161022a91906120d2565b60405180910390f35b61024d60048036038101906102489190611e1c565b610de3565b005b61026960048036038101906102649190611e1c565b610f81565b005b610285600480360381019061028091906120ed565b611061565b60405161029291906120d2565b60405180910390f35b6102b560048036038101906102b09190611ea7565b61128a565b005b6102d160048036038101906102cc9190611e1c565b6113b0565b005b6102db611634565b6040516102e8919061201e565b60405180910390f35b61030b60048036038101906103069190611ea7565b611658565b005b6103276004803603810190610322919061213a565b61177e565b005b610343600480360381019061033e9190611ea7565b61195b565b005b61035f600480360381019061035a9190611ea7565b611a81565b005b610369611b78565b005b600260009054906101000a900460ff16156103b2576040517f77e9811b00000000000000000000000000000000000000000000000000000000815260040160405180910390fd5b600260048111156103c6576103c561217a565b5b600360009054906101000a900473ffffffffffffffffffffffffffffffffffffffff1673ffffffffffffffffffffffffffffffffffffffff166344c9af28836040518263ffffffff1660e01b815260040161042191906120d2565b602060405180830381865afa15801561043e573d6000803e3d6000fd5b505050506040513d601f19601f8201168201806040525081019061046291906121ce565b60048111156104745761047361217a565b5b146104ab576040517f3b03644900000000000000000000000000000000000000000000000000000000815260040160405180910390fd5b600460009054906101000a900473ffffffffffffffffffffffffffffffffffffffff1673ffffffffffffffffffffffffffffffffffffffff1663aad3ec966104f1611c20565b836040518363ffffffff1660e01b815260040161050f9291906121fb565b600060405180830381600087803b15801561052957600080fd5b505af115801561053d573d6000803e3d6000fd5b50505050600560009054906101000a900473ffffffffffffffffffffffffffffffffffffffff1673ffffffffffffffffffffffffffffffffffffffff16631d67644d610587611c20565b8360026040518463ffffffff1660e01b81526004016105a89392919061226c565b600060405180830381600087803b1580156105c257600080fd5b505af11580156105d6573d6000803e3d6000fd5b505050506105e2611c20565b73ffffffffffffffffffffffffffffffffffffffff16817f8420685f160085bdc75c7d5265ef561ea88eb1ab5b58b0cd38b68babcf537cb560405160405180910390a350565b610630611c20565b73ffffffffffffffffffffffffffffffffffffffff1661064e610ae1565b73ffffffffffffffffffffffffffffffffffffffff16146106a4576040517f08c379a000000000000000000000000000000000000000000000000000000000815260040161069b90612300565b60405180910390fd5b600073ffffffffffffffffffffffffffffffffffffffff168173ffffffffffffffffffffffffffffffffffffffff160361070a576040517fe6c4247b00000000000000000000000000000000000000000000000000000000815260040160405180910390fd5b80600560006101000a81548173ffffffffffffffffffffffffffffffffffffffff021916908373ffffffffffffffffffffffffffffffffffffffff16021790555050565b610756611c20565b73ffffffffffffffffffffffffffffffffffffffff16610774610ae1565b73ffffffffffffffffffffffffffffffffffffffff16146107ca576040517f08c379a00000000000000000000000000000000000000000000000000000000081526004016107c190612300565b60405180910390fd5b806001600084815260200190815260200160002060006101000a81548173ffffffffffffffffffffffffffffffffffffffff021916908373ffffffffffffffffffffffffffffffffffffffff1602179055505050565b600260009054906101000a900460ff1615610867576040517f77e9811b00000000000000000000000000000000000000000000000000000000815260040160405180910390fd5b600460009054906101000a900473ffffffffffffffffffffffffffffffffffffffff1673ffffffffffffffffffffffffffffffffffffffff1663de9951a66108ad611c20565b8585856040518563ffffffff1660e01b81526004016108cf949392919061236d565b600060405180830381600087803b1580156108e957600080fd5b505af11580156108fd573d6000803e3d6000fd5b50505050610909611c20565b73ffffffffffffffffffffffffffffffffffffffff16837f3523d3f08d443a3de3a7a5e0213c8b3728df4dcaa7ce5182097cadd88689766d60405160405180910390a3505050565b600360009054906101000a900473ffffffffffffffffffffffffffffffffffffffff1673ffffffffffffffffffffffffffffffffffffffff1663e78daa75610997611c20565b836040518363ffffffff1660e01b81526004016109b59291906121fb565b600060405180830381600087803b1580156109cf57600080fd5b505af11580156109e3573d6000803e3d6000fd5b505050506109ef611c20565b73ffffffffffffffffffffffffffffffffffffffff16817f2ce8d0b5aac2aac75df5d055eba39e1a943c8ee924ac71efd94de57b4b6fa49b60405160405180910390a350565b610a3d611c20565b73ffffffffffffffffffffffffffffffffffffffff16610a5b610ae1565b73ffffffffffffffffffffffffffffffffffffffff1614610ab1576040517f08c379a0000000000000000000000000000000000000000000000000000000008152600401610aa890612300565b60405180910390fd5b610abb6000611c28565b565b7fa49807205ce4d355092ef5a8a18f56e8913cf4a201fbe287825b095693c2177581565b60008060009054906101000a900473ffffffffffffffffffffffffffffffffffffffff16905090565b60007f104852406e94df2c5112860c28c2d2e43c02e322bc0cf95e2d0159faf296d7fb610b3681611cec565b6000600260019054906101000a900473ffffffffffffffffffffffffffffffffffffffff1673ffffffffffffffffffffffffffffffffffffffff1663dab6dbce610b7e611c20565b88886040518463ffffffff1660e01b8152600401610b9e939291906123ad565b6020604051808303816000875af1158015610bbd573d6000803e3d6000fd5b505050506040513d601f19601f82011682018060405250810190610be191906123f4565b9050600360009054906101000a900473ffffffffffffffffffffffffffffffffffffffff1673ffffffffffffffffffffffffffffffffffffffff1663d6a8f797826040518263ffffffff1660e01b8152600401610c3e91906120d2565b600060405180830381600087803b158015610c5857600080fd5b505af1158015610c6c573d6000803e3d6000fd5b50505050600460009054906101000a900473ffffffffffffffffffffffffffffffffffffffff1673ffffffffffffffffffffffffffffffffffffffff1663701776f782866040518363ffffffff1660e01b8152600401610ccd929190612421565b600060405180830381600087803b158015610ce757600080fd5b505af1158015610cfb573d6000803e3d6000fd5b50505050600360009054906101000a900473ffffffffffffffffffffffffffffffffffffffff1673ffffffffffffffffffffffffffffffffffffffff1663cc4ef119826040518263ffffffff1660e01b8152600401610d5a91906120d2565b600060405180830381600087803b158015610d7457600080fd5b505af1158015610d88573d6000803e3d6000fd5b50505050610d94611c20565b73ffffffffffffffffffffffffffffffffffffffff16817f83a97ccca8e136a4d58fd664739225fcfe9db9a5b0bebf35df44614f2aa9b63a60405160405180910390a380925050509392505050565b610deb611c20565b73ffffffffffffffffffffffffffffffffffffffff16610e09610ae1565b73ffffffffffffffffffffffffffffffffffffffff1614610e5f576040517f08c379a0000000000000000000000000000000000000000000000000000000008152600401610e5690612300565b60405180910390fd5b600260009054906101000a900460ff1615610ea6576040517f77e9811b00000000000000000000000000000000000000000000000000000000815260040160405180910390fd5b600360009054906101000a900473ffffffffffffffffffffffffffffffffffffffff1673ffffffffffffffffffffffffffffffffffffffff1663ecf24b31826040518263ffffffff1660e01b8152600401610f0191906120d2565b600060405180830381600087803b158015610f1b57600080fd5b505af1158015610f2f573d6000803e3d6000fd5b50505050610f3b611c20565b73ffffffffffffffffffffffffffffffffffffffff16817ff71fc70f190ad1360e34d483a2c00ef97b0da48cf5c510686ff1b3961176db1360405160405180910390a350565b600260009054906101000a900460ff1615610fc8576040517f77e9811b00000000000000000000000000000000000000000000000000000000815260040160405180910390fd5b600460009054906101000a900473ffffffffffffffffffffffffffffffffffffffff1673ffffffffffffffffffffffffffffffffffffffff1663469724e161100e611c20565b836040518363ffffffff1660e01b815260040161102c9291906121fb565b600060405180830381600087803b15801561104657600080fd5b505af115801561105a573d6000803e3d6000fd5b5050505050565b600080600260019054906101000a900473ffffffffffffffffffffffffffffffffffffffff1673ffffffffffffffffffffffffffffffffffffffff1663dab6dbce6110aa611c20565b86866040518463ffffffff1660e01b81526004016110ca939291906123ad565b6020604051808303816000875af11580156110e9573d6000803e3d6000fd5b505050506040513d601f19601f8201168201806040525081019061110d91906123f4565b9050600360009054906101000a900473ffffffffffffffffffffffffffffffffffffffff1673ffffffffffffffffffffffffffffffffffffffff1663d6a8f797826040518263ffffffff1660e01b815260040161116a91906120d2565b600060405180830381600087803b15801561118457600080fd5b505af1158015611198573d6000803e3d6000fd5b50505050600560009054906101000a900473ffffffffffffffffffffffffffffffffffffffff1673ffffffffffffffffffffffffffffffffffffffff16631d67644d6111e2611c20565b8360006040518463ffffffff1660e01b81526004016112039392919061226c565b600060405180830381600087803b15801561121d57600080fd5b505af1158015611231573d6000803e3d6000fd5b5050505061123d611c20565b73ffffffffffffffffffffffffffffffffffffffff16817fe507074282a0f805a6f370a3dfca4b5578056337d6fe37524243a02ca7a3cae160405160405180910390a38091505092915050565b611292611c20565b73ffffffffffffffffffffffffffffffffffffffff166112b0610ae1565b73ffffffffffffffffffffffffffffffffffffffff1614611306576040517f08c379a00000000000000000000000000000000000000000000000000000000081526004016112fd90612300565b60405180910390fd5b600073ffffffffffffffffffffffffffffffffffffffff168173ffffffffffffffffffffffffffffffffffffffff160361136c576040517fe6c4247b00000000000000000000000000000000000000000000000000000000815260040160405180910390fd5b80600260016101000a81548173ffffffffffffffffffffffffffffffffffffffff021916908373ffffffffffffffffffffffffffffffffffffffff16021790555050565b6113b8611c20565b73ffffffffffffffffffffffffffffffffffffffff16600260019054906101000a900473ffffffffffffffffffffffffffffffffffffffff1673ffffffffffffffffffffffffffffffffffffffff1663710bc3cd836040518263ffffffff1660e01b815260040161142991906120d2565b602060405180830381865afa158015611446573d6000803e3d6000fd5b505050506040513d601f19601f8201168201806040525081019061146a919061245f565b73ffffffffffffffffffffffffffffffffffffffff16036114b7576040517f549bb9b900000000000000000000000000000000000000000000000000000000815260040160405180910390fd5b600360009054906101000a900473ffffffffffffffffffffffffffffffffffffffff1673ffffffffffffffffffffffffffffffffffffffff166324d6d6016114fd611c20565b836040518363ffffffff1660e01b815260040161151b9291906121fb565b600060405180830381600087803b15801561153557600080fd5b505af1158015611549573d6000803e3d6000fd5b50505050600560009054906101000a900473ffffffffffffffffffffffffffffffffffffffff1673ffffffffffffffffffffffffffffffffffffffff16631d67644d611593611c20565b8360016040518463ffffffff1660e01b81526004016115b49392919061226c565b600060405180830381600087803b1580156115ce57600080fd5b505af11580156115e2573d6000803e3d6000fd5b505050506115ee611c20565b73ffffffffffffffffffffffffffffffffffffffff16817f2d41d13a6e38ae738043e6c4811b1f16f9608295287f54de44621ed6e4b4505660405160405180910390a350565b7f104852406e94df2c5112860c28c2d2e43c02e322bc0cf95e2d0159faf296d7fb81565b611660611c20565b73ffffffffffffffffffffffffffffffffffffffff1661167e610ae1565b73ffffffffffffffffffffffffffffffffffffffff16146116d4576040517f08c379a00000000000000000000000000000000000000000000000000000000081526004016116cb90612300565b60405180910390fd5b600073ffffffffffffffffffffffffffffffffffffffff168173ffffffffffffffffffffffffffffffffffffffff160361173a576040517fe6c4247b00000000000000000000000000000000000000000000000000000000815260040160405180910390fd5b80600460006101000a81548173ffffffffffffffffffffffffffffffffffffffff021916908373ffffffffffffffffffffffffffffffffffffffff16021790555050565b7fa49807205ce4d355092ef5a8a18f56e8913cf4a201fbe287825b095693c217756117a881611cec565b600260009054906101000a900460ff16156117ef576040517f77e9811b00000000000000000000000000000000000000000000000000000000815260040160405180910390fd5b600360009054906101000a900473ffffffffffffffffffffffffffffffffffffffff1673ffffffffffffffffffffffffffffffffffffffff1663cc4ef119846040518263ffffffff1660e01b815260040161184a91906120d2565b600060405180830381600087803b15801561186457600080fd5b505af1158015611878573d6000803e3d6000fd5b50505050600460009054906101000a900473ffffffffffffffffffffffffffffffffffffffff1673ffffffffffffffffffffffffffffffffffffffff1663701776f784846040518363ffffffff1660e01b81526004016118d9929190612421565b600060405180830381600087803b1580156118f357600080fd5b505af1158015611907573d6000803e3d6000fd5b50505050611913611c20565b73ffffffffffffffffffffffffffffffffffffffff16837f48b3755b206fcea70a67e15db40f89daf0a8391f12082cc27d6c4412eb73158f60405160405180910390a3505050565b611963611c20565b73ffffffffffffffffffffffffffffffffffffffff16611981610ae1565b73ffffffffffffffffffffffffffffffffffffffff16146119d7576040517f08c379a00000000000000000000000000000000000000000000000000000000081526004016119ce90612300565b60405180910390fd5b600073ffffffffffffffffffffffffffffffffffffffff168173ffffffffffffffffffffffffffffffffffffffff1603611a3d576040517fe6c4247b00000000000000000000000000000000000000000000000000000000815260040160405180910390fd5b80600360006101000a81548173ffffffffffffffffffffffffffffffffffffffff021916908373ffffffffffffffffffffffffffffffffffffffff16021790555050565b611a89611c20565b73ffffffffffffffffffffffffffffffffffffffff16611aa7610ae1565b73ffffffffffffffffffffffffffffffffffffffff1614611afd576040517f08c379a0000000000000000000000000000000000000000000000000000000008152600401611af490612300565b60405180910390fd5b600073ffffffffffffffffffffffffffffffffffffffff168173ffffffffffffffffffffffffffffffffffffffff1603611b6c576040517f08c379a0000000000000000000000000000000000000000000000000000000008152600401611b63906124fe565b60405180910390fd5b611b7581611c28565b50565b611b80611c20565b73ffffffffffffffffffffffffffffffffffffffff16611b9e610ae1565b73ffffffffffffffffffffffffffffffffffffffff1614611bf4576040517f08c379a0000000000000000000000000000000000000000000000000000000008152600401611beb90612300565b60405180910390fd5b600260009054906101000a900460ff1615600260006101000a81548160ff021916908315150217905550565b600033905090565b60008060009054906101000a900473ffffffffffffffffffffffffffffffffffffffff169050816000806101000a81548173ffffffffffffffffffffffffffffffffffffffff021916908373ffffffffffffffffffffffffffffffffffffffff1602179055508173ffffffffffffffffffffffffffffffffffffffff168173ffffffffffffffffffffffffffffffffffffffff167f8be0079c531659141344cd1fd0a4f28419497f9722a3daafe3b4186f6b6457e060405160405180910390a35050565b60006001600083815260200190815260200160002060009054906101000a900473ffffffffffffffffffffffffffffffffffffffff1673ffffffffffffffffffffffffffffffffffffffff166370a08231611d45611c20565b6040518263ffffffff1660e01b8152600401611d619190612048565b602060405180830381865afa158015611d7e573d6000803e3d6000fd5b505050506040513d601f19601f82011682018060405250810190611da291906123f4565b03611dd9576040517fbddc845600000000000000000000000000000000000000000000000000000000815260040160405180910390fd5b50565b600080fd5b600080fd5b6000819050919050565b611df981611de6565b8114611e0457600080fd5b50565b600081359050611e1681611df0565b92915050565b600060208284031215611e3257611e31611ddc565b5b6000611e4084828501611e07565b91505092915050565b600073ffffffffffffffffffffffffffffffffffffffff82169050919050565b6000611e7482611e49565b9050919050565b611e8481611e69565b8114611e8f57600080fd5b50565b600081359050611ea181611e7b565b92915050565b600060208284031215611ebd57611ebc611ddc565b5b6000611ecb84828501611e92565b91505092915050565b6000819050919050565b611ee781611ed4565b8114611ef257600080fd5b50565b600081359050611f0481611ede565b92915050565b60008060408385031215611f2157611f20611ddc565b5b6000611f2f85828601611ef5565b9250506020611f4085828601611e92565b9150509250929050565b600080fd5b600080fd5b600080fd5b60008083601f840112611f6f57611f6e611f4a565b5b8235905067ffffffffffffffff811115611f8c57611f8b611f4f565b5b602083019150836001820283011115611fa857611fa7611f54565b5b9250929050565b600080600060408486031215611fc857611fc7611ddc565b5b6000611fd686828701611e07565b935050602084013567ffffffffffffffff811115611ff757611ff6611de1565b5b61200386828701611f59565b92509250509250925092565b61201881611ed4565b82525050565b6000602082019050612033600083018461200f565b92915050565b61204281611e69565b82525050565b600060208201905061205d6000830184612039565b92915050565b60008060006040848603121561207c5761207b611ddc565b5b600084013567ffffffffffffffff81111561209a57612099611de1565b5b6120a686828701611f59565b935093505060206120b986828701611e07565b9150509250925092565b6120cc81611de6565b82525050565b60006020820190506120e760008301846120c3565b92915050565b6000806020838503121561210457612103611ddc565b5b600083013567ffffffffffffffff81111561212257612121611de1565b5b61212e85828601611f59565b92509250509250929050565b6000806040838503121561215157612150611ddc565b5b600061215f85828601611e07565b925050602061217085828601611e07565b9150509250929050565b7f4e487b7100000000000000000000000000000000000000000000000000000000600052602160045260246000fd5b600581106121b657600080fd5b50565b6000815190506121c8816121a9565b92915050565b6000602082840312156121e4576121e3611ddc565b5b60006121f2848285016121b9565b91505092915050565b60006040820190506122106000830185612039565b61221d60208301846120c3565b9392505050565b600381106122355761223461217a565b5b50565b600081905061224682612224565b919050565b600061225682612238565b9050919050565b6122668161224b565b82525050565b60006060820190506122816000830186612039565b61228e60208301856120c3565b61229b604083018461225d565b949350505050565b600082825260208201905092915050565b7f4f776e61626c653a2063616c6c6572206973206e6f7420746865206f776e6572600082015250565b60006122ea6020836122a3565b91506122f5826122b4565b602082019050919050565b60006020820190508181036000830152612319816122dd565b9050919050565b82818337600083830152505050565b6000601f19601f8301169050919050565b600061234c83856122a3565b9350612359838584612320565b6123628361232f565b840190509392505050565b60006060820190506123826000830187612039565b61238f60208301866120c3565b81810360408301526123a2818486612340565b905095945050505050565b60006040820190506123c26000830186612039565b81810360208301526123d5818486612340565b9050949350505050565b6000815190506123ee81611df0565b92915050565b60006020828403121561240a57612409611ddc565b5b6000612418848285016123df565b91505092915050565b600060408201905061243660008301856120c3565b61244360208301846120c3565b9392505050565b60008151905061245981611e7b565b92915050565b60006020828403121561247557612474611ddc565b5b60006124838482850161244a565b91505092915050565b7f4f776e61626c653a206e6577206f776e657220697320746865207a65726f206160008201527f6464726573730000000000000000000000000000000000000000000000000000602082015250565b60006124e86026836122a3565b91506124f38261248c565b604082019050919050565b60006020820190508181036000830152612517816124db565b905091905056fea2646970667358221220630e46df1a553745bda28c009fe77c747266b6fbba64309679a2e5e52185db5864736f6c634300080d0033",
  "devdoc": {
    "author": "MetricsDAO team",
    "kind": "dev",
    "methods": {
      "answerQuestion(uint256,string)": {
        "params": {
          "answerURL": "THE IPFS hash of the answer.",
          "questionId": "The questionId of the question to answer."
        }
      },
      "claimQuestion(uint256)": {
        "params": {
          "questionId": "The questionId of the question to disqualify"
        }
      },
      "constructor": {
        "params": {
          "bountyQuestion": "BountyQuestion contract instance.",
          "claimController": "The claim controller address.",
          "costController": "The action cost controller address.",
          "questionStateController": "The question state controller address."
        }
      },
      "createChallenge(string,uint256)": {
        "params": {
          "claimLimit": "The limit for the amount of people that can claim the challenge",
          "uri": "The IPFS hash of the challenge"
        },
        "returns": {
          "_0": "questionId The question id"
        }
      },
      "createQuestion(string)": {
        "params": {
          "uri": "The IPFS hash of the question."
        },
        "returns": {
          "_0": "The question id"
        }
      },
      "disqualifyQuestion(uint256)": {
        "params": {
          "questionId": "The questionId of the question to disqualify."
        }
      },
      "owner()": {
        "details": "Returns the address of the current owner."
      },
      "publishQuestion(uint256,uint256)": {
        "params": {
          "claimLimit": "The amount of claims per question.",
          "questionId": "The questionId of the question to publish"
        }
      },
      "renounceOwnership()": {
        "details": "Leaves the contract without owner. It will not be possible to call `onlyOwner` functions anymore. Can only be called by the current owner. NOTE: Renouncing ownership will leave the contract without an owner, thereby removing any functionality that is only available to the owner."
      },
      "setClaimController(address)": {
        "params": {
          "newQuestion": "The address of the new ClaimController contract."
        }
      },
      "setCostController(address)": {
        "params": {
          "newCost": "The address of the new CostController contract."
        }
      },
      "setQuestionProxy(address)": {
        "params": {
          "newQuestion": "The address of the new BountyQuestion contract."
        }
      },
      "setQuestionStateController(address)": {
        "params": {
          "newQuestion": "The address of the new BountyQuestion contract."
        }
      },
      "transferOwnership(address)": {
        "details": "Transfers ownership of the contract to a new account (`newOwner`). Can only be called by the current owner."
      },
      "unvoteQuestion(uint256)": {
        "params": {
          "questionId": "The questionId of the question to upvote."
        }
      },
      "upvoteQuestion(uint256)": {
        "params": {
          "questionId": "The questionId of the question to upvote."
        }
      }
    },
    "title": "MetricsDAO question API",
    "version": 1
  },
  "userdoc": {
    "errors": {
      "CannotVoteForOwnQuestion()": [
        {
          "notice": "Throw if user tries to vote for own question"
        }
      ],
      "ClaimsNotOpen()": [
        {
          "notice": "Throw if analysts tries to claim a question that is not published."
        }
      ],
      "InvalidAddress()": [
        {
          "notice": "Throw if address is equal to address(0)."
        }
      ],
      "NotAtBenchmark()": [
        {
          "notice": "Throw if a question has not reached the benchmark for being published (yet)."
        }
      ]
    },
    "events": {
      "ChallengeCreated(uint256,address)": {
        "notice": "Emitted when a challenge is created."
      },
      "QuestionAnswered(uint256,address)": {
        "notice": "Emitted when a question is answered."
      },
      "QuestionClaimed(uint256,address)": {
        "notice": "Emitted when a question is claimed."
      },
      "QuestionCreated(uint256,address)": {
        "notice": "Emitted when a question is created."
      },
      "QuestionDisqualified(uint256,address)": {
        "notice": "Emitted when a question is disqualified."
      },
      "QuestionPublished(uint256,address)": {
        "notice": "Emitted when a question is published."
      },
      "QuestionUnvoted(uint256,address)": {
        "notice": "Emitted when a question is unvoted."
      },
      "QuestionUpvoted(uint256,address)": {
        "notice": "Emitted when a question is upvoted."
      }
    },
    "kind": "user",
    "methods": {
      "answerQuestion(uint256,string)": {
        "notice": "Allows a claimed question to be answered by an analyst."
      },
      "claimQuestion(uint256)": {
        "notice": "Allows anm analyst to claim a question and submit an answer before the dealine."
      },
      "constructor": {
        "notice": "Constructor sets the question state controller, claim controller, and action cost controller."
      },
      "createChallenge(string,uint256)": {
        "notice": "Directly creates a challenge, this is an optional feature for program managers that would like to create challenges directly (skipping the voting stage)."
      },
      "createQuestion(string)": {
        "notice": "Creates a question."
      },
      "disqualifyQuestion(uint256)": {
        "notice": "Allows the owner to disqualify a question."
      },
      "publishQuestion(uint256,uint256)": {
        "notice": "Publishes a question and allows it to be claimed and receive answers."
      },
      "setClaimController(address)": {
        "notice": "Allows the owner to set the ClaimController contract address."
      },
      "setCostController(address)": {
        "notice": "Allows the owner to set the CostController contract address."
      },
      "setQuestionProxy(address)": {
        "notice": "Allows the owner to set the BountyQuestion contract address."
      },
      "setQuestionStateController(address)": {
        "notice": "Allows the owner to set the QuestionStateController contract address."
      },
      "unvoteQuestion(uint256)": {
        "notice": "Unvotes a question."
      },
      "upvoteQuestion(uint256)": {
        "notice": "Upvotes a question."
      }
    },
    "notice": "This contract is an API for MetricsDAO that allows for interacting with questions & challenges.",
    "version": 1
  },
  "storageLayout": {
    "storage": [
      {
        "astId": 7,
        "contract": "src/contracts/Protocol/QuestionAPI.sol:QuestionAPI",
        "label": "_owner",
        "offset": 0,
        "slot": "0",
        "type": "t_address"
      },
      {
        "astId": 3538,
        "contract": "src/contracts/Protocol/QuestionAPI.sol:QuestionAPI",
        "label": "_nfts",
        "offset": 0,
        "slot": "1",
        "type": "t_mapping(t_bytes32,t_address)"
      },
      {
        "astId": 3495,
        "contract": "src/contracts/Protocol/QuestionAPI.sol:QuestionAPI",
        "label": "isLocked",
        "offset": 0,
        "slot": "2",
        "type": "t_bool"
      },
      {
        "astId": 1474,
        "contract": "src/contracts/Protocol/QuestionAPI.sol:QuestionAPI",
        "label": "_question",
        "offset": 1,
        "slot": "2",
        "type": "t_contract(BountyQuestion)1419"
      },
      {
        "astId": 1477,
        "contract": "src/contracts/Protocol/QuestionAPI.sol:QuestionAPI",
        "label": "_questionStateController",
        "offset": 0,
        "slot": "3",
        "type": "t_contract(IQuestionStateController)3488"
      },
      {
        "astId": 1480,
        "contract": "src/contracts/Protocol/QuestionAPI.sol:QuestionAPI",
        "label": "_claimController",
        "offset": 0,
        "slot": "4",
        "type": "t_contract(IClaimController)3438"
      },
      {
        "astId": 1483,
        "contract": "src/contracts/Protocol/QuestionAPI.sol:QuestionAPI",
        "label": "_costController",
        "offset": 0,
        "slot": "5",
        "type": "t_contract(IActionCostController)3359"
      }
    ],
    "types": {
      "t_address": {
        "encoding": "inplace",
        "label": "address",
        "numberOfBytes": "20"
      },
      "t_bool": {
        "encoding": "inplace",
        "label": "bool",
        "numberOfBytes": "1"
      },
      "t_bytes32": {
        "encoding": "inplace",
        "label": "bytes32",
        "numberOfBytes": "32"
      },
      "t_contract(BountyQuestion)1419": {
        "encoding": "inplace",
        "label": "contract BountyQuestion",
        "numberOfBytes": "20"
      },
      "t_contract(IActionCostController)3359": {
        "encoding": "inplace",
        "label": "contract IActionCostController",
        "numberOfBytes": "20"
      },
      "t_contract(IClaimController)3438": {
        "encoding": "inplace",
        "label": "contract IClaimController",
        "numberOfBytes": "20"
      },
      "t_contract(IQuestionStateController)3488": {
        "encoding": "inplace",
        "label": "contract IQuestionStateController",
        "numberOfBytes": "20"
      },
      "t_mapping(t_bytes32,t_address)": {
        "encoding": "mapping",
        "key": "t_bytes32",
        "label": "mapping(bytes32 => address)",
        "numberOfBytes": "32",
        "value": "t_address"
      }
    }
  }
}