{
  "address": "0x5FC8d32690cc91D4c39d9d3abcBD16989F875707",
  "abi": [
    {
      "inputs": [
        {
          "internalType": "address",
          "name": "bountyQuestion",
          "type": "address"
        },
        {
          "internalType": "address",
          "name": "questionStateController",
          "type": "address"
        },
        {
          "internalType": "address",
          "name": "claimController",
          "type": "address"
        },
        {
          "internalType": "address",
          "name": "costController",
          "type": "address"
        }
      ],
      "stateMutability": "nonpayable",
      "type": "constructor"
    },
    {
      "inputs": [],
      "name": "ClaimsNotOpen",
      "type": "error"
    },
    {
      "inputs": [],
      "name": "DoesNotHold",
      "type": "error"
    },
    {
      "anonymous": false,
      "inputs": [
        {
          "indexed": true,
          "internalType": "address",
          "name": "previousOwner",
          "type": "address"
        },
        {
          "indexed": true,
          "internalType": "address",
          "name": "newOwner",
          "type": "address"
        }
      ],
      "name": "OwnershipTransferred",
      "type": "event"
    },
    {
      "inputs": [],
      "name": "PROGRAM_MANAGER_ROLE",
      "outputs": [
        {
          "internalType": "bytes32",
          "name": "",
          "type": "bytes32"
        }
      ],
      "stateMutability": "view",
      "type": "function"
    },
    {
      "inputs": [
        {
          "internalType": "bytes32",
          "name": "role",
          "type": "bytes32"
        },
        {
          "internalType": "address",
          "name": "nft",
          "type": "address"
        }
      ],
      "name": "addHolderRole",
      "outputs": [],
      "stateMutability": "nonpayable",
      "type": "function"
    },
    {
      "inputs": [
        {
          "internalType": "uint256",
          "name": "questionId",
          "type": "uint256"
        },
        {
          "internalType": "string",
          "name": "answerURL",
          "type": "string"
        }
      ],
      "name": "answerQuestion",
      "outputs": [],
      "stateMutability": "nonpayable",
      "type": "function"
    },
    {
      "inputs": [
        {
          "internalType": "uint256",
          "name": "questionId",
          "type": "uint256"
        }
      ],
      "name": "claimQuestion",
      "outputs": [],
      "stateMutability": "nonpayable",
      "type": "function"
    },
    {
      "inputs": [
        {
          "internalType": "string",
          "name": "uri",
          "type": "string"
        },
        {
          "internalType": "uint256",
          "name": "claimLimit",
          "type": "uint256"
        }
      ],
      "name": "createChallenge",
      "outputs": [
        {
          "internalType": "uint256",
          "name": "",
          "type": "uint256"
        }
      ],
      "stateMutability": "nonpayable",
      "type": "function"
    },
    {
      "inputs": [
        {
          "internalType": "string",
          "name": "uri",
          "type": "string"
        },
        {
          "internalType": "uint256",
          "name": "claimLimit",
          "type": "uint256"
        }
      ],
      "name": "createQuestion",
      "outputs": [
        {
          "internalType": "uint256",
          "name": "",
          "type": "uint256"
        }
      ],
      "stateMutability": "nonpayable",
      "type": "function"
    },
    {
      "inputs": [
        {
          "internalType": "uint256",
          "name": "questionId",
          "type": "uint256"
        }
      ],
      "name": "disqualifyQuestion",
      "outputs": [],
      "stateMutability": "nonpayable",
      "type": "function"
    },
    {
      "inputs": [],
      "name": "owner",
      "outputs": [
        {
          "internalType": "address",
          "name": "",
          "type": "address"
        }
      ],
      "stateMutability": "view",
      "type": "function"
    },
    {
      "inputs": [],
      "name": "renounceOwnership",
      "outputs": [],
      "stateMutability": "nonpayable",
      "type": "function"
    },
    {
      "inputs": [
        {
          "internalType": "address",
          "name": "newQuestion",
          "type": "address"
        }
      ],
      "name": "setClaimController",
      "outputs": [],
      "stateMutability": "nonpayable",
      "type": "function"
    },
    {
      "inputs": [
        {
          "internalType": "address",
          "name": "newCost",
          "type": "address"
        }
      ],
      "name": "setCostController",
      "outputs": [],
      "stateMutability": "nonpayable",
      "type": "function"
    },
    {
      "inputs": [
        {
          "internalType": "address",
          "name": "newQuestion",
          "type": "address"
        }
      ],
      "name": "setQuestionProxy",
      "outputs": [],
      "stateMutability": "nonpayable",
      "type": "function"
    },
    {
      "inputs": [
        {
          "internalType": "address",
          "name": "newQuestion",
          "type": "address"
        }
      ],
      "name": "setQuestionStateController",
      "outputs": [],
      "stateMutability": "nonpayable",
      "type": "function"
    },
    {
      "inputs": [
        {
          "internalType": "address",
          "name": "newOwner",
          "type": "address"
        }
      ],
      "name": "transferOwnership",
      "outputs": [],
      "stateMutability": "nonpayable",
      "type": "function"
    },
    {
      "inputs": [
        {
          "internalType": "uint256",
          "name": "questionId",
          "type": "uint256"
        }
      ],
      "name": "unvoteQuestion",
      "outputs": [],
      "stateMutability": "nonpayable",
      "type": "function"
    },
    {
      "inputs": [
        {
          "internalType": "uint256",
          "name": "questionId",
          "type": "uint256"
        },
        {
          "internalType": "uint256",
          "name": "amount",
          "type": "uint256"
        }
      ],
      "name": "upvoteQuestion",
      "outputs": [],
      "stateMutability": "nonpayable",
      "type": "function"
    }
  ],
  "transactionHash": "0x306b7fb4e12cd2960dedc3141cd7e1c70ebff8f6bb0cde2a2edab887a6fa7fd8",
  "args": [
    "0xe7f1725E7734CE288F8367e1Bb143E90bb3F0512",
    "0xCf7Ed3AccA5a467e9e704C703E8D87F634fB0Fc9",
    "0x9fE46736679d2D9a65F0992F2272dE9f3c7fa6e0",
    "0xDc64a140Aa3E981100a9becA4E685f962f0cF6C9"
  ],
  "numDeployments": 1,
  "solcInputHash": "e821a2549f8038179026fe5689ce9f02",
  "bytecode": "0x60806040523480156200001157600080fd5b5060405162001cd638038062001cd683398181016040528101906200003791906200029b565b620000576200004b6200016560201b60201c565b6200016d60201b60201c565b83600260006101000a81548173ffffffffffffffffffffffffffffffffffffffff021916908373ffffffffffffffffffffffffffffffffffffffff16021790555082600360006101000a81548173ffffffffffffffffffffffffffffffffffffffff021916908373ffffffffffffffffffffffffffffffffffffffff16021790555081600460006101000a81548173ffffffffffffffffffffffffffffffffffffffff021916908373ffffffffffffffffffffffffffffffffffffffff16021790555080600560006101000a81548173ffffffffffffffffffffffffffffffffffffffff021916908373ffffffffffffffffffffffffffffffffffffffff160217905550505050506200030d565b600033905090565b60008060009054906101000a900473ffffffffffffffffffffffffffffffffffffffff169050816000806101000a81548173ffffffffffffffffffffffffffffffffffffffff021916908373ffffffffffffffffffffffffffffffffffffffff1602179055508173ffffffffffffffffffffffffffffffffffffffff168173ffffffffffffffffffffffffffffffffffffffff167f8be0079c531659141344cd1fd0a4f28419497f9722a3daafe3b4186f6b6457e060405160405180910390a35050565b600080fd5b600073ffffffffffffffffffffffffffffffffffffffff82169050919050565b6000620002638262000236565b9050919050565b620002758162000256565b81146200028157600080fd5b50565b60008151905062000295816200026a565b92915050565b60008060008060808587031215620002b857620002b762000231565b5b6000620002c88782880162000284565b9450506020620002db8782880162000284565b9350506040620002ee8782880162000284565b9250506060620003018782880162000284565b91505092959194509250565b6119b9806200031d6000396000f3fe608060405234801561001057600080fd5b50600436106101005760003560e01c80638da5cb5b11610097578063e9d8c38111610066578063e9d8c3811461026d578063ec8f67771461028b578063f0f64201146102a7578063f2fde38b146102c357610100565b80638da5cb5b146101e757806398c9f1df146102055780639a6110b414610235578063bc4102971461025157610100565b8063447e52a0116100d3578063447e52a0146101755780636ee5a1b114610191578063715018a6146101ad57806371959d69146101b757610100565b80630ef4b531146101055780631919bcd614610121578063211e37341461013d578063314c3e9814610159575b600080fd5b61011f600480360381019061011a91906113b8565b6102df565b005b61013b60048036038101906101369190611443565b610456565b005b61015760048036038101906101529190611470565b610516565b005b610173600480360381019061016e91906114e6565b6105ab565b005b61018f600480360381019061018a919061158b565b61067d565b005b6101ab60048036038101906101a691906113b8565b610713565b005b6101b56107ac565b005b6101d160048036038101906101cc91906115eb565b610834565b6040516101de919061165a565b60405180910390f35b6101ef610a9e565b6040516101fc9190611684565b60405180910390f35b61021f600480360381019061021a91906115eb565b610ac7565b60405161022c919061165a565b60405180910390f35b61024f600480360381019061024a91906113b8565b610d55565b005b61026b60048036038101906102669190611443565b610e61565b005b610275610f21565b60405161028291906116ae565b60405180910390f35b6102a560048036038101906102a09190611443565b610f45565b005b6102c160048036038101906102bc9190611443565b611005565b005b6102dd60048036038101906102d89190611443565b6110c5565b005b600260068111156102f3576102f26116c9565b5b600360009054906101000a900473ffffffffffffffffffffffffffffffffffffffff1673ffffffffffffffffffffffffffffffffffffffff166344c9af28836040518263ffffffff1660e01b815260040161034e919061165a565b602060405180830381865afa15801561036b573d6000803e3d6000fd5b505050506040513d601f19601f8201168201806040525081019061038f919061170d565b146103c6576040517f3b03644900000000000000000000000000000000000000000000000000000000815260040160405180910390fd5b600460009054906101000a900473ffffffffffffffffffffffffffffffffffffffff1673ffffffffffffffffffffffffffffffffffffffff1663379607f5826040518263ffffffff1660e01b8152600401610421919061165a565b600060405180830381600087803b15801561043b57600080fd5b505af115801561044f573d6000803e3d6000fd5b5050505050565b61045e6111bc565b73ffffffffffffffffffffffffffffffffffffffff1661047c610a9e565b73ffffffffffffffffffffffffffffffffffffffff16146104d2576040517f08c379a00000000000000000000000000000000000000000000000000000000081526004016104c990611797565b60405180910390fd5b80600560006101000a81548173ffffffffffffffffffffffffffffffffffffffff021916908373ffffffffffffffffffffffffffffffffffffffff16021790555050565b600360009054906101000a900473ffffffffffffffffffffffffffffffffffffffff1673ffffffffffffffffffffffffffffffffffffffff16637644bd8f3384846040518463ffffffff1660e01b8152600401610575939291906117b7565b600060405180830381600087803b15801561058f57600080fd5b505af11580156105a3573d6000803e3d6000fd5b505050505050565b6105b36111bc565b73ffffffffffffffffffffffffffffffffffffffff166105d1610a9e565b73ffffffffffffffffffffffffffffffffffffffff1614610627576040517f08c379a000000000000000000000000000000000000000000000000000000000815260040161061e90611797565b60405180910390fd5b806001600084815260200190815260200160002060006101000a81548173ffffffffffffffffffffffffffffffffffffffff021916908373ffffffffffffffffffffffffffffffffffffffff1602179055505050565b600460009054906101000a900473ffffffffffffffffffffffffffffffffffffffff1673ffffffffffffffffffffffffffffffffffffffff166327cacb558484846040518463ffffffff1660e01b81526004016106dc9392919061183b565b600060405180830381600087803b1580156106f657600080fd5b505af115801561070a573d6000803e3d6000fd5b50505050505050565b600360009054906101000a900473ffffffffffffffffffffffffffffffffffffffff1673ffffffffffffffffffffffffffffffffffffffff1663e78daa756107596111bc565b836040518363ffffffff1660e01b815260040161077792919061186d565b600060405180830381600087803b15801561079157600080fd5b505af11580156107a5573d6000803e3d6000fd5b5050505050565b6107b46111bc565b73ffffffffffffffffffffffffffffffffffffffff166107d2610a9e565b73ffffffffffffffffffffffffffffffffffffffff1614610828576040517f08c379a000000000000000000000000000000000000000000000000000000000815260040161081f90611797565b60405180910390fd5b61083260006111c4565b565b6000600560009054906101000a900473ffffffffffffffffffffffffffffffffffffffff1673ffffffffffffffffffffffffffffffffffffffff1663c13890e261087c6111bc565b6040518263ffffffff1660e01b81526004016108989190611684565b600060405180830381600087803b1580156108b257600080fd5b505af11580156108c6573d6000803e3d6000fd5b505050506000600260009054906101000a900473ffffffffffffffffffffffffffffffffffffffff1673ffffffffffffffffffffffffffffffffffffffff1663d204c45e6109126111bc565b87876040518463ffffffff1660e01b815260040161093293929190611896565b6020604051808303816000875af1158015610951573d6000803e3d6000fd5b505050506040513d601f19601f82011682018060405250810190610975919061170d565b9050600360009054906101000a900473ffffffffffffffffffffffffffffffffffffffff1673ffffffffffffffffffffffffffffffffffffffff1663d6a8f797826040518263ffffffff1660e01b81526004016109d2919061165a565b600060405180830381600087803b1580156109ec57600080fd5b505af1158015610a00573d6000803e3d6000fd5b50505050600460009054906101000a900473ffffffffffffffffffffffffffffffffffffffff1673ffffffffffffffffffffffffffffffffffffffff1663701776f782856040518363ffffffff1660e01b8152600401610a619291906118c8565b600060405180830381600087803b158015610a7b57600080fd5b505af1158015610a8f573d6000803e3d6000fd5b50505050809150509392505050565b60008060009054906101000a900473ffffffffffffffffffffffffffffffffffffffff16905090565b60007f104852406e94df2c5112860c28c2d2e43c02e322bc0cf95e2d0159faf296d7fb610af381611288565b6000600260009054906101000a900473ffffffffffffffffffffffffffffffffffffffff1673ffffffffffffffffffffffffffffffffffffffff1663d204c45e610b3b6111bc565b88886040518463ffffffff1660e01b8152600401610b5b93929190611896565b6020604051808303816000875af1158015610b7a573d6000803e3d6000fd5b505050506040513d601f19601f82011682018060405250810190610b9e919061170d565b9050600360009054906101000a900473ffffffffffffffffffffffffffffffffffffffff1673ffffffffffffffffffffffffffffffffffffffff1663d6a8f797826040518263ffffffff1660e01b8152600401610bfb919061165a565b600060405180830381600087803b158015610c1557600080fd5b505af1158015610c29573d6000803e3d6000fd5b50505050600460009054906101000a900473ffffffffffffffffffffffffffffffffffffffff1673ffffffffffffffffffffffffffffffffffffffff1663701776f782866040518363ffffffff1660e01b8152600401610c8a9291906118c8565b600060405180830381600087803b158015610ca457600080fd5b505af1158015610cb8573d6000803e3d6000fd5b50505050600360009054906101000a900473ffffffffffffffffffffffffffffffffffffffff1673ffffffffffffffffffffffffffffffffffffffff1663cc4ef119826040518263ffffffff1660e01b8152600401610d17919061165a565b600060405180830381600087803b158015610d3157600080fd5b505af1158015610d45573d6000803e3d6000fd5b5050505080925050509392505050565b610d5d6111bc565b73ffffffffffffffffffffffffffffffffffffffff16610d7b610a9e565b73ffffffffffffffffffffffffffffffffffffffff1614610dd1576040517f08c379a0000000000000000000000000000000000000000000000000000000008152600401610dc890611797565b60405180910390fd5b600360009054906101000a900473ffffffffffffffffffffffffffffffffffffffff1673ffffffffffffffffffffffffffffffffffffffff1663f68952f3826040518263ffffffff1660e01b8152600401610e2c919061165a565b600060405180830381600087803b158015610e4657600080fd5b505af1158015610e5a573d6000803e3d6000fd5b5050505050565b610e696111bc565b73ffffffffffffffffffffffffffffffffffffffff16610e87610a9e565b73ffffffffffffffffffffffffffffffffffffffff1614610edd576040517f08c379a0000000000000000000000000000000000000000000000000000000008152600401610ed490611797565b60405180910390fd5b80600260006101000a81548173ffffffffffffffffffffffffffffffffffffffff021916908373ffffffffffffffffffffffffffffffffffffffff16021790555050565b7f104852406e94df2c5112860c28c2d2e43c02e322bc0cf95e2d0159faf296d7fb81565b610f4d6111bc565b73ffffffffffffffffffffffffffffffffffffffff16610f6b610a9e565b73ffffffffffffffffffffffffffffffffffffffff1614610fc1576040517f08c379a0000000000000000000000000000000000000000000000000000000008152600401610fb890611797565b60405180910390fd5b80600460006101000a81548173ffffffffffffffffffffffffffffffffffffffff021916908373ffffffffffffffffffffffffffffffffffffffff16021790555050565b61100d6111bc565b73ffffffffffffffffffffffffffffffffffffffff1661102b610a9e565b73ffffffffffffffffffffffffffffffffffffffff1614611081576040517f08c379a000000000000000000000000000000000000000000000000000000000815260040161107890611797565b60405180910390fd5b80600360006101000a81548173ffffffffffffffffffffffffffffffffffffffff021916908373ffffffffffffffffffffffffffffffffffffffff16021790555050565b6110cd6111bc565b73ffffffffffffffffffffffffffffffffffffffff166110eb610a9e565b73ffffffffffffffffffffffffffffffffffffffff1614611141576040517f08c379a000000000000000000000000000000000000000000000000000000000815260040161113890611797565b60405180910390fd5b600073ffffffffffffffffffffffffffffffffffffffff168173ffffffffffffffffffffffffffffffffffffffff16036111b0576040517f08c379a00000000000000000000000000000000000000000000000000000000081526004016111a790611963565b60405180910390fd5b6111b9816111c4565b50565b600033905090565b60008060009054906101000a900473ffffffffffffffffffffffffffffffffffffffff169050816000806101000a81548173ffffffffffffffffffffffffffffffffffffffff021916908373ffffffffffffffffffffffffffffffffffffffff1602179055508173ffffffffffffffffffffffffffffffffffffffff168173ffffffffffffffffffffffffffffffffffffffff167f8be0079c531659141344cd1fd0a4f28419497f9722a3daafe3b4186f6b6457e060405160405180910390a35050565b60006001600083815260200190815260200160002060009054906101000a900473ffffffffffffffffffffffffffffffffffffffff1673ffffffffffffffffffffffffffffffffffffffff166370a082316112e16111bc565b6040518263ffffffff1660e01b81526004016112fd9190611684565b602060405180830381865afa15801561131a573d6000803e3d6000fd5b505050506040513d601f19601f8201168201806040525081019061133e919061170d565b03611375576040517fbddc845600000000000000000000000000000000000000000000000000000000815260040160405180910390fd5b50565b600080fd5b600080fd5b6000819050919050565b61139581611382565b81146113a057600080fd5b50565b6000813590506113b28161138c565b92915050565b6000602082840312156113ce576113cd611378565b5b60006113dc848285016113a3565b91505092915050565b600073ffffffffffffffffffffffffffffffffffffffff82169050919050565b6000611410826113e5565b9050919050565b61142081611405565b811461142b57600080fd5b50565b60008135905061143d81611417565b92915050565b60006020828403121561145957611458611378565b5b60006114678482850161142e565b91505092915050565b6000806040838503121561148757611486611378565b5b6000611495858286016113a3565b92505060206114a6858286016113a3565b9150509250929050565b6000819050919050565b6114c3816114b0565b81146114ce57600080fd5b50565b6000813590506114e0816114ba565b92915050565b600080604083850312156114fd576114fc611378565b5b600061150b858286016114d1565b925050602061151c8582860161142e565b9150509250929050565b600080fd5b600080fd5b600080fd5b60008083601f84011261154b5761154a611526565b5b8235905067ffffffffffffffff8111156115685761156761152b565b5b60208301915083600182028301111561158457611583611530565b5b9250929050565b6000806000604084860312156115a4576115a3611378565b5b60006115b2868287016113a3565b935050602084013567ffffffffffffffff8111156115d3576115d261137d565b5b6115df86828701611535565b92509250509250925092565b60008060006040848603121561160457611603611378565b5b600084013567ffffffffffffffff8111156116225761162161137d565b5b61162e86828701611535565b93509350506020611641868287016113a3565b9150509250925092565b61165481611382565b82525050565b600060208201905061166f600083018461164b565b92915050565b61167e81611405565b82525050565b60006020820190506116996000830184611675565b92915050565b6116a8816114b0565b82525050565b60006020820190506116c3600083018461169f565b92915050565b7f4e487b7100000000000000000000000000000000000000000000000000000000600052602160045260246000fd5b6000815190506117078161138c565b92915050565b60006020828403121561172357611722611378565b5b6000611731848285016116f8565b91505092915050565b600082825260208201905092915050565b7f4f776e61626c653a2063616c6c6572206973206e6f7420746865206f776e6572600082015250565b600061178160208361173a565b915061178c8261174b565b602082019050919050565b600060208201905081810360008301526117b081611774565b9050919050565b60006060820190506117cc6000830186611675565b6117d9602083018561164b565b6117e6604083018461164b565b949350505050565b82818337600083830152505050565b6000601f19601f8301169050919050565b600061181a838561173a565b93506118278385846117ee565b611830836117fd565b840190509392505050565b6000604082019050611850600083018661164b565b818103602083015261186381848661180e565b9050949350505050565b60006040820190506118826000830185611675565b61188f602083018461164b565b9392505050565b60006040820190506118ab6000830186611675565b81810360208301526118be81848661180e565b9050949350505050565b60006040820190506118dd600083018561164b565b6118ea602083018461164b565b9392505050565b7f4f776e61626c653a206e6577206f776e657220697320746865207a65726f206160008201527f6464726573730000000000000000000000000000000000000000000000000000602082015250565b600061194d60268361173a565b9150611958826118f1565b604082019050919050565b6000602082019050818103600083015261197c81611940565b905091905056fea2646970667358221220c9f9eba98439a79095160ec2240bd81910e56dd5d0f7119f62fa360ab94bc19b64736f6c634300080d0033",
  "devdoc": {
    "kind": "dev",
    "methods": {
      "createChallenge(string,uint256)": {
        "params": {
          "claimLimit": "The limit for the amount of people that can claim the challenge",
          "uri": "The IPFS hash of the challenge"
        },
        "returns": {
          "_0": "questionId The question id"
        }
      },
      "createQuestion(string,uint256)": {
        "params": {
          "claimLimit": "The limit for the amount of people that can claim the question",
          "uri": "The IPFS hash of the question"
        },
        "returns": {
          "_0": "The question id"
        }
      },
      "owner()": {
        "details": "Returns the address of the current owner."
      },
      "renounceOwnership()": {
        "details": "Leaves the contract without owner. It will not be possible to call `onlyOwner` functions anymore. Can only be called by the current owner. NOTE: Renouncing ownership will leave the contract without an owner, thereby removing any functionality that is only available to the owner."
      },
      "transferOwnership(address)": {
        "details": "Transfers ownership of the contract to a new account (`newOwner`). Can only be called by the current owner."
      },
      "unvoteQuestion(uint256)": {
        "params": {
          "questionId": "The questionId of the question to upvote"
        }
      },
      "upvoteQuestion(uint256,uint256)": {
        "params": {
          "amount": "Metric amount to put behind the vote We can manipulate this very easily -- think of a way to make it secure",
          "questionId": "The questionId of the question to upvote"
        }
      }
    },
    "version": 1
  },
  "userdoc": {
    "kind": "user",
    "methods": {
      "createChallenge(string,uint256)": {
        "notice": "Directly creates a challenge, this is an optional feature for program managers that would like to create challenges directly (skipping the voting stage)."
      },
      "createQuestion(string,uint256)": {
        "notice": "Creates a question"
      },
      "unvoteQuestion(uint256)": {
        "notice": "Unvotes a question"
      },
      "upvoteQuestion(uint256,uint256)": {
        "notice": "Upvotes a question"
      }
    },
    "version": 1
  },
  "storageLayout": {
    "storage": [
      {
        "astId": 7,
        "contract": "src/contracts/Protocol/QuestionAPI.sol:QuestionAPI",
        "label": "_owner",
        "offset": 0,
        "slot": "0",
        "type": "t_address"
      },
      {
        "astId": 4129,
        "contract": "src/contracts/Protocol/QuestionAPI.sol:QuestionAPI",
        "label": "_nfts",
        "offset": 0,
        "slot": "1",
        "type": "t_mapping(t_bytes32,t_address)"
      },
      {
        "astId": 3744,
        "contract": "src/contracts/Protocol/QuestionAPI.sol:QuestionAPI",
        "label": "_question",
        "offset": 0,
        "slot": "2",
        "type": "t_contract(BountyQuestion)3729"
      },
      {
        "astId": 3747,
        "contract": "src/contracts/Protocol/QuestionAPI.sol:QuestionAPI",
        "label": "_questionStateController",
        "offset": 0,
        "slot": "3",
        "type": "t_contract(IQuestionStateController)4114"
      },
      {
        "astId": 3750,
        "contract": "src/contracts/Protocol/QuestionAPI.sol:QuestionAPI",
        "label": "_claimController",
        "offset": 0,
        "slot": "4",
        "type": "t_contract(IClaimController)4065"
      },
      {
        "astId": 3753,
        "contract": "src/contracts/Protocol/QuestionAPI.sol:QuestionAPI",
        "label": "_costController",
        "offset": 0,
        "slot": "5",
        "type": "t_contract(IActionCostController)4043"
      }
    ],
    "types": {
      "t_address": {
        "encoding": "inplace",
        "label": "address",
        "numberOfBytes": "20"
      },
      "t_bytes32": {
        "encoding": "inplace",
        "label": "bytes32",
        "numberOfBytes": "32"
      },
      "t_contract(BountyQuestion)3729": {
        "encoding": "inplace",
        "label": "contract BountyQuestion",
        "numberOfBytes": "20"
      },
      "t_contract(IActionCostController)4043": {
        "encoding": "inplace",
        "label": "contract IActionCostController",
        "numberOfBytes": "20"
      },
      "t_contract(IClaimController)4065": {
        "encoding": "inplace",
        "label": "contract IClaimController",
        "numberOfBytes": "20"
      },
      "t_contract(IQuestionStateController)4114": {
        "encoding": "inplace",
        "label": "contract IQuestionStateController",
        "numberOfBytes": "20"
      },
      "t_mapping(t_bytes32,t_address)": {
        "encoding": "mapping",
        "key": "t_bytes32",
        "label": "mapping(bytes32 => address)",
        "numberOfBytes": "32",
        "value": "t_address"
      }
    }
  }
}