{
  "address": "0x2279B7A0a67DB372996a5FaB50D91eAA73d2eBe6",
  "abi": [
    {
      "inputs": [
        {
          "internalType": "address",
          "name": "metricTokenAddress",
          "type": "address"
        }
      ],
      "stateMutability": "nonpayable",
      "type": "constructor"
    },
    {
      "inputs": [],
      "name": "DuplicateAddress",
      "type": "error"
    },
    {
      "inputs": [],
      "name": "NoClaimableRewardsToWithdraw",
      "type": "error"
    },
    {
      "inputs": [],
      "name": "NoMetricToWithdraw",
      "type": "error"
    },
    {
      "inputs": [],
      "name": "RewardsAreNotActive",
      "type": "error"
    },
    {
      "anonymous": false,
      "inputs": [
        {
          "indexed": false,
          "internalType": "address",
          "name": "harvester",
          "type": "address"
        },
        {
          "components": [
            {
              "internalType": "uint256",
              "name": "shares",
              "type": "uint256"
            },
            {
              "internalType": "uint256",
              "name": "rewardDebt",
              "type": "uint256"
            },
            {
              "internalType": "uint256",
              "name": "claimable",
              "type": "uint256"
            },
            {
              "internalType": "uint256",
              "name": "startDate",
              "type": "uint256"
            }
          ],
          "indexed": false,
          "internalType": "struct StakingChef.Staker",
          "name": "",
          "type": "tuple"
        },
        {
          "indexed": false,
          "internalType": "uint256",
          "name": "amount",
          "type": "uint256"
        }
      ],
      "name": "Claim",
      "type": "event"
    },
    {
      "anonymous": false,
      "inputs": [
        {
          "indexed": false,
          "internalType": "address",
          "name": "harvester",
          "type": "address"
        },
        {
          "indexed": false,
          "internalType": "uint256",
          "name": "agIndex",
          "type": "uint256"
        },
        {
          "indexed": false,
          "internalType": "uint256",
          "name": "amount",
          "type": "uint256"
        }
      ],
      "name": "Harvest",
      "type": "event"
    },
    {
      "anonymous": false,
      "inputs": [
        {
          "indexed": true,
          "internalType": "address",
          "name": "previousOwner",
          "type": "address"
        },
        {
          "indexed": true,
          "internalType": "address",
          "name": "newOwner",
          "type": "address"
        }
      ],
      "name": "OwnershipTransferred",
      "type": "event"
    },
    {
      "anonymous": false,
      "inputs": [
        {
          "indexed": false,
          "internalType": "address",
          "name": "withdrawer",
          "type": "address"
        },
        {
          "components": [
            {
              "internalType": "uint256",
              "name": "shares",
              "type": "uint256"
            },
            {
              "internalType": "uint256",
              "name": "rewardDebt",
              "type": "uint256"
            },
            {
              "internalType": "uint256",
              "name": "claimable",
              "type": "uint256"
            },
            {
              "internalType": "uint256",
              "name": "startDate",
              "type": "uint256"
            }
          ],
          "indexed": false,
          "internalType": "struct StakingChef.Staker",
          "name": "",
          "type": "tuple"
        },
        {
          "indexed": false,
          "internalType": "uint256",
          "name": "amount",
          "type": "uint256"
        }
      ],
      "name": "UnStake",
      "type": "event"
    },
    {
      "anonymous": false,
      "inputs": [
        {
          "indexed": false,
          "internalType": "address",
          "name": "withdrawer",
          "type": "address"
        },
        {
          "indexed": false,
          "internalType": "uint256",
          "name": "agIndex",
          "type": "uint256"
        },
        {
          "indexed": false,
          "internalType": "uint256",
          "name": "amount",
          "type": "uint256"
        }
      ],
      "name": "Withdraw",
      "type": "event"
    },
    {
      "inputs": [],
      "name": "ACC_METRIC_PRECISION",
      "outputs": [
        {
          "internalType": "uint256",
          "name": "",
          "type": "uint256"
        }
      ],
      "stateMutability": "view",
      "type": "function"
    },
    {
      "inputs": [
        {
          "internalType": "uint256",
          "name": "accumulatedWithPrecision",
          "type": "uint256"
        }
      ],
      "name": "accumulatedMetricDividedByShares",
      "outputs": [
        {
          "internalType": "uint256",
          "name": "",
          "type": "uint256"
        }
      ],
      "stateMutability": "view",
      "type": "function"
    },
    {
      "inputs": [
        {
          "internalType": "address",
          "name": "",
          "type": "address"
        }
      ],
      "name": "addressExistence",
      "outputs": [
        {
          "internalType": "bool",
          "name": "",
          "type": "bool"
        }
      ],
      "stateMutability": "view",
      "type": "function"
    },
    {
      "inputs": [],
      "name": "areRewardsActive",
      "outputs": [
        {
          "internalType": "bool",
          "name": "",
          "type": "bool"
        }
      ],
      "stateMutability": "view",
      "type": "function"
    },
    {
      "inputs": [],
      "name": "claim",
      "outputs": [],
      "stateMutability": "nonpayable",
      "type": "function"
    },
    {
      "inputs": [],
      "name": "getLastRewardBlock",
      "outputs": [
        {
          "internalType": "uint256",
          "name": "",
          "type": "uint256"
        }
      ],
      "stateMutability": "view",
      "type": "function"
    },
    {
      "inputs": [],
      "name": "getLifeTimeShareValueEstimate",
      "outputs": [
        {
          "internalType": "uint256",
          "name": "",
          "type": "uint256"
        }
      ],
      "stateMutability": "view",
      "type": "function"
    },
    {
      "inputs": [],
      "name": "getMetricPerBlock",
      "outputs": [
        {
          "internalType": "uint256",
          "name": "",
          "type": "uint256"
        }
      ],
      "stateMutability": "view",
      "type": "function"
    },
    {
      "inputs": [],
      "name": "getMetricToken",
      "outputs": [
        {
          "internalType": "contract MetricToken",
          "name": "",
          "type": "address"
        }
      ],
      "stateMutability": "view",
      "type": "function"
    },
    {
      "inputs": [],
      "name": "getStake",
      "outputs": [
        {
          "components": [
            {
              "internalType": "uint256",
              "name": "shares",
              "type": "uint256"
            },
            {
              "internalType": "uint256",
              "name": "rewardDebt",
              "type": "uint256"
            },
            {
              "internalType": "uint256",
              "name": "claimable",
              "type": "uint256"
            },
            {
              "internalType": "uint256",
              "name": "startDate",
              "type": "uint256"
            }
          ],
          "internalType": "struct StakingChef.Staker",
          "name": "",
          "type": "tuple"
        }
      ],
      "stateMutability": "view",
      "type": "function"
    },
    {
      "inputs": [],
      "name": "getTotalAllocationShares",
      "outputs": [
        {
          "internalType": "uint256",
          "name": "",
          "type": "uint256"
        }
      ],
      "stateMutability": "view",
      "type": "function"
    },
    {
      "inputs": [],
      "name": "owner",
      "outputs": [
        {
          "internalType": "address",
          "name": "",
          "type": "address"
        }
      ],
      "stateMutability": "view",
      "type": "function"
    },
    {
      "inputs": [],
      "name": "renounceOwnership",
      "outputs": [],
      "stateMutability": "nonpayable",
      "type": "function"
    },
    {
      "inputs": [],
      "name": "setLifetimeShareValue",
      "outputs": [],
      "stateMutability": "nonpayable",
      "type": "function"
    },
    {
      "inputs": [
        {
          "internalType": "uint256",
          "name": "metricAmount",
          "type": "uint256"
        }
      ],
      "name": "setMetricPerBlock",
      "outputs": [],
      "stateMutability": "nonpayable",
      "type": "function"
    },
    {
      "inputs": [
        {
          "internalType": "address",
          "name": "metricTokenAddress",
          "type": "address"
        }
      ],
      "name": "setMetricToken",
      "outputs": [],
      "stateMutability": "nonpayable",
      "type": "function"
    },
    {
      "inputs": [
        {
          "internalType": "uint256",
          "name": "metricAmount",
          "type": "uint256"
        }
      ],
      "name": "stakeMetric",
      "outputs": [],
      "stateMutability": "nonpayable",
      "type": "function"
    },
    {
      "inputs": [
        {
          "internalType": "address",
          "name": "",
          "type": "address"
        }
      ],
      "name": "staker",
      "outputs": [
        {
          "internalType": "uint256",
          "name": "shares",
          "type": "uint256"
        },
        {
          "internalType": "uint256",
          "name": "rewardDebt",
          "type": "uint256"
        },
        {
          "internalType": "uint256",
          "name": "claimable",
          "type": "uint256"
        },
        {
          "internalType": "uint256",
          "name": "startDate",
          "type": "uint256"
        }
      ],
      "stateMutability": "view",
      "type": "function"
    },
    {
      "inputs": [
        {
          "internalType": "bool",
          "name": "isOn",
          "type": "bool"
        }
      ],
      "name": "toggleRewards",
      "outputs": [],
      "stateMutability": "nonpayable",
      "type": "function"
    },
    {
      "inputs": [
        {
          "internalType": "address",
          "name": "newOwner",
          "type": "address"
        }
      ],
      "name": "transferOwnership",
      "outputs": [],
      "stateMutability": "nonpayable",
      "type": "function"
    },
    {
      "inputs": [],
      "name": "unStakeMetric",
      "outputs": [],
      "stateMutability": "nonpayable",
      "type": "function"
    },
    {
      "inputs": [],
      "name": "updateAccumulatedStakingRewards",
      "outputs": [],
      "stateMutability": "nonpayable",
      "type": "function"
    },
    {
      "inputs": [],
      "name": "viewPendingClaims",
      "outputs": [
        {
          "internalType": "uint256",
          "name": "",
          "type": "uint256"
        }
      ],
      "stateMutability": "view",
      "type": "function"
    },
    {
      "inputs": [],
      "name": "viewPendingHarvest",
      "outputs": [
        {
          "internalType": "uint256",
          "name": "",
          "type": "uint256"
        }
      ],
      "stateMutability": "view",
      "type": "function"
    }
  ],
  "transactionHash": "0x9b098ee0b1a62fbe13233f4827a56e0712e82ccd8e145dc5d0e5c9fb578d4d9e",
  "args": [
    "0x0165878A594ca255338adfa4d48449f69242Eb8F"
  ],
  "numDeployments": 1,
  "solcInputHash": "2384253e838e0764d6e4e972a08b52d0",
  "bytecode": "0x60806040523480156200001157600080fd5b50604051620024e2380380620024e2833981810160405281019062000037919062000438565b620000576200004b6200009360201b60201c565b6200009b60201b60201c565b62000068816200015f60201b60201c565b6200007a60046200023260201b60201c565b6200008c6000620002e060201b60201c565b5062000587565b600033905090565b60008060009054906101000a900473ffffffffffffffffffffffffffffffffffffffff169050816000806101000a81548173ffffffffffffffffffffffffffffffffffffffff021916908373ffffffffffffffffffffffffffffffffffffffff1602179055508173ffffffffffffffffffffffffffffffffffffffff168173ffffffffffffffffffffffffffffffffffffffff167f8be0079c531659141344cd1fd0a4f28419497f9722a3daafe3b4186f6b6457e060405160405180910390a35050565b6200016f6200009360201b60201c565b73ffffffffffffffffffffffffffffffffffffffff16620001956200039c60201b60201c565b73ffffffffffffffffffffffffffffffffffffffff1614620001ee576040517f08c379a0000000000000000000000000000000000000000000000000000000008152600401620001e590620004cb565b60405180910390fd5b80600660006101000a81548173ffffffffffffffffffffffffffffffffffffffff021916908373ffffffffffffffffffffffffffffffffffffffff16021790555050565b620002426200009360201b60201c565b73ffffffffffffffffffffffffffffffffffffffff16620002686200039c60201b60201c565b73ffffffffffffffffffffffffffffffffffffffff1614620002c1576040517f08c379a0000000000000000000000000000000000000000000000000000000008152600401620002b890620004cb565b60405180910390fd5b670de0b6b3a764000081620002d7919062000526565b60018190555050565b620002f06200009360201b60201c565b73ffffffffffffffffffffffffffffffffffffffff16620003166200039c60201b60201c565b73ffffffffffffffffffffffffffffffffffffffff16146200036f576040517f08c379a00000000000000000000000000000000000000000000000000000000081526004016200036690620004cb565b60405180910390fd5b80600260006101000a81548160ff02191690831515021790555062000399620003c560201b60201c565b50565b60008060009054906101000a900473ffffffffffffffffffffffffffffffffffffffff16905090565b43600381905550565b600080fd5b600073ffffffffffffffffffffffffffffffffffffffff82169050919050565b60006200040082620003d3565b9050919050565b6200041281620003f3565b81146200041e57600080fd5b50565b600081519050620004328162000407565b92915050565b600060208284031215620004515762000450620003ce565b5b6000620004618482850162000421565b91505092915050565b600082825260208201905092915050565b7f4f776e61626c653a2063616c6c6572206973206e6f7420746865206f776e6572600082015250565b6000620004b36020836200046a565b9150620004c0826200047b565b602082019050919050565b60006020820190508181036000830152620004e681620004a4565b9050919050565b6000819050919050565b7f4e487b7100000000000000000000000000000000000000000000000000000000600052601160045260246000fd5b60006200053382620004ed565b91506200054083620004ed565b9250817fffffffffffffffffffffffffffffffffffffffffffffffffffffffffffffffff04831182151516156200057c576200057b620004f7565b5b828202905092915050565b611f4b80620005976000396000f3fe608060405234801561001057600080fd5b50600436106101585760003560e01c80638c19ec8b116100c3578063c5d836d91161007c578063c5d836d91461035a578063d944cb7a14610378578063e2eb5c4714610396578063f2fde38b146103a0578063f33c9baa146103bc578063fc0e3d90146103da57610158565b80638c19ec8b146102ac5780638da5cb5b146102c8578063945c5287146102e6578063a8e2a38b14610302578063bf62bee614610320578063c284b8bc1461033e57610158565b80634e71d92d116101155780634e71d92d1461021f5780635e175713146102295780635f9b1bb5146102475780636ac49a8914610251578063715018a61461026f57806382e4eda41461027957610158565b80630419ba051461015d5780631cd8f0fa1461017b5780631e718d271461019757806322abbddf146101c757806349ba013b146101f75780634be6811714610215575b600080fd5b6101656103f8565b6040516101729190611573565b60405180910390f35b610195600480360381019061019091906115bf565b61043a565b005b6101b160048036038101906101ac91906115bf565b6104d3565b6040516101be9190611573565b60405180910390f35b6101e160048036038101906101dc919061164a565b6104ef565b6040516101ee9190611692565b60405180910390f35b6101ff61050f565b60405161020c9190611573565b60405180910390f35b61021d610565565b005b6102276105bd565b005b6102316106c2565b60405161023e9190611573565b60405180910390f35b61024f6106cc565b005b61025961070d565b6040516102669190611573565b60405180910390f35b610277610716565b005b610293600480360381019061028e919061164a565b61079e565b6040516102a394939291906116ad565b60405180910390f35b6102c660048036038101906102c1919061171e565b6107ce565b005b6102d061086f565b6040516102dd919061175a565b60405180910390f35b61030060048036038101906102fb919061164a565b610898565b005b61030a610958565b60405161031791906117d4565b60405180910390f35b610328610982565b6040516103359190611573565b60405180910390f35b610358600480360381019061035391906115bf565b61098c565b005b610362610afc565b60405161036f9190611573565b60405180910390f35b610380610b06565b60405161038d9190611573565b60405180910390f35b61039e610b8d565b005b6103ba60048036038101906103b5919061164a565b610db2565b005b6103c4610ea9565b6040516103d19190611692565b60405180910390f35b6103e2610ec0565b6040516103ef9190611853565b60405180910390f35b600080610403610f4c565b9050600061041082610f7d565b9050600061041c610f97565b9050610427826104d3565b81610432919061189d565b935050505090565b610442610fa1565b73ffffffffffffffffffffffffffffffffffffffff1661046061086f565b73ffffffffffffffffffffffffffffffffffffffff16146104b6576040517f08c379a00000000000000000000000000000000000000000000000000000000081526004016104ad90611950565b60405180910390fd5b670de0b6b3a7640000816104ca9190611970565b60018190555050565b60006104dd6106c2565b826104e891906119f9565b9050919050565b60076020528060005260406000206000915054906101000a900460ff1681565b6000806008600061051e610fa1565b73ffffffffffffffffffffffffffffffffffffffff1673ffffffffffffffffffffffffffffffffffffffff1681526020019081526020016000209050806002015491505090565b61056d610ea9565b6105a3576040517fa550df7300000000000000000000000000000000000000000000000000000000815260040160405180910390fd5b6105ab610982565b4311156105bb576105ba6106cc565b5b565b60006105c7610b06565b036105fe576040517fd1d47f3c00000000000000000000000000000000000000000000000000000000815260040160405180910390fd5b60006008600061060c610fa1565b73ffffffffffffffffffffffffffffffffffffffff1673ffffffffffffffffffffffffffffffffffffffff1681526020019081526020016000209050610650610fa9565b6000816002015490506000826002018190555061067c61066e610958565b610676610fa1565b836110ab565b7f822e01c025b1cd3ec96ecdebfee61e49dbcdd29762ad69de9c20bb2b0f16a5726106a5610fa1565b83836040516106b693929190611ade565b60405180910390a15050565b6000600554905090565b60006106d6610f4c565b905060006106e382610f7d565b90506106ee816104d3565b6004546106fb919061189d565b600481905550610709611131565b5050565b64e8d4a5100081565b61071e610fa1565b73ffffffffffffffffffffffffffffffffffffffff1661073c61086f565b73ffffffffffffffffffffffffffffffffffffffff1614610792576040517f08c379a000000000000000000000000000000000000000000000000000000000815260040161078990611950565b60405180910390fd5b61079c600061113a565b565b60086020528060005260406000206000915090508060000154908060010154908060020154908060030154905084565b6107d6610fa1565b73ffffffffffffffffffffffffffffffffffffffff166107f461086f565b73ffffffffffffffffffffffffffffffffffffffff161461084a576040517f08c379a000000000000000000000000000000000000000000000000000000000815260040161084190611950565b60405180910390fd5b80600260006101000a81548160ff02191690831515021790555061086c611131565b50565b60008060009054906101000a900473ffffffffffffffffffffffffffffffffffffffff16905090565b6108a0610fa1565b73ffffffffffffffffffffffffffffffffffffffff166108be61086f565b73ffffffffffffffffffffffffffffffffffffffff1614610914576040517f08c379a000000000000000000000000000000000000000000000000000000000815260040161090b90611950565b60405180910390fd5b80600660006101000a81548173ffffffffffffffffffffffffffffffffffffffff021916908373ffffffffffffffffffffffffffffffffffffffff16021790555050565b6000600660009054906101000a900473ffffffffffffffffffffffffffffffffffffffff16905090565b6000600354905090565b60006008600061099a610fa1565b73ffffffffffffffffffffffffffffffffffffffff1673ffffffffffffffffffffffffffffffffffffffff16815260200190815260200160002090506109de610ea9565b80156109f1575060006109ef6106c2565b115b156109ff576109fe610565565b5b6040518060800160405280838360000154610a1a919061189d565b815260200164e8d4a51000610a2d610f97565b85610a389190611970565b610a4291906119f9565b8360010154610a51919061189d565b8152602001826002015481526020014281525060086000610a70610fa1565b73ffffffffffffffffffffffffffffffffffffffff1673ffffffffffffffffffffffffffffffffffffffff16815260200190815260200160002060008201518160000155602082015181600101556040820151816002015560608201518160030155905050610ade826111fe565b610af8610ae9610958565b610af1610fa1565b3085611215565b5050565b6000600154905090565b60008060086000610b15610fa1565b73ffffffffffffffffffffffffffffffffffffffff1673ffffffffffffffffffffffffffffffffffffffff1681526020019081526020016000209050806001015464e8d4a51000610b64610f97565b8360000154610b739190611970565b610b7d91906119f9565b610b879190611b15565b91505090565b600060086000610b9b610fa1565b73ffffffffffffffffffffffffffffffffffffffff1673ffffffffffffffffffffffffffffffffffffffff16815260200190815260200160002090506000816000015403610c15576040517f4b0aa74e00000000000000000000000000000000000000000000000000000000815260040160405180910390fd5b610c1d610ea9565b15610c2b57610c2a610565565b5b610c33610fa9565b600060086000610c41610fa1565b73ffffffffffffffffffffffffffffffffffffffff1673ffffffffffffffffffffffffffffffffffffffff168152602001908152602001600020600201549050600082600001549050610cdc60086000610c99610fa1565b73ffffffffffffffffffffffffffffffffffffffff1673ffffffffffffffffffffffffffffffffffffffff1681526020019081526020016000206000015461129e565b6000836000018190555060008282610cf4919061189d565b1115610d6157610d1e610d05610958565b610d0d610fa1565b8484610d19919061189d565b6110ab565b7f4922b0708c82a8389a5529e4d07c03dd67c4efb52f6a9706d406f987c21f976e610d47610fa1565b8483604051610d5893929190611ade565b60405180910390a15b6000821115610dad577f822e01c025b1cd3ec96ecdebfee61e49dbcdd29762ad69de9c20bb2b0f16a572610d93610fa1565b8483604051610da493929190611ade565b60405180910390a15b505050565b610dba610fa1565b73ffffffffffffffffffffffffffffffffffffffff16610dd861086f565b73ffffffffffffffffffffffffffffffffffffffff1614610e2e576040517f08c379a0000000000000000000000000000000000000000000000000000000008152600401610e2590611950565b60405180910390fd5b600073ffffffffffffffffffffffffffffffffffffffff168173ffffffffffffffffffffffffffffffffffffffff1603610e9d576040517f08c379a0000000000000000000000000000000000000000000000000000000008152600401610e9490611bbb565b60405180910390fd5b610ea68161113a565b50565b6000600260009054906101000a900460ff16905090565b610ec8611532565b600060086000610ed6610fa1565b73ffffffffffffffffffffffffffffffffffffffff1673ffffffffffffffffffffffffffffffffffffffff16815260200190815260200160002090508060405180608001604052908160008201548152602001600182015481526020016002820154815260200160038201548152505091505090565b600080610f57610982565b43610f629190611b15565b9050610f6c610afc565b81610f779190611970565b91505090565b600064e8d4a5100082610f909190611970565b9050919050565b6000600454905090565b600033905090565b600060086000610fb7610fa1565b73ffffffffffffffffffffffffffffffffffffffff1673ffffffffffffffffffffffffffffffffffffffff1681526020019081526020016000209050610ffb610565565b6000816001015464e8d4a51000611010610f97565b846000015461101f9190611970565b61102991906119f9565b6110339190611b15565b9050808260010154611045919061189d565b826001018190555080826002015461105d919061189d565b82600201819055507f822e01c025b1cd3ec96ecdebfee61e49dbcdd29762ad69de9c20bb2b0f16a57261108e610fa1565b838360405161109f93929190611ade565b60405180910390a15050565b61112c8363a9059cbb60e01b84846040516024016110ca929190611bdb565b604051602081830303815290604052907bffffffffffffffffffffffffffffffffffffffffffffffffffffffff19166020820180517bffffffffffffffffffffffffffffffffffffffffffffffffffffffff83818316178352505050506112b5565b505050565b43600381905550565b60008060009054906101000a900473ffffffffffffffffffffffffffffffffffffffff169050816000806101000a81548173ffffffffffffffffffffffffffffffffffffffff021916908373ffffffffffffffffffffffffffffffffffffffff1602179055508173ffffffffffffffffffffffffffffffffffffffff168173ffffffffffffffffffffffffffffffffffffffff167f8be0079c531659141344cd1fd0a4f28419497f9722a3daafe3b4186f6b6457e060405160405180910390a35050565b8060055461120c919061189d565b60058190555050565b611298846323b872dd60e01b85858560405160240161123693929190611c04565b604051602081830303815290604052907bffffffffffffffffffffffffffffffffffffffffffffffffffffffff19166020820180517bffffffffffffffffffffffffffffffffffffffffffffffffffffffff83818316178352505050506112b5565b50505050565b806005546112ac9190611b15565b60058190555050565b6000611317826040518060400160405280602081526020017f5361666545524332303a206c6f772d6c6576656c2063616c6c206661696c65648152508573ffffffffffffffffffffffffffffffffffffffff1661137c9092919063ffffffff16565b905060008151111561137757808060200190518101906113379190611c50565b611376576040517f08c379a000000000000000000000000000000000000000000000000000000000815260040161136d90611cef565b60405180910390fd5b5b505050565b606061138b8484600085611394565b90509392505050565b6060824710156113d9576040517f08c379a00000000000000000000000000000000000000000000000000000000081526004016113d090611d81565b60405180910390fd5b6113e2856114a8565b611421576040517f08c379a000000000000000000000000000000000000000000000000000000000815260040161141890611ded565b60405180910390fd5b6000808673ffffffffffffffffffffffffffffffffffffffff16858760405161144a9190611e87565b60006040518083038185875af1925050503d8060008114611487576040519150601f19603f3d011682016040523d82523d6000602084013e61148c565b606091505b509150915061149c8282866114cb565b92505050949350505050565b6000808273ffffffffffffffffffffffffffffffffffffffff163b119050919050565b606083156114db5782905061152b565b6000835111156114ee5782518084602001fd5b816040517f08c379a00000000000000000000000000000000000000000000000000000000081526004016115229190611ef3565b60405180910390fd5b9392505050565b6040518060800160405280600081526020016000815260200160008152602001600081525090565b6000819050919050565b61156d8161155a565b82525050565b60006020820190506115886000830184611564565b92915050565b600080fd5b61159c8161155a565b81146115a757600080fd5b50565b6000813590506115b981611593565b92915050565b6000602082840312156115d5576115d461158e565b5b60006115e3848285016115aa565b91505092915050565b600073ffffffffffffffffffffffffffffffffffffffff82169050919050565b6000611617826115ec565b9050919050565b6116278161160c565b811461163257600080fd5b50565b6000813590506116448161161e565b92915050565b6000602082840312156116605761165f61158e565b5b600061166e84828501611635565b91505092915050565b60008115159050919050565b61168c81611677565b82525050565b60006020820190506116a76000830184611683565b92915050565b60006080820190506116c26000830187611564565b6116cf6020830186611564565b6116dc6040830185611564565b6116e96060830184611564565b95945050505050565b6116fb81611677565b811461170657600080fd5b50565b600081359050611718816116f2565b92915050565b6000602082840312156117345761173361158e565b5b600061174284828501611709565b91505092915050565b6117548161160c565b82525050565b600060208201905061176f600083018461174b565b92915050565b6000819050919050565b600061179a611795611790846115ec565b611775565b6115ec565b9050919050565b60006117ac8261177f565b9050919050565b60006117be826117a1565b9050919050565b6117ce816117b3565b82525050565b60006020820190506117e960008301846117c5565b92915050565b6117f88161155a565b82525050565b60808201600082015161181460008501826117ef565b50602082015161182760208501826117ef565b50604082015161183a60408501826117ef565b50606082015161184d60608501826117ef565b50505050565b600060808201905061186860008301846117fe565b92915050565b7f4e487b7100000000000000000000000000000000000000000000000000000000600052601160045260246000fd5b60006118a88261155a565b91506118b38361155a565b9250827fffffffffffffffffffffffffffffffffffffffffffffffffffffffffffffffff038211156118e8576118e761186e565b5b828201905092915050565b600082825260208201905092915050565b7f4f776e61626c653a2063616c6c6572206973206e6f7420746865206f776e6572600082015250565b600061193a6020836118f3565b915061194582611904565b602082019050919050565b600060208201905081810360008301526119698161192d565b9050919050565b600061197b8261155a565b91506119868361155a565b9250817fffffffffffffffffffffffffffffffffffffffffffffffffffffffffffffffff04831182151516156119bf576119be61186e565b5b828202905092915050565b7f4e487b7100000000000000000000000000000000000000000000000000000000600052601260045260246000fd5b6000611a048261155a565b9150611a0f8361155a565b925082611a1f57611a1e6119ca565b5b828204905092915050565b60008160001c9050919050565b6000819050919050565b6000611a54611a4f83611a2a565b611a37565b9050919050565b608082016000808301549050611a7081611a41565b611a7d60008601826117ef565b5060018301549050611a8e81611a41565b611a9b60208601826117ef565b5060028301549050611aac81611a41565b611ab960408601826117ef565b5060038301549050611aca81611a41565b611ad760608601826117ef565b5050505050565b600060c082019050611af3600083018661174b565b611b006020830185611a5b565b611b0d60a0830184611564565b949350505050565b6000611b208261155a565b9150611b2b8361155a565b925082821015611b3e57611b3d61186e565b5b828203905092915050565b7f4f776e61626c653a206e6577206f776e657220697320746865207a65726f206160008201527f6464726573730000000000000000000000000000000000000000000000000000602082015250565b6000611ba56026836118f3565b9150611bb082611b49565b604082019050919050565b60006020820190508181036000830152611bd481611b98565b9050919050565b6000604082019050611bf0600083018561174b565b611bfd6020830184611564565b9392505050565b6000606082019050611c19600083018661174b565b611c26602083018561174b565b611c336040830184611564565b949350505050565b600081519050611c4a816116f2565b92915050565b600060208284031215611c6657611c6561158e565b5b6000611c7484828501611c3b565b91505092915050565b7f5361666545524332303a204552433230206f7065726174696f6e20646964206e60008201527f6f74207375636365656400000000000000000000000000000000000000000000602082015250565b6000611cd9602a836118f3565b9150611ce482611c7d565b604082019050919050565b60006020820190508181036000830152611d0881611ccc565b9050919050565b7f416464726573733a20696e73756666696369656e742062616c616e636520666f60008201527f722063616c6c0000000000000000000000000000000000000000000000000000602082015250565b6000611d6b6026836118f3565b9150611d7682611d0f565b604082019050919050565b60006020820190508181036000830152611d9a81611d5e565b9050919050565b7f416464726573733a2063616c6c20746f206e6f6e2d636f6e7472616374000000600082015250565b6000611dd7601d836118f3565b9150611de282611da1565b602082019050919050565b60006020820190508181036000830152611e0681611dca565b9050919050565b600081519050919050565b600081905092915050565b60005b83811015611e41578082015181840152602081019050611e26565b83811115611e50576000848401525b50505050565b6000611e6182611e0d565b611e6b8185611e18565b9350611e7b818560208601611e23565b80840191505092915050565b6000611e938284611e56565b915081905092915050565b600081519050919050565b6000601f19601f8301169050919050565b6000611ec582611e9e565b611ecf81856118f3565b9350611edf818560208601611e23565b611ee881611ea9565b840191505092915050565b60006020820190508181036000830152611f0d8184611eba565b90509291505056fea264697066735822122093c729c3df1750104b9878ba8dc5f78f960a0bc5e86fc556e66e4511487bc26c64736f6c634300080d0033",
  "devdoc": {
    "kind": "dev",
    "methods": {
      "owner()": {
        "details": "Returns the address of the current owner."
      },
      "renounceOwnership()": {
        "details": "Leaves the contract without owner. It will not be possible to call `onlyOwner` functions anymore. Can only be called by the current owner. NOTE: Renouncing ownership will leave the contract without an owner, thereby removing any functionality that is only available to the owner."
      },
      "transferOwnership(address)": {
        "details": "Transfers ownership of the contract to a new account (`newOwner`). Can only be called by the current owner."
      }
    },
    "version": 1
  },
  "userdoc": {
    "kind": "user",
    "methods": {},
    "version": 1
  },
  "storageLayout": {
    "storage": [
      {
        "astId": 7,
        "contract": "src/contracts/StakingChef.sol:StakingChef",
        "label": "_owner",
        "offset": 0,
        "slot": "0",
        "type": "t_address"
      },
      {
        "astId": 3343,
        "contract": "src/contracts/StakingChef.sol:StakingChef",
        "label": "_metricPerBlock",
        "offset": 0,
        "slot": "1",
        "type": "t_uint256"
      },
      {
        "astId": 3348,
        "contract": "src/contracts/StakingChef.sol:StakingChef",
        "label": "_rewardsActive",
        "offset": 0,
        "slot": "2",
        "type": "t_bool"
      },
      {
        "astId": 3350,
        "contract": "src/contracts/StakingChef.sol:StakingChef",
        "label": "_lastRewardBlock",
        "offset": 0,
        "slot": "3",
        "type": "t_uint256"
      },
      {
        "astId": 3352,
        "contract": "src/contracts/StakingChef.sol:StakingChef",
        "label": "_lifetimeShareValue",
        "offset": 0,
        "slot": "4",
        "type": "t_uint256"
      },
      {
        "astId": 3354,
        "contract": "src/contracts/StakingChef.sol:StakingChef",
        "label": "_totalAllocShares",
        "offset": 0,
        "slot": "5",
        "type": "t_uint256"
      },
      {
        "astId": 3357,
        "contract": "src/contracts/StakingChef.sol:StakingChef",
        "label": "metric",
        "offset": 0,
        "slot": "6",
        "type": "t_contract(MetricToken)3716"
      },
      {
        "astId": 3602,
        "contract": "src/contracts/StakingChef.sol:StakingChef",
        "label": "addressExistence",
        "offset": 0,
        "slot": "7",
        "type": "t_mapping(t_address,t_bool)"
      },
      {
        "astId": 5016,
        "contract": "src/contracts/StakingChef.sol:StakingChef",
        "label": "staker",
        "offset": 0,
        "slot": "8",
        "type": "t_mapping(t_address,t_struct(Staker)5403_storage)"
      }
    ],
    "types": {
      "t_address": {
        "encoding": "inplace",
        "label": "address",
        "numberOfBytes": "20"
      },
      "t_bool": {
        "encoding": "inplace",
        "label": "bool",
        "numberOfBytes": "1"
      },
      "t_contract(MetricToken)3716": {
        "encoding": "inplace",
        "label": "contract MetricToken",
        "numberOfBytes": "20"
      },
      "t_mapping(t_address,t_bool)": {
        "encoding": "mapping",
        "key": "t_address",
        "label": "mapping(address => bool)",
        "numberOfBytes": "32",
        "value": "t_bool"
      },
      "t_mapping(t_address,t_struct(Staker)5403_storage)": {
        "encoding": "mapping",
        "key": "t_address",
        "label": "mapping(address => struct StakingChef.Staker)",
        "numberOfBytes": "32",
        "value": "t_struct(Staker)5403_storage"
      },
      "t_struct(Staker)5403_storage": {
        "encoding": "inplace",
        "label": "struct StakingChef.Staker",
        "members": [
          {
            "astId": 5396,
            "contract": "src/contracts/StakingChef.sol:StakingChef",
            "label": "shares",
            "offset": 0,
            "slot": "0",
            "type": "t_uint256"
          },
          {
            "astId": 5398,
            "contract": "src/contracts/StakingChef.sol:StakingChef",
            "label": "rewardDebt",
            "offset": 0,
            "slot": "1",
            "type": "t_uint256"
          },
          {
            "astId": 5400,
            "contract": "src/contracts/StakingChef.sol:StakingChef",
            "label": "claimable",
            "offset": 0,
            "slot": "2",
            "type": "t_uint256"
          },
          {
            "astId": 5402,
            "contract": "src/contracts/StakingChef.sol:StakingChef",
            "label": "startDate",
            "offset": 0,
            "slot": "3",
            "type": "t_uint256"
          }
        ],
        "numberOfBytes": "128"
      },
      "t_uint256": {
        "encoding": "inplace",
        "label": "uint256",
        "numberOfBytes": "32"
      }
    }
  }
}