{
  "address": "0x9fE46736679d2D9a65F0992F2272dE9f3c7fa6e0",
  "abi": [
    {
      "inputs": [
        {
          "internalType": "address",
          "name": "metricTokenAddress",
          "type": "address"
        }
      ],
      "stateMutability": "nonpayable",
      "type": "constructor"
    },
    {
      "anonymous": false,
      "inputs": [
        {
          "indexed": false,
          "internalType": "address",
          "name": "harvester",
          "type": "address"
        },
        {
          "components": [
            {
              "internalType": "uint256",
              "name": "shares",
              "type": "uint256"
            },
            {
              "internalType": "uint256",
              "name": "rewardDebt",
              "type": "uint256"
            },
            {
              "internalType": "uint256",
              "name": "claimable",
              "type": "uint256"
            },
            {
              "internalType": "uint256",
              "name": "startDate",
              "type": "uint256"
            }
          ],
          "indexed": false,
          "internalType": "struct StakingChef.Staker",
          "name": "",
          "type": "tuple"
        },
        {
          "indexed": false,
          "internalType": "uint256",
          "name": "amount",
          "type": "uint256"
        }
      ],
      "name": "Claim",
      "type": "event"
    },
    {
      "anonymous": false,
      "inputs": [
        {
          "indexed": false,
          "internalType": "address",
          "name": "harvester",
          "type": "address"
        },
        {
          "indexed": false,
          "internalType": "uint256",
          "name": "agIndex",
          "type": "uint256"
        },
        {
          "indexed": false,
          "internalType": "uint256",
          "name": "amount",
          "type": "uint256"
        }
      ],
      "name": "Harvest",
      "type": "event"
    },
    {
      "anonymous": false,
      "inputs": [
        {
          "indexed": true,
          "internalType": "address",
          "name": "previousOwner",
          "type": "address"
        },
        {
          "indexed": true,
          "internalType": "address",
          "name": "newOwner",
          "type": "address"
        }
      ],
      "name": "OwnershipTransferred",
      "type": "event"
    },
    {
      "anonymous": false,
      "inputs": [
        {
          "indexed": false,
          "internalType": "address",
          "name": "withdrawer",
          "type": "address"
        },
        {
          "components": [
            {
              "internalType": "uint256",
              "name": "shares",
              "type": "uint256"
            },
            {
              "internalType": "uint256",
              "name": "rewardDebt",
              "type": "uint256"
            },
            {
              "internalType": "uint256",
              "name": "claimable",
              "type": "uint256"
            },
            {
              "internalType": "uint256",
              "name": "startDate",
              "type": "uint256"
            }
          ],
          "indexed": false,
          "internalType": "struct StakingChef.Staker",
          "name": "",
          "type": "tuple"
        },
        {
          "indexed": false,
          "internalType": "uint256",
          "name": "amount",
          "type": "uint256"
        }
      ],
      "name": "UnStake",
      "type": "event"
    },
    {
      "anonymous": false,
      "inputs": [
        {
          "indexed": false,
          "internalType": "address",
          "name": "withdrawer",
          "type": "address"
        },
        {
          "indexed": false,
          "internalType": "uint256",
          "name": "agIndex",
          "type": "uint256"
        },
        {
          "indexed": false,
          "internalType": "uint256",
          "name": "amount",
          "type": "uint256"
        }
      ],
      "name": "Withdraw",
      "type": "event"
    },
    {
      "inputs": [],
      "name": "ACC_METRIC_PRECISION",
      "outputs": [
        {
          "internalType": "uint256",
          "name": "",
          "type": "uint256"
        }
      ],
      "stateMutability": "view",
      "type": "function"
    },
    {
      "inputs": [
        {
          "internalType": "uint256",
          "name": "accumulatedWithPrecision",
          "type": "uint256"
        }
      ],
      "name": "accumulatedMetricDividedByShares",
      "outputs": [
        {
          "internalType": "uint256",
          "name": "",
          "type": "uint256"
        }
      ],
      "stateMutability": "view",
      "type": "function"
    },
    {
      "inputs": [
        {
          "internalType": "address",
          "name": "",
          "type": "address"
        }
      ],
      "name": "addressExistence",
      "outputs": [
        {
          "internalType": "bool",
          "name": "",
          "type": "bool"
        }
      ],
      "stateMutability": "view",
      "type": "function"
    },
    {
      "inputs": [],
      "name": "areRewardsActive",
      "outputs": [
        {
          "internalType": "bool",
          "name": "",
          "type": "bool"
        }
      ],
      "stateMutability": "view",
      "type": "function"
    },
    {
      "inputs": [],
      "name": "claim",
      "outputs": [],
      "stateMutability": "nonpayable",
      "type": "function"
    },
    {
      "inputs": [],
      "name": "getLastRewardBlock",
      "outputs": [
        {
          "internalType": "uint256",
          "name": "",
          "type": "uint256"
        }
      ],
      "stateMutability": "view",
      "type": "function"
    },
    {
      "inputs": [],
      "name": "getLifeTimeShareValueEstimate",
      "outputs": [
        {
          "internalType": "uint256",
          "name": "",
          "type": "uint256"
        }
      ],
      "stateMutability": "view",
      "type": "function"
    },
    {
      "inputs": [],
      "name": "getMetricPerBlock",
      "outputs": [
        {
          "internalType": "uint256",
          "name": "",
          "type": "uint256"
        }
      ],
      "stateMutability": "view",
      "type": "function"
    },
    {
      "inputs": [],
      "name": "getMetricToken",
      "outputs": [
        {
          "internalType": "contract MetricToken",
          "name": "",
          "type": "address"
        }
      ],
      "stateMutability": "view",
      "type": "function"
    },
    {
      "inputs": [],
      "name": "getStake",
      "outputs": [
        {
          "components": [
            {
              "internalType": "uint256",
              "name": "shares",
              "type": "uint256"
            },
            {
              "internalType": "uint256",
              "name": "rewardDebt",
              "type": "uint256"
            },
            {
              "internalType": "uint256",
              "name": "claimable",
              "type": "uint256"
            },
            {
              "internalType": "uint256",
              "name": "startDate",
              "type": "uint256"
            }
          ],
          "internalType": "struct StakingChef.Staker",
          "name": "",
          "type": "tuple"
        }
      ],
      "stateMutability": "view",
      "type": "function"
    },
    {
      "inputs": [],
      "name": "getTotalAllocationShares",
      "outputs": [
        {
          "internalType": "uint256",
          "name": "",
          "type": "uint256"
        }
      ],
      "stateMutability": "view",
      "type": "function"
    },
    {
      "inputs": [],
      "name": "owner",
      "outputs": [
        {
          "internalType": "address",
          "name": "",
          "type": "address"
        }
      ],
      "stateMutability": "view",
      "type": "function"
    },
    {
      "inputs": [],
      "name": "renounceOwnership",
      "outputs": [],
      "stateMutability": "nonpayable",
      "type": "function"
    },
    {
      "inputs": [],
      "name": "setLifetimeShareValue",
      "outputs": [],
      "stateMutability": "nonpayable",
      "type": "function"
    },
    {
      "inputs": [
        {
          "internalType": "uint256",
          "name": "metricAmount",
          "type": "uint256"
        }
      ],
      "name": "setMetricPerBlock",
      "outputs": [],
      "stateMutability": "nonpayable",
      "type": "function"
    },
    {
      "inputs": [
        {
          "internalType": "address",
          "name": "metricTokenAddress",
          "type": "address"
        }
      ],
      "name": "setMetricToken",
      "outputs": [],
      "stateMutability": "nonpayable",
      "type": "function"
    },
    {
      "inputs": [
        {
          "internalType": "uint256",
          "name": "metricAmount",
          "type": "uint256"
        }
      ],
      "name": "stakeAdditionalMetric",
      "outputs": [],
      "stateMutability": "nonpayable",
      "type": "function"
    },
    {
      "inputs": [
        {
          "internalType": "uint256",
          "name": "metricAmount",
          "type": "uint256"
        }
      ],
      "name": "stakeMetric",
      "outputs": [],
      "stateMutability": "nonpayable",
      "type": "function"
    },
    {
      "inputs": [
        {
          "internalType": "address",
          "name": "",
          "type": "address"
        }
      ],
      "name": "staker",
      "outputs": [
        {
          "internalType": "uint256",
          "name": "shares",
          "type": "uint256"
        },
        {
          "internalType": "uint256",
          "name": "rewardDebt",
          "type": "uint256"
        },
        {
          "internalType": "uint256",
          "name": "claimable",
          "type": "uint256"
        },
        {
          "internalType": "uint256",
          "name": "startDate",
          "type": "uint256"
        }
      ],
      "stateMutability": "view",
      "type": "function"
    },
    {
      "inputs": [
        {
          "internalType": "bool",
          "name": "isOn",
          "type": "bool"
        }
      ],
      "name": "toggleRewards",
      "outputs": [],
      "stateMutability": "nonpayable",
      "type": "function"
    },
    {
      "inputs": [
        {
          "internalType": "address",
          "name": "newOwner",
          "type": "address"
        }
      ],
      "name": "transferOwnership",
      "outputs": [],
      "stateMutability": "nonpayable",
      "type": "function"
    },
    {
      "inputs": [],
      "name": "unStakeMetric",
      "outputs": [],
      "stateMutability": "nonpayable",
      "type": "function"
    },
    {
      "inputs": [],
      "name": "updateAccumulatedStakingRewards",
      "outputs": [],
      "stateMutability": "nonpayable",
      "type": "function"
    },
    {
      "inputs": [
        {
          "internalType": "uint256",
          "name": "metricAmount",
          "type": "uint256"
        }
      ],
      "name": "updateStaker",
      "outputs": [],
      "stateMutability": "nonpayable",
      "type": "function"
    },
    {
      "inputs": [],
      "name": "viewPendingClaims",
      "outputs": [
        {
          "internalType": "uint256",
          "name": "",
          "type": "uint256"
        }
      ],
      "stateMutability": "view",
      "type": "function"
    },
    {
      "inputs": [],
      "name": "viewPendingHarvest",
      "outputs": [
        {
          "internalType": "uint256",
          "name": "",
          "type": "uint256"
        }
      ],
      "stateMutability": "view",
      "type": "function"
    }
  ],
  "transactionHash": "0xa68831f3e236c6379dcb338abf42e1858f64540c62ae52d2ece4a7348ef76b56",
  "args": [
    "0x5FbDB2315678afecb367f032d93F642f64180aa3"
  ],
  "numDeployments": 1,
  "solcInputHash": "f45decace732160b09ec1564180bdae0",
  "bytecode": "0x60806040523480156200001157600080fd5b5060405162002a6338038062002a6383398181016040528101906200003791906200043a565b620000576200004b6200009360201b60201c565b6200009b60201b60201c565b62000068816200015f60201b60201c565b6200007a60046200023260201b60201c565b6200008c6000620002e060201b60201c565b5062000589565b600033905090565b60008060009054906101000a900473ffffffffffffffffffffffffffffffffffffffff169050816000806101000a81548173ffffffffffffffffffffffffffffffffffffffff021916908373ffffffffffffffffffffffffffffffffffffffff1602179055508173ffffffffffffffffffffffffffffffffffffffff168173ffffffffffffffffffffffffffffffffffffffff167f8be0079c531659141344cd1fd0a4f28419497f9722a3daafe3b4186f6b6457e060405160405180910390a35050565b6200016f6200009360201b60201c565b73ffffffffffffffffffffffffffffffffffffffff16620001956200039d60201b60201c565b73ffffffffffffffffffffffffffffffffffffffff1614620001ee576040517f08c379a0000000000000000000000000000000000000000000000000000000008152600401620001e590620004cd565b60405180910390fd5b80600660006101000a81548173ffffffffffffffffffffffffffffffffffffffff021916908373ffffffffffffffffffffffffffffffffffffffff16021790555050565b620002426200009360201b60201c565b73ffffffffffffffffffffffffffffffffffffffff16620002686200039d60201b60201c565b73ffffffffffffffffffffffffffffffffffffffff1614620002c1576040517f08c379a0000000000000000000000000000000000000000000000000000000008152600401620002b890620004cd565b60405180910390fd5b670de0b6b3a764000081620002d7919062000528565b60018190555050565b620002f06200009360201b60201c565b73ffffffffffffffffffffffffffffffffffffffff16620003166200039d60201b60201c565b73ffffffffffffffffffffffffffffffffffffffff16146200036f576040517f08c379a00000000000000000000000000000000000000000000000000000000081526004016200036690620004cd565b60405180910390fd5b80600260006101000a81548160ff0219169083151502179055506200039a43620003c660201b60201c565b50565b60008060009054906101000a900473ffffffffffffffffffffffffffffffffffffffff16905090565b8060038190555050565b600080fd5b600073ffffffffffffffffffffffffffffffffffffffff82169050919050565b60006200040282620003d5565b9050919050565b6200041481620003f5565b81146200042057600080fd5b50565b600081519050620004348162000409565b92915050565b600060208284031215620004535762000452620003d0565b5b6000620004638482850162000423565b91505092915050565b600082825260208201905092915050565b7f4f776e61626c653a2063616c6c6572206973206e6f7420746865206f776e6572600082015250565b6000620004b56020836200046c565b9150620004c2826200047d565b602082019050919050565b60006020820190508181036000830152620004e881620004a6565b9050919050565b6000819050919050565b7f4e487b7100000000000000000000000000000000000000000000000000000000600052601160045260246000fd5b60006200053582620004ef565b91506200054283620004ef565b9250817fffffffffffffffffffffffffffffffffffffffffffffffffffffffffffffffff04831182151516156200057e576200057d620004f9565b5b828202905092915050565b6124ca80620005996000396000f3fe608060405234801561001057600080fd5b506004361061018e5760003560e01c80638c19ec8b116100de578063c5c19d1c11610097578063e2eb5c4711610071578063e2eb5c4714610404578063f2fde38b1461040e578063f33c9baa1461042a578063fc0e3d90146104485761018e565b8063c5c19d1c146103ac578063c5d836d9146103c8578063d944cb7a146103e65761018e565b80638c19ec8b146102fe5780638da5cb5b1461031a578063945c528714610338578063a8e2a38b14610354578063bf62bee614610372578063c284b8bc146103905761018e565b80634be681171161014b5780635f9b1bb5116101255780635f9b1bb5146102995780636ac49a89146102a3578063715018a6146102c157806382e4eda4146102cb5761018e565b80634be68117146102675780634e71d92d146102715780635e1757131461027b5761018e565b80630419ba05146101935780631cd8f0fa146101b15780631e718d27146101cd57806322abbddf146101fd5780632ae0c4971461022d57806349ba013b14610249575b600080fd5b61019b610466565b6040516101a89190611942565b60405180910390f35b6101cb60048036038101906101c6919061198e565b6104af565b005b6101e760048036038101906101e2919061198e565b610548565b6040516101f49190611942565b60405180910390f35b61021760048036038101906102129190611a19565b61056b565b6040516102249190611a61565b60405180910390f35b6102476004803603810190610242919061198e565b61058b565b005b61025161072f565b60405161025e9190611942565b60405180910390f35b61026f61077e565b005b6102796107e8565b005b6102836108dc565b6040516102909190611942565b60405180910390f35b6102a16108e6565b005b6102ab610926565b6040516102b89190611942565b60405180910390f35b6102c961092f565b005b6102e560048036038101906102e09190611a19565b6109b7565b6040516102f59493929190611a7c565b60405180910390f35b61031860048036038101906103139190611aed565b6109e7565b005b610322610a89565b60405161032f9190611b29565b60405180910390f35b610352600480360381019061034d9190611a19565b610ab2565b005b61035c610b72565b6040516103699190611ba3565b60405180910390f35b61037a610b9c565b6040516103879190611942565b60405180910390f35b6103aa60048036038101906103a5919061198e565b610ba6565b005b6103c660048036038101906103c1919061198e565b610e1b565b005b6103d0610eda565b6040516103dd9190611942565b60405180910390f35b6103ee610ee4565b6040516103fb9190611942565b60405180910390f35b61040c610f79565b005b61042860048036038101906104239190611a19565b6110c6565b005b6104326111bd565b60405161043f9190611a61565b60405180910390f35b6104506111d4565b60405161045d9190611c22565b60405180910390f35b600080610471611259565b9050600061047e82611298565b9050600061048a6112b9565b90506104a761049883610548565b826112c390919063ffffffff16565b935050505090565b6104b76112d9565b73ffffffffffffffffffffffffffffffffffffffff166104d5610a89565b73ffffffffffffffffffffffffffffffffffffffff161461052b576040517f08c379a000000000000000000000000000000000000000000000000000000000815260040161052290611c9a565b60405180910390fd5b670de0b6b3a76400008161053f9190611ce9565b60018190555050565b60006105646105556108dc565b836112e190919063ffffffff16565b9050919050565b60076020528060005260406000206000915054906101000a900460ff1681565b6000600860003373ffffffffffffffffffffffffffffffffffffffff1673ffffffffffffffffffffffffffffffffffffffff16815260200190815260200160002090506105d66112f7565b60008160000154905060006105f482856112c390919063ffffffff16565b90506040518060800160405280828152602001600860003373ffffffffffffffffffffffffffffffffffffffff1673ffffffffffffffffffffffffffffffffffffffff168152602001908152602001600020600101548152602001600860003373ffffffffffffffffffffffffffffffffffffffff1673ffffffffffffffffffffffffffffffffffffffff16815260200190815260200160002060020154815260200142815250600860003373ffffffffffffffffffffffffffffffffffffffff1673ffffffffffffffffffffffffffffffffffffffff16815260200190815260200160002060008201518160000155602082015181600101556040820151816002015560608201518160030155905050610712836000015461140e565b61072961071d610b72565b3330866000015461142c565b50505050565b600080600860003373ffffffffffffffffffffffffffffffffffffffff1673ffffffffffffffffffffffffffffffffffffffff1681526020019081526020016000209050806002015491505090565b6107866111bd565b6107c5576040517f08c379a00000000000000000000000000000000000000000000000000000000081526004016107bc90611d8f565b60405180910390fd5b6107cd610b9c565b4311156107e6576107dc6108e6565b6107e5436114b5565b5b565b6000600860003373ffffffffffffffffffffffffffffffffffffffff1673ffffffffffffffffffffffffffffffffffffffff16815260200190815260200160002090506108336112f7565b600081600201540361087a576040517f08c379a000000000000000000000000000000000000000000000000000000000815260040161087190611dfb565b60405180910390fd5b610890610885610b72565b3383600201546114bf565b600081600201819055507f822e01c025b1cd3ec96ecdebfee61e49dbcdd29762ad69de9c20bb2b0f16a572338283600201546040516108d193929190611ecf565b60405180910390a150565b6000600554905090565b60006108f0611259565b905060006108fd82611298565b905061091c61090b82610548565b6004546112c390919063ffffffff16565b6004819055505050565b64e8d4a5100081565b6109376112d9565b73ffffffffffffffffffffffffffffffffffffffff16610955610a89565b73ffffffffffffffffffffffffffffffffffffffff16146109ab576040517f08c379a00000000000000000000000000000000000000000000000000000000081526004016109a290611c9a565b60405180910390fd5b6109b56000611545565b565b60086020528060005260406000206000915090508060000154908060010154908060020154908060030154905084565b6109ef6112d9565b73ffffffffffffffffffffffffffffffffffffffff16610a0d610a89565b73ffffffffffffffffffffffffffffffffffffffff1614610a63576040517f08c379a0000000000000000000000000000000000000000000000000000000008152600401610a5a90611c9a565b60405180910390fd5b80600260006101000a81548160ff021916908315150217905550610a86436114b5565b50565b60008060009054906101000a900473ffffffffffffffffffffffffffffffffffffffff16905090565b610aba6112d9565b73ffffffffffffffffffffffffffffffffffffffff16610ad8610a89565b73ffffffffffffffffffffffffffffffffffffffff1614610b2e576040517f08c379a0000000000000000000000000000000000000000000000000000000008152600401610b2590611c9a565b60405180910390fd5b80600660006101000a81548173ffffffffffffffffffffffffffffffffffffffff021916908373ffffffffffffffffffffffffffffffffffffffff16021790555050565b6000600660009054906101000a900473ffffffffffffffffffffffffffffffffffffffff16905090565b6000600354905090565b3360001515600760008373ffffffffffffffffffffffffffffffffffffffff1673ffffffffffffffffffffffffffffffffffffffff16815260200190815260200160002060009054906101000a900460ff16151514610c3a576040517f08c379a0000000000000000000000000000000000000000000000000000000008152600401610c3190611f52565b60405180910390fd5b6001600760008373ffffffffffffffffffffffffffffffffffffffff1673ffffffffffffffffffffffffffffffffffffffff16815260200190815260200160002060006101000a81548160ff021916908315150217905550610c9a6111bd565b8015610cad57506000610cab6108dc565b115b15610cbb57610cba61077e565b5b6040518060800160405280838152602001610cfd64e8d4a51000610cef610ce06112b9565b8761160990919063ffffffff16565b6112e190919063ffffffff16565b81526020016000815260200142815250600860003373ffffffffffffffffffffffffffffffffffffffff1673ffffffffffffffffffffffffffffffffffffffff16815260200190815260200160002060008201518160000155602082015181600101556040820151816002015560608201518160030155905050610dc2600860003373ffffffffffffffffffffffffffffffffffffffff1673ffffffffffffffffffffffffffffffffffffffff1681526020019081526020016000206000015461140e565b610e17610dcd610b72565b3330600860003373ffffffffffffffffffffffffffffffffffffffff1673ffffffffffffffffffffffffffffffffffffffff1681526020019081526020016000206000015461142c565b5050565b610e236111bd565b8015610e3657506000610e346108dc565b115b15610e4457610e4361077e565b5b610e90600860003373ffffffffffffffffffffffffffffffffffffffff1673ffffffffffffffffffffffffffffffffffffffff168152602001908152602001600020600001548261161f565b80600860003373ffffffffffffffffffffffffffffffffffffffff1673ffffffffffffffffffffffffffffffffffffffff1681526020019081526020016000206000018190555050565b6000600154905090565b600080600860003373ffffffffffffffffffffffffffffffffffffffff1673ffffffffffffffffffffffffffffffffffffffff1681526020019081526020016000209050610f738160010154610f6564e8d4a51000610f57610f446112b9565b866000015461160990919063ffffffff16565b6112e190919063ffffffff16565b61165090919063ffffffff16565b91505090565b6000600860003373ffffffffffffffffffffffffffffffffffffffff1673ffffffffffffffffffffffffffffffffffffffff16815260200190815260200160002090506000816000015403611003576040517f08c379a0000000000000000000000000000000000000000000000000000000008152600401610ffa90611fbe565b60405180910390fd5b61100b6111bd565b156110195761101861077e565b5b611064600860003373ffffffffffffffffffffffffffffffffffffffff1673ffffffffffffffffffffffffffffffffffffffff16815260200190815260200160002060000154611666565b61107a61106f610b72565b3383600001546114bf565b600081600001819055507f4922b0708c82a8389a5529e4d07c03dd67c4efb52f6a9706d406f987c21f976e338283600001546040516110bb93929190611ecf565b60405180910390a150565b6110ce6112d9565b73ffffffffffffffffffffffffffffffffffffffff166110ec610a89565b73ffffffffffffffffffffffffffffffffffffffff1614611142576040517f08c379a000000000000000000000000000000000000000000000000000000000815260040161113990611c9a565b60405180910390fd5b600073ffffffffffffffffffffffffffffffffffffffff168173ffffffffffffffffffffffffffffffffffffffff16036111b1576040517f08c379a00000000000000000000000000000000000000000000000000000000081526004016111a890612050565b60405180910390fd5b6111ba81611545565b50565b6000600260009054906101000a900460ff16905090565b6111dc611901565b6000600860003373ffffffffffffffffffffffffffffffffffffffff1673ffffffffffffffffffffffffffffffffffffffff16815260200190815260200160002090508060405180608001604052908160008201548152602001600182015481526020016002820154815260200160038201548152505091505090565b600080611276611267610b9c565b4361165090919063ffffffff16565b9050611292611283610eda565b8261160990919063ffffffff16565b91505090565b60006112b264e8d4a510008361160990919063ffffffff16565b9050919050565b6000600454905090565b600081836112d19190612070565b905092915050565b600033905090565b600081836112ef91906120f5565b905092915050565b6000600860003373ffffffffffffffffffffffffffffffffffffffff1673ffffffffffffffffffffffffffffffffffffffff168152602001908152602001600020905061134261077e565b600061138f826001015461138164e8d4a510006113736113606112b9565b876000015461160990919063ffffffff16565b6112e190919063ffffffff16565b61165090919063ffffffff16565b90506113a88183600101546112c390919063ffffffff16565b82600101819055506113c78183600201546112c390919063ffffffff16565b82600201819055507f822e01c025b1cd3ec96ecdebfee61e49dbcdd29762ad69de9c20bb2b0f16a57233838360405161140293929190611ecf565b60405180910390a15050565b611423816005546112c390919063ffffffff16565b60058190555050565b6114af846323b872dd60e01b85858560405160240161144d93929190612126565b604051602081830303815290604052907bffffffffffffffffffffffffffffffffffffffffffffffffffffffff19166020820180517bffffffffffffffffffffffffffffffffffffffffffffffffffffffff8381831617835250505050611684565b50505050565b8060038190555050565b6115408363a9059cbb60e01b84846040516024016114de92919061215d565b604051602081830303815290604052907bffffffffffffffffffffffffffffffffffffffffffffffffffffffff19166020820180517bffffffffffffffffffffffffffffffffffffffffffffffffffffffff8381831617835250505050611684565b505050565b60008060009054906101000a900473ffffffffffffffffffffffffffffffffffffffff169050816000806101000a81548173ffffffffffffffffffffffffffffffffffffffff021916908373ffffffffffffffffffffffffffffffffffffffff1602179055508173ffffffffffffffffffffffffffffffffffffffff168173ffffffffffffffffffffffffffffffffffffffff167f8be0079c531659141344cd1fd0a4f28419497f9722a3daafe3b4186f6b6457e060405160405180910390a35050565b600081836116179190611ce9565b905092915050565b611646816116388460055461165090919063ffffffff16565b6112c390919063ffffffff16565b6005819055505050565b6000818361165e9190612186565b905092915050565b61167b8160055461165090919063ffffffff16565b60058190555050565b60006116e6826040518060400160405280602081526020017f5361666545524332303a206c6f772d6c6576656c2063616c6c206661696c65648152508573ffffffffffffffffffffffffffffffffffffffff1661174b9092919063ffffffff16565b9050600081511115611746578080602001905181019061170691906121cf565b611745576040517f08c379a000000000000000000000000000000000000000000000000000000000815260040161173c9061226e565b60405180910390fd5b5b505050565b606061175a8484600085611763565b90509392505050565b6060824710156117a8576040517f08c379a000000000000000000000000000000000000000000000000000000000815260040161179f90612300565b60405180910390fd5b6117b185611877565b6117f0576040517f08c379a00000000000000000000000000000000000000000000000000000000081526004016117e79061236c565b60405180910390fd5b6000808673ffffffffffffffffffffffffffffffffffffffff1685876040516118199190612406565b60006040518083038185875af1925050503d8060008114611856576040519150601f19603f3d011682016040523d82523d6000602084013e61185b565b606091505b509150915061186b82828661189a565b92505050949350505050565b6000808273ffffffffffffffffffffffffffffffffffffffff163b119050919050565b606083156118aa578290506118fa565b6000835111156118bd5782518084602001fd5b816040517f08c379a00000000000000000000000000000000000000000000000000000000081526004016118f19190612472565b60405180910390fd5b9392505050565b6040518060800160405280600081526020016000815260200160008152602001600081525090565b6000819050919050565b61193c81611929565b82525050565b60006020820190506119576000830184611933565b92915050565b600080fd5b61196b81611929565b811461197657600080fd5b50565b60008135905061198881611962565b92915050565b6000602082840312156119a4576119a361195d565b5b60006119b284828501611979565b91505092915050565b600073ffffffffffffffffffffffffffffffffffffffff82169050919050565b60006119e6826119bb565b9050919050565b6119f6816119db565b8114611a0157600080fd5b50565b600081359050611a13816119ed565b92915050565b600060208284031215611a2f57611a2e61195d565b5b6000611a3d84828501611a04565b91505092915050565b60008115159050919050565b611a5b81611a46565b82525050565b6000602082019050611a766000830184611a52565b92915050565b6000608082019050611a916000830187611933565b611a9e6020830186611933565b611aab6040830185611933565b611ab86060830184611933565b95945050505050565b611aca81611a46565b8114611ad557600080fd5b50565b600081359050611ae781611ac1565b92915050565b600060208284031215611b0357611b0261195d565b5b6000611b1184828501611ad8565b91505092915050565b611b23816119db565b82525050565b6000602082019050611b3e6000830184611b1a565b92915050565b6000819050919050565b6000611b69611b64611b5f846119bb565b611b44565b6119bb565b9050919050565b6000611b7b82611b4e565b9050919050565b6000611b8d82611b70565b9050919050565b611b9d81611b82565b82525050565b6000602082019050611bb86000830184611b94565b92915050565b611bc781611929565b82525050565b608082016000820151611be36000850182611bbe565b506020820151611bf66020850182611bbe565b506040820151611c096040850182611bbe565b506060820151611c1c6060850182611bbe565b50505050565b6000608082019050611c376000830184611bcd565b92915050565b600082825260208201905092915050565b7f4f776e61626c653a2063616c6c6572206973206e6f7420746865206f776e6572600082015250565b6000611c84602083611c3d565b9150611c8f82611c4e565b602082019050919050565b60006020820190508181036000830152611cb381611c77565b9050919050565b7f4e487b7100000000000000000000000000000000000000000000000000000000600052601160045260246000fd5b6000611cf482611929565b9150611cff83611929565b9250817fffffffffffffffffffffffffffffffffffffffffffffffffffffffffffffffff0483118215151615611d3857611d37611cba565b5b828202905092915050565b7f5265776172647320617265206e6f742061637469766500000000000000000000600082015250565b6000611d79601683611c3d565b9150611d8482611d43565b602082019050919050565b60006020820190508181036000830152611da881611d6c565b9050919050565b7f4e6f20636c61696d61626c65207265776172647320746f207769746864726177600082015250565b6000611de5602083611c3d565b9150611df082611daf565b602082019050919050565b60006020820190508181036000830152611e1481611dd8565b9050919050565b60008160001c9050919050565b6000819050919050565b6000611e45611e4083611e1b565b611e28565b9050919050565b608082016000808301549050611e6181611e32565b611e6e6000860182611bbe565b5060018301549050611e7f81611e32565b611e8c6020860182611bbe565b5060028301549050611e9d81611e32565b611eaa6040860182611bbe565b5060038301549050611ebb81611e32565b611ec86060860182611bbe565b5050505050565b600060c082019050611ee46000830186611b1a565b611ef16020830185611e4c565b611efe60a0830184611933565b949350505050565b7f6e6f6e4475706c6963617465643a206475706c69636174656400000000000000600082015250565b6000611f3c601983611c3d565b9150611f4782611f06565b602082019050919050565b60006020820190508181036000830152611f6b81611f2f565b9050919050565b7f4e6f204d657472696320746f2077697468647261770000000000000000000000600082015250565b6000611fa8601583611c3d565b9150611fb382611f72565b602082019050919050565b60006020820190508181036000830152611fd781611f9b565b9050919050565b7f4f776e61626c653a206e6577206f776e657220697320746865207a65726f206160008201527f6464726573730000000000000000000000000000000000000000000000000000602082015250565b600061203a602683611c3d565b915061204582611fde565b604082019050919050565b600060208201905081810360008301526120698161202d565b9050919050565b600061207b82611929565b915061208683611929565b9250827fffffffffffffffffffffffffffffffffffffffffffffffffffffffffffffffff038211156120bb576120ba611cba565b5b828201905092915050565b7f4e487b7100000000000000000000000000000000000000000000000000000000600052601260045260246000fd5b600061210082611929565b915061210b83611929565b92508261211b5761211a6120c6565b5b828204905092915050565b600060608201905061213b6000830186611b1a565b6121486020830185611b1a565b6121556040830184611933565b949350505050565b60006040820190506121726000830185611b1a565b61217f6020830184611933565b9392505050565b600061219182611929565b915061219c83611929565b9250828210156121af576121ae611cba565b5b828203905092915050565b6000815190506121c981611ac1565b92915050565b6000602082840312156121e5576121e461195d565b5b60006121f3848285016121ba565b91505092915050565b7f5361666545524332303a204552433230206f7065726174696f6e20646964206e60008201527f6f74207375636365656400000000000000000000000000000000000000000000602082015250565b6000612258602a83611c3d565b9150612263826121fc565b604082019050919050565b600060208201905081810360008301526122878161224b565b9050919050565b7f416464726573733a20696e73756666696369656e742062616c616e636520666f60008201527f722063616c6c0000000000000000000000000000000000000000000000000000602082015250565b60006122ea602683611c3d565b91506122f58261228e565b604082019050919050565b60006020820190508181036000830152612319816122dd565b9050919050565b7f416464726573733a2063616c6c20746f206e6f6e2d636f6e7472616374000000600082015250565b6000612356601d83611c3d565b915061236182612320565b602082019050919050565b6000602082019050818103600083015261238581612349565b9050919050565b600081519050919050565b600081905092915050565b60005b838110156123c05780820151818401526020810190506123a5565b838111156123cf576000848401525b50505050565b60006123e08261238c565b6123ea8185612397565b93506123fa8185602086016123a2565b80840191505092915050565b600061241282846123d5565b915081905092915050565b600081519050919050565b6000601f19601f8301169050919050565b60006124448261241d565b61244e8185611c3d565b935061245e8185602086016123a2565b61246781612428565b840191505092915050565b6000602082019050818103600083015261248c8184612439565b90509291505056fea2646970667358221220f9672d3208f192bffe57eec2f49ae137436ee8d0a605f4174fbeeea5d0711bca64736f6c634300080d0033",
  "devdoc": {
    "kind": "dev",
    "methods": {
      "owner()": {
        "details": "Returns the address of the current owner."
      },
      "renounceOwnership()": {
        "details": "Leaves the contract without owner. It will not be possible to call `onlyOwner` functions anymore. Can only be called by the current owner. NOTE: Renouncing ownership will leave the contract without an owner, thereby removing any functionality that is only available to the owner."
      },
      "transferOwnership(address)": {
        "details": "Transfers ownership of the contract to a new account (`newOwner`). Can only be called by the current owner."
      }
    },
    "version": 1
  },
  "userdoc": {
    "kind": "user",
    "methods": {},
    "version": 1
  },
  "storageLayout": {
    "storage": [
      {
        "astId": 7,
        "contract": "src/contracts/StakingChef.sol:StakingChef",
        "label": "_owner",
        "offset": 0,
        "slot": "0",
        "type": "t_address"
      },
      {
        "astId": 3527,
        "contract": "src/contracts/StakingChef.sol:StakingChef",
        "label": "_metricPerBlock",
        "offset": 0,
        "slot": "1",
        "type": "t_uint256"
      },
      {
        "astId": 3532,
        "contract": "src/contracts/StakingChef.sol:StakingChef",
        "label": "_rewardsActive",
        "offset": 0,
        "slot": "2",
        "type": "t_bool"
      },
      {
        "astId": 3534,
        "contract": "src/contracts/StakingChef.sol:StakingChef",
        "label": "_lastRewardBlock",
        "offset": 0,
        "slot": "3",
        "type": "t_uint256"
      },
      {
        "astId": 3536,
        "contract": "src/contracts/StakingChef.sol:StakingChef",
        "label": "_lifetimeShareValue",
        "offset": 0,
        "slot": "4",
        "type": "t_uint256"
      },
      {
        "astId": 3538,
        "contract": "src/contracts/StakingChef.sol:StakingChef",
        "label": "_totalAllocShares",
        "offset": 0,
        "slot": "5",
        "type": "t_uint256"
      },
      {
        "astId": 3541,
        "contract": "src/contracts/StakingChef.sol:StakingChef",
        "label": "metric",
        "offset": 0,
        "slot": "6",
        "type": "t_contract(MetricToken)3908"
      },
      {
        "astId": 3796,
        "contract": "src/contracts/StakingChef.sol:StakingChef",
        "label": "addressExistence",
        "offset": 0,
        "slot": "7",
        "type": "t_mapping(t_address,t_bool)"
      },
      {
        "astId": 4338,
        "contract": "src/contracts/StakingChef.sol:StakingChef",
        "label": "staker",
        "offset": 0,
        "slot": "8",
        "type": "t_mapping(t_address,t_struct(Staker)4800_storage)"
      }
    ],
    "types": {
      "t_address": {
        "encoding": "inplace",
        "label": "address",
        "numberOfBytes": "20"
      },
      "t_bool": {
        "encoding": "inplace",
        "label": "bool",
        "numberOfBytes": "1"
      },
      "t_contract(MetricToken)3908": {
        "encoding": "inplace",
        "label": "contract MetricToken",
        "numberOfBytes": "20"
      },
      "t_mapping(t_address,t_bool)": {
        "encoding": "mapping",
        "key": "t_address",
        "label": "mapping(address => bool)",
        "numberOfBytes": "32",
        "value": "t_bool"
      },
      "t_mapping(t_address,t_struct(Staker)4800_storage)": {
        "encoding": "mapping",
        "key": "t_address",
        "label": "mapping(address => struct StakingChef.Staker)",
        "numberOfBytes": "32",
        "value": "t_struct(Staker)4800_storage"
      },
      "t_struct(Staker)4800_storage": {
        "encoding": "inplace",
        "label": "struct StakingChef.Staker",
        "members": [
          {
            "astId": 4793,
            "contract": "src/contracts/StakingChef.sol:StakingChef",
            "label": "shares",
            "offset": 0,
            "slot": "0",
            "type": "t_uint256"
          },
          {
            "astId": 4795,
            "contract": "src/contracts/StakingChef.sol:StakingChef",
            "label": "rewardDebt",
            "offset": 0,
            "slot": "1",
            "type": "t_uint256"
          },
          {
            "astId": 4797,
            "contract": "src/contracts/StakingChef.sol:StakingChef",
            "label": "claimable",
            "offset": 0,
            "slot": "2",
            "type": "t_uint256"
          },
          {
            "astId": 4799,
            "contract": "src/contracts/StakingChef.sol:StakingChef",
            "label": "startDate",
            "offset": 0,
            "slot": "3",
            "type": "t_uint256"
          }
        ],
        "numberOfBytes": "128"
      },
      "t_uint256": {
        "encoding": "inplace",
        "label": "uint256",
        "numberOfBytes": "32"
      }
    }
  }
}