{
  "address": "0x2279B7A0a67DB372996a5FaB50D91eAA73d2eBe6",
  "abi": [
    {
      "inputs": [
        {
          "internalType": "address",
          "name": "metricTokenAddress",
          "type": "address"
        }
      ],
      "stateMutability": "nonpayable",
      "type": "constructor"
    },
    {
      "inputs": [],
      "name": "CannotRenounce",
      "type": "error"
    },
    {
      "inputs": [],
      "name": "CannotStakeNoMetric",
      "type": "error"
    },
    {
      "inputs": [],
      "name": "DuplicateAddress",
      "type": "error"
    },
    {
      "inputs": [],
      "name": "InvalidShareAmount",
      "type": "error"
    },
    {
      "inputs": [],
      "name": "NoClaimableRewardsToWithdraw",
      "type": "error"
    },
    {
      "inputs": [],
      "name": "NoMetricToWithdraw",
      "type": "error"
    },
    {
      "inputs": [],
      "name": "RewardsAreNotActive",
      "type": "error"
    },
    {
      "inputs": [],
      "name": "RewardsNotActive",
      "type": "error"
    },
    {
      "anonymous": false,
      "inputs": [
        {
          "indexed": true,
          "internalType": "address",
          "name": "harvester",
          "type": "address"
        },
        {
          "components": [
            {
              "internalType": "uint256",
              "name": "shares",
              "type": "uint256"
            },
            {
              "internalType": "uint256",
              "name": "lifetimeEarnings",
              "type": "uint256"
            },
            {
              "internalType": "uint256",
              "name": "claimable",
              "type": "uint256"
            }
          ],
          "indexed": false,
          "internalType": "struct StakingChef.Staker",
          "name": "",
          "type": "tuple"
        },
        {
          "indexed": false,
          "internalType": "uint256",
          "name": "amount",
          "type": "uint256"
        }
      ],
      "name": "Claim",
      "type": "event"
    },
    {
      "anonymous": false,
      "inputs": [
        {
          "indexed": true,
          "internalType": "address",
          "name": "harvester",
          "type": "address"
        },
        {
          "indexed": false,
          "internalType": "uint256",
          "name": "agIndex",
          "type": "uint256"
        },
        {
          "indexed": false,
          "internalType": "uint256",
          "name": "amount",
          "type": "uint256"
        }
      ],
      "name": "Harvest",
      "type": "event"
    },
    {
      "anonymous": false,
      "inputs": [
        {
          "indexed": true,
          "internalType": "address",
          "name": "previousOwner",
          "type": "address"
        },
        {
          "indexed": true,
          "internalType": "address",
          "name": "newOwner",
          "type": "address"
        }
      ],
      "name": "OwnershipTransferred",
      "type": "event"
    },
    {
      "anonymous": false,
      "inputs": [
        {
          "indexed": true,
          "internalType": "address",
          "name": "staker",
          "type": "address"
        },
        {
          "indexed": false,
          "internalType": "uint256",
          "name": "amount",
          "type": "uint256"
        }
      ],
      "name": "Stake",
      "type": "event"
    },
    {
      "anonymous": false,
      "inputs": [
        {
          "indexed": true,
          "internalType": "address",
          "name": "withdrawer",
          "type": "address"
        },
        {
          "components": [
            {
              "internalType": "uint256",
              "name": "shares",
              "type": "uint256"
            },
            {
              "internalType": "uint256",
              "name": "lifetimeEarnings",
              "type": "uint256"
            },
            {
              "internalType": "uint256",
              "name": "claimable",
              "type": "uint256"
            }
          ],
          "indexed": false,
          "internalType": "struct StakingChef.Staker",
          "name": "",
          "type": "tuple"
        },
        {
          "indexed": false,
          "internalType": "uint256",
          "name": "amount",
          "type": "uint256"
        }
      ],
      "name": "UnStake",
      "type": "event"
    },
    {
      "anonymous": false,
      "inputs": [
        {
          "indexed": true,
          "internalType": "address",
          "name": "withdrawer",
          "type": "address"
        },
        {
          "indexed": false,
          "internalType": "uint256",
          "name": "agIndex",
          "type": "uint256"
        },
        {
          "indexed": false,
          "internalType": "uint256",
          "name": "amount",
          "type": "uint256"
        }
      ],
      "name": "Withdraw",
      "type": "event"
    },
    {
      "inputs": [],
      "name": "ACC_METRIC_PRECISION",
      "outputs": [
        {
          "internalType": "uint256",
          "name": "",
          "type": "uint256"
        }
      ],
      "stateMutability": "view",
      "type": "function"
    },
    {
      "inputs": [
        {
          "internalType": "uint256",
          "name": "accumulatedWithPrecision",
          "type": "uint256"
        }
      ],
      "name": "accumulatedMetricDividedByShares",
      "outputs": [
        {
          "internalType": "uint256",
          "name": "",
          "type": "uint256"
        }
      ],
      "stateMutability": "view",
      "type": "function"
    },
    {
      "inputs": [
        {
          "internalType": "address",
          "name": "",
          "type": "address"
        }
      ],
      "name": "addressExistence",
      "outputs": [
        {
          "internalType": "bool",
          "name": "",
          "type": "bool"
        }
      ],
      "stateMutability": "view",
      "type": "function"
    },
    {
      "inputs": [],
      "name": "areRewardsActive",
      "outputs": [
        {
          "internalType": "bool",
          "name": "",
          "type": "bool"
        }
      ],
      "stateMutability": "view",
      "type": "function"
    },
    {
      "inputs": [],
      "name": "claim",
      "outputs": [],
      "stateMutability": "nonpayable",
      "type": "function"
    },
    {
      "inputs": [],
      "name": "getLastRewardBlock",
      "outputs": [
        {
          "internalType": "uint256",
          "name": "",
          "type": "uint256"
        }
      ],
      "stateMutability": "view",
      "type": "function"
    },
    {
      "inputs": [],
      "name": "getLifeTimeShareValueEstimate",
      "outputs": [
        {
          "internalType": "uint256",
          "name": "",
          "type": "uint256"
        }
      ],
      "stateMutability": "view",
      "type": "function"
    },
    {
      "inputs": [],
      "name": "getMetricPerBlock",
      "outputs": [
        {
          "internalType": "uint256",
          "name": "",
          "type": "uint256"
        }
      ],
      "stateMutability": "view",
      "type": "function"
    },
    {
      "inputs": [],
      "name": "getMetricToken",
      "outputs": [
        {
          "internalType": "contract MetricToken",
          "name": "",
          "type": "address"
        }
      ],
      "stateMutability": "view",
      "type": "function"
    },
    {
      "inputs": [],
      "name": "getStake",
      "outputs": [
        {
          "components": [
            {
              "internalType": "uint256",
              "name": "shares",
              "type": "uint256"
            },
            {
              "internalType": "uint256",
              "name": "lifetimeEarnings",
              "type": "uint256"
            },
            {
              "internalType": "uint256",
              "name": "claimable",
              "type": "uint256"
            }
          ],
          "internalType": "struct StakingChef.Staker",
          "name": "",
          "type": "tuple"
        }
      ],
      "stateMutability": "view",
      "type": "function"
    },
    {
      "inputs": [],
      "name": "getTotalAllocationShares",
      "outputs": [
        {
          "internalType": "uint256",
          "name": "",
          "type": "uint256"
        }
      ],
      "stateMutability": "view",
      "type": "function"
    },
    {
      "inputs": [],
      "name": "owner",
      "outputs": [
        {
          "internalType": "address",
          "name": "",
          "type": "address"
        }
      ],
      "stateMutability": "view",
      "type": "function"
    },
    {
      "inputs": [],
      "name": "renounceOwnership",
      "outputs": [],
      "stateMutability": "view",
      "type": "function"
    },
    {
      "inputs": [],
      "name": "setLifetimeShareValue",
      "outputs": [],
      "stateMutability": "nonpayable",
      "type": "function"
    },
    {
      "inputs": [
        {
          "internalType": "uint256",
          "name": "metricAmount",
          "type": "uint256"
        }
      ],
      "name": "setMetricPerBlock",
      "outputs": [],
      "stateMutability": "nonpayable",
      "type": "function"
    },
    {
      "inputs": [
        {
          "internalType": "address",
          "name": "metricTokenAddress",
          "type": "address"
        }
      ],
      "name": "setMetricToken",
      "outputs": [],
      "stateMutability": "nonpayable",
      "type": "function"
    },
    {
      "inputs": [
        {
          "internalType": "uint256",
          "name": "metricAmount",
          "type": "uint256"
        }
      ],
      "name": "stakeMetric",
      "outputs": [],
      "stateMutability": "nonpayable",
      "type": "function"
    },
    {
      "inputs": [
        {
          "internalType": "address",
          "name": "",
          "type": "address"
        }
      ],
      "name": "staker",
      "outputs": [
        {
          "internalType": "uint256",
          "name": "shares",
          "type": "uint256"
        },
        {
          "internalType": "uint256",
          "name": "lifetimeEarnings",
          "type": "uint256"
        },
        {
          "internalType": "uint256",
          "name": "claimable",
          "type": "uint256"
        }
      ],
      "stateMutability": "view",
      "type": "function"
    },
    {
      "inputs": [
        {
          "internalType": "bool",
          "name": "isOn",
          "type": "bool"
        }
      ],
      "name": "toggleRewards",
      "outputs": [],
      "stateMutability": "nonpayable",
      "type": "function"
    },
    {
      "inputs": [
        {
          "internalType": "address",
          "name": "newOwner",
          "type": "address"
        }
      ],
      "name": "transferOwnership",
      "outputs": [],
      "stateMutability": "nonpayable",
      "type": "function"
    },
    {
      "inputs": [],
      "name": "unStakeMetric",
      "outputs": [],
      "stateMutability": "nonpayable",
      "type": "function"
    },
    {
      "inputs": [],
      "name": "updateAccumulatedStakingRewards",
      "outputs": [],
      "stateMutability": "nonpayable",
      "type": "function"
    },
    {
      "inputs": [],
      "name": "viewPendingClaims",
      "outputs": [
        {
          "internalType": "uint256",
          "name": "",
          "type": "uint256"
        }
      ],
      "stateMutability": "view",
      "type": "function"
    },
    {
      "inputs": [],
      "name": "viewPendingHarvest",
      "outputs": [
        {
          "internalType": "uint256",
          "name": "",
          "type": "uint256"
        }
      ],
      "stateMutability": "view",
      "type": "function"
    }
  ],
  "transactionHash": "0xde1123ad65ce97950c9547a6928a27f96b466a4ab78362bec3347a640a9a0f34",
  "args": [
    "0x0165878A594ca255338adfa4d48449f69242Eb8F"
  ],
  "numDeployments": 1,
  "solcInputHash": "317fd9e8321b5dc84c3d6b3e414237e0",
  "bytecode": "0x60806040523480156200001157600080fd5b506040516200261038038062002610833981810160405281019062000037919062000438565b620000576200004b6200009360201b60201c565b6200009b60201b60201c565b62000068816200015f60201b60201c565b6200007a60046200023260201b60201c565b6200008c6000620002e060201b60201c565b5062000587565b600033905090565b60008060009054906101000a900473ffffffffffffffffffffffffffffffffffffffff169050816000806101000a81548173ffffffffffffffffffffffffffffffffffffffff021916908373ffffffffffffffffffffffffffffffffffffffff1602179055508173ffffffffffffffffffffffffffffffffffffffff168173ffffffffffffffffffffffffffffffffffffffff167f8be0079c531659141344cd1fd0a4f28419497f9722a3daafe3b4186f6b6457e060405160405180910390a35050565b6200016f6200009360201b60201c565b73ffffffffffffffffffffffffffffffffffffffff16620001956200039c60201b60201c565b73ffffffffffffffffffffffffffffffffffffffff1614620001ee576040517f08c379a0000000000000000000000000000000000000000000000000000000008152600401620001e590620004cb565b60405180910390fd5b80600660006101000a81548173ffffffffffffffffffffffffffffffffffffffff021916908373ffffffffffffffffffffffffffffffffffffffff16021790555050565b620002426200009360201b60201c565b73ffffffffffffffffffffffffffffffffffffffff16620002686200039c60201b60201c565b73ffffffffffffffffffffffffffffffffffffffff1614620002c1576040517f08c379a0000000000000000000000000000000000000000000000000000000008152600401620002b890620004cb565b60405180910390fd5b670de0b6b3a764000081620002d7919062000526565b60018190555050565b620002f06200009360201b60201c565b73ffffffffffffffffffffffffffffffffffffffff16620003166200039c60201b60201c565b73ffffffffffffffffffffffffffffffffffffffff16146200036f576040517f08c379a00000000000000000000000000000000000000000000000000000000081526004016200036690620004cb565b60405180910390fd5b80600260006101000a81548160ff02191690831515021790555062000399620003c560201b60201c565b50565b60008060009054906101000a900473ffffffffffffffffffffffffffffffffffffffff16905090565b43600381905550565b600080fd5b600073ffffffffffffffffffffffffffffffffffffffff82169050919050565b60006200040082620003d3565b9050919050565b6200041281620003f3565b81146200041e57600080fd5b50565b600081519050620004328162000407565b92915050565b600060208284031215620004515762000450620003ce565b5b6000620004618482850162000421565b91505092915050565b600082825260208201905092915050565b7f4f776e61626c653a2063616c6c6572206973206e6f7420746865206f776e6572600082015250565b6000620004b36020836200046a565b9150620004c0826200047b565b602082019050919050565b60006020820190508181036000830152620004e681620004a4565b9050919050565b6000819050919050565b7f4e487b7100000000000000000000000000000000000000000000000000000000600052601160045260246000fd5b60006200053382620004ed565b91506200054083620004ed565b9250817fffffffffffffffffffffffffffffffffffffffffffffffffffffffffffffffff04831182151516156200057c576200057b620004f7565b5b828202905092915050565b61207980620005976000396000f3fe608060405234801561001057600080fd5b50600436106101585760003560e01c80638c19ec8b116100c3578063c5d836d91161007c578063c5d836d914610359578063d944cb7a14610377578063e2eb5c4714610395578063f2fde38b1461039f578063f33c9baa146103bb578063fc0e3d90146103d957610158565b80638c19ec8b146102ab5780638da5cb5b146102c7578063945c5287146102e5578063a8e2a38b14610301578063bf62bee61461031f578063c284b8bc1461033d57610158565b80634e71d92d116101155780634e71d92d1461021f5780635e175713146102295780635f9b1bb5146102475780636ac49a8914610251578063715018a61461026f57806382e4eda41461027957610158565b80630419ba051461015d5780631cd8f0fa1461017b5780631e718d271461019757806322abbddf146101c757806349ba013b146101f75780634be6811714610215575b600080fd5b6101656103f7565b60405161017291906116ee565b60405180910390f35b6101956004803603810190610190919061173a565b61042b565b005b6101b160048036038101906101ac919061173a565b6104c4565b6040516101be91906116ee565b60405180910390f35b6101e160048036038101906101dc91906117c5565b610520565b6040516101ee919061180d565b60405180910390f35b6101ff610540565b60405161020c91906116ee565b60405180910390f35b61021d610596565b005b6102276105ee565b005b610231610708565b60405161023e91906116ee565b60405180910390f35b61024f610712565b005b610259610783565b60405161026691906116ee565b60405180910390f35b61027761078c565b005b610293600480360381019061028e91906117c5565b61083a565b6040516102a293929190611828565b60405180910390f35b6102c560048036038101906102c0919061188b565b610864565b005b6102cf610905565b6040516102dc91906118c7565b60405180910390f35b6102ff60048036038101906102fa91906117c5565b61092e565b005b6103096109ee565b6040516103169190611941565b60405180910390f35b610327610a18565b60405161033491906116ee565b60405180910390f35b6103576004803603810190610352919061173a565b610a22565b005b610361610c11565b60405161036e91906116ee565b60405180910390f35b61037f610c1b565b60405161038c91906116ee565b60405180910390f35b61039d610ca2565b005b6103b960048036038101906103b491906117c5565b610ef1565b005b6103c3610fe8565b6040516103d0919061180d565b60405180910390f35b6103e1610fff565b6040516103ee91906119ad565b60405180910390f35b600080610402611081565b9050600061040e6110c8565b9050610419826104c4565b8161042491906119f7565b9250505090565b6104336110d2565b73ffffffffffffffffffffffffffffffffffffffff16610451610905565b73ffffffffffffffffffffffffffffffffffffffff16146104a7576040517f08c379a000000000000000000000000000000000000000000000000000000000815260040161049e90611aaa565b60405180910390fd5b670de0b6b3a7640000816104bb9190611aca565b60018190555050565b6000806104cf610708565b03610506576040517f8c88122d00000000000000000000000000000000000000000000000000000000815260040160405180910390fd5b61050e610708565b826105199190611b53565b9050919050565b60076020528060005260406000206000915054906101000a900460ff1681565b6000806008600061054f6110d2565b73ffffffffffffffffffffffffffffffffffffffff1673ffffffffffffffffffffffffffffffffffffffff1681526020019081526020016000209050806002015491505090565b61059e610fe8565b6105d4576040517fa550df7300000000000000000000000000000000000000000000000000000000815260040160405180910390fd5b6105dc610a18565b4311156105ec576105eb610712565b5b565b60006105f8610c1b565b0361062f576040517fd1d47f3c00000000000000000000000000000000000000000000000000000000815260040160405180910390fd5b60006008600061063d6110d2565b73ffffffffffffffffffffffffffffffffffffffff1673ffffffffffffffffffffffffffffffffffffffff16815260200190815260200160002090506106816110da565b600081600201549050600082600201819055506106ad61069f6109ee565b6106a76110d2565b836111f1565b6106b56110d2565b73ffffffffffffffffffffffffffffffffffffffff167ff81a6933f785b7bfc6ba5e83b98ae1eed8fc79e789cd7ce550d884d6fc7f213c83836040516106fc929190611c1a565b60405180910390a25050565b6000600554905090565b61071a610fe8565b610750576040517faa3aac7f00000000000000000000000000000000000000000000000000000000815260040160405180910390fd5b600061075a611081565b9050610765816104c4565b60045461077291906119f7565b600481905550610780611277565b50565b64e8d4a5100081565b6107946110d2565b73ffffffffffffffffffffffffffffffffffffffff166107b2610905565b73ffffffffffffffffffffffffffffffffffffffff1614610808576040517f08c379a00000000000000000000000000000000000000000000000000000000081526004016107ff90611aaa565b60405180910390fd5b6040517fc5fea89800000000000000000000000000000000000000000000000000000000815260040160405180910390fd5b60086020528060005260406000206000915090508060000154908060010154908060020154905083565b61086c6110d2565b73ffffffffffffffffffffffffffffffffffffffff1661088a610905565b73ffffffffffffffffffffffffffffffffffffffff16146108e0576040517f08c379a00000000000000000000000000000000000000000000000000000000081526004016108d790611aaa565b60405180910390fd5b80600260006101000a81548160ff021916908315150217905550610902611277565b50565b60008060009054906101000a900473ffffffffffffffffffffffffffffffffffffffff16905090565b6109366110d2565b73ffffffffffffffffffffffffffffffffffffffff16610954610905565b73ffffffffffffffffffffffffffffffffffffffff16146109aa576040517f08c379a00000000000000000000000000000000000000000000000000000000081526004016109a190611aaa565b60405180910390fd5b80600660006101000a81548173ffffffffffffffffffffffffffffffffffffffff021916908373ffffffffffffffffffffffffffffffffffffffff16021790555050565b6000600660009054906101000a900473ffffffffffffffffffffffffffffffffffffffff16905090565b6000600354905090565b60008111610a5c576040517fc13151dd00000000000000000000000000000000000000000000000000000000815260040160405180910390fd5b600060086000610a6a6110d2565b73ffffffffffffffffffffffffffffffffffffffff1673ffffffffffffffffffffffffffffffffffffffff1681526020019081526020016000209050610aae610fe8565b8015610ac157506000610abf610708565b115b15610acf57610ace610596565b5b6040518060600160405280838360000154610aea91906119f7565b815260200164e8d4a51000610afd6110c8565b85610b089190611aca565b610b129190611b53565b8360010154610b2191906119f7565b8152602001826002015481525060086000610b3a6110d2565b73ffffffffffffffffffffffffffffffffffffffff1673ffffffffffffffffffffffffffffffffffffffff168152602001908152602001600020600082015181600001556020820151816001015560408201518160020155905050610b9e82611280565b610ba66110d2565b73ffffffffffffffffffffffffffffffffffffffff167febedb8b3c678666e7f36970bc8f57abf6d8fa2e828c0da91ea5b75bf68ed101a83604051610beb91906116ee565b60405180910390a2610c0d610bfe6109ee565b610c066110d2565b3085611297565b5050565b6000600154905090565b60008060086000610c2a6110d2565b73ffffffffffffffffffffffffffffffffffffffff1673ffffffffffffffffffffffffffffffffffffffff1681526020019081526020016000209050806001015464e8d4a51000610c796110c8565b8360000154610c889190611aca565b610c929190611b53565b610c9c9190611c43565b91505090565b600060086000610cb06110d2565b73ffffffffffffffffffffffffffffffffffffffff1673ffffffffffffffffffffffffffffffffffffffff16815260200190815260200160002090506000816000015403610d2a576040517f4b0aa74e00000000000000000000000000000000000000000000000000000000815260040160405180910390fd5b610d32610fe8565b15610d4057610d3f610596565b5b610d486110da565b600060086000610d566110d2565b73ffffffffffffffffffffffffffffffffffffffff1673ffffffffffffffffffffffffffffffffffffffff168152602001908152602001600020600201549050600082600001549050610df160086000610dae6110d2565b73ffffffffffffffffffffffffffffffffffffffff1673ffffffffffffffffffffffffffffffffffffffff16815260200190815260200160002060000154611320565b6000836000018190555060008282610e0991906119f7565b1115610e8b57610e33610e1a6109ee565b610e226110d2565b8484610e2e91906119f7565b6111f1565b610e3b6110d2565b73ffffffffffffffffffffffffffffffffffffffff167ff35c1aa3d74cd6f4eb244ea6dbb896ff2bcf5e45427ae2bdc1395b85ad2983868483604051610e82929190611c1a565b60405180910390a25b6000821115610eec57610e9c6110d2565b73ffffffffffffffffffffffffffffffffffffffff167ff81a6933f785b7bfc6ba5e83b98ae1eed8fc79e789cd7ce550d884d6fc7f213c8483604051610ee3929190611c1a565b60405180910390a25b505050565b610ef96110d2565b73ffffffffffffffffffffffffffffffffffffffff16610f17610905565b73ffffffffffffffffffffffffffffffffffffffff1614610f6d576040517f08c379a0000000000000000000000000000000000000000000000000000000008152600401610f6490611aaa565b60405180910390fd5b600073ffffffffffffffffffffffffffffffffffffffff168173ffffffffffffffffffffffffffffffffffffffff1603610fdc576040517f08c379a0000000000000000000000000000000000000000000000000000000008152600401610fd390611ce9565b60405180910390fd5b610fe581611373565b50565b6000600260009054906101000a900460ff16905090565b6110076116b4565b6000600860006110156110d2565b73ffffffffffffffffffffffffffffffffffffffff1673ffffffffffffffffffffffffffffffffffffffff168152602001908152602001600020905080604051806060016040529081600082015481526020016001820154815260200160028201548152505091505090565b60008061108c610a18565b436110979190611c43565b905060006110a3610c11565b826110ae9190611aca565b905064e8d4a51000816110c19190611aca565b9250505090565b6000600454905090565b600033905090565b6000600860006110e86110d2565b73ffffffffffffffffffffffffffffffffffffffff1673ffffffffffffffffffffffffffffffffffffffff168152602001908152602001600020905061112c610596565b6000816001015464e8d4a510006111416110c8565b84600001546111509190611aca565b61115a9190611b53565b6111649190611c43565b905080826001015461117691906119f7565b826001018190555080826002015461118e91906119f7565b826002018190555061119e6110d2565b73ffffffffffffffffffffffffffffffffffffffff167ff81a6933f785b7bfc6ba5e83b98ae1eed8fc79e789cd7ce550d884d6fc7f213c83836040516111e5929190611c1a565b60405180910390a25050565b6112728363a9059cbb60e01b8484604051602401611210929190611d09565b604051602081830303815290604052907bffffffffffffffffffffffffffffffffffffffffffffffffffffffff19166020820180517bffffffffffffffffffffffffffffffffffffffffffffffffffffffff8381831617835250505050611437565b505050565b43600381905550565b8060055461128e91906119f7565b60058190555050565b61131a846323b872dd60e01b8585856040516024016112b893929190611d32565b604051602081830303815290604052907bffffffffffffffffffffffffffffffffffffffffffffffffffffffff19166020820180517bffffffffffffffffffffffffffffffffffffffffffffffffffffffff8381831617835250505050611437565b50505050565b60055481111561135c576040517f8c88122d00000000000000000000000000000000000000000000000000000000815260040160405180910390fd5b8060055461136a9190611c43565b60058190555050565b60008060009054906101000a900473ffffffffffffffffffffffffffffffffffffffff169050816000806101000a81548173ffffffffffffffffffffffffffffffffffffffff021916908373ffffffffffffffffffffffffffffffffffffffff1602179055508173ffffffffffffffffffffffffffffffffffffffff168173ffffffffffffffffffffffffffffffffffffffff167f8be0079c531659141344cd1fd0a4f28419497f9722a3daafe3b4186f6b6457e060405160405180910390a35050565b6000611499826040518060400160405280602081526020017f5361666545524332303a206c6f772d6c6576656c2063616c6c206661696c65648152508573ffffffffffffffffffffffffffffffffffffffff166114fe9092919063ffffffff16565b90506000815111156114f957808060200190518101906114b99190611d7e565b6114f8576040517f08c379a00000000000000000000000000000000000000000000000000000000081526004016114ef90611e1d565b60405180910390fd5b5b505050565b606061150d8484600085611516565b90509392505050565b60608247101561155b576040517f08c379a000000000000000000000000000000000000000000000000000000000815260040161155290611eaf565b60405180910390fd5b6115648561162a565b6115a3576040517f08c379a000000000000000000000000000000000000000000000000000000000815260040161159a90611f1b565b60405180910390fd5b6000808673ffffffffffffffffffffffffffffffffffffffff1685876040516115cc9190611fb5565b60006040518083038185875af1925050503d8060008114611609576040519150601f19603f3d011682016040523d82523d6000602084013e61160e565b606091505b509150915061161e82828661164d565b92505050949350505050565b6000808273ffffffffffffffffffffffffffffffffffffffff163b119050919050565b6060831561165d578290506116ad565b6000835111156116705782518084602001fd5b816040517f08c379a00000000000000000000000000000000000000000000000000000000081526004016116a49190612021565b60405180910390fd5b9392505050565b60405180606001604052806000815260200160008152602001600081525090565b6000819050919050565b6116e8816116d5565b82525050565b600060208201905061170360008301846116df565b92915050565b600080fd5b611717816116d5565b811461172257600080fd5b50565b6000813590506117348161170e565b92915050565b6000602082840312156117505761174f611709565b5b600061175e84828501611725565b91505092915050565b600073ffffffffffffffffffffffffffffffffffffffff82169050919050565b600061179282611767565b9050919050565b6117a281611787565b81146117ad57600080fd5b50565b6000813590506117bf81611799565b92915050565b6000602082840312156117db576117da611709565b5b60006117e9848285016117b0565b91505092915050565b60008115159050919050565b611807816117f2565b82525050565b600060208201905061182260008301846117fe565b92915050565b600060608201905061183d60008301866116df565b61184a60208301856116df565b61185760408301846116df565b949350505050565b611868816117f2565b811461187357600080fd5b50565b6000813590506118858161185f565b92915050565b6000602082840312156118a1576118a0611709565b5b60006118af84828501611876565b91505092915050565b6118c181611787565b82525050565b60006020820190506118dc60008301846118b8565b92915050565b6000819050919050565b60006119076119026118fd84611767565b6118e2565b611767565b9050919050565b6000611919826118ec565b9050919050565b600061192b8261190e565b9050919050565b61193b81611920565b82525050565b60006020820190506119566000830184611932565b92915050565b611965816116d5565b82525050565b606082016000820151611981600085018261195c565b506020820151611994602085018261195c565b5060408201516119a7604085018261195c565b50505050565b60006060820190506119c2600083018461196b565b92915050565b7f4e487b7100000000000000000000000000000000000000000000000000000000600052601160045260246000fd5b6000611a02826116d5565b9150611a0d836116d5565b9250827fffffffffffffffffffffffffffffffffffffffffffffffffffffffffffffffff03821115611a4257611a416119c8565b5b828201905092915050565b600082825260208201905092915050565b7f4f776e61626c653a2063616c6c6572206973206e6f7420746865206f776e6572600082015250565b6000611a94602083611a4d565b9150611a9f82611a5e565b602082019050919050565b60006020820190508181036000830152611ac381611a87565b9050919050565b6000611ad5826116d5565b9150611ae0836116d5565b9250817fffffffffffffffffffffffffffffffffffffffffffffffffffffffffffffffff0483118215151615611b1957611b186119c8565b5b828202905092915050565b7f4e487b7100000000000000000000000000000000000000000000000000000000600052601260045260246000fd5b6000611b5e826116d5565b9150611b69836116d5565b925082611b7957611b78611b24565b5b828204905092915050565b60008160001c9050919050565b6000819050919050565b6000611bae611ba983611b84565b611b91565b9050919050565b606082016000808301549050611bca81611b9b565b611bd7600086018261195c565b5060018301549050611be881611b9b565b611bf5602086018261195c565b5060028301549050611c0681611b9b565b611c13604086018261195c565b5050505050565b6000608082019050611c2f6000830185611bb5565b611c3c60608301846116df565b9392505050565b6000611c4e826116d5565b9150611c59836116d5565b925082821015611c6c57611c6b6119c8565b5b828203905092915050565b7f4f776e61626c653a206e6577206f776e657220697320746865207a65726f206160008201527f6464726573730000000000000000000000000000000000000000000000000000602082015250565b6000611cd3602683611a4d565b9150611cde82611c77565b604082019050919050565b60006020820190508181036000830152611d0281611cc6565b9050919050565b6000604082019050611d1e60008301856118b8565b611d2b60208301846116df565b9392505050565b6000606082019050611d4760008301866118b8565b611d5460208301856118b8565b611d6160408301846116df565b949350505050565b600081519050611d788161185f565b92915050565b600060208284031215611d9457611d93611709565b5b6000611da284828501611d69565b91505092915050565b7f5361666545524332303a204552433230206f7065726174696f6e20646964206e60008201527f6f74207375636365656400000000000000000000000000000000000000000000602082015250565b6000611e07602a83611a4d565b9150611e1282611dab565b604082019050919050565b60006020820190508181036000830152611e3681611dfa565b9050919050565b7f416464726573733a20696e73756666696369656e742062616c616e636520666f60008201527f722063616c6c0000000000000000000000000000000000000000000000000000602082015250565b6000611e99602683611a4d565b9150611ea482611e3d565b604082019050919050565b60006020820190508181036000830152611ec881611e8c565b9050919050565b7f416464726573733a2063616c6c20746f206e6f6e2d636f6e7472616374000000600082015250565b6000611f05601d83611a4d565b9150611f1082611ecf565b602082019050919050565b60006020820190508181036000830152611f3481611ef8565b9050919050565b600081519050919050565b600081905092915050565b60005b83811015611f6f578082015181840152602081019050611f54565b83811115611f7e576000848401525b50505050565b6000611f8f82611f3b565b611f998185611f46565b9350611fa9818560208601611f51565b80840191505092915050565b6000611fc18284611f84565b915081905092915050565b600081519050919050565b6000601f19601f8301169050919050565b6000611ff382611fcc565b611ffd8185611a4d565b935061200d818560208601611f51565b61201681611fd7565b840191505092915050565b6000602082019050818103600083015261203b8184611fe8565b90509291505056fea26469706673582212207c79c55d461597e831acc1efe2962bf64e4da805883f4876558e83ec05a0cd7664736f6c634300080d0033",
  "devdoc": {
    "kind": "dev",
    "methods": {
      "owner()": {
        "details": "Returns the address of the current owner."
      },
      "renounceOwnership()": {
        "details": "Leaves the contract without owner. It will not be possible to call `onlyOwner` functions anymore. Can only be called by the current owner. NOTE: Renouncing ownership will leave the contract without an owner, thereby removing any functionality that is only available to the owner."
      },
      "transferOwnership(address)": {
        "details": "Transfers ownership of the contract to a new account (`newOwner`). Can only be called by the current owner."
      }
    },
    "version": 1
  },
  "userdoc": {
    "kind": "user",
    "methods": {},
    "version": 1
  },
  "storageLayout": {
    "storage": [
      {
        "astId": 7,
        "contract": "src/contracts/StakingChef.sol:StakingChef",
        "label": "_owner",
        "offset": 0,
        "slot": "0",
        "type": "t_address"
      },
      {
        "astId": 3343,
        "contract": "src/contracts/StakingChef.sol:StakingChef",
        "label": "_metricPerBlock",
        "offset": 0,
        "slot": "1",
        "type": "t_uint256"
      },
      {
        "astId": 3348,
        "contract": "src/contracts/StakingChef.sol:StakingChef",
        "label": "_rewardsActive",
        "offset": 0,
        "slot": "2",
        "type": "t_bool"
      },
      {
        "astId": 3350,
        "contract": "src/contracts/StakingChef.sol:StakingChef",
        "label": "_lastRewardBlock",
        "offset": 0,
        "slot": "3",
        "type": "t_uint256"
      },
      {
        "astId": 3352,
        "contract": "src/contracts/StakingChef.sol:StakingChef",
        "label": "_lifetimeShareValue",
        "offset": 0,
        "slot": "4",
        "type": "t_uint256"
      },
      {
        "astId": 3354,
        "contract": "src/contracts/StakingChef.sol:StakingChef",
        "label": "_totalAllocShares",
        "offset": 0,
        "slot": "5",
        "type": "t_uint256"
      },
      {
        "astId": 3357,
        "contract": "src/contracts/StakingChef.sol:StakingChef",
        "label": "metric",
        "offset": 0,
        "slot": "6",
        "type": "t_contract(MetricToken)3716"
      },
      {
        "astId": 3608,
        "contract": "src/contracts/StakingChef.sol:StakingChef",
        "label": "addressExistence",
        "offset": 0,
        "slot": "7",
        "type": "t_mapping(t_address,t_bool)"
      },
      {
        "astId": 5091,
        "contract": "src/contracts/StakingChef.sol:StakingChef",
        "label": "staker",
        "offset": 0,
        "slot": "8",
        "type": "t_mapping(t_address,t_struct(Staker)5487_storage)"
      }
    ],
    "types": {
      "t_address": {
        "encoding": "inplace",
        "label": "address",
        "numberOfBytes": "20"
      },
      "t_bool": {
        "encoding": "inplace",
        "label": "bool",
        "numberOfBytes": "1"
      },
      "t_contract(MetricToken)3716": {
        "encoding": "inplace",
        "label": "contract MetricToken",
        "numberOfBytes": "20"
      },
      "t_mapping(t_address,t_bool)": {
        "encoding": "mapping",
        "key": "t_address",
        "label": "mapping(address => bool)",
        "numberOfBytes": "32",
        "value": "t_bool"
      },
      "t_mapping(t_address,t_struct(Staker)5487_storage)": {
        "encoding": "mapping",
        "key": "t_address",
        "label": "mapping(address => struct StakingChef.Staker)",
        "numberOfBytes": "32",
        "value": "t_struct(Staker)5487_storage"
      },
      "t_struct(Staker)5487_storage": {
        "encoding": "inplace",
        "label": "struct StakingChef.Staker",
        "members": [
          {
            "astId": 5482,
            "contract": "src/contracts/StakingChef.sol:StakingChef",
            "label": "shares",
            "offset": 0,
            "slot": "0",
            "type": "t_uint256"
          },
          {
            "astId": 5484,
            "contract": "src/contracts/StakingChef.sol:StakingChef",
            "label": "lifetimeEarnings",
            "offset": 0,
            "slot": "1",
            "type": "t_uint256"
          },
          {
            "astId": 5486,
            "contract": "src/contracts/StakingChef.sol:StakingChef",
            "label": "claimable",
            "offset": 0,
            "slot": "2",
            "type": "t_uint256"
          }
        ],
        "numberOfBytes": "96"
      },
      "t_uint256": {
        "encoding": "inplace",
        "label": "uint256",
        "numberOfBytes": "32"
      }
    }
  }
}