{
  "address": "0xe7f1725E7734CE288F8367e1Bb143E90bb3F0512",
  "abi": [
    {
      "inputs": [
        {
          "internalType": "address",
          "name": "metricTokenAddress",
          "type": "address"
        }
      ],
      "stateMutability": "nonpayable",
      "type": "constructor"
    },
    {
      "inputs": [],
      "name": "IndexDoesNotMatchAllocation",
      "type": "error"
    },
    {
      "inputs": [],
      "name": "NoClaimableRewardToWithdraw",
      "type": "error"
    },
    {
      "inputs": [],
      "name": "NoRewardsToClaim",
      "type": "error"
    },
    {
      "inputs": [],
      "name": "RewardsInactive",
      "type": "error"
    },
    {
      "inputs": [],
      "name": "SenderDoesNotRepresentGroup",
      "type": "error"
    },
    {
      "inputs": [],
      "name": "SenderNotOwner",
      "type": "error"
    },
    {
      "inputs": [],
      "name": "SharesNotGreaterThanZero",
      "type": "error"
    },
    {
      "anonymous": false,
      "inputs": [
        {
          "indexed": false,
          "internalType": "address",
          "name": "harvester",
          "type": "address"
        },
        {
          "indexed": false,
          "internalType": "uint256",
          "name": "agIndex",
          "type": "uint256"
        },
        {
          "indexed": false,
          "internalType": "uint256",
          "name": "amount",
          "type": "uint256"
        }
      ],
      "name": "Harvest",
      "type": "event"
    },
    {
      "anonymous": false,
      "inputs": [
        {
          "indexed": true,
          "internalType": "address",
          "name": "previousOwner",
          "type": "address"
        },
        {
          "indexed": true,
          "internalType": "address",
          "name": "newOwner",
          "type": "address"
        }
      ],
      "name": "OwnershipTransferred",
      "type": "event"
    },
    {
      "anonymous": false,
      "inputs": [
        {
          "indexed": false,
          "internalType": "address",
          "name": "withdrawer",
          "type": "address"
        },
        {
          "indexed": false,
          "internalType": "uint256",
          "name": "agIndex",
          "type": "uint256"
        },
        {
          "indexed": false,
          "internalType": "uint256",
          "name": "amount",
          "type": "uint256"
        }
      ],
      "name": "Withdraw",
      "type": "event"
    },
    {
      "inputs": [],
      "name": "ACC_METRIC_PRECISION",
      "outputs": [
        {
          "internalType": "uint256",
          "name": "",
          "type": "uint256"
        }
      ],
      "stateMutability": "view",
      "type": "function"
    },
    {
      "inputs": [
        {
          "internalType": "uint256",
          "name": "accumulatedWithPrecision",
          "type": "uint256"
        }
      ],
      "name": "accumulatedMetricDividedByShares",
      "outputs": [
        {
          "internalType": "uint256",
          "name": "",
          "type": "uint256"
        }
      ],
      "stateMutability": "view",
      "type": "function"
    },
    {
      "inputs": [
        {
          "internalType": "address",
          "name": "newAddress",
          "type": "address"
        },
        {
          "internalType": "uint256",
          "name": "newShares",
          "type": "uint256"
        },
        {
          "internalType": "bool",
          "name": "newAutoDistribute",
          "type": "bool"
        }
      ],
      "name": "addAllocationGroup",
      "outputs": [],
      "stateMutability": "nonpayable",
      "type": "function"
    },
    {
      "inputs": [
        {
          "internalType": "address",
          "name": "",
          "type": "address"
        }
      ],
      "name": "addressExistence",
      "outputs": [
        {
          "internalType": "bool",
          "name": "",
          "type": "bool"
        }
      ],
      "stateMutability": "view",
      "type": "function"
    },
    {
      "inputs": [],
      "name": "areRewardsActive",
      "outputs": [
        {
          "internalType": "bool",
          "name": "",
          "type": "bool"
        }
      ],
      "stateMutability": "view",
      "type": "function"
    },
    {
      "inputs": [
        {
          "internalType": "uint256",
          "name": "agIndex",
          "type": "uint256"
        }
      ],
      "name": "claim",
      "outputs": [],
      "stateMutability": "nonpayable",
      "type": "function"
    },
    {
      "inputs": [],
      "name": "getAllocationGroups",
      "outputs": [
        {
          "components": [
            {
              "internalType": "address",
              "name": "groupAddress",
              "type": "address"
            },
            {
              "internalType": "uint256",
              "name": "shares",
              "type": "uint256"
            },
            {
              "internalType": "bool",
              "name": "autodistribute",
              "type": "bool"
            },
            {
              "internalType": "uint256",
              "name": "rewardDebt",
              "type": "uint256"
            },
            {
              "internalType": "uint256",
              "name": "claimable",
              "type": "uint256"
            }
          ],
          "internalType": "struct TopChef.AllocationGroup[]",
          "name": "",
          "type": "tuple[]"
        }
      ],
      "stateMutability": "view",
      "type": "function"
    },
    {
      "inputs": [],
      "name": "getLastRewardBlock",
      "outputs": [
        {
          "internalType": "uint256",
          "name": "",
          "type": "uint256"
        }
      ],
      "stateMutability": "view",
      "type": "function"
    },
    {
      "inputs": [],
      "name": "getLifeTimeShareValueEstimate",
      "outputs": [
        {
          "internalType": "uint256",
          "name": "",
          "type": "uint256"
        }
      ],
      "stateMutability": "view",
      "type": "function"
    },
    {
      "inputs": [],
      "name": "getMetricPerBlock",
      "outputs": [
        {
          "internalType": "uint256",
          "name": "",
          "type": "uint256"
        }
      ],
      "stateMutability": "view",
      "type": "function"
    },
    {
      "inputs": [],
      "name": "getMetricToken",
      "outputs": [
        {
          "internalType": "contract MetricToken",
          "name": "",
          "type": "address"
        }
      ],
      "stateMutability": "view",
      "type": "function"
    },
    {
      "inputs": [],
      "name": "getTotalAllocationShares",
      "outputs": [
        {
          "internalType": "uint256",
          "name": "",
          "type": "uint256"
        }
      ],
      "stateMutability": "view",
      "type": "function"
    },
    {
      "inputs": [
        {
          "internalType": "uint256",
          "name": "agIndex",
          "type": "uint256"
        }
      ],
      "name": "harvest",
      "outputs": [
        {
          "internalType": "uint256",
          "name": "",
          "type": "uint256"
        }
      ],
      "stateMutability": "nonpayable",
      "type": "function"
    },
    {
      "inputs": [],
      "name": "harvestAll",
      "outputs": [],
      "stateMutability": "nonpayable",
      "type": "function"
    },
    {
      "inputs": [],
      "name": "owner",
      "outputs": [
        {
          "internalType": "address",
          "name": "",
          "type": "address"
        }
      ],
      "stateMutability": "view",
      "type": "function"
    },
    {
      "inputs": [
        {
          "internalType": "uint256",
          "name": "agIndex",
          "type": "uint256"
        }
      ],
      "name": "removeAllocationGroup",
      "outputs": [],
      "stateMutability": "nonpayable",
      "type": "function"
    },
    {
      "inputs": [],
      "name": "renounceOwnership",
      "outputs": [],
      "stateMutability": "nonpayable",
      "type": "function"
    },
    {
      "inputs": [],
      "name": "setLifetimeShareValue",
      "outputs": [],
      "stateMutability": "nonpayable",
      "type": "function"
    },
    {
      "inputs": [
        {
          "internalType": "uint256",
          "name": "metricAmount",
          "type": "uint256"
        }
      ],
      "name": "setMetricPerBlock",
      "outputs": [],
      "stateMutability": "nonpayable",
      "type": "function"
    },
    {
      "inputs": [
        {
          "internalType": "address",
          "name": "metricTokenAddress",
          "type": "address"
        }
      ],
      "name": "setMetricToken",
      "outputs": [],
      "stateMutability": "nonpayable",
      "type": "function"
    },
    {
      "inputs": [
        {
          "internalType": "bool",
          "name": "isOn",
          "type": "bool"
        }
      ],
      "name": "toggleRewards",
      "outputs": [],
      "stateMutability": "nonpayable",
      "type": "function"
    },
    {
      "inputs": [
        {
          "internalType": "address",
          "name": "newOwner",
          "type": "address"
        }
      ],
      "name": "transferOwnership",
      "outputs": [],
      "stateMutability": "nonpayable",
      "type": "function"
    },
    {
      "inputs": [],
      "name": "updateAccumulatedAllocations",
      "outputs": [],
      "stateMutability": "nonpayable",
      "type": "function"
    },
    {
      "inputs": [
        {
          "internalType": "address",
          "name": "groupAddress",
          "type": "address"
        },
        {
          "internalType": "uint256",
          "name": "agIndex",
          "type": "uint256"
        },
        {
          "internalType": "uint256",
          "name": "shares",
          "type": "uint256"
        },
        {
          "internalType": "bool",
          "name": "newAutoDistribute",
          "type": "bool"
        }
      ],
      "name": "updateAllocationGroup",
      "outputs": [],
      "stateMutability": "nonpayable",
      "type": "function"
    },
    {
      "inputs": [
        {
          "internalType": "uint256",
          "name": "agIndex",
          "type": "uint256"
        }
      ],
      "name": "viewPendingClaims",
      "outputs": [
        {
          "internalType": "uint256",
          "name": "",
          "type": "uint256"
        }
      ],
      "stateMutability": "view",
      "type": "function"
    },
    {
      "inputs": [
        {
          "internalType": "uint256",
          "name": "agIndex",
          "type": "uint256"
        }
      ],
      "name": "viewPendingHarvest",
      "outputs": [
        {
          "internalType": "uint256",
          "name": "",
          "type": "uint256"
        }
      ],
      "stateMutability": "view",
      "type": "function"
    },
    {
      "inputs": [
        {
          "internalType": "uint256",
          "name": "agIndex",
          "type": "uint256"
        }
      ],
      "name": "viewPendingRewards",
      "outputs": [
        {
          "internalType": "uint256",
          "name": "",
          "type": "uint256"
        }
      ],
      "stateMutability": "view",
      "type": "function"
    }
  ],
  "transactionHash": "0xe69318441ea72bbf7ed2f41a6c925dc5a5dd9c7319217b5718d0b70853f3bf8d",
  "args": [
    "0x5FbDB2315678afecb367f032d93F642f64180aa3"
  ],
  "numDeployments": 1,
  "solcInputHash": "a7609c9c4cb77abe77e47fa162203985",
  "bytecode": "0x60806040523480156200001157600080fd5b5060405162002eed38038062002eed83398181016040528101906200003791906200043a565b620000576200004b6200009360201b60201c565b6200009b60201b60201c565b62000068816200015f60201b60201c565b6200007a60046200023260201b60201c565b6200008c6000620002e060201b60201c565b5062000589565b600033905090565b60008060009054906101000a900473ffffffffffffffffffffffffffffffffffffffff169050816000806101000a81548173ffffffffffffffffffffffffffffffffffffffff021916908373ffffffffffffffffffffffffffffffffffffffff1602179055508173ffffffffffffffffffffffffffffffffffffffff168173ffffffffffffffffffffffffffffffffffffffff167f8be0079c531659141344cd1fd0a4f28419497f9722a3daafe3b4186f6b6457e060405160405180910390a35050565b6200016f6200009360201b60201c565b73ffffffffffffffffffffffffffffffffffffffff16620001956200039d60201b60201c565b73ffffffffffffffffffffffffffffffffffffffff1614620001ee576040517f08c379a0000000000000000000000000000000000000000000000000000000008152600401620001e590620004cd565b60405180910390fd5b80600660006101000a81548173ffffffffffffffffffffffffffffffffffffffff021916908373ffffffffffffffffffffffffffffffffffffffff16021790555050565b620002426200009360201b60201c565b73ffffffffffffffffffffffffffffffffffffffff16620002686200039d60201b60201c565b73ffffffffffffffffffffffffffffffffffffffff1614620002c1576040517f08c379a0000000000000000000000000000000000000000000000000000000008152600401620002b890620004cd565b60405180910390fd5b670de0b6b3a764000081620002d7919062000528565b60018190555050565b620002f06200009360201b60201c565b73ffffffffffffffffffffffffffffffffffffffff16620003166200039d60201b60201c565b73ffffffffffffffffffffffffffffffffffffffff16146200036f576040517f08c379a00000000000000000000000000000000000000000000000000000000081526004016200036690620004cd565b60405180910390fd5b80600260006101000a81548160ff0219169083151502179055506200039a43620003c660201b60201c565b50565b60008060009054906101000a900473ffffffffffffffffffffffffffffffffffffffff16905090565b8060038190555050565b600080fd5b600073ffffffffffffffffffffffffffffffffffffffff82169050919050565b60006200040282620003d5565b9050919050565b6200041481620003f5565b81146200042057600080fd5b50565b600081519050620004348162000409565b92915050565b600060208284031215620004535762000452620003d0565b5b6000620004638482850162000423565b91505092915050565b600082825260208201905092915050565b7f4f776e61626c653a2063616c6c6572206973206e6f7420746865206f776e6572600082015250565b6000620004b56020836200046c565b9150620004c2826200047d565b602082019050919050565b60006020820190508181036000830152620004e881620004a6565b9050919050565b6000819050919050565b7f4e487b7100000000000000000000000000000000000000000000000000000000600052601160045260246000fd5b60006200053582620004ef565b91506200054283620004ef565b9250817fffffffffffffffffffffffffffffffffffffffffffffffffffffffffffffffff04831182151516156200057e576200057d620004f9565b5b828202905092915050565b61295480620005996000396000f3fe608060405234801561001057600080fd5b50600436106101a95760003560e01c806377d22d1a116100f9578063a8e2a38b11610097578063d8009bb611610071578063d8009bb61461044a578063ddc632621461047a578063f2fde38b146104aa578063f33c9baa146104c6576101a9565b8063a8e2a38b146103f0578063bf62bee61461040e578063c5d836d91461042c576101a9565b80638da5cb5b116100d35780638da5cb5b1461037c5780638ed955b91461039a578063945c5287146103a4578063994cd567146103c0576101a9565b806377d22d1a146103385780638b4a4ed5146103425780638c19ec8b14610360576101a9565b80635aa01b04116101665780635f9b1bb5116101405780635f9b1bb5146102ea5780636336694b146102f45780636ac49a8914610310578063715018a61461032e576101a9565b80635aa01b04146102805780635cae9a481461029c5780635e175713146102cc576101a9565b80630419ba05146101ae5780631cd8f0fa146101cc5780631e718d27146101e857806322abbddf14610218578063259e787314610248578063379607f514610264575b600080fd5b6101b66104e4565b6040516101c39190611e0b565b60405180910390f35b6101e660048036038101906101e19190611e57565b61052d565b005b61020260048036038101906101fd9190611e57565b6105c6565b60405161020f9190611e0b565b60405180910390f35b610232600480360381019061022d9190611ee2565b6105e9565b60405161023f9190611f2a565b60405180910390f35b610262600480360381019061025d9190611f71565b610609565b005b61027e60048036038101906102799190611e57565b610901565b005b61029a60048036038101906102959190611fc4565b610a53565b005b6102b660048036038101906102b19190611e57565b610c17565b6040516102c39190611e0b565b60405180910390f35b6102d4610ce5565b6040516102e19190611e0b565b60405180910390f35b6102f2610cef565b005b61030e60048036038101906103099190611e57565b610d2f565b005b610318611028565b6040516103259190611e0b565b60405180910390f35b610336611031565b005b6103406110b9565b005b61034a61111a565b604051610357919061216f565b60405180910390f35b61037a60048036038101906103759190612191565b611208565b005b6103846112aa565b60405161039191906121cd565b60405180910390f35b6103a26112d3565b005b6103be60048036038101906103b99190611ee2565b611383565b005b6103da60048036038101906103d59190611e57565b611443565b6040516103e79190611e0b565b60405180910390f35b6103f861158e565b6040516104059190612247565b60405180910390f35b6104166115b8565b6040516104239190611e0b565b60405180910390f35b6104346115c2565b6040516104419190611e0b565b60405180910390f35b610464600480360381019061045f9190611e57565b6115cc565b6040516104719190611e0b565b60405180910390f35b610494600480360381019061048f9190611e57565b6116b9565b6040516104a19190611e0b565b60405180910390f35b6104c460048036038101906104bf9190611ee2565b6117dc565b005b6104ce6118d3565b6040516104db9190611f2a565b60405180910390f35b6000806104ef6118ea565b905060006104fc82611929565b9050600061050861194a565b9050610525610516836105c6565b8261195490919063ffffffff16565b935050505090565b61053561196a565b73ffffffffffffffffffffffffffffffffffffffff166105536112aa565b73ffffffffffffffffffffffffffffffffffffffff16146105a9576040517f08c379a00000000000000000000000000000000000000000000000000000000081526004016105a0906122bf565b60405180910390fd5b670de0b6b3a7640000816105bd919061230e565b60018190555050565b60006105e26105d3610ce5565b8361197290919063ffffffff16565b9050919050565b60076020528060005260406000206000915054906101000a900460ff1681565b61061161196a565b73ffffffffffffffffffffffffffffffffffffffff1661062f6112aa565b73ffffffffffffffffffffffffffffffffffffffff1614610685576040517f08c379a000000000000000000000000000000000000000000000000000000000815260040161067c906122bf565b60405180910390fd5b8260001515600760008373ffffffffffffffffffffffffffffffffffffffff1673ffffffffffffffffffffffffffffffffffffffff16815260200190815260200160002060009054906101000a900460ff16151514610719576040517f08c379a0000000000000000000000000000000000000000000000000000000008152600401610710906123b4565b60405180910390fd5b6001600760008373ffffffffffffffffffffffffffffffffffffffff1673ffffffffffffffffffffffffffffffffffffffff16815260200190815260200160002060006101000a81548160ff021916908315150217905550600083116107ab576040517ff915581500000000000000000000000000000000000000000000000000000000815260040160405180910390fd5b6107b36118d3565b80156107c6575060006107c4610ce5565b115b156107d4576107d36110b9565b5b60006040518060a001604052808673ffffffffffffffffffffffffffffffffffffffff168152602001858152602001841515815260200164e8d4a5100061081961194a565b87610824919061230e565b61082e9190612403565b815260200160008152509050600881908060018154018082558091505060019003906000526020600020906005020160009091909190915060008201518160000160006101000a81548173ffffffffffffffffffffffffffffffffffffffff021916908373ffffffffffffffffffffffffffffffffffffffff1602179055506020820151816001015560408201518160020160006101000a81548160ff021916908315150217905550606082015181600301556080820151816004015550506108fa8160200151611988565b5050505050565b60006008828154811061091757610916612434565b5b906000526020600020906005020190508060000160009054906101000a900473ffffffffffffffffffffffffffffffffffffffff1673ffffffffffffffffffffffffffffffffffffffff163373ffffffffffffffffffffffffffffffffffffffff16146109b0576040517f19494c8a00000000000000000000000000000000000000000000000000000000815260040160405180910390fd5b60006109bb836116b9565b9050600081036109f7576040517f73380d9900000000000000000000000000000000000000000000000000000000815260040160405180910390fd5b60008260040181905550610a13610a0c61158e565b33836119a6565b7ff279e6a1f5e320cca91135676d9cb6e44ca8a08c0b88342bcdb1144f6511b568338483604051610a4693929190612463565b60405180910390a1505050565b610a5b61196a565b73ffffffffffffffffffffffffffffffffffffffff16610a796112aa565b73ffffffffffffffffffffffffffffffffffffffff1614610acf576040517f08c379a0000000000000000000000000000000000000000000000000000000008152600401610ac6906122bf565b60405180910390fd5b610ad76118d3565b610b0d576040517f236582f100000000000000000000000000000000000000000000000000000000815260040160405180910390fd5b610b16836116b9565b50610b4660088481548110610b2e57610b2d612434565b5b90600052602060002090600502016001015483611a2c565b8360088481548110610b5b57610b5a612434565b5b906000526020600020906005020160000160006101000a81548173ffffffffffffffffffffffffffffffffffffffff021916908373ffffffffffffffffffffffffffffffffffffffff1602179055508160088481548110610bbf57610bbe612434565b5b9060005260206000209060050201600101819055508060088481548110610be957610be8612434565b5b906000526020600020906005020160020160006101000a81548160ff02191690831515021790555050505050565b60008060088381548110610c2e57610c2d612434565b5b90600052602060002090600502016040518060a00160405290816000820160009054906101000a900473ffffffffffffffffffffffffffffffffffffffff1673ffffffffffffffffffffffffffffffffffffffff1673ffffffffffffffffffffffffffffffffffffffff168152602001600182015481526020016002820160009054906101000a900460ff161515151581526020016003820154815260200160048201548152505090508060800151915050919050565b6000600554905090565b6000610cf96118ea565b90506000610d0682611929565b9050610d25610d14826105c6565b60045461195490919063ffffffff16565b6004819055505050565b610d3761196a565b73ffffffffffffffffffffffffffffffffffffffff16610d556112aa565b73ffffffffffffffffffffffffffffffffffffffff1614610dab576040517f08c379a0000000000000000000000000000000000000000000000000000000008152600401610da2906122bf565b60405180910390fd5b6008805490508110610de9576040517fd0333a0600000000000000000000000000000000000000000000000000000000815260040160405180910390fd5b610df16118d3565b610e27576040517f236582f100000000000000000000000000000000000000000000000000000000815260040160405180910390fd5b600160088281548110610e3d57610e3c612434565b5b906000526020600020906005020160020160006101000a81548160ff021916908315150217905550610e6e816116b9565b50610e9d60088281548110610e8657610e85612434565b5b906000526020600020906005020160010154611a5d565b60086001600880549050610eb1919061249a565b81548110610ec257610ec1612434565b5b906000526020600020906005020160088281548110610ee457610ee3612434565b5b90600052602060002090600502016000820160009054906101000a900473ffffffffffffffffffffffffffffffffffffffff168160000160006101000a81548173ffffffffffffffffffffffffffffffffffffffff021916908373ffffffffffffffffffffffffffffffffffffffff160217905550600182015481600101556002820160009054906101000a900460ff168160020160006101000a81548160ff02191690831515021790555060038201548160030155600482015481600401559050506008805480610fb957610fb86124ce565b5b6001900381819060005260206000209060050201600080820160006101000a81549073ffffffffffffffffffffffffffffffffffffffff021916905560018201600090556002820160006101000a81549060ff0219169055600382016000905560048201600090555050905550565b64e8d4a5100081565b61103961196a565b73ffffffffffffffffffffffffffffffffffffffff166110576112aa565b73ffffffffffffffffffffffffffffffffffffffff16146110ad576040517f08c379a00000000000000000000000000000000000000000000000000000000081526004016110a4906122bf565b60405180910390fd5b6110b76000611a7b565b565b6110c16118d3565b6110f7576040517f236582f100000000000000000000000000000000000000000000000000000000815260040160405180910390fd5b6110ff6115b8565b4311156111185761110e610cef565b61111743611b3f565b5b565b60606008805480602002602001604051908101604052809291908181526020016000905b828210156111ff57838290600052602060002090600502016040518060a00160405290816000820160009054906101000a900473ffffffffffffffffffffffffffffffffffffffff1673ffffffffffffffffffffffffffffffffffffffff1673ffffffffffffffffffffffffffffffffffffffff168152602001600182015481526020016002820160009054906101000a900460ff16151515158152602001600382015481526020016004820154815250508152602001906001019061113e565b50505050905090565b61121061196a565b73ffffffffffffffffffffffffffffffffffffffff1661122e6112aa565b73ffffffffffffffffffffffffffffffffffffffff1614611284576040517f08c379a000000000000000000000000000000000000000000000000000000000815260040161127b906122bf565b60405180910390fd5b80600260006101000a81548160ff0219169083151502179055506112a743611b3f565b50565b60008060009054906101000a900473ffffffffffffffffffffffffffffffffffffffff16905090565b6112db61196a565b73ffffffffffffffffffffffffffffffffffffffff166112f96112aa565b73ffffffffffffffffffffffffffffffffffffffff161461134f576040517f08c379a0000000000000000000000000000000000000000000000000000000008152600401611346906122bf565b60405180910390fd5b60005b6008805490508160ff1610156113805761136e8160ff166116b9565b50806113799061250a565b9050611352565b50565b61138b61196a565b73ffffffffffffffffffffffffffffffffffffffff166113a96112aa565b73ffffffffffffffffffffffffffffffffffffffff16146113ff576040517f08c379a00000000000000000000000000000000000000000000000000000000081526004016113f6906122bf565b60405180910390fd5b80600660006101000a81548173ffffffffffffffffffffffffffffffffffffffff021916908373ffffffffffffffffffffffffffffffffffffffff16021790555050565b6000806008838154811061145a57611459612434565b5b90600052602060002090600502016040518060a00160405290816000820160009054906101000a900473ffffffffffffffffffffffffffffffffffffffff1673ffffffffffffffffffffffffffffffffffffffff1673ffffffffffffffffffffffffffffffffffffffff168152602001600182015481526020016002820160009054906101000a900460ff1615151515815260200160038201548152602001600482015481525050905061150c6118d3565b1561154f57806060015164e8d4a510006115246104e4565b8360200151611533919061230e565b61153d9190612403565b611547919061249a565b915050611589565b806060015164e8d4a5100061156261194a565b8360200151611571919061230e565b61157b9190612403565b611585919061249a565b9150505b919050565b6000600660009054906101000a900473ffffffffffffffffffffffffffffffffffffffff16905090565b6000600354905090565b6000600154905090565b600080600883815481106115e3576115e2612434565b5b90600052602060002090600502016040518060a00160405290816000820160009054906101000a900473ffffffffffffffffffffffffffffffffffffffff1673ffffffffffffffffffffffffffffffffffffffff1673ffffffffffffffffffffffffffffffffffffffff168152602001600182015481526020016002820160009054906101000a900460ff1615151515815260200160038201548152602001600482015481525050905060008160800151905060006116a185611443565b905080826116af9190612533565b9350505050919050565b60006116c36118d3565b6116f9576040517f236582f100000000000000000000000000000000000000000000000000000000815260040160405180910390fd5b60006008838154811061170f5761170e612434565b5b906000526020600020906005020190506117276110b9565b6000816003015464e8d4a5100061173c61194a565b846001015461174b919061230e565b6117559190612403565b61175f919061249a565b90508082600301546117719190612533565b8260030181905550600081836004015461178b9190612533565b90508083600401819055507f71bab65ced2e5750775a0613be067df48ef06cf92a496ebf7663ae06609249543386846040516117c993929190612463565b60405180910390a1809350505050919050565b6117e461196a565b73ffffffffffffffffffffffffffffffffffffffff166118026112aa565b73ffffffffffffffffffffffffffffffffffffffff1614611858576040517f08c379a000000000000000000000000000000000000000000000000000000000815260040161184f906122bf565b60405180910390fd5b600073ffffffffffffffffffffffffffffffffffffffff168173ffffffffffffffffffffffffffffffffffffffff16036118c7576040517f08c379a00000000000000000000000000000000000000000000000000000000081526004016118be906125fb565b60405180910390fd5b6118d081611a7b565b50565b6000600260009054906101000a900460ff16905090565b6000806119076118f86115b8565b43611b4990919063ffffffff16565b90506119236119146115c2565b82611b5f90919063ffffffff16565b91505090565b600061194364e8d4a5100083611b5f90919063ffffffff16565b9050919050565b6000600454905090565b600081836119629190612533565b905092915050565b600033905090565b600081836119809190612403565b905092915050565b61199d8160055461195490919063ffffffff16565b60058190555050565b611a278363a9059cbb60e01b84846040516024016119c592919061261b565b604051602081830303815290604052907bffffffffffffffffffffffffffffffffffffffffffffffffffffffff19166020820180517bffffffffffffffffffffffffffffffffffffffffffffffffffffffff8381831617835250505050611b75565b505050565b611a5381611a4584600554611b4990919063ffffffff16565b61195490919063ffffffff16565b6005819055505050565b611a7281600554611b4990919063ffffffff16565b60058190555050565b60008060009054906101000a900473ffffffffffffffffffffffffffffffffffffffff169050816000806101000a81548173ffffffffffffffffffffffffffffffffffffffff021916908373ffffffffffffffffffffffffffffffffffffffff1602179055508173ffffffffffffffffffffffffffffffffffffffff168173ffffffffffffffffffffffffffffffffffffffff167f8be0079c531659141344cd1fd0a4f28419497f9722a3daafe3b4186f6b6457e060405160405180910390a35050565b8060038190555050565b60008183611b57919061249a565b905092915050565b60008183611b6d919061230e565b905092915050565b6000611bd7826040518060400160405280602081526020017f5361666545524332303a206c6f772d6c6576656c2063616c6c206661696c65648152508573ffffffffffffffffffffffffffffffffffffffff16611c3c9092919063ffffffff16565b9050600081511115611c375780806020019051810190611bf79190612659565b611c36576040517f08c379a0000000000000000000000000000000000000000000000000000000008152600401611c2d906126f8565b60405180910390fd5b5b505050565b6060611c4b8484600085611c54565b90509392505050565b606082471015611c99576040517f08c379a0000000000000000000000000000000000000000000000000000000008152600401611c909061278a565b60405180910390fd5b611ca285611d68565b611ce1576040517f08c379a0000000000000000000000000000000000000000000000000000000008152600401611cd8906127f6565b60405180910390fd5b6000808673ffffffffffffffffffffffffffffffffffffffff168587604051611d0a9190612890565b60006040518083038185875af1925050503d8060008114611d47576040519150601f19603f3d011682016040523d82523d6000602084013e611d4c565b606091505b5091509150611d5c828286611d8b565b92505050949350505050565b6000808273ffffffffffffffffffffffffffffffffffffffff163b119050919050565b60608315611d9b57829050611deb565b600083511115611dae5782518084602001fd5b816040517f08c379a0000000000000000000000000000000000000000000000000000000008152600401611de291906128fc565b60405180910390fd5b9392505050565b6000819050919050565b611e0581611df2565b82525050565b6000602082019050611e206000830184611dfc565b92915050565b600080fd5b611e3481611df2565b8114611e3f57600080fd5b50565b600081359050611e5181611e2b565b92915050565b600060208284031215611e6d57611e6c611e26565b5b6000611e7b84828501611e42565b91505092915050565b600073ffffffffffffffffffffffffffffffffffffffff82169050919050565b6000611eaf82611e84565b9050919050565b611ebf81611ea4565b8114611eca57600080fd5b50565b600081359050611edc81611eb6565b92915050565b600060208284031215611ef857611ef7611e26565b5b6000611f0684828501611ecd565b91505092915050565b60008115159050919050565b611f2481611f0f565b82525050565b6000602082019050611f3f6000830184611f1b565b92915050565b611f4e81611f0f565b8114611f5957600080fd5b50565b600081359050611f6b81611f45565b92915050565b600080600060608486031215611f8a57611f89611e26565b5b6000611f9886828701611ecd565b9350506020611fa986828701611e42565b9250506040611fba86828701611f5c565b9150509250925092565b60008060008060808587031215611fde57611fdd611e26565b5b6000611fec87828801611ecd565b9450506020611ffd87828801611e42565b935050604061200e87828801611e42565b925050606061201f87828801611f5c565b91505092959194509250565b600081519050919050565b600082825260208201905092915050565b6000819050602082019050919050565b61206081611ea4565b82525050565b61206f81611df2565b82525050565b61207e81611f0f565b82525050565b60a08201600082015161209a6000850182612057565b5060208201516120ad6020850182612066565b5060408201516120c06040850182612075565b5060608201516120d36060850182612066565b5060808201516120e66080850182612066565b50505050565b60006120f88383612084565b60a08301905092915050565b6000602082019050919050565b600061211c8261202b565b6121268185612036565b935061213183612047565b8060005b8381101561216257815161214988826120ec565b975061215483612104565b925050600181019050612135565b5085935050505092915050565b600060208201905081810360008301526121898184612111565b905092915050565b6000602082840312156121a7576121a6611e26565b5b60006121b584828501611f5c565b91505092915050565b6121c781611ea4565b82525050565b60006020820190506121e260008301846121be565b92915050565b6000819050919050565b600061220d61220861220384611e84565b6121e8565b611e84565b9050919050565b600061221f826121f2565b9050919050565b600061223182612214565b9050919050565b61224181612226565b82525050565b600060208201905061225c6000830184612238565b92915050565b600082825260208201905092915050565b7f4f776e61626c653a2063616c6c6572206973206e6f7420746865206f776e6572600082015250565b60006122a9602083612262565b91506122b482612273565b602082019050919050565b600060208201905081810360008301526122d88161229c565b9050919050565b7f4e487b7100000000000000000000000000000000000000000000000000000000600052601160045260246000fd5b600061231982611df2565b915061232483611df2565b9250817fffffffffffffffffffffffffffffffffffffffffffffffffffffffffffffffff048311821515161561235d5761235c6122df565b5b828202905092915050565b7f6e6f6e4475706c6963617465643a206475706c69636174656400000000000000600082015250565b600061239e601983612262565b91506123a982612368565b602082019050919050565b600060208201905081810360008301526123cd81612391565b9050919050565b7f4e487b7100000000000000000000000000000000000000000000000000000000600052601260045260246000fd5b600061240e82611df2565b915061241983611df2565b925082612429576124286123d4565b5b828204905092915050565b7f4e487b7100000000000000000000000000000000000000000000000000000000600052603260045260246000fd5b600060608201905061247860008301866121be565b6124856020830185611dfc565b6124926040830184611dfc565b949350505050565b60006124a582611df2565b91506124b083611df2565b9250828210156124c3576124c26122df565b5b828203905092915050565b7f4e487b7100000000000000000000000000000000000000000000000000000000600052603160045260246000fd5b600060ff82169050919050565b6000612515826124fd565b915060ff8203612528576125276122df565b5b600182019050919050565b600061253e82611df2565b915061254983611df2565b9250827fffffffffffffffffffffffffffffffffffffffffffffffffffffffffffffffff0382111561257e5761257d6122df565b5b828201905092915050565b7f4f776e61626c653a206e6577206f776e657220697320746865207a65726f206160008201527f6464726573730000000000000000000000000000000000000000000000000000602082015250565b60006125e5602683612262565b91506125f082612589565b604082019050919050565b60006020820190508181036000830152612614816125d8565b9050919050565b600060408201905061263060008301856121be565b61263d6020830184611dfc565b9392505050565b60008151905061265381611f45565b92915050565b60006020828403121561266f5761266e611e26565b5b600061267d84828501612644565b91505092915050565b7f5361666545524332303a204552433230206f7065726174696f6e20646964206e60008201527f6f74207375636365656400000000000000000000000000000000000000000000602082015250565b60006126e2602a83612262565b91506126ed82612686565b604082019050919050565b60006020820190508181036000830152612711816126d5565b9050919050565b7f416464726573733a20696e73756666696369656e742062616c616e636520666f60008201527f722063616c6c0000000000000000000000000000000000000000000000000000602082015250565b6000612774602683612262565b915061277f82612718565b604082019050919050565b600060208201905081810360008301526127a381612767565b9050919050565b7f416464726573733a2063616c6c20746f206e6f6e2d636f6e7472616374000000600082015250565b60006127e0601d83612262565b91506127eb826127aa565b602082019050919050565b6000602082019050818103600083015261280f816127d3565b9050919050565b600081519050919050565b600081905092915050565b60005b8381101561284a57808201518184015260208101905061282f565b83811115612859576000848401525b50505050565b600061286a82612816565b6128748185612821565b935061288481856020860161282c565b80840191505092915050565b600061289c828461285f565b915081905092915050565b600081519050919050565b6000601f19601f8301169050919050565b60006128ce826128a7565b6128d88185612262565b93506128e881856020860161282c565b6128f1816128b2565b840191505092915050565b6000602082019050818103600083015261291681846128c3565b90509291505056fea26469706673582212207ccc3909578501a70e29a5ebd43bdacceb43c49c5ac5a2970827ec4e468e3f1264736f6c634300080d0033",
  "devdoc": {
    "kind": "dev",
    "methods": {
      "owner()": {
        "details": "Returns the address of the current owner."
      },
      "renounceOwnership()": {
        "details": "Leaves the contract without owner. It will not be possible to call `onlyOwner` functions anymore. Can only be called by the current owner. NOTE: Renouncing ownership will leave the contract without an owner, thereby removing any functionality that is only available to the owner."
      },
      "transferOwnership(address)": {
        "details": "Transfers ownership of the contract to a new account (`newOwner`). Can only be called by the current owner."
      }
    },
    "version": 1
  },
  "userdoc": {
    "kind": "user",
    "methods": {},
    "version": 1
  },
  "storageLayout": {
    "storage": [
      {
        "astId": 7,
        "contract": "src/contracts/TopChef.sol:TopChef",
        "label": "_owner",
        "offset": 0,
        "slot": "0",
        "type": "t_address"
      },
      {
        "astId": 3527,
        "contract": "src/contracts/TopChef.sol:TopChef",
        "label": "_metricPerBlock",
        "offset": 0,
        "slot": "1",
        "type": "t_uint256"
      },
      {
        "astId": 3532,
        "contract": "src/contracts/TopChef.sol:TopChef",
        "label": "_rewardsActive",
        "offset": 0,
        "slot": "2",
        "type": "t_bool"
      },
      {
        "astId": 3534,
        "contract": "src/contracts/TopChef.sol:TopChef",
        "label": "_lastRewardBlock",
        "offset": 0,
        "slot": "3",
        "type": "t_uint256"
      },
      {
        "astId": 3536,
        "contract": "src/contracts/TopChef.sol:TopChef",
        "label": "_lifetimeShareValue",
        "offset": 0,
        "slot": "4",
        "type": "t_uint256"
      },
      {
        "astId": 3538,
        "contract": "src/contracts/TopChef.sol:TopChef",
        "label": "_totalAllocShares",
        "offset": 0,
        "slot": "5",
        "type": "t_uint256"
      },
      {
        "astId": 3541,
        "contract": "src/contracts/TopChef.sol:TopChef",
        "label": "metric",
        "offset": 0,
        "slot": "6",
        "type": "t_contract(MetricToken)2008"
      },
      {
        "astId": 3796,
        "contract": "src/contracts/TopChef.sol:TopChef",
        "label": "addressExistence",
        "offset": 0,
        "slot": "7",
        "type": "t_mapping(t_address,t_bool)"
      },
      {
        "astId": 2018,
        "contract": "src/contracts/TopChef.sol:TopChef",
        "label": "_allocations",
        "offset": 0,
        "slot": "8",
        "type": "t_array(t_struct(AllocationGroup)2517_storage)dyn_storage"
      }
    ],
    "types": {
      "t_address": {
        "encoding": "inplace",
        "label": "address",
        "numberOfBytes": "20"
      },
      "t_array(t_struct(AllocationGroup)2517_storage)dyn_storage": {
        "base": "t_struct(AllocationGroup)2517_storage",
        "encoding": "dynamic_array",
        "label": "struct TopChef.AllocationGroup[]",
        "numberOfBytes": "32"
      },
      "t_bool": {
        "encoding": "inplace",
        "label": "bool",
        "numberOfBytes": "1"
      },
      "t_contract(MetricToken)2008": {
        "encoding": "inplace",
        "label": "contract MetricToken",
        "numberOfBytes": "20"
      },
      "t_mapping(t_address,t_bool)": {
        "encoding": "mapping",
        "key": "t_address",
        "label": "mapping(address => bool)",
        "numberOfBytes": "32",
        "value": "t_bool"
      },
      "t_struct(AllocationGroup)2517_storage": {
        "encoding": "inplace",
        "label": "struct TopChef.AllocationGroup",
        "members": [
          {
            "astId": 2508,
            "contract": "src/contracts/TopChef.sol:TopChef",
            "label": "groupAddress",
            "offset": 0,
            "slot": "0",
            "type": "t_address"
          },
          {
            "astId": 2510,
            "contract": "src/contracts/TopChef.sol:TopChef",
            "label": "shares",
            "offset": 0,
            "slot": "1",
            "type": "t_uint256"
          },
          {
            "astId": 2512,
            "contract": "src/contracts/TopChef.sol:TopChef",
            "label": "autodistribute",
            "offset": 0,
            "slot": "2",
            "type": "t_bool"
          },
          {
            "astId": 2514,
            "contract": "src/contracts/TopChef.sol:TopChef",
            "label": "rewardDebt",
            "offset": 0,
            "slot": "3",
            "type": "t_uint256"
          },
          {
            "astId": 2516,
            "contract": "src/contracts/TopChef.sol:TopChef",
            "label": "claimable",
            "offset": 0,
            "slot": "4",
            "type": "t_uint256"
          }
        ],
        "numberOfBytes": "160"
      },
      "t_uint256": {
        "encoding": "inplace",
        "label": "uint256",
        "numberOfBytes": "32"
      }
    }
  }
}