{
  "address": "0xe7f1725E7734CE288F8367e1Bb143E90bb3F0512",
  "abi": [
    {
      "inputs": [
        {
          "internalType": "address",
          "name": "metricTokenAddress",
          "type": "address"
        }
      ],
      "stateMutability": "nonpayable",
      "type": "constructor"
    },
    {
      "anonymous": false,
      "inputs": [
        {
          "indexed": false,
          "internalType": "address",
          "name": "harvester",
          "type": "address"
        },
        {
          "indexed": false,
          "internalType": "uint256",
          "name": "agIndex",
          "type": "uint256"
        },
        {
          "indexed": false,
          "internalType": "uint256",
          "name": "amount",
          "type": "uint256"
        }
      ],
      "name": "Harvest",
      "type": "event"
    },
    {
      "anonymous": false,
      "inputs": [
        {
          "indexed": true,
          "internalType": "address",
          "name": "previousOwner",
          "type": "address"
        },
        {
          "indexed": true,
          "internalType": "address",
          "name": "newOwner",
          "type": "address"
        }
      ],
      "name": "OwnershipTransferred",
      "type": "event"
    },
    {
      "anonymous": false,
      "inputs": [
        {
          "indexed": false,
          "internalType": "address",
          "name": "withdrawer",
          "type": "address"
        },
        {
          "indexed": false,
          "internalType": "uint256",
          "name": "agIndex",
          "type": "uint256"
        },
        {
          "indexed": false,
          "internalType": "uint256",
          "name": "amount",
          "type": "uint256"
        }
      ],
      "name": "Withdraw",
      "type": "event"
    },
    {
      "inputs": [],
      "name": "ACC_METRIC_PRECISION",
      "outputs": [
        {
          "internalType": "uint256",
          "name": "",
          "type": "uint256"
        }
      ],
      "stateMutability": "view",
      "type": "function"
    },
    {
      "inputs": [
        {
          "internalType": "uint256",
          "name": "accumulatedWithPrecision",
          "type": "uint256"
        }
      ],
      "name": "accumulatedMetricDividedByShares",
      "outputs": [
        {
          "internalType": "uint256",
          "name": "",
          "type": "uint256"
        }
      ],
      "stateMutability": "view",
      "type": "function"
    },
    {
      "inputs": [
        {
          "internalType": "address",
          "name": "newAddress",
          "type": "address"
        },
        {
          "internalType": "uint256",
          "name": "newShares",
          "type": "uint256"
        },
        {
          "internalType": "bool",
          "name": "newAutoDistribute",
          "type": "bool"
        }
      ],
      "name": "addAllocationGroup",
      "outputs": [],
      "stateMutability": "nonpayable",
      "type": "function"
    },
    {
      "inputs": [
        {
          "internalType": "address",
          "name": "",
          "type": "address"
        }
      ],
      "name": "addressExistence",
      "outputs": [
        {
          "internalType": "bool",
          "name": "",
          "type": "bool"
        }
      ],
      "stateMutability": "view",
      "type": "function"
    },
    {
      "inputs": [],
      "name": "areRewardsActive",
      "outputs": [
        {
          "internalType": "bool",
          "name": "",
          "type": "bool"
        }
      ],
      "stateMutability": "view",
      "type": "function"
    },
    {
      "inputs": [
        {
          "internalType": "uint256",
          "name": "agIndex",
          "type": "uint256"
        }
      ],
      "name": "claim",
      "outputs": [],
      "stateMutability": "nonpayable",
      "type": "function"
    },
    {
      "inputs": [],
      "name": "getAllocationGroups",
      "outputs": [
        {
          "components": [
            {
              "internalType": "address",
              "name": "groupAddress",
              "type": "address"
            },
            {
              "internalType": "uint256",
              "name": "shares",
              "type": "uint256"
            },
            {
              "internalType": "bool",
              "name": "autodistribute",
              "type": "bool"
            },
            {
              "internalType": "uint256",
              "name": "rewardDebt",
              "type": "uint256"
            },
            {
              "internalType": "uint256",
              "name": "claimable",
              "type": "uint256"
            }
          ],
          "internalType": "struct TopChef.AllocationGroup[]",
          "name": "",
          "type": "tuple[]"
        }
      ],
      "stateMutability": "view",
      "type": "function"
    },
    {
      "inputs": [],
      "name": "getLastRewardBlock",
      "outputs": [
        {
          "internalType": "uint256",
          "name": "",
          "type": "uint256"
        }
      ],
      "stateMutability": "view",
      "type": "function"
    },
    {
      "inputs": [],
      "name": "getLifeTimeShareValueEstimate",
      "outputs": [
        {
          "internalType": "uint256",
          "name": "",
          "type": "uint256"
        }
      ],
      "stateMutability": "view",
      "type": "function"
    },
    {
      "inputs": [],
      "name": "getMetricPerBlock",
      "outputs": [
        {
          "internalType": "uint256",
          "name": "",
          "type": "uint256"
        }
      ],
      "stateMutability": "view",
      "type": "function"
    },
    {
      "inputs": [],
      "name": "getMetricToken",
      "outputs": [
        {
          "internalType": "contract MetricToken",
          "name": "",
          "type": "address"
        }
      ],
      "stateMutability": "view",
      "type": "function"
    },
    {
      "inputs": [],
      "name": "getTotalAllocationShares",
      "outputs": [
        {
          "internalType": "uint256",
          "name": "",
          "type": "uint256"
        }
      ],
      "stateMutability": "view",
      "type": "function"
    },
    {
      "inputs": [
        {
          "internalType": "uint256",
          "name": "agIndex",
          "type": "uint256"
        }
      ],
      "name": "harvest",
      "outputs": [],
      "stateMutability": "nonpayable",
      "type": "function"
    },
    {
      "inputs": [],
      "name": "harvestAll",
      "outputs": [],
      "stateMutability": "nonpayable",
      "type": "function"
    },
    {
      "inputs": [],
      "name": "owner",
      "outputs": [
        {
          "internalType": "address",
          "name": "",
          "type": "address"
        }
      ],
      "stateMutability": "view",
      "type": "function"
    },
    {
      "inputs": [
        {
          "internalType": "uint256",
          "name": "agIndex",
          "type": "uint256"
        }
      ],
      "name": "removeAllocationGroup",
      "outputs": [],
      "stateMutability": "nonpayable",
      "type": "function"
    },
    {
      "inputs": [],
      "name": "renounceOwnership",
      "outputs": [],
      "stateMutability": "nonpayable",
      "type": "function"
    },
    {
      "inputs": [],
      "name": "setLifetimeShareValue",
      "outputs": [],
      "stateMutability": "nonpayable",
      "type": "function"
    },
    {
      "inputs": [
        {
          "internalType": "uint256",
          "name": "metricAmount",
          "type": "uint256"
        }
      ],
      "name": "setMetricPerBlock",
      "outputs": [],
      "stateMutability": "nonpayable",
      "type": "function"
    },
    {
      "inputs": [
        {
          "internalType": "address",
          "name": "metricTokenAddress",
          "type": "address"
        }
      ],
      "name": "setMetricToken",
      "outputs": [],
      "stateMutability": "nonpayable",
      "type": "function"
    },
    {
      "inputs": [
        {
          "internalType": "bool",
          "name": "isOn",
          "type": "bool"
        }
      ],
      "name": "toggleRewards",
      "outputs": [],
      "stateMutability": "nonpayable",
      "type": "function"
    },
    {
      "inputs": [
        {
          "internalType": "address",
          "name": "newOwner",
          "type": "address"
        }
      ],
      "name": "transferOwnership",
      "outputs": [],
      "stateMutability": "nonpayable",
      "type": "function"
    },
    {
      "inputs": [],
      "name": "updateAccumulatedAllocations",
      "outputs": [],
      "stateMutability": "nonpayable",
      "type": "function"
    },
    {
      "inputs": [
        {
          "internalType": "address",
          "name": "groupAddress",
          "type": "address"
        },
        {
          "internalType": "uint256",
          "name": "agIndex",
          "type": "uint256"
        },
        {
          "internalType": "uint256",
          "name": "shares",
          "type": "uint256"
        },
        {
          "internalType": "bool",
          "name": "newAutoDistribute",
          "type": "bool"
        }
      ],
      "name": "updateAllocationGroup",
      "outputs": [],
      "stateMutability": "nonpayable",
      "type": "function"
    },
    {
      "inputs": [
        {
          "internalType": "uint256",
          "name": "agIndex",
          "type": "uint256"
        }
      ],
      "name": "viewPendingClaims",
      "outputs": [
        {
          "internalType": "uint256",
          "name": "",
          "type": "uint256"
        }
      ],
      "stateMutability": "view",
      "type": "function"
    },
    {
      "inputs": [
        {
          "internalType": "uint256",
          "name": "agIndex",
          "type": "uint256"
        }
      ],
      "name": "viewPendingHarvest",
      "outputs": [
        {
          "internalType": "uint256",
          "name": "",
          "type": "uint256"
        }
      ],
      "stateMutability": "view",
      "type": "function"
    }
  ],
  "transactionHash": "0x1da2f6287c8b4235e37e6ed5e1938126bad06c0445d0507fe4af0bc1fc14d958",
  "args": [
    "0x5FbDB2315678afecb367f032d93F642f64180aa3"
  ],
  "numDeployments": 1,
  "solcInputHash": "27a4b86f915f3fb0145fccc5539d8ef1",
  "bytecode": "0x60806040523480156200001157600080fd5b50604051620032173803806200321783398181016040528101906200003791906200043a565b620000576200004b6200009360201b60201c565b6200009b60201b60201c565b62000068816200015f60201b60201c565b6200007a60046200023260201b60201c565b6200008c6000620002e060201b60201c565b5062000589565b600033905090565b60008060009054906101000a900473ffffffffffffffffffffffffffffffffffffffff169050816000806101000a81548173ffffffffffffffffffffffffffffffffffffffff021916908373ffffffffffffffffffffffffffffffffffffffff1602179055508173ffffffffffffffffffffffffffffffffffffffff168173ffffffffffffffffffffffffffffffffffffffff167f8be0079c531659141344cd1fd0a4f28419497f9722a3daafe3b4186f6b6457e060405160405180910390a35050565b6200016f6200009360201b60201c565b73ffffffffffffffffffffffffffffffffffffffff16620001956200039d60201b60201c565b73ffffffffffffffffffffffffffffffffffffffff1614620001ee576040517f08c379a0000000000000000000000000000000000000000000000000000000008152600401620001e590620004cd565b60405180910390fd5b80600660006101000a81548173ffffffffffffffffffffffffffffffffffffffff021916908373ffffffffffffffffffffffffffffffffffffffff16021790555050565b620002426200009360201b60201c565b73ffffffffffffffffffffffffffffffffffffffff16620002686200039d60201b60201c565b73ffffffffffffffffffffffffffffffffffffffff1614620002c1576040517f08c379a0000000000000000000000000000000000000000000000000000000008152600401620002b890620004cd565b60405180910390fd5b670de0b6b3a764000081620002d7919062000528565b60018190555050565b620002f06200009360201b60201c565b73ffffffffffffffffffffffffffffffffffffffff16620003166200039d60201b60201c565b73ffffffffffffffffffffffffffffffffffffffff16146200036f576040517f08c379a00000000000000000000000000000000000000000000000000000000081526004016200036690620004cd565b60405180910390fd5b80600260006101000a81548160ff0219169083151502179055506200039a43620003c660201b60201c565b50565b60008060009054906101000a900473ffffffffffffffffffffffffffffffffffffffff16905090565b8060038190555050565b600080fd5b600073ffffffffffffffffffffffffffffffffffffffff82169050919050565b60006200040282620003d5565b9050919050565b6200041481620003f5565b81146200042057600080fd5b50565b600081519050620004348162000409565b92915050565b600060208284031215620004535762000452620003d0565b5b6000620004638482850162000423565b91505092915050565b600082825260208201905092915050565b7f4f776e61626c653a2063616c6c6572206973206e6f7420746865206f776e6572600082015250565b6000620004b56020836200046c565b9150620004c2826200047d565b602082019050919050565b60006020820190508181036000830152620004e881620004a6565b9050919050565b6000819050919050565b7f4e487b7100000000000000000000000000000000000000000000000000000000600052601160045260246000fd5b60006200053582620004ef565b91506200054283620004ef565b9250817fffffffffffffffffffffffffffffffffffffffffffffffffffffffffffffffff04831182151516156200057e576200057d620004f9565b5b828202905092915050565b612c7e80620005996000396000f3fe608060405234801561001057600080fd5b506004361061018e5760003560e01c806377d22d1a116100de578063994cd56711610097578063c5d836d911610071578063c5d836d914610411578063ddc632621461042f578063f2fde38b1461044b578063f33c9baa146104675761018e565b8063994cd567146103a5578063a8e2a38b146103d5578063bf62bee6146103f35761018e565b806377d22d1a1461031d5780638b4a4ed5146103275780638c19ec8b146103455780638da5cb5b146103615780638ed955b91461037f578063945c5287146103895761018e565b80635aa01b041161014b5780635f9b1bb5116101255780635f9b1bb5146102cf5780636336694b146102d95780636ac49a89146102f5578063715018a6146103135761018e565b80635aa01b04146102655780635cae9a48146102815780635e175713146102b15761018e565b80630419ba05146101935780631cd8f0fa146101b15780631e718d27146101cd57806322abbddf146101fd578063259e78731461022d578063379607f514610249575b600080fd5b61019b610485565b6040516101a89190611eac565b60405180910390f35b6101cb60048036038101906101c69190611ef8565b6104ce565b005b6101e760048036038101906101e29190611ef8565b610567565b6040516101f49190611eac565b60405180910390f35b61021760048036038101906102129190611f83565b61058a565b6040516102249190611fcb565b60405180910390f35b61024760048036038101906102429190612012565b6105aa565b005b610263600480360381019061025e9190611ef8565b6108b9565b005b61027f600480360381019061027a9190612065565b610a8e565b005b61029b60048036038101906102969190611ef8565b610c5a565b6040516102a89190611eac565b60405180910390f35b6102b9610d28565b6040516102c69190611eac565b60405180910390f35b6102d7610d32565b005b6102f360048036038101906102ee9190611ef8565b610d72565b005b6102fd61107c565b60405161030a9190611eac565b60405180910390f35b61031b611085565b005b61032561110d565b005b61032f61117b565b60405161033c9190612210565b60405180910390f35b61035f600480360381019061035a9190612232565b611269565b005b61036961130b565b604051610376919061226e565b60405180910390f35b610387611334565b005b6103a3600480360381019061039e9190611f83565b6113e5565b005b6103bf60048036038101906103ba9190611ef8565b6114a5565b6040516103cc9190611eac565b60405180910390f35b6103dd6115b9565b6040516103ea91906122e8565b60405180910390f35b6103fb6115e3565b6040516104089190611eac565b60405180910390f35b6104196115ed565b6040516104269190611eac565b60405180910390f35b61044960048036038101906104449190611ef8565b6115f7565b005b61046560048036038101906104609190611f83565b61187c565b005b61046f611974565b60405161047c9190611fcb565b60405180910390f35b60008061049061198b565b9050600061049d826119ca565b905060006104a96119eb565b90506104c66104b783610567565b826119f590919063ffffffff16565b935050505090565b6104d6611a0b565b73ffffffffffffffffffffffffffffffffffffffff166104f461130b565b73ffffffffffffffffffffffffffffffffffffffff161461054a576040517f08c379a000000000000000000000000000000000000000000000000000000000815260040161054190612360565b60405180910390fd5b670de0b6b3a76400008161055e91906123af565b60018190555050565b6000610583610574610d28565b83611a1390919063ffffffff16565b9050919050565b60076020528060005260406000206000915054906101000a900460ff1681565b6105b2611a0b565b73ffffffffffffffffffffffffffffffffffffffff166105d061130b565b73ffffffffffffffffffffffffffffffffffffffff1614610626576040517f08c379a000000000000000000000000000000000000000000000000000000000815260040161061d90612360565b60405180910390fd5b8260001515600760008373ffffffffffffffffffffffffffffffffffffffff1673ffffffffffffffffffffffffffffffffffffffff16815260200190815260200160002060009054906101000a900460ff161515146106ba576040517f08c379a00000000000000000000000000000000000000000000000000000000081526004016106b190612455565b60405180910390fd5b6001600760008373ffffffffffffffffffffffffffffffffffffffff1673ffffffffffffffffffffffffffffffffffffffff16815260200190815260200160002060006101000a81548160ff02191690831515021790555060008311610755576040517f08c379a000000000000000000000000000000000000000000000000000000000815260040161074c906124c1565b60405180910390fd5b61075d611974565b80156107705750600061076e610d28565b115b1561077e5761077d61110d565b5b60006040518060a001604052808673ffffffffffffffffffffffffffffffffffffffff16815260200185815260200184151581526020016107e664e8d4a510006107d86107c96119eb565b89611a2990919063ffffffff16565b611a1390919063ffffffff16565b815260200160008152509050600881908060018154018082558091505060019003906000526020600020906005020160009091909190915060008201518160000160006101000a81548173ffffffffffffffffffffffffffffffffffffffff021916908373ffffffffffffffffffffffffffffffffffffffff1602179055506020820151816001015560408201518160020160006101000a81548160ff021916908315150217905550606082015181600301556080820151816004015550506108b28160200151611a3f565b5050505050565b6108c1611974565b610900576040517f08c379a00000000000000000000000000000000000000000000000000000000081526004016108f79061252d565b60405180910390fd5b6000600882815481106109165761091561254d565b5b9060005260206000209060050201905060008160040154141561096e576040517f08c379a0000000000000000000000000000000000000000000000000000000008152600401610965906125c8565b60405180910390fd5b610976611a0b565b73ffffffffffffffffffffffffffffffffffffffff168160000160009054906101000a900473ffffffffffffffffffffffffffffffffffffffff1673ffffffffffffffffffffffffffffffffffffffff1614610a07576040517f08c379a00000000000000000000000000000000000000000000000000000000081526004016109fe90612634565b60405180910390fd5b610a41610a126115b9565b8260000160009054906101000a900473ffffffffffffffffffffffffffffffffffffffff168360040154611a5d565b600081600401819055507ff279e6a1f5e320cca91135676d9cb6e44ca8a08c0b88342bcdb1144f6511b56833838360040154604051610a8293929190612654565b60405180910390a15050565b610a96611a0b565b73ffffffffffffffffffffffffffffffffffffffff16610ab461130b565b73ffffffffffffffffffffffffffffffffffffffff1614610b0a576040517f08c379a0000000000000000000000000000000000000000000000000000000008152600401610b0190612360565b60405180910390fd5b610b12611974565b610b51576040517f08c379a0000000000000000000000000000000000000000000000000000000008152600401610b489061252d565b60405180910390fd5b610b5a836115f7565b610b8960088481548110610b7157610b7061254d565b5b90600052602060002090600502016001015483611ae3565b8360088481548110610b9e57610b9d61254d565b5b906000526020600020906005020160000160006101000a81548173ffffffffffffffffffffffffffffffffffffffff021916908373ffffffffffffffffffffffffffffffffffffffff1602179055508160088481548110610c0257610c0161254d565b5b9060005260206000209060050201600101819055508060088481548110610c2c57610c2b61254d565b5b906000526020600020906005020160020160006101000a81548160ff02191690831515021790555050505050565b60008060088381548110610c7157610c7061254d565b5b90600052602060002090600502016040518060a00160405290816000820160009054906101000a900473ffffffffffffffffffffffffffffffffffffffff1673ffffffffffffffffffffffffffffffffffffffff1673ffffffffffffffffffffffffffffffffffffffff168152602001600182015481526020016002820160009054906101000a900460ff161515151581526020016003820154815260200160048201548152505090508060800151915050919050565b6000600554905090565b6000610d3c61198b565b90506000610d49826119ca565b9050610d68610d5782610567565b6004546119f590919063ffffffff16565b6004819055505050565b610d7a611a0b565b73ffffffffffffffffffffffffffffffffffffffff16610d9861130b565b73ffffffffffffffffffffffffffffffffffffffff1614610dee576040517f08c379a0000000000000000000000000000000000000000000000000000000008152600401610de590612360565b60405180910390fd5b6008805490508110610e35576040517f08c379a0000000000000000000000000000000000000000000000000000000008152600401610e2c906126d7565b60405180910390fd5b610e3d611974565b610e7c576040517f08c379a0000000000000000000000000000000000000000000000000000000008152600401610e739061252d565b60405180910390fd5b600160088281548110610e9257610e9161254d565b5b906000526020600020906005020160020160006101000a81548160ff021916908315150217905550610ec3816115f7565b610ef160088281548110610eda57610ed961254d565b5b906000526020600020906005020160010154611b14565b60086001600880549050610f0591906126f7565b81548110610f1657610f1561254d565b5b906000526020600020906005020160088281548110610f3857610f3761254d565b5b90600052602060002090600502016000820160009054906101000a900473ffffffffffffffffffffffffffffffffffffffff168160000160006101000a81548173ffffffffffffffffffffffffffffffffffffffff021916908373ffffffffffffffffffffffffffffffffffffffff160217905550600182015481600101556002820160009054906101000a900460ff168160020160006101000a81548160ff0219169083151502179055506003820154816003015560048201548160040155905050600880548061100d5761100c61272b565b5b6001900381819060005260206000209060050201600080820160006101000a81549073ffffffffffffffffffffffffffffffffffffffff021916905560018201600090556002820160006101000a81549060ff0219169055600382016000905560048201600090555050905550565b64e8d4a5100081565b61108d611a0b565b73ffffffffffffffffffffffffffffffffffffffff166110ab61130b565b73ffffffffffffffffffffffffffffffffffffffff1614611101576040517f08c379a00000000000000000000000000000000000000000000000000000000081526004016110f890612360565b60405180910390fd5b61110b6000611b32565b565b611115611974565b611154576040517f08c379a000000000000000000000000000000000000000000000000000000000815260040161114b9061252d565b60405180910390fd5b61115c6115e3565b431161116757611179565b61116f610d32565b61117843611bf6565b5b565b60606008805480602002602001604051908101604052809291908181526020016000905b8282101561126057838290600052602060002090600502016040518060a00160405290816000820160009054906101000a900473ffffffffffffffffffffffffffffffffffffffff1673ffffffffffffffffffffffffffffffffffffffff1673ffffffffffffffffffffffffffffffffffffffff168152602001600182015481526020016002820160009054906101000a900460ff16151515158152602001600382015481526020016004820154815250508152602001906001019061119f565b50505050905090565b611271611a0b565b73ffffffffffffffffffffffffffffffffffffffff1661128f61130b565b73ffffffffffffffffffffffffffffffffffffffff16146112e5576040517f08c379a00000000000000000000000000000000000000000000000000000000081526004016112dc90612360565b60405180910390fd5b80600260006101000a81548160ff02191690831515021790555061130843611bf6565b50565b60008060009054906101000a900473ffffffffffffffffffffffffffffffffffffffff16905090565b61133c611a0b565b73ffffffffffffffffffffffffffffffffffffffff1661135a61130b565b73ffffffffffffffffffffffffffffffffffffffff16146113b0576040517f08c379a00000000000000000000000000000000000000000000000000000000081526004016113a790612360565b60405180910390fd5b60005b6008805490508160ff1610156113e2576113cf8160ff166115f7565b80806113da90612767565b9150506113b3565b50565b6113ed611a0b565b73ffffffffffffffffffffffffffffffffffffffff1661140b61130b565b73ffffffffffffffffffffffffffffffffffffffff1614611461576040517f08c379a000000000000000000000000000000000000000000000000000000000815260040161145890612360565b60405180910390fd5b80600660006101000a81548173ffffffffffffffffffffffffffffffffffffffff021916908373ffffffffffffffffffffffffffffffffffffffff16021790555050565b600080600883815481106114bc576114bb61254d565b5b90600052602060002090600502016040518060a00160405290816000820160009054906101000a900473ffffffffffffffffffffffffffffffffffffffff1673ffffffffffffffffffffffffffffffffffffffff1673ffffffffffffffffffffffffffffffffffffffff168152602001600182015481526020016002820160009054906101000a900460ff161515151581526020016003820154815260200160048201548152505090506115b181606001516115a364e8d4a51000611595611582610485565b8660200151611a2990919063ffffffff16565b611a1390919063ffffffff16565b611c0090919063ffffffff16565b915050919050565b6000600660009054906101000a900473ffffffffffffffffffffffffffffffffffffffff16905090565b6000600354905090565b6000600154905090565b6115ff611974565b61163e576040517f08c379a00000000000000000000000000000000000000000000000000000000081526004016116359061252d565b60405180910390fd5b6000600882815481106116545761165361254d565b5b9060005260206000209060050201905061166c611a0b565b73ffffffffffffffffffffffffffffffffffffffff168160000160009054906101000a900473ffffffffffffffffffffffffffffffffffffffff1673ffffffffffffffffffffffffffffffffffffffff16148061170257506116cc61130b565b73ffffffffffffffffffffffffffffffffffffffff166116ea611a0b565b73ffffffffffffffffffffffffffffffffffffffff16145b611741576040517f08c379a0000000000000000000000000000000000000000000000000000000008152600401611738906127dd565b60405180910390fd5b61174961110d565b6000611796826003015461178864e8d4a5100061177a6117676119eb565b8760010154611a2990919063ffffffff16565b611a1390919063ffffffff16565b611c0090919063ffffffff16565b90506117af8183600301546119f590919063ffffffff16565b82600301819055506000811461183c578160020160009054906101000a900460ff161561181b5761180c6117e16115b9565b8360000160009054906101000a900473ffffffffffffffffffffffffffffffffffffffff1683611a5d565b6000826004018190555061183b565b6118328183600401546119f590919063ffffffff16565b82600401819055505b5b7f71bab65ced2e5750775a0613be067df48ef06cf92a496ebf7663ae066092495433848360405161186f93929190612654565b60405180910390a1505050565b611884611a0b565b73ffffffffffffffffffffffffffffffffffffffff166118a261130b565b73ffffffffffffffffffffffffffffffffffffffff16146118f8576040517f08c379a00000000000000000000000000000000000000000000000000000000081526004016118ef90612360565b60405180910390fd5b600073ffffffffffffffffffffffffffffffffffffffff168173ffffffffffffffffffffffffffffffffffffffff161415611968576040517f08c379a000000000000000000000000000000000000000000000000000000000815260040161195f9061286f565b60405180910390fd5b61197181611b32565b50565b6000600260009054906101000a900460ff16905090565b6000806119a86119996115e3565b43611c0090919063ffffffff16565b90506119c46119b56115ed565b82611a2990919063ffffffff16565b91505090565b60006119e464e8d4a5100083611a2990919063ffffffff16565b9050919050565b6000600454905090565b60008183611a03919061288f565b905092915050565b600033905090565b60008183611a219190612914565b905092915050565b60008183611a3791906123af565b905092915050565b611a54816005546119f590919063ffffffff16565b60058190555050565b611ade8363a9059cbb60e01b8484604051602401611a7c929190612945565b604051602081830303815290604052907bffffffffffffffffffffffffffffffffffffffffffffffffffffffff19166020820180517bffffffffffffffffffffffffffffffffffffffffffffffffffffffff8381831617835250505050611c16565b505050565b611b0a81611afc84600554611c0090919063ffffffff16565b6119f590919063ffffffff16565b6005819055505050565b611b2981600554611c0090919063ffffffff16565b60058190555050565b60008060009054906101000a900473ffffffffffffffffffffffffffffffffffffffff169050816000806101000a81548173ffffffffffffffffffffffffffffffffffffffff021916908373ffffffffffffffffffffffffffffffffffffffff1602179055508173ffffffffffffffffffffffffffffffffffffffff168173ffffffffffffffffffffffffffffffffffffffff167f8be0079c531659141344cd1fd0a4f28419497f9722a3daafe3b4186f6b6457e060405160405180910390a35050565b8060038190555050565b60008183611c0e91906126f7565b905092915050565b6000611c78826040518060400160405280602081526020017f5361666545524332303a206c6f772d6c6576656c2063616c6c206661696c65648152508573ffffffffffffffffffffffffffffffffffffffff16611cdd9092919063ffffffff16565b9050600081511115611cd85780806020019051810190611c989190612983565b611cd7576040517f08c379a0000000000000000000000000000000000000000000000000000000008152600401611cce90612a22565b60405180910390fd5b5b505050565b6060611cec8484600085611cf5565b90509392505050565b606082471015611d3a576040517f08c379a0000000000000000000000000000000000000000000000000000000008152600401611d3190612ab4565b60405180910390fd5b611d4385611e09565b611d82576040517f08c379a0000000000000000000000000000000000000000000000000000000008152600401611d7990612b20565b60405180910390fd5b6000808673ffffffffffffffffffffffffffffffffffffffff168587604051611dab9190612bba565b60006040518083038185875af1925050503d8060008114611de8576040519150601f19603f3d011682016040523d82523d6000602084013e611ded565b606091505b5091509150611dfd828286611e2c565b92505050949350505050565b6000808273ffffffffffffffffffffffffffffffffffffffff163b119050919050565b60608315611e3c57829050611e8c565b600083511115611e4f5782518084602001fd5b816040517f08c379a0000000000000000000000000000000000000000000000000000000008152600401611e839190612c26565b60405180910390fd5b9392505050565b6000819050919050565b611ea681611e93565b82525050565b6000602082019050611ec16000830184611e9d565b92915050565b600080fd5b611ed581611e93565b8114611ee057600080fd5b50565b600081359050611ef281611ecc565b92915050565b600060208284031215611f0e57611f0d611ec7565b5b6000611f1c84828501611ee3565b91505092915050565b600073ffffffffffffffffffffffffffffffffffffffff82169050919050565b6000611f5082611f25565b9050919050565b611f6081611f45565b8114611f6b57600080fd5b50565b600081359050611f7d81611f57565b92915050565b600060208284031215611f9957611f98611ec7565b5b6000611fa784828501611f6e565b91505092915050565b60008115159050919050565b611fc581611fb0565b82525050565b6000602082019050611fe06000830184611fbc565b92915050565b611fef81611fb0565b8114611ffa57600080fd5b50565b60008135905061200c81611fe6565b92915050565b60008060006060848603121561202b5761202a611ec7565b5b600061203986828701611f6e565b935050602061204a86828701611ee3565b925050604061205b86828701611ffd565b9150509250925092565b6000806000806080858703121561207f5761207e611ec7565b5b600061208d87828801611f6e565b945050602061209e87828801611ee3565b93505060406120af87828801611ee3565b92505060606120c087828801611ffd565b91505092959194509250565b600081519050919050565b600082825260208201905092915050565b6000819050602082019050919050565b61210181611f45565b82525050565b61211081611e93565b82525050565b61211f81611fb0565b82525050565b60a08201600082015161213b60008501826120f8565b50602082015161214e6020850182612107565b5060408201516121616040850182612116565b5060608201516121746060850182612107565b5060808201516121876080850182612107565b50505050565b60006121998383612125565b60a08301905092915050565b6000602082019050919050565b60006121bd826120cc565b6121c781856120d7565b93506121d2836120e8565b8060005b838110156122035781516121ea888261218d565b97506121f5836121a5565b9250506001810190506121d6565b5085935050505092915050565b6000602082019050818103600083015261222a81846121b2565b905092915050565b60006020828403121561224857612247611ec7565b5b600061225684828501611ffd565b91505092915050565b61226881611f45565b82525050565b6000602082019050612283600083018461225f565b92915050565b6000819050919050565b60006122ae6122a96122a484611f25565b612289565b611f25565b9050919050565b60006122c082612293565b9050919050565b60006122d2826122b5565b9050919050565b6122e2816122c7565b82525050565b60006020820190506122fd60008301846122d9565b92915050565b600082825260208201905092915050565b7f4f776e61626c653a2063616c6c6572206973206e6f7420746865206f776e6572600082015250565b600061234a602083612303565b915061235582612314565b602082019050919050565b600060208201905081810360008301526123798161233d565b9050919050565b7f4e487b7100000000000000000000000000000000000000000000000000000000600052601160045260246000fd5b60006123ba82611e93565b91506123c583611e93565b9250817fffffffffffffffffffffffffffffffffffffffffffffffffffffffffffffffff04831182151516156123fe576123fd612380565b5b828202905092915050565b7f6e6f6e4475706c6963617465643a206475706c69636174656400000000000000600082015250565b600061243f601983612303565b915061244a82612409565b602082019050919050565b6000602082019050818103600083015261246e81612432565b9050919050565b7f7368617265732073686f756c642062652067726561746572207468616e203000600082015250565b60006124ab601f83612303565b91506124b682612475565b602082019050919050565b600060208201905081810360008301526124da8161249e565b9050919050565b7f5265776172647320617265206e6f742061637469766500000000000000000000600082015250565b6000612517601683612303565b9150612522826124e1565b602082019050919050565b600060208201905081810360008301526125468161250a565b9050919050565b7f4e487b7100000000000000000000000000000000000000000000000000000000600052603260045260246000fd5b7f4e6f20636c61696d61626c65207265776172647320746f207769746864726177600082015250565b60006125b2602083612303565b91506125bd8261257c565b602082019050919050565b600060208201905081810360008301526125e1816125a5565b9050919050565b7f53656e64657220646f6573206e6f7420726570726573656e742067726f757000600082015250565b600061261e601f83612303565b9150612629826125e8565b602082019050919050565b6000602082019050818103600083015261264d81612611565b9050919050565b6000606082019050612669600083018661225f565b6126766020830185611e9d565b6126836040830184611e9d565b949350505050565b7f496e64657820646f6573206e6f74206d6174636820616c6c6f636174696f6e00600082015250565b60006126c1601f83612303565b91506126cc8261268b565b602082019050919050565b600060208201905081810360008301526126f0816126b4565b9050919050565b600061270282611e93565b915061270d83611e93565b9250828210156127205761271f612380565b5b828203905092915050565b7f4e487b7100000000000000000000000000000000000000000000000000000000600052603160045260246000fd5b600060ff82169050919050565b60006127728261275a565b915060ff82141561278657612785612380565b5b600182019050919050565b7f53656e646572206973206e6f742067726f7570206f72206f776e657200000000600082015250565b60006127c7601c83612303565b91506127d282612791565b602082019050919050565b600060208201905081810360008301526127f6816127ba565b9050919050565b7f4f776e61626c653a206e6577206f776e657220697320746865207a65726f206160008201527f6464726573730000000000000000000000000000000000000000000000000000602082015250565b6000612859602683612303565b9150612864826127fd565b604082019050919050565b600060208201905081810360008301526128888161284c565b9050919050565b600061289a82611e93565b91506128a583611e93565b9250827fffffffffffffffffffffffffffffffffffffffffffffffffffffffffffffffff038211156128da576128d9612380565b5b828201905092915050565b7f4e487b7100000000000000000000000000000000000000000000000000000000600052601260045260246000fd5b600061291f82611e93565b915061292a83611e93565b92508261293a576129396128e5565b5b828204905092915050565b600060408201905061295a600083018561225f565b6129676020830184611e9d565b9392505050565b60008151905061297d81611fe6565b92915050565b60006020828403121561299957612998611ec7565b5b60006129a78482850161296e565b91505092915050565b7f5361666545524332303a204552433230206f7065726174696f6e20646964206e60008201527f6f74207375636365656400000000000000000000000000000000000000000000602082015250565b6000612a0c602a83612303565b9150612a17826129b0565b604082019050919050565b60006020820190508181036000830152612a3b816129ff565b9050919050565b7f416464726573733a20696e73756666696369656e742062616c616e636520666f60008201527f722063616c6c0000000000000000000000000000000000000000000000000000602082015250565b6000612a9e602683612303565b9150612aa982612a42565b604082019050919050565b60006020820190508181036000830152612acd81612a91565b9050919050565b7f416464726573733a2063616c6c20746f206e6f6e2d636f6e7472616374000000600082015250565b6000612b0a601d83612303565b9150612b1582612ad4565b602082019050919050565b60006020820190508181036000830152612b3981612afd565b9050919050565b600081519050919050565b600081905092915050565b60005b83811015612b74578082015181840152602081019050612b59565b83811115612b83576000848401525b50505050565b6000612b9482612b40565b612b9e8185612b4b565b9350612bae818560208601612b56565b80840191505092915050565b6000612bc68284612b89565b915081905092915050565b600081519050919050565b6000601f19601f8301169050919050565b6000612bf882612bd1565b612c028185612303565b9350612c12818560208601612b56565b612c1b81612bdc565b840191505092915050565b60006020820190508181036000830152612c408184612bed565b90509291505056fea26469706673582212204d80607354713a992b2a595538284c70d8b70f233146a187f2d029b0cadde67864736f6c634300080b0033",
  "devdoc": {
    "kind": "dev",
    "methods": {
      "owner()": {
        "details": "Returns the address of the current owner."
      },
      "renounceOwnership()": {
        "details": "Leaves the contract without owner. It will not be possible to call `onlyOwner` functions anymore. Can only be called by the current owner. NOTE: Renouncing ownership will leave the contract without an owner, thereby removing any functionality that is only available to the owner."
      },
      "transferOwnership(address)": {
        "details": "Transfers ownership of the contract to a new account (`newOwner`). Can only be called by the current owner."
      }
    },
    "version": 1
  },
  "userdoc": {
    "kind": "user",
    "methods": {},
    "version": 1
  },
  "storageLayout": {
    "storage": [
      {
        "astId": 7,
        "contract": "src/contracts/TopChef.sol:TopChef",
        "label": "_owner",
        "offset": 0,
        "slot": "0",
        "type": "t_address"
      },
      {
        "astId": 1660,
        "contract": "src/contracts/TopChef.sol:TopChef",
        "label": "_metricPerBlock",
        "offset": 0,
        "slot": "1",
        "type": "t_uint256"
      },
      {
        "astId": 1665,
        "contract": "src/contracts/TopChef.sol:TopChef",
        "label": "_rewardsActive",
        "offset": 0,
        "slot": "2",
        "type": "t_bool"
      },
      {
        "astId": 1667,
        "contract": "src/contracts/TopChef.sol:TopChef",
        "label": "_lastRewardBlock",
        "offset": 0,
        "slot": "3",
        "type": "t_uint256"
      },
      {
        "astId": 1669,
        "contract": "src/contracts/TopChef.sol:TopChef",
        "label": "_lifetimeShareValue",
        "offset": 0,
        "slot": "4",
        "type": "t_uint256"
      },
      {
        "astId": 1671,
        "contract": "src/contracts/TopChef.sol:TopChef",
        "label": "_totalAllocShares",
        "offset": 0,
        "slot": "5",
        "type": "t_uint256"
      },
      {
        "astId": 1674,
        "contract": "src/contracts/TopChef.sol:TopChef",
        "label": "metric",
        "offset": 0,
        "slot": "6",
        "type": "t_contract(MetricToken)1994"
      },
      {
        "astId": 1929,
        "contract": "src/contracts/TopChef.sol:TopChef",
        "label": "addressExistence",
        "offset": 0,
        "slot": "7",
        "type": "t_mapping(t_address,t_bool)"
      },
      {
        "astId": 2008,
        "contract": "src/contracts/TopChef.sol:TopChef",
        "label": "_allocations",
        "offset": 0,
        "slot": "8",
        "type": "t_array(t_struct(AllocationGroup)2486_storage)dyn_storage"
      }
    ],
    "types": {
      "t_address": {
        "encoding": "inplace",
        "label": "address",
        "numberOfBytes": "20"
      },
      "t_array(t_struct(AllocationGroup)2486_storage)dyn_storage": {
        "base": "t_struct(AllocationGroup)2486_storage",
        "encoding": "dynamic_array",
        "label": "struct TopChef.AllocationGroup[]",
        "numberOfBytes": "32"
      },
      "t_bool": {
        "encoding": "inplace",
        "label": "bool",
        "numberOfBytes": "1"
      },
      "t_contract(MetricToken)1994": {
        "encoding": "inplace",
        "label": "contract MetricToken",
        "numberOfBytes": "20"
      },
      "t_mapping(t_address,t_bool)": {
        "encoding": "mapping",
        "key": "t_address",
        "label": "mapping(address => bool)",
        "numberOfBytes": "32",
        "value": "t_bool"
      },
      "t_struct(AllocationGroup)2486_storage": {
        "encoding": "inplace",
        "label": "struct TopChef.AllocationGroup",
        "members": [
          {
            "astId": 2477,
            "contract": "src/contracts/TopChef.sol:TopChef",
            "label": "groupAddress",
            "offset": 0,
            "slot": "0",
            "type": "t_address"
          },
          {
            "astId": 2479,
            "contract": "src/contracts/TopChef.sol:TopChef",
            "label": "shares",
            "offset": 0,
            "slot": "1",
            "type": "t_uint256"
          },
          {
            "astId": 2481,
            "contract": "src/contracts/TopChef.sol:TopChef",
            "label": "autodistribute",
            "offset": 0,
            "slot": "2",
            "type": "t_bool"
          },
          {
            "astId": 2483,
            "contract": "src/contracts/TopChef.sol:TopChef",
            "label": "rewardDebt",
            "offset": 0,
            "slot": "3",
            "type": "t_uint256"
          },
          {
            "astId": 2485,
            "contract": "src/contracts/TopChef.sol:TopChef",
            "label": "claimable",
            "offset": 0,
            "slot": "4",
            "type": "t_uint256"
          }
        ],
        "numberOfBytes": "160"
      },
      "t_uint256": {
        "encoding": "inplace",
        "label": "uint256",
        "numberOfBytes": "32"
      }
    }
  }
}