{
  "address": "0xa513E6E4b8f2a923D98304ec87F64353C4D5C853",
  "abi": [
    {
      "inputs": [
        {
          "internalType": "address",
          "name": "metricTokenAddress",
          "type": "address"
        }
      ],
      "stateMutability": "nonpayable",
      "type": "constructor"
    },
    {
      "inputs": [],
      "name": "CannotRenounce",
      "type": "error"
    },
    {
      "inputs": [],
      "name": "DuplicateAddress",
      "type": "error"
    },
    {
      "inputs": [],
      "name": "IndexDoesNotMatchAllocation",
      "type": "error"
    },
    {
      "inputs": [],
      "name": "InvalidShareAmount",
      "type": "error"
    },
    {
      "inputs": [],
      "name": "RewardsNotActive",
      "type": "error"
    },
    {
      "inputs": [],
      "name": "SharesNotGreaterThanZero",
      "type": "error"
    },
    {
      "anonymous": false,
      "inputs": [
        {
          "components": [
            {
              "internalType": "address",
              "name": "groupAddress",
              "type": "address"
            },
            {
              "internalType": "uint256",
              "name": "shares",
              "type": "uint256"
            },
            {
              "internalType": "uint256",
              "name": "lifetimeEarnings",
              "type": "uint256"
            },
            {
              "internalType": "uint256",
              "name": "claimable",
              "type": "uint256"
            }
          ],
          "indexed": false,
          "internalType": "struct TopChef.AllocationGroup",
          "name": "",
          "type": "tuple"
        }
      ],
      "name": "AddGroup",
      "type": "event"
    },
    {
      "anonymous": false,
      "inputs": [
        {
          "indexed": true,
          "internalType": "address",
          "name": "harvester",
          "type": "address"
        },
        {
          "indexed": false,
          "internalType": "uint256",
          "name": "agIndex",
          "type": "uint256"
        },
        {
          "indexed": false,
          "internalType": "uint256",
          "name": "amount",
          "type": "uint256"
        }
      ],
      "name": "Harvest",
      "type": "event"
    },
    {
      "anonymous": false,
      "inputs": [
        {
          "indexed": true,
          "internalType": "address",
          "name": "previousOwner",
          "type": "address"
        },
        {
          "indexed": true,
          "internalType": "address",
          "name": "newOwner",
          "type": "address"
        }
      ],
      "name": "OwnershipTransferred",
      "type": "event"
    },
    {
      "anonymous": false,
      "inputs": [
        {
          "components": [
            {
              "internalType": "address",
              "name": "groupAddress",
              "type": "address"
            },
            {
              "internalType": "uint256",
              "name": "shares",
              "type": "uint256"
            },
            {
              "internalType": "uint256",
              "name": "lifetimeEarnings",
              "type": "uint256"
            },
            {
              "internalType": "uint256",
              "name": "claimable",
              "type": "uint256"
            }
          ],
          "indexed": false,
          "internalType": "struct TopChef.AllocationGroup",
          "name": "",
          "type": "tuple"
        }
      ],
      "name": "RemoveGroup",
      "type": "event"
    },
    {
      "anonymous": false,
      "inputs": [
        {
          "components": [
            {
              "internalType": "address",
              "name": "groupAddress",
              "type": "address"
            },
            {
              "internalType": "uint256",
              "name": "shares",
              "type": "uint256"
            },
            {
              "internalType": "uint256",
              "name": "lifetimeEarnings",
              "type": "uint256"
            },
            {
              "internalType": "uint256",
              "name": "claimable",
              "type": "uint256"
            }
          ],
          "indexed": false,
          "internalType": "struct TopChef.AllocationGroup",
          "name": "",
          "type": "tuple"
        }
      ],
      "name": "UpdateGroup",
      "type": "event"
    },
    {
      "anonymous": false,
      "inputs": [
        {
          "indexed": true,
          "internalType": "address",
          "name": "withdrawer",
          "type": "address"
        },
        {
          "indexed": false,
          "internalType": "uint256",
          "name": "agIndex",
          "type": "uint256"
        },
        {
          "indexed": false,
          "internalType": "uint256",
          "name": "amount",
          "type": "uint256"
        }
      ],
      "name": "Withdraw",
      "type": "event"
    },
    {
      "inputs": [],
      "name": "ACC_METRIC_PRECISION",
      "outputs": [
        {
          "internalType": "uint256",
          "name": "",
          "type": "uint256"
        }
      ],
      "stateMutability": "view",
      "type": "function"
    },
    {
      "inputs": [
        {
          "internalType": "uint256",
          "name": "accumulatedWithPrecision",
          "type": "uint256"
        }
      ],
      "name": "accumulatedMetricDividedByShares",
      "outputs": [
        {
          "internalType": "uint256",
          "name": "",
          "type": "uint256"
        }
      ],
      "stateMutability": "view",
      "type": "function"
    },
    {
      "inputs": [
        {
          "internalType": "address",
          "name": "newAddress",
          "type": "address"
        },
        {
          "internalType": "uint256",
          "name": "newShares",
          "type": "uint256"
        }
      ],
      "name": "addAllocationGroup",
      "outputs": [],
      "stateMutability": "nonpayable",
      "type": "function"
    },
    {
      "inputs": [
        {
          "internalType": "address",
          "name": "",
          "type": "address"
        }
      ],
      "name": "addressExistence",
      "outputs": [
        {
          "internalType": "bool",
          "name": "",
          "type": "bool"
        }
      ],
      "stateMutability": "view",
      "type": "function"
    },
    {
      "inputs": [],
      "name": "areRewardsActive",
      "outputs": [
        {
          "internalType": "bool",
          "name": "",
          "type": "bool"
        }
      ],
      "stateMutability": "view",
      "type": "function"
    },
    {
      "inputs": [
        {
          "internalType": "uint256",
          "name": "agIndex",
          "type": "uint256"
        }
      ],
      "name": "claim",
      "outputs": [],
      "stateMutability": "nonpayable",
      "type": "function"
    },
    {
      "inputs": [],
      "name": "getAllocationGroups",
      "outputs": [
        {
          "components": [
            {
              "internalType": "address",
              "name": "groupAddress",
              "type": "address"
            },
            {
              "internalType": "uint256",
              "name": "shares",
              "type": "uint256"
            },
            {
              "internalType": "uint256",
              "name": "lifetimeEarnings",
              "type": "uint256"
            },
            {
              "internalType": "uint256",
              "name": "claimable",
              "type": "uint256"
            }
          ],
          "internalType": "struct TopChef.AllocationGroup[]",
          "name": "",
          "type": "tuple[]"
        }
      ],
      "stateMutability": "view",
      "type": "function"
    },
    {
      "inputs": [],
      "name": "getLastRewardBlock",
      "outputs": [
        {
          "internalType": "uint256",
          "name": "",
          "type": "uint256"
        }
      ],
      "stateMutability": "view",
      "type": "function"
    },
    {
      "inputs": [],
      "name": "getLifeTimeShareValueEstimate",
      "outputs": [
        {
          "internalType": "uint256",
          "name": "",
          "type": "uint256"
        }
      ],
      "stateMutability": "view",
      "type": "function"
    },
    {
      "inputs": [],
      "name": "getMetricPerBlock",
      "outputs": [
        {
          "internalType": "uint256",
          "name": "",
          "type": "uint256"
        }
      ],
      "stateMutability": "view",
      "type": "function"
    },
    {
      "inputs": [],
      "name": "getMetricToken",
      "outputs": [
        {
          "internalType": "contract MetricToken",
          "name": "",
          "type": "address"
        }
      ],
      "stateMutability": "view",
      "type": "function"
    },
    {
      "inputs": [],
      "name": "getTotalAllocationShares",
      "outputs": [
        {
          "internalType": "uint256",
          "name": "",
          "type": "uint256"
        }
      ],
      "stateMutability": "view",
      "type": "function"
    },
    {
      "inputs": [
        {
          "internalType": "uint256",
          "name": "agIndex",
          "type": "uint256"
        }
      ],
      "name": "harvest",
      "outputs": [
        {
          "internalType": "uint256",
          "name": "",
          "type": "uint256"
        }
      ],
      "stateMutability": "nonpayable",
      "type": "function"
    },
    {
      "inputs": [],
      "name": "harvestAll",
      "outputs": [],
      "stateMutability": "nonpayable",
      "type": "function"
    },
    {
      "inputs": [],
      "name": "owner",
      "outputs": [
        {
          "internalType": "address",
          "name": "",
          "type": "address"
        }
      ],
      "stateMutability": "view",
      "type": "function"
    },
    {
      "inputs": [
        {
          "internalType": "uint256",
          "name": "agIndex",
          "type": "uint256"
        }
      ],
      "name": "removeAllocationGroup",
      "outputs": [],
      "stateMutability": "nonpayable",
      "type": "function"
    },
    {
      "inputs": [],
      "name": "renounceOwnership",
      "outputs": [],
      "stateMutability": "view",
      "type": "function"
    },
    {
      "inputs": [],
      "name": "setLifetimeShareValue",
      "outputs": [],
      "stateMutability": "nonpayable",
      "type": "function"
    },
    {
      "inputs": [
        {
          "internalType": "uint256",
          "name": "metricAmount",
          "type": "uint256"
        }
      ],
      "name": "setMetricPerBlock",
      "outputs": [],
      "stateMutability": "nonpayable",
      "type": "function"
    },
    {
      "inputs": [
        {
          "internalType": "address",
          "name": "metricTokenAddress",
          "type": "address"
        }
      ],
      "name": "setMetricToken",
      "outputs": [],
      "stateMutability": "nonpayable",
      "type": "function"
    },
    {
      "inputs": [
        {
          "internalType": "bool",
          "name": "isOn",
          "type": "bool"
        }
      ],
      "name": "toggleRewards",
      "outputs": [],
      "stateMutability": "nonpayable",
      "type": "function"
    },
    {
      "inputs": [
        {
          "internalType": "address",
          "name": "newOwner",
          "type": "address"
        }
      ],
      "name": "transferOwnership",
      "outputs": [],
      "stateMutability": "nonpayable",
      "type": "function"
    },
    {
      "inputs": [],
      "name": "updateAccumulatedAllocations",
      "outputs": [],
      "stateMutability": "nonpayable",
      "type": "function"
    },
    {
      "inputs": [
        {
          "internalType": "address",
          "name": "groupAddress",
          "type": "address"
        },
        {
          "internalType": "uint256",
          "name": "agIndex",
          "type": "uint256"
        },
        {
          "internalType": "uint256",
          "name": "shares",
          "type": "uint256"
        }
      ],
      "name": "updateAllocationGroup",
      "outputs": [],
      "stateMutability": "nonpayable",
      "type": "function"
    },
    {
      "inputs": [
        {
          "internalType": "uint256",
          "name": "agIndex",
          "type": "uint256"
        }
      ],
      "name": "viewPendingClaims",
      "outputs": [
        {
          "internalType": "uint256",
          "name": "",
          "type": "uint256"
        }
      ],
      "stateMutability": "view",
      "type": "function"
    },
    {
      "inputs": [
        {
          "internalType": "uint256",
          "name": "agIndex",
          "type": "uint256"
        }
      ],
      "name": "viewPendingHarvest",
      "outputs": [
        {
          "internalType": "uint256",
          "name": "",
          "type": "uint256"
        }
      ],
      "stateMutability": "view",
      "type": "function"
    },
    {
      "inputs": [
        {
          "internalType": "uint256",
          "name": "agIndex",
          "type": "uint256"
        }
      ],
      "name": "viewPendingRewards",
      "outputs": [
        {
          "internalType": "uint256",
          "name": "",
          "type": "uint256"
        }
      ],
      "stateMutability": "view",
      "type": "function"
    }
  ],
  "transactionHash": "0x57193b5265792833f2b03ab6e277e244f2330cc61f0de4474c0bc611f2fe589d",
  "args": [
    "0x0165878A594ca255338adfa4d48449f69242Eb8F"
  ],
  "numDeployments": 1,
  "solcInputHash": "317fd9e8321b5dc84c3d6b3e414237e0",
  "bytecode": "0x60806040523480156200001157600080fd5b50604051620031b6380380620031b6833981810160405281019062000037919062000438565b620000576200004b6200009360201b60201c565b6200009b60201b60201c565b62000068816200015f60201b60201c565b6200007a60046200023260201b60201c565b6200008c6000620002e060201b60201c565b5062000587565b600033905090565b60008060009054906101000a900473ffffffffffffffffffffffffffffffffffffffff169050816000806101000a81548173ffffffffffffffffffffffffffffffffffffffff021916908373ffffffffffffffffffffffffffffffffffffffff1602179055508173ffffffffffffffffffffffffffffffffffffffff168173ffffffffffffffffffffffffffffffffffffffff167f8be0079c531659141344cd1fd0a4f28419497f9722a3daafe3b4186f6b6457e060405160405180910390a35050565b6200016f6200009360201b60201c565b73ffffffffffffffffffffffffffffffffffffffff16620001956200039c60201b60201c565b73ffffffffffffffffffffffffffffffffffffffff1614620001ee576040517f08c379a0000000000000000000000000000000000000000000000000000000008152600401620001e590620004cb565b60405180910390fd5b80600660006101000a81548173ffffffffffffffffffffffffffffffffffffffff021916908373ffffffffffffffffffffffffffffffffffffffff16021790555050565b620002426200009360201b60201c565b73ffffffffffffffffffffffffffffffffffffffff16620002686200039c60201b60201c565b73ffffffffffffffffffffffffffffffffffffffff1614620002c1576040517f08c379a0000000000000000000000000000000000000000000000000000000008152600401620002b890620004cb565b60405180910390fd5b670de0b6b3a764000081620002d7919062000526565b60018190555050565b620002f06200009360201b60201c565b73ffffffffffffffffffffffffffffffffffffffff16620003166200039c60201b60201c565b73ffffffffffffffffffffffffffffffffffffffff16146200036f576040517f08c379a00000000000000000000000000000000000000000000000000000000081526004016200036690620004cb565b60405180910390fd5b80600260006101000a81548160ff02191690831515021790555062000399620003c560201b60201c565b50565b60008060009054906101000a900473ffffffffffffffffffffffffffffffffffffffff16905090565b43600381905550565b600080fd5b600073ffffffffffffffffffffffffffffffffffffffff82169050919050565b60006200040082620003d3565b9050919050565b6200041281620003f3565b81146200041e57600080fd5b50565b600081519050620004328162000407565b92915050565b600060208284031215620004515762000450620003ce565b5b6000620004618482850162000421565b91505092915050565b600082825260208201905092915050565b7f4f776e61626c653a2063616c6c6572206973206e6f7420746865206f776e6572600082015250565b6000620004b36020836200046a565b9150620004c0826200047b565b602082019050919050565b60006020820190508181036000830152620004e681620004a4565b9050919050565b6000819050919050565b7f4e487b7100000000000000000000000000000000000000000000000000000000600052601160045260246000fd5b60006200053382620004ed565b91506200054083620004ed565b9250817fffffffffffffffffffffffffffffffffffffffffffffffffffffffffffffffff04831182151516156200057c576200057b620004f7565b5b828202905092915050565b612c1f80620005976000396000f3fe608060405234801561001057600080fd5b50600436106101a95760003560e01c80638c19ec8b116100f9578063bf4f6b5711610097578063d8009bb611610071578063d8009bb61461044a578063ddc632621461047a578063f2fde38b146104aa578063f33c9baa146104c6576101a9565b8063bf4f6b57146103f2578063bf62bee61461040e578063c5d836d91461042c576101a9565b8063945c5287116100d3578063945c52871461036c578063994cd56714610388578063a8e2a38b146103b8578063af2b0349146103d6576101a9565b80638c19ec8b146103285780638da5cb5b146103445780638ed955b914610362576101a9565b80635e175713116101665780636ac49a89116101405780636ac49a89146102d8578063715018a6146102f657806377d22d1a146103005780638b4a4ed51461030a576101a9565b80635e175713146102945780635f9b1bb5146102b25780636336694b146102bc576101a9565b80630419ba05146101ae5780631cd8f0fa146101cc5780631e718d27146101e857806322abbddf14610218578063379607f5146102485780635cae9a4814610264575b600080fd5b6101b66104e4565b6040516101c39190612020565b60405180910390f35b6101e660048036038101906101e1919061206c565b610518565b005b61020260048036038101906101fd919061206c565b6105b1565b60405161020f9190612020565b60405180910390f35b610232600480360381019061022d91906120f7565b61060d565b60405161023f919061213f565b60405180910390f35b610262600480360381019061025d919061206c565b61062d565b005b61027e6004803603810190610279919061206c565b610762565b60405161028b9190612020565b60405180910390f35b61029c610856565b6040516102a99190612020565b60405180910390f35b6102ba610860565b005b6102d660048036038101906102d1919061206c565b6108d1565b005b6102e0610ca8565b6040516102ed9190612020565b60405180910390f35b6102fe610cb1565b005b610308610d5f565b005b610312610db7565b60405161031f919061227c565b60405180910390f35b610342600480360381019061033d91906122ca565b610e8a565b005b61034c610f2b565b6040516103599190612306565b60405180910390f35b61036a610f54565b005b610386600480360381019061038191906120f7565b611004565b005b6103a2600480360381019061039d919061206c565b6110c4565b6040516103af9190612020565b60405180910390f35b6103c0611235565b6040516103cd9190612380565b60405180910390f35b6103f060048036038101906103eb919061239b565b61125f565b005b61040c600480360381019061040791906123db565b61155c565b005b610416611757565b6040516104239190612020565b60405180910390f35b610434611761565b6040516104419190612020565b60405180910390f35b610464600480360381019061045f919061206c565b61176b565b6040516104719190612020565b60405180910390f35b610494600480360381019061048f919061206c565b61187e565b6040516104a19190612020565b60405180910390f35b6104c460048036038101906104bf91906120f7565b611a07565b005b6104ce611afe565b6040516104db919061213f565b60405180910390f35b6000806104ef611b15565b905060006104fb611b5c565b9050610506826105b1565b81610511919061245d565b9250505090565b610520611b66565b73ffffffffffffffffffffffffffffffffffffffff1661053e610f2b565b73ffffffffffffffffffffffffffffffffffffffff1614610594576040517f08c379a000000000000000000000000000000000000000000000000000000000815260040161058b90612510565b60405180910390fd5b670de0b6b3a7640000816105a89190612530565b60018190555050565b6000806105bc610856565b036105f3576040517f8c88122d00000000000000000000000000000000000000000000000000000000815260040160405180910390fd5b6105fb610856565b8261060691906125b9565b9050919050565b60076020528060005260406000206000915054906101000a900460ff1681565b80600880549050811061066c576040517fd0333a0600000000000000000000000000000000000000000000000000000000815260040160405180910390fd5b600060088381548110610682576106816125ea565b5b90600052602060002090600402019050600061069d8461187e565b90506000811461075c57600082600301819055506106e76106bc611235565b8360000160009054906101000a900473ffffffffffffffffffffffffffffffffffffffff1683611b6e565b8160000160009054906101000a900473ffffffffffffffffffffffffffffffffffffffff1673ffffffffffffffffffffffffffffffffffffffff167ff279e6a1f5e320cca91135676d9cb6e44ca8a08c0b88342bcdb1144f6511b5688583604051610753929190612619565b60405180910390a25b50505050565b60008160088054905081106107a3576040517fd0333a0600000000000000000000000000000000000000000000000000000000815260040160405180910390fd5b6000600884815481106107b9576107b86125ea565b5b90600052602060002090600402016040518060800160405290816000820160009054906101000a900473ffffffffffffffffffffffffffffffffffffffff1673ffffffffffffffffffffffffffffffffffffffff1673ffffffffffffffffffffffffffffffffffffffff16815260200160018201548152602001600282015481526020016003820154815250509050806060015192505050919050565b6000600554905090565b610868611afe565b61089e576040517faa3aac7f00000000000000000000000000000000000000000000000000000000815260040160405180910390fd5b60006108a8611b15565b90506108b3816105b1565b6004546108c0919061245d565b6004819055506108ce611bf4565b50565b806008805490508110610910576040517fd0333a0600000000000000000000000000000000000000000000000000000000815260040160405180910390fd5b610918611afe565b61094e576040517faa3aac7f00000000000000000000000000000000000000000000000000000000815260040160405180910390fd5b610956611b66565b73ffffffffffffffffffffffffffffffffffffffff16610974610f2b565b73ffffffffffffffffffffffffffffffffffffffff16146109ca576040517f08c379a00000000000000000000000000000000000000000000000000000000081526004016109c190612510565b60405180910390fd5b6109d38261187e565b506000600883815481106109ea576109e96125ea565b5b90600052602060002090600402016040518060800160405290816000820160009054906101000a900473ffffffffffffffffffffffffffffffffffffffff1673ffffffffffffffffffffffffffffffffffffffff1673ffffffffffffffffffffffffffffffffffffffff16815260200160018201548152602001600282015481526020016003820154815250509050600081606001519050610ab060088581548110610a9957610a986125ea565b5b906000526020600020906004020160010154611bfd565b60086001600880549050610ac49190612642565b81548110610ad557610ad46125ea565b5b906000526020600020906004020160088581548110610af757610af66125ea565b5b90600052602060002090600402016000820160009054906101000a900473ffffffffffffffffffffffffffffffffffffffff168160000160006101000a81548173ffffffffffffffffffffffffffffffffffffffff021916908373ffffffffffffffffffffffffffffffffffffffff1602179055506001820154816001015560028201548160020155600382015481600301559050506008805480610b9f57610b9e612676565b5b6001900381819060005260206000209060040201600080820160006101000a81549073ffffffffffffffffffffffffffffffffffffffff0219169055600182016000905560028201600090556003820160009055505090556000811115610c6b57610c16610c0b611235565b836000015183611b6e565b816000015173ffffffffffffffffffffffffffffffffffffffff167ff279e6a1f5e320cca91135676d9cb6e44ca8a08c0b88342bcdb1144f6511b5688583604051610c62929190612619565b60405180910390a25b7fb1a6bb6cf9f57de6dc8c1840765c71e86b135a69d0405bc28dc7a011cc572e4482604051610c9a91906126fa565b60405180910390a150505050565b64e8d4a5100081565b610cb9611b66565b73ffffffffffffffffffffffffffffffffffffffff16610cd7610f2b565b73ffffffffffffffffffffffffffffffffffffffff1614610d2d576040517f08c379a0000000000000000000000000000000000000000000000000000000008152600401610d2490612510565b60405180910390fd5b6040517fc5fea89800000000000000000000000000000000000000000000000000000000815260040160405180910390fd5b610d67611afe565b610d9d576040517faa3aac7f00000000000000000000000000000000000000000000000000000000815260040160405180910390fd5b610da5611757565b431115610db557610db4610860565b5b565b60606008805480602002602001604051908101604052809291908181526020016000905b82821015610e8157838290600052602060002090600402016040518060800160405290816000820160009054906101000a900473ffffffffffffffffffffffffffffffffffffffff1673ffffffffffffffffffffffffffffffffffffffff1673ffffffffffffffffffffffffffffffffffffffff168152602001600182015481526020016002820154815260200160038201548152505081526020019060010190610ddb565b50505050905090565b610e92611b66565b73ffffffffffffffffffffffffffffffffffffffff16610eb0610f2b565b73ffffffffffffffffffffffffffffffffffffffff1614610f06576040517f08c379a0000000000000000000000000000000000000000000000000000000008152600401610efd90612510565b60405180910390fd5b80600260006101000a81548160ff021916908315150217905550610f28611bf4565b50565b60008060009054906101000a900473ffffffffffffffffffffffffffffffffffffffff16905090565b610f5c611b66565b73ffffffffffffffffffffffffffffffffffffffff16610f7a610f2b565b73ffffffffffffffffffffffffffffffffffffffff1614610fd0576040517f08c379a0000000000000000000000000000000000000000000000000000000008152600401610fc790612510565b60405180910390fd5b60005b6008805490508160ff16101561100157610fef8160ff1661187e565b5080610ffa90612722565b9050610fd3565b50565b61100c611b66565b73ffffffffffffffffffffffffffffffffffffffff1661102a610f2b565b73ffffffffffffffffffffffffffffffffffffffff1614611080576040517f08c379a000000000000000000000000000000000000000000000000000000000815260040161107790612510565b60405180910390fd5b80600660006101000a81548173ffffffffffffffffffffffffffffffffffffffff021916908373ffffffffffffffffffffffffffffffffffffffff16021790555050565b6000816008805490508110611105576040517fd0333a0600000000000000000000000000000000000000000000000000000000815260040160405180910390fd5b60006008848154811061111b5761111a6125ea565b5b90600052602060002090600402016040518060800160405290816000820160009054906101000a900473ffffffffffffffffffffffffffffffffffffffff1673ffffffffffffffffffffffffffffffffffffffff1673ffffffffffffffffffffffffffffffffffffffff168152602001600182015481526020016002820154815260200160038201548152505090506111b2611afe565b156111f557806040015164e8d4a510006111ca6104e4565b83602001516111d99190612530565b6111e391906125b9565b6111ed9190612642565b92505061122f565b806040015164e8d4a51000611208611b5c565b83602001516112179190612530565b61122191906125b9565b61122b9190612642565b9250505b50919050565b6000600660009054906101000a900473ffffffffffffffffffffffffffffffffffffffff16905090565b611267611b66565b73ffffffffffffffffffffffffffffffffffffffff16611285610f2b565b73ffffffffffffffffffffffffffffffffffffffff16146112db576040517f08c379a00000000000000000000000000000000000000000000000000000000081526004016112d290612510565b60405180910390fd5b8160011515600760008373ffffffffffffffffffffffffffffffffffffffff1673ffffffffffffffffffffffffffffffffffffffff16815260200190815260200160002060009054906101000a900460ff16151503611366576040517f0a47c55800000000000000000000000000000000000000000000000000000000815260040160405180910390fd5b6001600760008373ffffffffffffffffffffffffffffffffffffffff1673ffffffffffffffffffffffffffffffffffffffff16815260200190815260200160002060006101000a81548160ff021916908315150217905550600082116113f8576040517ff915581500000000000000000000000000000000000000000000000000000000815260040160405180910390fd5b611400611afe565b801561141357506000611411610856565b115b1561142157611420610d5f565b5b600060405180608001604052808573ffffffffffffffffffffffffffffffffffffffff16815260200184815260200164e8d4a5100061145e611b5c565b866114699190612530565b61147391906125b9565b815260200160008152509050600881908060018154018082558091505060019003906000526020600020906004020160009091909190915060008201518160000160006101000a81548173ffffffffffffffffffffffffffffffffffffffff021916908373ffffffffffffffffffffffffffffffffffffffff160217905550602082015181600101556040820151816002015560608201518160030155505061151f8160200151611c50565b7f3108114300301baeef9bdf0a02b438810d99420fce1d00b913d3830d8f8230548160405161154e91906126fa565b60405180910390a150505050565b611564611afe565b61159a576040517faa3aac7f00000000000000000000000000000000000000000000000000000000815260040160405180910390fd5b8160088054905081106115d9576040517fd0333a0600000000000000000000000000000000000000000000000000000000815260040160405180910390fd5b6115e1611b66565b73ffffffffffffffffffffffffffffffffffffffff166115ff610f2b565b73ffffffffffffffffffffffffffffffffffffffff1614611655576040517f08c379a000000000000000000000000000000000000000000000000000000000815260040161164c90612510565b60405180910390fd5b6000821161168f576040517ff915581500000000000000000000000000000000000000000000000000000000815260040160405180910390fd5b6116988361187e565b506000600884815481106116af576116ae6125ea565b5b906000526020600020906004020190506116cd816001015484611c67565b848160000160006101000a81548173ffffffffffffffffffffffffffffffffffffffff021916908373ffffffffffffffffffffffffffffffffffffffff1602179055508281600101819055507f3a996fe4a1f2923fe87fc2e86696fc0102f0b8afe464f1539d5f70041ee46e9d816040516117489190612839565b60405180910390a15050505050565b6000600354905090565b6000600154905090565b60008160088054905081106117ac576040517fd0333a0600000000000000000000000000000000000000000000000000000000815260040160405180910390fd5b6000600884815481106117c2576117c16125ea565b5b90600052602060002090600402016040518060800160405290816000820160009054906101000a900473ffffffffffffffffffffffffffffffffffffffff1673ffffffffffffffffffffffffffffffffffffffff1673ffffffffffffffffffffffffffffffffffffffff168152602001600182015481526020016002820154815260200160038201548152505090506000816060015190506000611865866110c4565b90508082611873919061245d565b945050505050919050565b6000611888611afe565b6118be576040517faa3aac7f00000000000000000000000000000000000000000000000000000000815260040160405180910390fd5b8160088054905081106118fd576040517fd0333a0600000000000000000000000000000000000000000000000000000000815260040160405180910390fd5b600060088481548110611913576119126125ea565b5b9060005260206000209060040201905061192b610d5f565b6000816002015464e8d4a51000611940611b5c565b846001015461194f9190612530565b61195991906125b9565b6119639190612642565b9050808260020154611975919061245d565b8260020181905550600081836003015461198f919061245d565b905080836003018190555060008211156119fb576119ab611b66565b73ffffffffffffffffffffffffffffffffffffffff167f71bab65ced2e5750775a0613be067df48ef06cf92a496ebf7663ae066092495487846040516119f2929190612619565b60405180910390a25b80945050505050919050565b611a0f611b66565b73ffffffffffffffffffffffffffffffffffffffff16611a2d610f2b565b73ffffffffffffffffffffffffffffffffffffffff1614611a83576040517f08c379a0000000000000000000000000000000000000000000000000000000008152600401611a7a90612510565b60405180910390fd5b600073ffffffffffffffffffffffffffffffffffffffff168173ffffffffffffffffffffffffffffffffffffffff1603611af2576040517f08c379a0000000000000000000000000000000000000000000000000000000008152600401611ae9906128c6565b60405180910390fd5b611afb81611cc6565b50565b6000600260009054906101000a900460ff16905090565b600080611b20611757565b43611b2b9190612642565b90506000611b37611761565b82611b429190612530565b905064e8d4a5100081611b559190612530565b9250505090565b6000600454905090565b600033905090565b611bef8363a9059cbb60e01b8484604051602401611b8d9291906128e6565b604051602081830303815290604052907bffffffffffffffffffffffffffffffffffffffffffffffffffffffff19166020820180517bffffffffffffffffffffffffffffffffffffffffffffffffffffffff8381831617835250505050611d8a565b505050565b43600381905550565b600554811115611c39576040517f8c88122d00000000000000000000000000000000000000000000000000000000815260040160405180910390fd5b80600554611c479190612642565b60058190555050565b80600554611c5e919061245d565b60058190555050565b600554821115611ca3576040517f8c88122d00000000000000000000000000000000000000000000000000000000815260040160405180910390fd5b8082600554611cb29190612642565b611cbc919061245d565b6005819055505050565b60008060009054906101000a900473ffffffffffffffffffffffffffffffffffffffff169050816000806101000a81548173ffffffffffffffffffffffffffffffffffffffff021916908373ffffffffffffffffffffffffffffffffffffffff1602179055508173ffffffffffffffffffffffffffffffffffffffff168173ffffffffffffffffffffffffffffffffffffffff167f8be0079c531659141344cd1fd0a4f28419497f9722a3daafe3b4186f6b6457e060405160405180910390a35050565b6000611dec826040518060400160405280602081526020017f5361666545524332303a206c6f772d6c6576656c2063616c6c206661696c65648152508573ffffffffffffffffffffffffffffffffffffffff16611e519092919063ffffffff16565b9050600081511115611e4c5780806020019051810190611e0c9190612924565b611e4b576040517f08c379a0000000000000000000000000000000000000000000000000000000008152600401611e42906129c3565b60405180910390fd5b5b505050565b6060611e608484600085611e69565b90509392505050565b606082471015611eae576040517f08c379a0000000000000000000000000000000000000000000000000000000008152600401611ea590612a55565b60405180910390fd5b611eb785611f7d565b611ef6576040517f08c379a0000000000000000000000000000000000000000000000000000000008152600401611eed90612ac1565b60405180910390fd5b6000808673ffffffffffffffffffffffffffffffffffffffff168587604051611f1f9190612b5b565b60006040518083038185875af1925050503d8060008114611f5c576040519150601f19603f3d011682016040523d82523d6000602084013e611f61565b606091505b5091509150611f71828286611fa0565b92505050949350505050565b6000808273ffffffffffffffffffffffffffffffffffffffff163b119050919050565b60608315611fb057829050612000565b600083511115611fc35782518084602001fd5b816040517f08c379a0000000000000000000000000000000000000000000000000000000008152600401611ff79190612bc7565b60405180910390fd5b9392505050565b6000819050919050565b61201a81612007565b82525050565b60006020820190506120356000830184612011565b92915050565b600080fd5b61204981612007565b811461205457600080fd5b50565b60008135905061206681612040565b92915050565b6000602082840312156120825761208161203b565b5b600061209084828501612057565b91505092915050565b600073ffffffffffffffffffffffffffffffffffffffff82169050919050565b60006120c482612099565b9050919050565b6120d4816120b9565b81146120df57600080fd5b50565b6000813590506120f1816120cb565b92915050565b60006020828403121561210d5761210c61203b565b5b600061211b848285016120e2565b91505092915050565b60008115159050919050565b61213981612124565b82525050565b60006020820190506121546000830184612130565b92915050565b600081519050919050565b600082825260208201905092915050565b6000819050602082019050919050565b61218f816120b9565b82525050565b61219e81612007565b82525050565b6080820160008201516121ba6000850182612186565b5060208201516121cd6020850182612195565b5060408201516121e06040850182612195565b5060608201516121f36060850182612195565b50505050565b600061220583836121a4565b60808301905092915050565b6000602082019050919050565b60006122298261215a565b6122338185612165565b935061223e83612176565b8060005b8381101561226f57815161225688826121f9565b975061226183612211565b925050600181019050612242565b5085935050505092915050565b60006020820190508181036000830152612296818461221e565b905092915050565b6122a781612124565b81146122b257600080fd5b50565b6000813590506122c48161229e565b92915050565b6000602082840312156122e0576122df61203b565b5b60006122ee848285016122b5565b91505092915050565b612300816120b9565b82525050565b600060208201905061231b60008301846122f7565b92915050565b6000819050919050565b600061234661234161233c84612099565b612321565b612099565b9050919050565b60006123588261232b565b9050919050565b600061236a8261234d565b9050919050565b61237a8161235f565b82525050565b60006020820190506123956000830184612371565b92915050565b600080604083850312156123b2576123b161203b565b5b60006123c0858286016120e2565b92505060206123d185828601612057565b9150509250929050565b6000806000606084860312156123f4576123f361203b565b5b6000612402868287016120e2565b935050602061241386828701612057565b925050604061242486828701612057565b9150509250925092565b7f4e487b7100000000000000000000000000000000000000000000000000000000600052601160045260246000fd5b600061246882612007565b915061247383612007565b9250827fffffffffffffffffffffffffffffffffffffffffffffffffffffffffffffffff038211156124a8576124a761242e565b5b828201905092915050565b600082825260208201905092915050565b7f4f776e61626c653a2063616c6c6572206973206e6f7420746865206f776e6572600082015250565b60006124fa6020836124b3565b9150612505826124c4565b602082019050919050565b60006020820190508181036000830152612529816124ed565b9050919050565b600061253b82612007565b915061254683612007565b9250817fffffffffffffffffffffffffffffffffffffffffffffffffffffffffffffffff048311821515161561257f5761257e61242e565b5b828202905092915050565b7f4e487b7100000000000000000000000000000000000000000000000000000000600052601260045260246000fd5b60006125c482612007565b91506125cf83612007565b9250826125df576125de61258a565b5b828204905092915050565b7f4e487b7100000000000000000000000000000000000000000000000000000000600052603260045260246000fd5b600060408201905061262e6000830185612011565b61263b6020830184612011565b9392505050565b600061264d82612007565b915061265883612007565b92508282101561266b5761266a61242e565b5b828203905092915050565b7f4e487b7100000000000000000000000000000000000000000000000000000000600052603160045260246000fd5b6080820160008201516126bb6000850182612186565b5060208201516126ce6020850182612195565b5060408201516126e16040850182612195565b5060608201516126f46060850182612195565b50505050565b600060808201905061270f60008301846126a5565b92915050565b600060ff82169050919050565b600061272d82612715565b915060ff82036127405761273f61242e565b5b600182019050919050565b60008160001c9050919050565b600073ffffffffffffffffffffffffffffffffffffffff82169050919050565b600061278b6127868361274b565b612758565b9050919050565b6000819050919050565b60006127af6127aa8361274b565b612792565b9050919050565b6080820160008083015490506127cb81612778565b6127d86000860182612186565b50600183015490506127e98161279c565b6127f66020860182612195565b50600283015490506128078161279c565b6128146040860182612195565b50600383015490506128258161279c565b6128326060860182612195565b5050505050565b600060808201905061284e60008301846127b6565b92915050565b7f4f776e61626c653a206e6577206f776e657220697320746865207a65726f206160008201527f6464726573730000000000000000000000000000000000000000000000000000602082015250565b60006128b06026836124b3565b91506128bb82612854565b604082019050919050565b600060208201905081810360008301526128df816128a3565b9050919050565b60006040820190506128fb60008301856122f7565b6129086020830184612011565b9392505050565b60008151905061291e8161229e565b92915050565b60006020828403121561293a5761293961203b565b5b60006129488482850161290f565b91505092915050565b7f5361666545524332303a204552433230206f7065726174696f6e20646964206e60008201527f6f74207375636365656400000000000000000000000000000000000000000000602082015250565b60006129ad602a836124b3565b91506129b882612951565b604082019050919050565b600060208201905081810360008301526129dc816129a0565b9050919050565b7f416464726573733a20696e73756666696369656e742062616c616e636520666f60008201527f722063616c6c0000000000000000000000000000000000000000000000000000602082015250565b6000612a3f6026836124b3565b9150612a4a826129e3565b604082019050919050565b60006020820190508181036000830152612a6e81612a32565b9050919050565b7f416464726573733a2063616c6c20746f206e6f6e2d636f6e7472616374000000600082015250565b6000612aab601d836124b3565b9150612ab682612a75565b602082019050919050565b60006020820190508181036000830152612ada81612a9e565b9050919050565b600081519050919050565b600081905092915050565b60005b83811015612b15578082015181840152602081019050612afa565b83811115612b24576000848401525b50505050565b6000612b3582612ae1565b612b3f8185612aec565b9350612b4f818560208601612af7565b80840191505092915050565b6000612b678284612b2a565b915081905092915050565b600081519050919050565b6000601f19601f8301169050919050565b6000612b9982612b72565b612ba381856124b3565b9350612bb3818560208601612af7565b612bbc81612b7d565b840191505092915050565b60006020820190508181036000830152612be18184612b8e565b90509291505056fea26469706673582212208d8671975e523822dbc347f62f0c8ef3b4ece7edd339c458940fe6dc4deb273b64736f6c634300080d0033",
  "devdoc": {
    "kind": "dev",
    "methods": {
      "owner()": {
        "details": "Returns the address of the current owner."
      },
      "renounceOwnership()": {
        "details": "Leaves the contract without owner. It will not be possible to call `onlyOwner` functions anymore. Can only be called by the current owner. NOTE: Renouncing ownership will leave the contract without an owner, thereby removing any functionality that is only available to the owner."
      },
      "transferOwnership(address)": {
        "details": "Transfers ownership of the contract to a new account (`newOwner`). Can only be called by the current owner."
      }
    },
    "version": 1
  },
  "userdoc": {
    "kind": "user",
    "methods": {},
    "version": 1
  },
  "storageLayout": {
    "storage": [
      {
        "astId": 7,
        "contract": "src/contracts/TopChef.sol:TopChef",
        "label": "_owner",
        "offset": 0,
        "slot": "0",
        "type": "t_address"
      },
      {
        "astId": 3343,
        "contract": "src/contracts/TopChef.sol:TopChef",
        "label": "_metricPerBlock",
        "offset": 0,
        "slot": "1",
        "type": "t_uint256"
      },
      {
        "astId": 3348,
        "contract": "src/contracts/TopChef.sol:TopChef",
        "label": "_rewardsActive",
        "offset": 0,
        "slot": "2",
        "type": "t_bool"
      },
      {
        "astId": 3350,
        "contract": "src/contracts/TopChef.sol:TopChef",
        "label": "_lastRewardBlock",
        "offset": 0,
        "slot": "3",
        "type": "t_uint256"
      },
      {
        "astId": 3352,
        "contract": "src/contracts/TopChef.sol:TopChef",
        "label": "_lifetimeShareValue",
        "offset": 0,
        "slot": "4",
        "type": "t_uint256"
      },
      {
        "astId": 3354,
        "contract": "src/contracts/TopChef.sol:TopChef",
        "label": "_totalAllocShares",
        "offset": 0,
        "slot": "5",
        "type": "t_uint256"
      },
      {
        "astId": 3357,
        "contract": "src/contracts/TopChef.sol:TopChef",
        "label": "metric",
        "offset": 0,
        "slot": "6",
        "type": "t_contract(MetricToken)3716"
      },
      {
        "astId": 3608,
        "contract": "src/contracts/TopChef.sol:TopChef",
        "label": "addressExistence",
        "offset": 0,
        "slot": "7",
        "type": "t_mapping(t_address,t_bool)"
      },
      {
        "astId": 5530,
        "contract": "src/contracts/TopChef.sol:TopChef",
        "label": "_allocations",
        "offset": 0,
        "slot": "8",
        "type": "t_array(t_struct(AllocationGroup)6038_storage)dyn_storage"
      }
    ],
    "types": {
      "t_address": {
        "encoding": "inplace",
        "label": "address",
        "numberOfBytes": "20"
      },
      "t_array(t_struct(AllocationGroup)6038_storage)dyn_storage": {
        "base": "t_struct(AllocationGroup)6038_storage",
        "encoding": "dynamic_array",
        "label": "struct TopChef.AllocationGroup[]",
        "numberOfBytes": "32"
      },
      "t_bool": {
        "encoding": "inplace",
        "label": "bool",
        "numberOfBytes": "1"
      },
      "t_contract(MetricToken)3716": {
        "encoding": "inplace",
        "label": "contract MetricToken",
        "numberOfBytes": "20"
      },
      "t_mapping(t_address,t_bool)": {
        "encoding": "mapping",
        "key": "t_address",
        "label": "mapping(address => bool)",
        "numberOfBytes": "32",
        "value": "t_bool"
      },
      "t_struct(AllocationGroup)6038_storage": {
        "encoding": "inplace",
        "label": "struct TopChef.AllocationGroup",
        "members": [
          {
            "astId": 6031,
            "contract": "src/contracts/TopChef.sol:TopChef",
            "label": "groupAddress",
            "offset": 0,
            "slot": "0",
            "type": "t_address"
          },
          {
            "astId": 6033,
            "contract": "src/contracts/TopChef.sol:TopChef",
            "label": "shares",
            "offset": 0,
            "slot": "1",
            "type": "t_uint256"
          },
          {
            "astId": 6035,
            "contract": "src/contracts/TopChef.sol:TopChef",
            "label": "lifetimeEarnings",
            "offset": 0,
            "slot": "2",
            "type": "t_uint256"
          },
          {
            "astId": 6037,
            "contract": "src/contracts/TopChef.sol:TopChef",
            "label": "claimable",
            "offset": 0,
            "slot": "3",
            "type": "t_uint256"
          }
        ],
        "numberOfBytes": "128"
      },
      "t_uint256": {
        "encoding": "inplace",
        "label": "uint256",
        "numberOfBytes": "32"
      }
    }
  }
}