{
  "address": "0xe7f1725E7734CE288F8367e1Bb143E90bb3F0512",
  "abi": [
    {
      "inputs": [
        {
          "internalType": "address",
          "name": "metricTokenAddress",
          "type": "address"
        }
      ],
      "stateMutability": "nonpayable",
      "type": "constructor"
    },
    {
      "anonymous": false,
      "inputs": [
        {
          "indexed": false,
          "internalType": "address",
          "name": "harvester",
          "type": "address"
        },
        {
          "indexed": false,
          "internalType": "uint256",
          "name": "agIndex",
          "type": "uint256"
        },
        {
          "indexed": false,
          "internalType": "uint256",
          "name": "amount",
          "type": "uint256"
        }
      ],
      "name": "Harvest",
      "type": "event"
    },
    {
      "anonymous": false,
      "inputs": [
        {
          "indexed": true,
          "internalType": "address",
          "name": "previousOwner",
          "type": "address"
        },
        {
          "indexed": true,
          "internalType": "address",
          "name": "newOwner",
          "type": "address"
        }
      ],
      "name": "OwnershipTransferred",
      "type": "event"
    },
    {
      "anonymous": false,
      "inputs": [
        {
          "indexed": false,
          "internalType": "address",
          "name": "withdrawer",
          "type": "address"
        },
        {
          "indexed": false,
          "internalType": "uint256",
          "name": "agIndex",
          "type": "uint256"
        },
        {
          "indexed": false,
          "internalType": "uint256",
          "name": "amount",
          "type": "uint256"
        }
      ],
      "name": "Withdraw",
      "type": "event"
    },
    {
      "inputs": [],
      "name": "ACC_METRIC_PRECISION",
      "outputs": [
        {
          "internalType": "uint256",
          "name": "",
          "type": "uint256"
        }
      ],
      "stateMutability": "view",
      "type": "function"
    },
    {
      "inputs": [
        {
          "internalType": "uint256",
          "name": "accumulatedWithPrecision",
          "type": "uint256"
        }
      ],
      "name": "accumulatedMetricDividedByShares",
      "outputs": [
        {
          "internalType": "uint256",
          "name": "",
          "type": "uint256"
        }
      ],
      "stateMutability": "view",
      "type": "function"
    },
    {
      "inputs": [
        {
          "internalType": "address",
          "name": "newAddress",
          "type": "address"
        },
        {
          "internalType": "uint256",
          "name": "newShares",
          "type": "uint256"
        },
        {
          "internalType": "bool",
          "name": "newAutoDistribute",
          "type": "bool"
        }
      ],
      "name": "addAllocationGroup",
      "outputs": [],
      "stateMutability": "nonpayable",
      "type": "function"
    },
    {
      "inputs": [
        {
          "internalType": "address",
          "name": "",
          "type": "address"
        }
      ],
      "name": "addressExistence",
      "outputs": [
        {
          "internalType": "bool",
          "name": "",
          "type": "bool"
        }
      ],
      "stateMutability": "view",
      "type": "function"
    },
    {
      "inputs": [],
      "name": "areRewardsActive",
      "outputs": [
        {
          "internalType": "bool",
          "name": "",
          "type": "bool"
        }
      ],
      "stateMutability": "view",
      "type": "function"
    },
    {
      "inputs": [
        {
          "internalType": "uint256",
          "name": "agIndex",
          "type": "uint256"
        }
      ],
      "name": "claim",
      "outputs": [],
      "stateMutability": "nonpayable",
      "type": "function"
    },
    {
      "inputs": [],
      "name": "getAllocationGroups",
      "outputs": [
        {
          "components": [
            {
              "internalType": "address",
              "name": "groupAddress",
              "type": "address"
            },
            {
              "internalType": "uint256",
              "name": "shares",
              "type": "uint256"
            },
            {
              "internalType": "bool",
              "name": "autodistribute",
              "type": "bool"
            },
            {
              "internalType": "uint256",
              "name": "rewardDebt",
              "type": "uint256"
            },
            {
              "internalType": "uint256",
              "name": "claimable",
              "type": "uint256"
            }
          ],
          "internalType": "struct TopChef.AllocationGroup[]",
          "name": "",
          "type": "tuple[]"
        }
      ],
      "stateMutability": "view",
      "type": "function"
    },
    {
      "inputs": [],
      "name": "getLastRewardBlock",
      "outputs": [
        {
          "internalType": "uint256",
          "name": "",
          "type": "uint256"
        }
      ],
      "stateMutability": "view",
      "type": "function"
    },
    {
      "inputs": [],
      "name": "getLifetimeShareValue",
      "outputs": [
        {
          "internalType": "uint256",
          "name": "",
          "type": "uint256"
        }
      ],
      "stateMutability": "view",
      "type": "function"
    },
    {
      "inputs": [],
      "name": "getMetricPerBlock",
      "outputs": [
        {
          "internalType": "uint256",
          "name": "",
          "type": "uint256"
        }
      ],
      "stateMutability": "view",
      "type": "function"
    },
    {
      "inputs": [],
      "name": "getMetricToken",
      "outputs": [
        {
          "internalType": "contract MetricToken",
          "name": "",
          "type": "address"
        }
      ],
      "stateMutability": "view",
      "type": "function"
    },
    {
      "inputs": [],
      "name": "getTotalAllocationShares",
      "outputs": [
        {
          "internalType": "uint256",
          "name": "",
          "type": "uint256"
        }
      ],
      "stateMutability": "view",
      "type": "function"
    },
    {
      "inputs": [
        {
          "internalType": "uint256",
          "name": "agIndex",
          "type": "uint256"
        }
      ],
      "name": "harvest",
      "outputs": [],
      "stateMutability": "nonpayable",
      "type": "function"
    },
    {
      "inputs": [],
      "name": "harvestAll",
      "outputs": [],
      "stateMutability": "nonpayable",
      "type": "function"
    },
    {
      "inputs": [],
      "name": "owner",
      "outputs": [
        {
          "internalType": "address",
          "name": "",
          "type": "address"
        }
      ],
      "stateMutability": "view",
      "type": "function"
    },
    {
      "inputs": [
        {
          "internalType": "uint256",
          "name": "agIndex",
          "type": "uint256"
        }
      ],
      "name": "removeAllocationGroup",
      "outputs": [],
      "stateMutability": "nonpayable",
      "type": "function"
    },
    {
      "inputs": [],
      "name": "renounceOwnership",
      "outputs": [],
      "stateMutability": "nonpayable",
      "type": "function"
    },
    {
      "inputs": [],
      "name": "setLifetimeShareValue",
      "outputs": [],
      "stateMutability": "nonpayable",
      "type": "function"
    },
    {
      "inputs": [
        {
          "internalType": "uint256",
          "name": "metricAmount",
          "type": "uint256"
        }
      ],
      "name": "setMetricPerBlock",
      "outputs": [],
      "stateMutability": "nonpayable",
      "type": "function"
    },
    {
      "inputs": [
        {
          "internalType": "address",
          "name": "metricTokenAddress",
          "type": "address"
        }
      ],
      "name": "setMetricToken",
      "outputs": [],
      "stateMutability": "nonpayable",
      "type": "function"
    },
    {
      "inputs": [
        {
          "internalType": "bool",
          "name": "isOn",
          "type": "bool"
        }
      ],
      "name": "toggleRewards",
      "outputs": [],
      "stateMutability": "nonpayable",
      "type": "function"
    },
    {
      "inputs": [
        {
          "internalType": "address",
          "name": "newOwner",
          "type": "address"
        }
      ],
      "name": "transferOwnership",
      "outputs": [],
      "stateMutability": "nonpayable",
      "type": "function"
    },
    {
      "inputs": [],
      "name": "updateAccumulatedAllocations",
      "outputs": [],
      "stateMutability": "nonpayable",
      "type": "function"
    },
    {
      "inputs": [
        {
          "internalType": "address",
          "name": "groupAddress",
          "type": "address"
        },
        {
          "internalType": "uint256",
          "name": "agIndex",
          "type": "uint256"
        },
        {
          "internalType": "uint256",
          "name": "shares",
          "type": "uint256"
        },
        {
          "internalType": "bool",
          "name": "newAutoDistribute",
          "type": "bool"
        }
      ],
      "name": "updateAllocationGroup",
      "outputs": [],
      "stateMutability": "nonpayable",
      "type": "function"
    },
    {
      "inputs": [
        {
          "internalType": "uint256",
          "name": "agIndex",
          "type": "uint256"
        }
      ],
      "name": "viewPendingClaims",
      "outputs": [
        {
          "internalType": "uint256",
          "name": "",
          "type": "uint256"
        }
      ],
      "stateMutability": "view",
      "type": "function"
    },
    {
      "inputs": [
        {
          "internalType": "uint256",
          "name": "agIndex",
          "type": "uint256"
        }
      ],
      "name": "viewPendingHarvest",
      "outputs": [
        {
          "internalType": "uint256",
          "name": "",
          "type": "uint256"
        }
      ],
      "stateMutability": "view",
      "type": "function"
    }
  ],
  "transactionHash": "0x3a5949f3c9812906ad91eda2f5c4062ec5c3f9a897ba338d5f3cab1ac9d9e2bd",
  "args": [
    "0x5FbDB2315678afecb367f032d93F642f64180aa3"
  ],
  "numDeployments": 1,
  "solcInputHash": "3961a27f091e5c863022bb13a58bd8e0",
  "bytecode": "0x60806040523480156200001157600080fd5b5060405162002f4938038062002f4983398181016040528101906200003791906200043a565b620000576200004b6200009360201b60201c565b6200009b60201b60201c565b62000068816200015f60201b60201c565b6200007a60046200023260201b60201c565b6200008c6000620002e060201b60201c565b5062000589565b600033905090565b60008060009054906101000a900473ffffffffffffffffffffffffffffffffffffffff169050816000806101000a81548173ffffffffffffffffffffffffffffffffffffffff021916908373ffffffffffffffffffffffffffffffffffffffff1602179055508173ffffffffffffffffffffffffffffffffffffffff168173ffffffffffffffffffffffffffffffffffffffff167f8be0079c531659141344cd1fd0a4f28419497f9722a3daafe3b4186f6b6457e060405160405180910390a35050565b6200016f6200009360201b60201c565b73ffffffffffffffffffffffffffffffffffffffff16620001956200039d60201b60201c565b73ffffffffffffffffffffffffffffffffffffffff1614620001ee576040517f08c379a0000000000000000000000000000000000000000000000000000000008152600401620001e590620004cd565b60405180910390fd5b80600660006101000a81548173ffffffffffffffffffffffffffffffffffffffff021916908373ffffffffffffffffffffffffffffffffffffffff16021790555050565b620002426200009360201b60201c565b73ffffffffffffffffffffffffffffffffffffffff16620002686200039d60201b60201c565b73ffffffffffffffffffffffffffffffffffffffff1614620002c1576040517f08c379a0000000000000000000000000000000000000000000000000000000008152600401620002b890620004cd565b60405180910390fd5b670de0b6b3a764000081620002d7919062000528565b60018190555050565b620002f06200009360201b60201c565b73ffffffffffffffffffffffffffffffffffffffff16620003166200039d60201b60201c565b73ffffffffffffffffffffffffffffffffffffffff16146200036f576040517f08c379a00000000000000000000000000000000000000000000000000000000081526004016200036690620004cd565b60405180910390fd5b80600260006101000a81548160ff0219169083151502179055506200039a43620003c660201b60201c565b50565b60008060009054906101000a900473ffffffffffffffffffffffffffffffffffffffff16905090565b8060038190555050565b600080fd5b600073ffffffffffffffffffffffffffffffffffffffff82169050919050565b60006200040282620003d5565b9050919050565b6200041481620003f5565b81146200042057600080fd5b50565b600081519050620004348162000409565b92915050565b600060208284031215620004535762000452620003d0565b5b6000620004638482850162000423565b91505092915050565b600082825260208201905092915050565b7f4f776e61626c653a2063616c6c6572206973206e6f7420746865206f776e6572600082015250565b6000620004b56020836200046c565b9150620004c2826200047d565b602082019050919050565b60006020820190508181036000830152620004e881620004a6565b9050919050565b6000819050919050565b7f4e487b7100000000000000000000000000000000000000000000000000000000600052601160045260246000fd5b60006200053582620004ef565b91506200054283620004ef565b9250817fffffffffffffffffffffffffffffffffffffffffffffffffffffffffffffffff04831182151516156200057e576200057d620004f9565b5b828202905092915050565b6129b080620005996000396000f3fe608060405234801561001057600080fd5b506004361061018e5760003560e01c80638b4a4ed5116100de578063a8e2a38b11610097578063ddc6326211610071578063ddc6326214610411578063e3df27171461042d578063f2fde38b1461044b578063f33c9baa146104675761018e565b8063a8e2a38b146103b7578063bf62bee6146103d5578063c5d836d9146103f35761018e565b80638b4a4ed5146103095780638c19ec8b146103275780638da5cb5b146103435780638ed955b914610361578063945c52871461036b578063994cd567146103875761018e565b80635cae9a481161014b5780636336694b116101255780636336694b146102bb5780636ac49a89146102d7578063715018a6146102f557806377d22d1a146102ff5761018e565b80635cae9a48146102635780635e175713146102935780635f9b1bb5146102b15761018e565b80631cd8f0fa146101935780631e718d27146101af57806322abbddf146101df578063259e78731461020f578063379607f51461022b5780635aa01b0414610247575b600080fd5b6101ad60048036038101906101a89190611c6c565b610485565b005b6101c960048036038101906101c49190611c6c565b61051e565b6040516101d69190611ca8565b60405180910390f35b6101f960048036038101906101f49190611d21565b610541565b6040516102069190611d69565b60405180910390f35b61022960048036038101906102249190611db0565b610561565b005b61024560048036038101906102409190611c6c565b61082d565b005b610261600480360381019061025c9190611e03565b610a02565b005b61027d60048036038101906102789190611c6c565b610ba7565b60405161028a9190611ca8565b60405180910390f35b61029b610bdb565b6040516102a89190611ca8565b60405180910390f35b6102b9610be5565b005b6102d560048036038101906102d09190611c6c565b610c25565b005b6102df610eca565b6040516102ec9190611ca8565b60405180910390f35b6102fd610ed3565b005b610307610f5b565b005b610311610fc9565b60405161031e9190611fae565b60405180910390f35b610341600480360381019061033c9190611fd0565b6110b7565b005b61034b611159565b604051610358919061200c565b60405180910390f35b610369611182565b005b61038560048036038101906103809190611d21565b611233565b005b6103a1600480360381019061039c9190611c6c565b6112f3565b6040516103ae9190611ca8565b60405180910390f35b6103bf61136d565b6040516103cc9190612086565b60405180910390f35b6103dd611397565b6040516103ea9190611ca8565b60405180910390f35b6103fb6113a1565b6040516104089190611ca8565b60405180910390f35b61042b60048036038101906104269190611c6c565b6113ab565b005b61043561161a565b6040516104429190611ca8565b60405180910390f35b61046560048036038101906104609190611d21565b611624565b005b61046f61171c565b60405161047c9190611d69565b60405180910390f35b61048d611733565b73ffffffffffffffffffffffffffffffffffffffff166104ab611159565b73ffffffffffffffffffffffffffffffffffffffff1614610501576040517f08c379a00000000000000000000000000000000000000000000000000000000081526004016104f8906120fe565b60405180910390fd5b670de0b6b3a764000081610515919061214d565b60018190555050565b600061053a61052b610bdb565b8361173b90919063ffffffff16565b9050919050565b60076020528060005260406000206000915054906101000a900460ff1681565b610569611733565b73ffffffffffffffffffffffffffffffffffffffff16610587611159565b73ffffffffffffffffffffffffffffffffffffffff16146105dd576040517f08c379a00000000000000000000000000000000000000000000000000000000081526004016105d4906120fe565b60405180910390fd5b8260001515600760008373ffffffffffffffffffffffffffffffffffffffff1673ffffffffffffffffffffffffffffffffffffffff16815260200190815260200160002060009054906101000a900460ff16151514610671576040517f08c379a0000000000000000000000000000000000000000000000000000000008152600401610668906121f3565b60405180910390fd5b6001600760008373ffffffffffffffffffffffffffffffffffffffff1673ffffffffffffffffffffffffffffffffffffffff16815260200190815260200160002060006101000a81548160ff0219169083151502179055506106d161171c565b80156106e4575060006106e2610bdb565b115b156106f2576106f1610f5b565b5b60006040518060a001604052808673ffffffffffffffffffffffffffffffffffffffff168152602001858152602001841515815260200161075a64e8d4a5100061074c61073d61161a565b8961175190919063ffffffff16565b61173b90919063ffffffff16565b815260200160008152509050600881908060018154018082558091505060019003906000526020600020906005020160009091909190915060008201518160000160006101000a81548173ffffffffffffffffffffffffffffffffffffffff021916908373ffffffffffffffffffffffffffffffffffffffff1602179055506020820151816001015560408201518160020160006101000a81548160ff021916908315150217905550606082015181600301556080820151816004015550506108268160200151611767565b5050505050565b61083561171c565b610874576040517f08c379a000000000000000000000000000000000000000000000000000000000815260040161086b9061225f565b60405180910390fd5b60006008828154811061088a5761088961227f565b5b906000526020600020906005020190506000816004015414156108e2576040517f08c379a00000000000000000000000000000000000000000000000000000000081526004016108d9906122fa565b60405180910390fd5b6108ea611733565b73ffffffffffffffffffffffffffffffffffffffff168160000160009054906101000a900473ffffffffffffffffffffffffffffffffffffffff1673ffffffffffffffffffffffffffffffffffffffff161461097b576040517f08c379a000000000000000000000000000000000000000000000000000000000815260040161097290612366565b60405180910390fd5b6109b561098661136d565b8260000160009054906101000a900473ffffffffffffffffffffffffffffffffffffffff168360040154611785565b600081600401819055507ff279e6a1f5e320cca91135676d9cb6e44ca8a08c0b88342bcdb1144f6511b568338383600401546040516109f693929190612386565b60405180910390a15050565b610a0a611733565b73ffffffffffffffffffffffffffffffffffffffff16610a28611159565b73ffffffffffffffffffffffffffffffffffffffff1614610a7e576040517f08c379a0000000000000000000000000000000000000000000000000000000008152600401610a75906120fe565b60405180910390fd5b610a8661171c565b8015610a9957506000610a97610bdb565b115b15610aa757610aa6610f5b565b5b610ad660088481548110610abe57610abd61227f565b5b9060005260206000209060050201600101548361180b565b8360088481548110610aeb57610aea61227f565b5b906000526020600020906005020160000160006101000a81548173ffffffffffffffffffffffffffffffffffffffff021916908373ffffffffffffffffffffffffffffffffffffffff1602179055508160088481548110610b4f57610b4e61227f565b5b9060005260206000209060050201600101819055508060088481548110610b7957610b7861227f565b5b906000526020600020906005020160020160006101000a81548160ff02191690831515021790555050505050565b60008060088381548110610bbe57610bbd61227f565b5b906000526020600020906005020190508060040154915050919050565b6000600554905090565b6000610bef61183c565b90506000610bfc8261187b565b9050610c1b610c0a8261051e565b60045461189c90919063ffffffff16565b6004819055505050565b610c2d611733565b73ffffffffffffffffffffffffffffffffffffffff16610c4b611159565b73ffffffffffffffffffffffffffffffffffffffff1614610ca1576040517f08c379a0000000000000000000000000000000000000000000000000000000008152600401610c98906120fe565b60405180910390fd5b6008805490508110610ce8576040517f08c379a0000000000000000000000000000000000000000000000000000000008152600401610cdf90612409565b60405180910390fd5b610cf061171c565b8015610d0357506000610d01610bdb565b115b15610d1157610d10610f5b565b5b610d3f60088281548110610d2857610d2761227f565b5b9060005260206000209060050201600101546118b2565b60086001600880549050610d539190612429565b81548110610d6457610d6361227f565b5b906000526020600020906005020160088281548110610d8657610d8561227f565b5b90600052602060002090600502016000820160009054906101000a900473ffffffffffffffffffffffffffffffffffffffff168160000160006101000a81548173ffffffffffffffffffffffffffffffffffffffff021916908373ffffffffffffffffffffffffffffffffffffffff160217905550600182015481600101556002820160009054906101000a900460ff168160020160006101000a81548160ff02191690831515021790555060038201548160030155600482015481600401559050506008805480610e5b57610e5a61245d565b5b6001900381819060005260206000209060050201600080820160006101000a81549073ffffffffffffffffffffffffffffffffffffffff021916905560018201600090556002820160006101000a81549060ff0219169055600382016000905560048201600090555050905550565b64e8d4a5100081565b610edb611733565b73ffffffffffffffffffffffffffffffffffffffff16610ef9611159565b73ffffffffffffffffffffffffffffffffffffffff1614610f4f576040517f08c379a0000000000000000000000000000000000000000000000000000000008152600401610f46906120fe565b60405180910390fd5b610f5960006118d0565b565b610f6361171c565b610fa2576040517f08c379a0000000000000000000000000000000000000000000000000000000008152600401610f999061225f565b60405180910390fd5b610faa611397565b4311610fb557610fc7565b610fbd610be5565b610fc643611994565b5b565b60606008805480602002602001604051908101604052809291908181526020016000905b828210156110ae57838290600052602060002090600502016040518060a00160405290816000820160009054906101000a900473ffffffffffffffffffffffffffffffffffffffff1673ffffffffffffffffffffffffffffffffffffffff1673ffffffffffffffffffffffffffffffffffffffff168152602001600182015481526020016002820160009054906101000a900460ff161515151581526020016003820154815260200160048201548152505081526020019060010190610fed565b50505050905090565b6110bf611733565b73ffffffffffffffffffffffffffffffffffffffff166110dd611159565b73ffffffffffffffffffffffffffffffffffffffff1614611133576040517f08c379a000000000000000000000000000000000000000000000000000000000815260040161112a906120fe565b60405180910390fd5b80600260006101000a81548160ff02191690831515021790555061115643611994565b50565b60008060009054906101000a900473ffffffffffffffffffffffffffffffffffffffff16905090565b61118a611733565b73ffffffffffffffffffffffffffffffffffffffff166111a8611159565b73ffffffffffffffffffffffffffffffffffffffff16146111fe576040517f08c379a00000000000000000000000000000000000000000000000000000000081526004016111f5906120fe565b60405180910390fd5b60005b6008805490508160ff1610156112305761121d8160ff166113ab565b808061122890612499565b915050611201565b50565b61123b611733565b73ffffffffffffffffffffffffffffffffffffffff16611259611159565b73ffffffffffffffffffffffffffffffffffffffff16146112af576040517f08c379a00000000000000000000000000000000000000000000000000000000081526004016112a6906120fe565b60405180910390fd5b80600660006101000a81548173ffffffffffffffffffffffffffffffffffffffff021916908373ffffffffffffffffffffffffffffffffffffffff16021790555050565b6000806008838154811061130a5761130961227f565b5b90600052602060002090600502019050611365816003015461135764e8d4a5100061134961133661161a565b866001015461175190919063ffffffff16565b61173b90919063ffffffff16565b61199e90919063ffffffff16565b915050919050565b6000600660009054906101000a900473ffffffffffffffffffffffffffffffffffffffff16905090565b6000600354905090565b6000600154905090565b6113b361171c565b6113f2576040517f08c379a00000000000000000000000000000000000000000000000000000000081526004016113e99061225f565b60405180910390fd5b6000600882815481106114085761140761227f565b5b90600052602060002090600502019050611420611733565b73ffffffffffffffffffffffffffffffffffffffff168160000160009054906101000a900473ffffffffffffffffffffffffffffffffffffffff1673ffffffffffffffffffffffffffffffffffffffff1614806114b65750611480611159565b73ffffffffffffffffffffffffffffffffffffffff1661149e611733565b73ffffffffffffffffffffffffffffffffffffffff16145b6114f5576040517f08c379a00000000000000000000000000000000000000000000000000000000081526004016114ec9061250f565b60405180910390fd5b6114fd610f5b565b600061154a826003015461153c64e8d4a5100061152e61151b61161a565b876001015461175190919063ffffffff16565b61173b90919063ffffffff16565b61199e90919063ffffffff16565b9050808260030181905550600081146115da578160020160009054906101000a900460ff16156115b9576115aa61157f61136d565b8360000160009054906101000a900473ffffffffffffffffffffffffffffffffffffffff1683611785565b600082600401819055506115d9565b6115d081836004015461189c90919063ffffffff16565b82600401819055505b5b7f71bab65ced2e5750775a0613be067df48ef06cf92a496ebf7663ae066092495433848360405161160d93929190612386565b60405180910390a1505050565b6000600454905090565b61162c611733565b73ffffffffffffffffffffffffffffffffffffffff1661164a611159565b73ffffffffffffffffffffffffffffffffffffffff16146116a0576040517f08c379a0000000000000000000000000000000000000000000000000000000008152600401611697906120fe565b60405180910390fd5b600073ffffffffffffffffffffffffffffffffffffffff168173ffffffffffffffffffffffffffffffffffffffff161415611710576040517f08c379a0000000000000000000000000000000000000000000000000000000008152600401611707906125a1565b60405180910390fd5b611719816118d0565b50565b6000600260009054906101000a900460ff16905090565b600033905090565b6000818361174991906125f0565b905092915050565b6000818361175f919061214d565b905092915050565b61177c8160055461189c90919063ffffffff16565b60058190555050565b6118068363a9059cbb60e01b84846040516024016117a4929190612621565b604051602081830303815290604052907bffffffffffffffffffffffffffffffffffffffffffffffffffffffff19166020820180517bffffffffffffffffffffffffffffffffffffffffffffffffffffffff83818316178352505050506119b4565b505050565b611832816118248460055461199e90919063ffffffff16565b61189c90919063ffffffff16565b6005819055505050565b60008061185961184a611397565b4361199e90919063ffffffff16565b90506118756118666113a1565b8261175190919063ffffffff16565b91505090565b600061189564e8d4a510008361175190919063ffffffff16565b9050919050565b600081836118aa919061264a565b905092915050565b6118c78160055461199e90919063ffffffff16565b60058190555050565b60008060009054906101000a900473ffffffffffffffffffffffffffffffffffffffff169050816000806101000a81548173ffffffffffffffffffffffffffffffffffffffff021916908373ffffffffffffffffffffffffffffffffffffffff1602179055508173ffffffffffffffffffffffffffffffffffffffff168173ffffffffffffffffffffffffffffffffffffffff167f8be0079c531659141344cd1fd0a4f28419497f9722a3daafe3b4186f6b6457e060405160405180910390a35050565b8060038190555050565b600081836119ac9190612429565b905092915050565b6000611a16826040518060400160405280602081526020017f5361666545524332303a206c6f772d6c6576656c2063616c6c206661696c65648152508573ffffffffffffffffffffffffffffffffffffffff16611a7b9092919063ffffffff16565b9050600081511115611a765780806020019051810190611a3691906126b5565b611a75576040517f08c379a0000000000000000000000000000000000000000000000000000000008152600401611a6c90612754565b60405180910390fd5b5b505050565b6060611a8a8484600085611a93565b90509392505050565b606082471015611ad8576040517f08c379a0000000000000000000000000000000000000000000000000000000008152600401611acf906127e6565b60405180910390fd5b611ae185611ba7565b611b20576040517f08c379a0000000000000000000000000000000000000000000000000000000008152600401611b1790612852565b60405180910390fd5b6000808673ffffffffffffffffffffffffffffffffffffffff168587604051611b4991906128ec565b60006040518083038185875af1925050503d8060008114611b86576040519150601f19603f3d011682016040523d82523d6000602084013e611b8b565b606091505b5091509150611b9b828286611bca565b92505050949350505050565b6000808273ffffffffffffffffffffffffffffffffffffffff163b119050919050565b60608315611bda57829050611c2a565b600083511115611bed5782518084602001fd5b816040517f08c379a0000000000000000000000000000000000000000000000000000000008152600401611c219190612958565b60405180910390fd5b9392505050565b600080fd5b6000819050919050565b611c4981611c36565b8114611c5457600080fd5b50565b600081359050611c6681611c40565b92915050565b600060208284031215611c8257611c81611c31565b5b6000611c9084828501611c57565b91505092915050565b611ca281611c36565b82525050565b6000602082019050611cbd6000830184611c99565b92915050565b600073ffffffffffffffffffffffffffffffffffffffff82169050919050565b6000611cee82611cc3565b9050919050565b611cfe81611ce3565b8114611d0957600080fd5b50565b600081359050611d1b81611cf5565b92915050565b600060208284031215611d3757611d36611c31565b5b6000611d4584828501611d0c565b91505092915050565b60008115159050919050565b611d6381611d4e565b82525050565b6000602082019050611d7e6000830184611d5a565b92915050565b611d8d81611d4e565b8114611d9857600080fd5b50565b600081359050611daa81611d84565b92915050565b600080600060608486031215611dc957611dc8611c31565b5b6000611dd786828701611d0c565b9350506020611de886828701611c57565b9250506040611df986828701611d9b565b9150509250925092565b60008060008060808587031215611e1d57611e1c611c31565b5b6000611e2b87828801611d0c565b9450506020611e3c87828801611c57565b9350506040611e4d87828801611c57565b9250506060611e5e87828801611d9b565b91505092959194509250565b600081519050919050565b600082825260208201905092915050565b6000819050602082019050919050565b611e9f81611ce3565b82525050565b611eae81611c36565b82525050565b611ebd81611d4e565b82525050565b60a082016000820151611ed96000850182611e96565b506020820151611eec6020850182611ea5565b506040820151611eff6040850182611eb4565b506060820151611f126060850182611ea5565b506080820151611f256080850182611ea5565b50505050565b6000611f378383611ec3565b60a08301905092915050565b6000602082019050919050565b6000611f5b82611e6a565b611f658185611e75565b9350611f7083611e86565b8060005b83811015611fa1578151611f888882611f2b565b9750611f9383611f43565b925050600181019050611f74565b5085935050505092915050565b60006020820190508181036000830152611fc88184611f50565b905092915050565b600060208284031215611fe657611fe5611c31565b5b6000611ff484828501611d9b565b91505092915050565b61200681611ce3565b82525050565b60006020820190506120216000830184611ffd565b92915050565b6000819050919050565b600061204c61204761204284611cc3565b612027565b611cc3565b9050919050565b600061205e82612031565b9050919050565b600061207082612053565b9050919050565b61208081612065565b82525050565b600060208201905061209b6000830184612077565b92915050565b600082825260208201905092915050565b7f4f776e61626c653a2063616c6c6572206973206e6f7420746865206f776e6572600082015250565b60006120e86020836120a1565b91506120f3826120b2565b602082019050919050565b60006020820190508181036000830152612117816120db565b9050919050565b7f4e487b7100000000000000000000000000000000000000000000000000000000600052601160045260246000fd5b600061215882611c36565b915061216383611c36565b9250817fffffffffffffffffffffffffffffffffffffffffffffffffffffffffffffffff048311821515161561219c5761219b61211e565b5b828202905092915050565b7f6e6f6e4475706c6963617465643a206475706c69636174656400000000000000600082015250565b60006121dd6019836120a1565b91506121e8826121a7565b602082019050919050565b6000602082019050818103600083015261220c816121d0565b9050919050565b7f5265776172647320617265206e6f742061637469766500000000000000000000600082015250565b60006122496016836120a1565b915061225482612213565b602082019050919050565b600060208201905081810360008301526122788161223c565b9050919050565b7f4e487b7100000000000000000000000000000000000000000000000000000000600052603260045260246000fd5b7f4e6f20636c61696d61626c65207265776172647320746f207769746864726177600082015250565b60006122e46020836120a1565b91506122ef826122ae565b602082019050919050565b60006020820190508181036000830152612313816122d7565b9050919050565b7f53656e64657220646f6573206e6f7420726570726573656e742067726f757000600082015250565b6000612350601f836120a1565b915061235b8261231a565b602082019050919050565b6000602082019050818103600083015261237f81612343565b9050919050565b600060608201905061239b6000830186611ffd565b6123a86020830185611c99565b6123b56040830184611c99565b949350505050565b7f496e64657820646f6573206e6f74206d6174636820616c6c6f636174696f6e00600082015250565b60006123f3601f836120a1565b91506123fe826123bd565b602082019050919050565b60006020820190508181036000830152612422816123e6565b9050919050565b600061243482611c36565b915061243f83611c36565b9250828210156124525761245161211e565b5b828203905092915050565b7f4e487b7100000000000000000000000000000000000000000000000000000000600052603160045260246000fd5b600060ff82169050919050565b60006124a48261248c565b915060ff8214156124b8576124b761211e565b5b600182019050919050565b7f53656e646572206973206e6f742067726f7570206f72206f776e657200000000600082015250565b60006124f9601c836120a1565b9150612504826124c3565b602082019050919050565b60006020820190508181036000830152612528816124ec565b9050919050565b7f4f776e61626c653a206e6577206f776e657220697320746865207a65726f206160008201527f6464726573730000000000000000000000000000000000000000000000000000602082015250565b600061258b6026836120a1565b91506125968261252f565b604082019050919050565b600060208201905081810360008301526125ba8161257e565b9050919050565b7f4e487b7100000000000000000000000000000000000000000000000000000000600052601260045260246000fd5b60006125fb82611c36565b915061260683611c36565b925082612616576126156125c1565b5b828204905092915050565b60006040820190506126366000830185611ffd565b6126436020830184611c99565b9392505050565b600061265582611c36565b915061266083611c36565b9250827fffffffffffffffffffffffffffffffffffffffffffffffffffffffffffffffff038211156126955761269461211e565b5b828201905092915050565b6000815190506126af81611d84565b92915050565b6000602082840312156126cb576126ca611c31565b5b60006126d9848285016126a0565b91505092915050565b7f5361666545524332303a204552433230206f7065726174696f6e20646964206e60008201527f6f74207375636365656400000000000000000000000000000000000000000000602082015250565b600061273e602a836120a1565b9150612749826126e2565b604082019050919050565b6000602082019050818103600083015261276d81612731565b9050919050565b7f416464726573733a20696e73756666696369656e742062616c616e636520666f60008201527f722063616c6c0000000000000000000000000000000000000000000000000000602082015250565b60006127d06026836120a1565b91506127db82612774565b604082019050919050565b600060208201905081810360008301526127ff816127c3565b9050919050565b7f416464726573733a2063616c6c20746f206e6f6e2d636f6e7472616374000000600082015250565b600061283c601d836120a1565b915061284782612806565b602082019050919050565b6000602082019050818103600083015261286b8161282f565b9050919050565b600081519050919050565b600081905092915050565b60005b838110156128a657808201518184015260208101905061288b565b838111156128b5576000848401525b50505050565b60006128c682612872565b6128d0818561287d565b93506128e0818560208601612888565b80840191505092915050565b60006128f882846128bb565b915081905092915050565b600081519050919050565b6000601f19601f8301169050919050565b600061292a82612903565b61293481856120a1565b9350612944818560208601612888565b61294d8161290e565b840191505092915050565b60006020820190508181036000830152612972818461291f565b90509291505056fea2646970667358221220883c56a60e1f0509f02817749d482ce91d1ef46b207735ffbb7ef7c0a1ff257464736f6c634300080b0033",
  "devdoc": {
    "kind": "dev",
    "methods": {
      "owner()": {
        "details": "Returns the address of the current owner."
      },
      "renounceOwnership()": {
        "details": "Leaves the contract without owner. It will not be possible to call `onlyOwner` functions anymore. Can only be called by the current owner. NOTE: Renouncing ownership will leave the contract without an owner, thereby removing any functionality that is only available to the owner."
      },
      "transferOwnership(address)": {
        "details": "Transfers ownership of the contract to a new account (`newOwner`). Can only be called by the current owner."
      }
    },
    "version": 1
  },
  "userdoc": {
    "kind": "user",
    "methods": {},
    "version": 1
  },
  "storageLayout": {
    "storage": [
      {
        "astId": 7,
        "contract": "src/contracts/TopChef.sol:TopChef",
        "label": "_owner",
        "offset": 0,
        "slot": "0",
        "type": "t_address"
      },
      {
        "astId": 1660,
        "contract": "src/contracts/TopChef.sol:TopChef",
        "label": "_metricPerBlock",
        "offset": 0,
        "slot": "1",
        "type": "t_uint256"
      },
      {
        "astId": 1665,
        "contract": "src/contracts/TopChef.sol:TopChef",
        "label": "_rewardsActive",
        "offset": 0,
        "slot": "2",
        "type": "t_bool"
      },
      {
        "astId": 1667,
        "contract": "src/contracts/TopChef.sol:TopChef",
        "label": "_lastRewardBlock",
        "offset": 0,
        "slot": "3",
        "type": "t_uint256"
      },
      {
        "astId": 1669,
        "contract": "src/contracts/TopChef.sol:TopChef",
        "label": "_lifetimeShareValue",
        "offset": 0,
        "slot": "4",
        "type": "t_uint256"
      },
      {
        "astId": 1671,
        "contract": "src/contracts/TopChef.sol:TopChef",
        "label": "_totalAllocShares",
        "offset": 0,
        "slot": "5",
        "type": "t_uint256"
      },
      {
        "astId": 1674,
        "contract": "src/contracts/TopChef.sol:TopChef",
        "label": "metric",
        "offset": 0,
        "slot": "6",
        "type": "t_contract(MetricToken)1965"
      },
      {
        "astId": 1900,
        "contract": "src/contracts/TopChef.sol:TopChef",
        "label": "addressExistence",
        "offset": 0,
        "slot": "7",
        "type": "t_mapping(t_address,t_bool)"
      },
      {
        "astId": 2471,
        "contract": "src/contracts/TopChef.sol:TopChef",
        "label": "_allocations",
        "offset": 0,
        "slot": "8",
        "type": "t_array(t_struct(AllocationGroup)2935_storage)dyn_storage"
      }
    ],
    "types": {
      "t_address": {
        "encoding": "inplace",
        "label": "address",
        "numberOfBytes": "20"
      },
      "t_array(t_struct(AllocationGroup)2935_storage)dyn_storage": {
        "base": "t_struct(AllocationGroup)2935_storage",
        "encoding": "dynamic_array",
        "label": "struct TopChef.AllocationGroup[]",
        "numberOfBytes": "32"
      },
      "t_bool": {
        "encoding": "inplace",
        "label": "bool",
        "numberOfBytes": "1"
      },
      "t_contract(MetricToken)1965": {
        "encoding": "inplace",
        "label": "contract MetricToken",
        "numberOfBytes": "20"
      },
      "t_mapping(t_address,t_bool)": {
        "encoding": "mapping",
        "key": "t_address",
        "label": "mapping(address => bool)",
        "numberOfBytes": "32",
        "value": "t_bool"
      },
      "t_struct(AllocationGroup)2935_storage": {
        "encoding": "inplace",
        "label": "struct TopChef.AllocationGroup",
        "members": [
          {
            "astId": 2926,
            "contract": "src/contracts/TopChef.sol:TopChef",
            "label": "groupAddress",
            "offset": 0,
            "slot": "0",
            "type": "t_address"
          },
          {
            "astId": 2928,
            "contract": "src/contracts/TopChef.sol:TopChef",
            "label": "shares",
            "offset": 0,
            "slot": "1",
            "type": "t_uint256"
          },
          {
            "astId": 2930,
            "contract": "src/contracts/TopChef.sol:TopChef",
            "label": "autodistribute",
            "offset": 0,
            "slot": "2",
            "type": "t_bool"
          },
          {
            "astId": 2932,
            "contract": "src/contracts/TopChef.sol:TopChef",
            "label": "rewardDebt",
            "offset": 0,
            "slot": "3",
            "type": "t_uint256"
          },
          {
            "astId": 2934,
            "contract": "src/contracts/TopChef.sol:TopChef",
            "label": "claimable",
            "offset": 0,
            "slot": "4",
            "type": "t_uint256"
          }
        ],
        "numberOfBytes": "160"
      },
      "t_uint256": {
        "encoding": "inplace",
        "label": "uint256",
        "numberOfBytes": "32"
      }
    }
  }
}