{
  "address": "0xa513E6E4b8f2a923D98304ec87F64353C4D5C853",
  "abi": [
    {
      "inputs": [
        {
          "internalType": "address",
          "name": "metricTokenAddress",
          "type": "address"
        }
      ],
      "stateMutability": "nonpayable",
      "type": "constructor"
    },
    {
      "inputs": [],
      "name": "DuplicateAddress",
      "type": "error"
    },
    {
      "inputs": [],
      "name": "IndexDoesNotMatchAllocation",
      "type": "error"
    },
    {
      "inputs": [],
      "name": "NoClaimableRewardToWithdraw",
      "type": "error"
    },
    {
      "inputs": [],
      "name": "NoRewardsToClaim",
      "type": "error"
    },
    {
      "inputs": [],
      "name": "RewardsInactive",
      "type": "error"
    },
    {
      "inputs": [],
      "name": "SenderDoesNotRepresentGroup",
      "type": "error"
    },
    {
      "inputs": [],
      "name": "SenderNotOwner",
      "type": "error"
    },
    {
      "inputs": [],
      "name": "SharesNotGreaterThanZero",
      "type": "error"
    },
    {
      "anonymous": false,
      "inputs": [
        {
          "indexed": false,
          "internalType": "address",
          "name": "harvester",
          "type": "address"
        },
        {
          "indexed": false,
          "internalType": "uint256",
          "name": "agIndex",
          "type": "uint256"
        },
        {
          "indexed": false,
          "internalType": "uint256",
          "name": "amount",
          "type": "uint256"
        }
      ],
      "name": "Harvest",
      "type": "event"
    },
    {
      "anonymous": false,
      "inputs": [
        {
          "indexed": true,
          "internalType": "address",
          "name": "previousOwner",
          "type": "address"
        },
        {
          "indexed": true,
          "internalType": "address",
          "name": "newOwner",
          "type": "address"
        }
      ],
      "name": "OwnershipTransferred",
      "type": "event"
    },
    {
      "anonymous": false,
      "inputs": [
        {
          "indexed": false,
          "internalType": "address",
          "name": "withdrawer",
          "type": "address"
        },
        {
          "indexed": false,
          "internalType": "uint256",
          "name": "agIndex",
          "type": "uint256"
        },
        {
          "indexed": false,
          "internalType": "uint256",
          "name": "amount",
          "type": "uint256"
        }
      ],
      "name": "Withdraw",
      "type": "event"
    },
    {
      "inputs": [],
      "name": "ACC_METRIC_PRECISION",
      "outputs": [
        {
          "internalType": "uint256",
          "name": "",
          "type": "uint256"
        }
      ],
      "stateMutability": "view",
      "type": "function"
    },
    {
      "inputs": [
        {
          "internalType": "uint256",
          "name": "accumulatedWithPrecision",
          "type": "uint256"
        }
      ],
      "name": "accumulatedMetricDividedByShares",
      "outputs": [
        {
          "internalType": "uint256",
          "name": "",
          "type": "uint256"
        }
      ],
      "stateMutability": "view",
      "type": "function"
    },
    {
      "inputs": [
        {
          "internalType": "address",
          "name": "newAddress",
          "type": "address"
        },
        {
          "internalType": "uint256",
          "name": "newShares",
          "type": "uint256"
        },
        {
          "internalType": "bool",
          "name": "newAutoDistribute",
          "type": "bool"
        }
      ],
      "name": "addAllocationGroup",
      "outputs": [],
      "stateMutability": "nonpayable",
      "type": "function"
    },
    {
      "inputs": [
        {
          "internalType": "address",
          "name": "",
          "type": "address"
        }
      ],
      "name": "addressExistence",
      "outputs": [
        {
          "internalType": "bool",
          "name": "",
          "type": "bool"
        }
      ],
      "stateMutability": "view",
      "type": "function"
    },
    {
      "inputs": [],
      "name": "areRewardsActive",
      "outputs": [
        {
          "internalType": "bool",
          "name": "",
          "type": "bool"
        }
      ],
      "stateMutability": "view",
      "type": "function"
    },
    {
      "inputs": [
        {
          "internalType": "uint256",
          "name": "agIndex",
          "type": "uint256"
        }
      ],
      "name": "claim",
      "outputs": [],
      "stateMutability": "nonpayable",
      "type": "function"
    },
    {
      "inputs": [],
      "name": "getAllocationGroups",
      "outputs": [
        {
          "components": [
            {
              "internalType": "address",
              "name": "groupAddress",
              "type": "address"
            },
            {
              "internalType": "uint256",
              "name": "shares",
              "type": "uint256"
            },
            {
              "internalType": "bool",
              "name": "autodistribute",
              "type": "bool"
            },
            {
              "internalType": "uint256",
              "name": "rewardDebt",
              "type": "uint256"
            },
            {
              "internalType": "uint256",
              "name": "claimable",
              "type": "uint256"
            }
          ],
          "internalType": "struct TopChef.AllocationGroup[]",
          "name": "",
          "type": "tuple[]"
        }
      ],
      "stateMutability": "view",
      "type": "function"
    },
    {
      "inputs": [],
      "name": "getLastRewardBlock",
      "outputs": [
        {
          "internalType": "uint256",
          "name": "",
          "type": "uint256"
        }
      ],
      "stateMutability": "view",
      "type": "function"
    },
    {
      "inputs": [],
      "name": "getLifeTimeShareValueEstimate",
      "outputs": [
        {
          "internalType": "uint256",
          "name": "",
          "type": "uint256"
        }
      ],
      "stateMutability": "view",
      "type": "function"
    },
    {
      "inputs": [],
      "name": "getMetricPerBlock",
      "outputs": [
        {
          "internalType": "uint256",
          "name": "",
          "type": "uint256"
        }
      ],
      "stateMutability": "view",
      "type": "function"
    },
    {
      "inputs": [],
      "name": "getMetricToken",
      "outputs": [
        {
          "internalType": "contract MetricToken",
          "name": "",
          "type": "address"
        }
      ],
      "stateMutability": "view",
      "type": "function"
    },
    {
      "inputs": [],
      "name": "getTotalAllocationShares",
      "outputs": [
        {
          "internalType": "uint256",
          "name": "",
          "type": "uint256"
        }
      ],
      "stateMutability": "view",
      "type": "function"
    },
    {
      "inputs": [
        {
          "internalType": "uint256",
          "name": "agIndex",
          "type": "uint256"
        }
      ],
      "name": "harvest",
      "outputs": [
        {
          "internalType": "uint256",
          "name": "",
          "type": "uint256"
        }
      ],
      "stateMutability": "nonpayable",
      "type": "function"
    },
    {
      "inputs": [],
      "name": "harvestAll",
      "outputs": [],
      "stateMutability": "nonpayable",
      "type": "function"
    },
    {
      "inputs": [],
      "name": "owner",
      "outputs": [
        {
          "internalType": "address",
          "name": "",
          "type": "address"
        }
      ],
      "stateMutability": "view",
      "type": "function"
    },
    {
      "inputs": [
        {
          "internalType": "uint256",
          "name": "agIndex",
          "type": "uint256"
        }
      ],
      "name": "removeAllocationGroup",
      "outputs": [],
      "stateMutability": "nonpayable",
      "type": "function"
    },
    {
      "inputs": [],
      "name": "renounceOwnership",
      "outputs": [],
      "stateMutability": "nonpayable",
      "type": "function"
    },
    {
      "inputs": [],
      "name": "setLifetimeShareValue",
      "outputs": [],
      "stateMutability": "nonpayable",
      "type": "function"
    },
    {
      "inputs": [
        {
          "internalType": "uint256",
          "name": "metricAmount",
          "type": "uint256"
        }
      ],
      "name": "setMetricPerBlock",
      "outputs": [],
      "stateMutability": "nonpayable",
      "type": "function"
    },
    {
      "inputs": [
        {
          "internalType": "address",
          "name": "metricTokenAddress",
          "type": "address"
        }
      ],
      "name": "setMetricToken",
      "outputs": [],
      "stateMutability": "nonpayable",
      "type": "function"
    },
    {
      "inputs": [
        {
          "internalType": "bool",
          "name": "isOn",
          "type": "bool"
        }
      ],
      "name": "toggleRewards",
      "outputs": [],
      "stateMutability": "nonpayable",
      "type": "function"
    },
    {
      "inputs": [
        {
          "internalType": "address",
          "name": "newOwner",
          "type": "address"
        }
      ],
      "name": "transferOwnership",
      "outputs": [],
      "stateMutability": "nonpayable",
      "type": "function"
    },
    {
      "inputs": [],
      "name": "updateAccumulatedAllocations",
      "outputs": [],
      "stateMutability": "nonpayable",
      "type": "function"
    },
    {
      "inputs": [
        {
          "internalType": "address",
          "name": "groupAddress",
          "type": "address"
        },
        {
          "internalType": "uint256",
          "name": "agIndex",
          "type": "uint256"
        },
        {
          "internalType": "uint256",
          "name": "shares",
          "type": "uint256"
        },
        {
          "internalType": "bool",
          "name": "newAutoDistribute",
          "type": "bool"
        }
      ],
      "name": "updateAllocationGroup",
      "outputs": [],
      "stateMutability": "nonpayable",
      "type": "function"
    },
    {
      "inputs": [
        {
          "internalType": "uint256",
          "name": "agIndex",
          "type": "uint256"
        }
      ],
      "name": "viewPendingClaims",
      "outputs": [
        {
          "internalType": "uint256",
          "name": "",
          "type": "uint256"
        }
      ],
      "stateMutability": "view",
      "type": "function"
    },
    {
      "inputs": [
        {
          "internalType": "uint256",
          "name": "agIndex",
          "type": "uint256"
        }
      ],
      "name": "viewPendingHarvest",
      "outputs": [
        {
          "internalType": "uint256",
          "name": "",
          "type": "uint256"
        }
      ],
      "stateMutability": "view",
      "type": "function"
    },
    {
      "inputs": [
        {
          "internalType": "uint256",
          "name": "agIndex",
          "type": "uint256"
        }
      ],
      "name": "viewPendingRewards",
      "outputs": [
        {
          "internalType": "uint256",
          "name": "",
          "type": "uint256"
        }
      ],
      "stateMutability": "view",
      "type": "function"
    }
  ],
  "transactionHash": "0x5ad27999a9e03e077ca4ea74b62404ea52c6878194bf8e1a96cc32354a652850",
  "args": [
    "0x0165878A594ca255338adfa4d48449f69242Eb8F"
  ],
  "numDeployments": 1,
  "solcInputHash": "ccee38e7ecfebbf64ca3637d709f41ca",
  "bytecode": "0x60806040523480156200001157600080fd5b5060405162002df638038062002df683398181016040528101906200003791906200043a565b620000576200004b6200009360201b60201c565b6200009b60201b60201c565b62000068816200015f60201b60201c565b6200007a60046200023260201b60201c565b6200008c6000620002e060201b60201c565b5062000589565b600033905090565b60008060009054906101000a900473ffffffffffffffffffffffffffffffffffffffff169050816000806101000a81548173ffffffffffffffffffffffffffffffffffffffff021916908373ffffffffffffffffffffffffffffffffffffffff1602179055508173ffffffffffffffffffffffffffffffffffffffff168173ffffffffffffffffffffffffffffffffffffffff167f8be0079c531659141344cd1fd0a4f28419497f9722a3daafe3b4186f6b6457e060405160405180910390a35050565b6200016f6200009360201b60201c565b73ffffffffffffffffffffffffffffffffffffffff16620001956200039d60201b60201c565b73ffffffffffffffffffffffffffffffffffffffff1614620001ee576040517f08c379a0000000000000000000000000000000000000000000000000000000008152600401620001e590620004cd565b60405180910390fd5b80600660006101000a81548173ffffffffffffffffffffffffffffffffffffffff021916908373ffffffffffffffffffffffffffffffffffffffff16021790555050565b620002426200009360201b60201c565b73ffffffffffffffffffffffffffffffffffffffff16620002686200039d60201b60201c565b73ffffffffffffffffffffffffffffffffffffffff1614620002c1576040517f08c379a0000000000000000000000000000000000000000000000000000000008152600401620002b890620004cd565b60405180910390fd5b670de0b6b3a764000081620002d7919062000528565b60018190555050565b620002f06200009360201b60201c565b73ffffffffffffffffffffffffffffffffffffffff16620003166200039d60201b60201c565b73ffffffffffffffffffffffffffffffffffffffff16146200036f576040517f08c379a00000000000000000000000000000000000000000000000000000000081526004016200036690620004cd565b60405180910390fd5b80600260006101000a81548160ff0219169083151502179055506200039a43620003c660201b60201c565b50565b60008060009054906101000a900473ffffffffffffffffffffffffffffffffffffffff16905090565b8060038190555050565b600080fd5b600073ffffffffffffffffffffffffffffffffffffffff82169050919050565b60006200040282620003d5565b9050919050565b6200041481620003f5565b81146200042057600080fd5b50565b600081519050620004348162000409565b92915050565b600060208284031215620004535762000452620003d0565b5b6000620004638482850162000423565b91505092915050565b600082825260208201905092915050565b7f4f776e61626c653a2063616c6c6572206973206e6f7420746865206f776e6572600082015250565b6000620004b56020836200046c565b9150620004c2826200047d565b602082019050919050565b60006020820190508181036000830152620004e881620004a6565b9050919050565b6000819050919050565b7f4e487b7100000000000000000000000000000000000000000000000000000000600052601160045260246000fd5b60006200053582620004ef565b91506200054283620004ef565b9250817fffffffffffffffffffffffffffffffffffffffffffffffffffffffffffffffff04831182151516156200057e576200057d620004f9565b5b828202905092915050565b61285d80620005996000396000f3fe608060405234801561001057600080fd5b50600436106101a95760003560e01c806377d22d1a116100f9578063a8e2a38b11610097578063d8009bb611610071578063d8009bb61461044a578063ddc632621461047a578063f2fde38b146104aa578063f33c9baa146104c6576101a9565b8063a8e2a38b146103f0578063bf62bee61461040e578063c5d836d91461042c576101a9565b80638da5cb5b116100d35780638da5cb5b1461037c5780638ed955b91461039a578063945c5287146103a4578063994cd567146103c0576101a9565b806377d22d1a146103385780638b4a4ed5146103425780638c19ec8b14610360576101a9565b80635aa01b04116101665780635f9b1bb5116101405780635f9b1bb5146102ea5780636336694b146102f45780636ac49a8914610310578063715018a61461032e576101a9565b80635aa01b04146102805780635cae9a481461029c5780635e175713146102cc576101a9565b80630419ba05146101ae5780631cd8f0fa146101cc5780631e718d27146101e857806322abbddf14610218578063259e787314610248578063379607f514610264575b600080fd5b6101b66104e4565b6040516101c39190611d80565b60405180910390f35b6101e660048036038101906101e19190611dcc565b610526565b005b61020260048036038101906101fd9190611dcc565b6105bf565b60405161020f9190611d80565b60405180910390f35b610232600480360381019061022d9190611e57565b6105db565b60405161023f9190611e9f565b60405180910390f35b610262600480360381019061025d9190611ee6565b6105fb565b005b61027e60048036038101906102799190611dcc565b6108ea565b005b61029a60048036038101906102959190611f39565b610a51565b005b6102b660048036038101906102b19190611dcc565b610c15565b6040516102c39190611d80565b60405180910390f35b6102d4610ce3565b6040516102e19190611d80565b60405180910390f35b6102f2610ced565b005b61030e60048036038101906103099190611dcc565b610d26565b005b61031861101f565b6040516103259190611d80565b60405180910390f35b610336611028565b005b6103406110b0565b005b61034a611111565b60405161035791906120e4565b60405180910390f35b61037a60048036038101906103759190612106565b6111ff565b005b6103846112a1565b6040516103919190612142565b60405180910390f35b6103a26112ca565b005b6103be60048036038101906103b99190611e57565b61137a565b005b6103da60048036038101906103d59190611dcc565b61143a565b6040516103e79190611d80565b60405180910390f35b6103f8611585565b60405161040591906121bc565b60405180910390f35b6104166115af565b6040516104239190611d80565b60405180910390f35b6104346115b9565b6040516104419190611d80565b60405180910390f35b610464600480360381019061045f9190611dcc565b6115c3565b6040516104719190611d80565b60405180910390f35b610494600480360381019061048f9190611dcc565b6116b0565b6040516104a19190611d80565b60405180910390f35b6104c460048036038101906104bf9190611e57565b6117da565b005b6104ce6118d1565b6040516104db9190611e9f565b60405180910390f35b6000806104ef6118e8565b905060006104fc82611919565b90506000610508611933565b9050610513826105bf565b8161051e9190612206565b935050505090565b61052e61193d565b73ffffffffffffffffffffffffffffffffffffffff1661054c6112a1565b73ffffffffffffffffffffffffffffffffffffffff16146105a2576040517f08c379a0000000000000000000000000000000000000000000000000000000008152600401610599906122b9565b60405180910390fd5b670de0b6b3a7640000816105b691906122d9565b60018190555050565b60006105c9610ce3565b826105d49190612362565b9050919050565b60076020528060005260406000206000915054906101000a900460ff1681565b61060361193d565b73ffffffffffffffffffffffffffffffffffffffff166106216112a1565b73ffffffffffffffffffffffffffffffffffffffff1614610677576040517f08c379a000000000000000000000000000000000000000000000000000000000815260040161066e906122b9565b60405180910390fd5b8260011515600760008373ffffffffffffffffffffffffffffffffffffffff1673ffffffffffffffffffffffffffffffffffffffff16815260200190815260200160002060009054906101000a900460ff16151503610702576040517f0a47c55800000000000000000000000000000000000000000000000000000000815260040160405180910390fd5b6001600760008373ffffffffffffffffffffffffffffffffffffffff1673ffffffffffffffffffffffffffffffffffffffff16815260200190815260200160002060006101000a81548160ff02191690831515021790555060008311610794576040517ff915581500000000000000000000000000000000000000000000000000000000815260040160405180910390fd5b61079c6118d1565b80156107af575060006107ad610ce3565b115b156107bd576107bc6110b0565b5b60006040518060a001604052808673ffffffffffffffffffffffffffffffffffffffff168152602001858152602001841515815260200164e8d4a51000610802611933565b8761080d91906122d9565b6108179190612362565b815260200160008152509050600881908060018154018082558091505060019003906000526020600020906005020160009091909190915060008201518160000160006101000a81548173ffffffffffffffffffffffffffffffffffffffff021916908373ffffffffffffffffffffffffffffffffffffffff1602179055506020820151816001015560408201518160020160006101000a81548160ff021916908315150217905550606082015181600301556080820151816004015550506108e38160200151611945565b5050505050565b600060088281548110610900576108ff612393565b5b906000526020600020906005020190508060000160009054906101000a900473ffffffffffffffffffffffffffffffffffffffff1673ffffffffffffffffffffffffffffffffffffffff1661095361193d565b73ffffffffffffffffffffffffffffffffffffffff16146109a0576040517f19494c8a00000000000000000000000000000000000000000000000000000000815260040160405180910390fd5b60006109ab836116b0565b9050600081036109e7576040517f73380d9900000000000000000000000000000000000000000000000000000000815260040160405180910390fd5b60008260040181905550610a0a6109fc611585565b610a0461193d565b8361195c565b7ff279e6a1f5e320cca91135676d9cb6e44ca8a08c0b88342bcdb1144f6511b568610a3361193d565b8483604051610a44939291906123c2565b60405180910390a1505050565b610a596118d1565b610a8f576040517f236582f100000000000000000000000000000000000000000000000000000000815260040160405180910390fd5b610a9761193d565b73ffffffffffffffffffffffffffffffffffffffff16610ab56112a1565b73ffffffffffffffffffffffffffffffffffffffff1614610b0b576040517f08c379a0000000000000000000000000000000000000000000000000000000008152600401610b02906122b9565b60405180910390fd5b610b14836116b0565b50610b4460088481548110610b2c57610b2b612393565b5b906000526020600020906005020160010154836119e2565b8360088481548110610b5957610b58612393565b5b906000526020600020906005020160000160006101000a81548173ffffffffffffffffffffffffffffffffffffffff021916908373ffffffffffffffffffffffffffffffffffffffff1602179055508160088481548110610bbd57610bbc612393565b5b9060005260206000209060050201600101819055508060088481548110610be757610be6612393565b5b906000526020600020906005020160020160006101000a81548160ff02191690831515021790555050505050565b60008060088381548110610c2c57610c2b612393565b5b90600052602060002090600502016040518060a00160405290816000820160009054906101000a900473ffffffffffffffffffffffffffffffffffffffff1673ffffffffffffffffffffffffffffffffffffffff1673ffffffffffffffffffffffffffffffffffffffff168152602001600182015481526020016002820160009054906101000a900460ff161515151581526020016003820154815260200160048201548152505090508060800151915050919050565b6000600554905090565b6000610cf76118e8565b90506000610d0482611919565b9050610d0f816105bf565b600454610d1c9190612206565b6004819055505050565b610d2e6118d1565b610d64576040517f236582f100000000000000000000000000000000000000000000000000000000815260040160405180910390fd5b610d6c61193d565b73ffffffffffffffffffffffffffffffffffffffff16610d8a6112a1565b73ffffffffffffffffffffffffffffffffffffffff1614610de0576040517f08c379a0000000000000000000000000000000000000000000000000000000008152600401610dd7906122b9565b60405180910390fd5b6008805490508110610e1e576040517fd0333a0600000000000000000000000000000000000000000000000000000000815260040160405180910390fd5b600160088281548110610e3457610e33612393565b5b906000526020600020906005020160020160006101000a81548160ff021916908315150217905550610e65816116b0565b50610e9460088281548110610e7d57610e7c612393565b5b906000526020600020906005020160010154611a05565b60086001600880549050610ea891906123f9565b81548110610eb957610eb8612393565b5b906000526020600020906005020160088281548110610edb57610eda612393565b5b90600052602060002090600502016000820160009054906101000a900473ffffffffffffffffffffffffffffffffffffffff168160000160006101000a81548173ffffffffffffffffffffffffffffffffffffffff021916908373ffffffffffffffffffffffffffffffffffffffff160217905550600182015481600101556002820160009054906101000a900460ff168160020160006101000a81548160ff02191690831515021790555060038201548160030155600482015481600401559050506008805480610fb057610faf61242d565b5b6001900381819060005260206000209060050201600080820160006101000a81549073ffffffffffffffffffffffffffffffffffffffff021916905560018201600090556002820160006101000a81549060ff0219169055600382016000905560048201600090555050905550565b64e8d4a5100081565b61103061193d565b73ffffffffffffffffffffffffffffffffffffffff1661104e6112a1565b73ffffffffffffffffffffffffffffffffffffffff16146110a4576040517f08c379a000000000000000000000000000000000000000000000000000000000815260040161109b906122b9565b60405180910390fd5b6110ae6000611a1c565b565b6110b86118d1565b6110ee576040517f236582f100000000000000000000000000000000000000000000000000000000815260040160405180910390fd5b6110f66115af565b43111561110f57611105610ced565b61110e43611ae0565b5b565b60606008805480602002602001604051908101604052809291908181526020016000905b828210156111f657838290600052602060002090600502016040518060a00160405290816000820160009054906101000a900473ffffffffffffffffffffffffffffffffffffffff1673ffffffffffffffffffffffffffffffffffffffff1673ffffffffffffffffffffffffffffffffffffffff168152602001600182015481526020016002820160009054906101000a900460ff161515151581526020016003820154815260200160048201548152505081526020019060010190611135565b50505050905090565b61120761193d565b73ffffffffffffffffffffffffffffffffffffffff166112256112a1565b73ffffffffffffffffffffffffffffffffffffffff161461127b576040517f08c379a0000000000000000000000000000000000000000000000000000000008152600401611272906122b9565b60405180910390fd5b80600260006101000a81548160ff02191690831515021790555061129e43611ae0565b50565b60008060009054906101000a900473ffffffffffffffffffffffffffffffffffffffff16905090565b6112d261193d565b73ffffffffffffffffffffffffffffffffffffffff166112f06112a1565b73ffffffffffffffffffffffffffffffffffffffff1614611346576040517f08c379a000000000000000000000000000000000000000000000000000000000815260040161133d906122b9565b60405180910390fd5b60005b6008805490508160ff161015611377576113658160ff166116b0565b508061137090612469565b9050611349565b50565b61138261193d565b73ffffffffffffffffffffffffffffffffffffffff166113a06112a1565b73ffffffffffffffffffffffffffffffffffffffff16146113f6576040517f08c379a00000000000000000000000000000000000000000000000000000000081526004016113ed906122b9565b60405180910390fd5b80600660006101000a81548173ffffffffffffffffffffffffffffffffffffffff021916908373ffffffffffffffffffffffffffffffffffffffff16021790555050565b6000806008838154811061145157611450612393565b5b90600052602060002090600502016040518060a00160405290816000820160009054906101000a900473ffffffffffffffffffffffffffffffffffffffff1673ffffffffffffffffffffffffffffffffffffffff1673ffffffffffffffffffffffffffffffffffffffff168152602001600182015481526020016002820160009054906101000a900460ff161515151581526020016003820154815260200160048201548152505090506115036118d1565b1561154657806060015164e8d4a5100061151b6104e4565b836020015161152a91906122d9565b6115349190612362565b61153e91906123f9565b915050611580565b806060015164e8d4a51000611559611933565b836020015161156891906122d9565b6115729190612362565b61157c91906123f9565b9150505b919050565b6000600660009054906101000a900473ffffffffffffffffffffffffffffffffffffffff16905090565b6000600354905090565b6000600154905090565b600080600883815481106115da576115d9612393565b5b90600052602060002090600502016040518060a00160405290816000820160009054906101000a900473ffffffffffffffffffffffffffffffffffffffff1673ffffffffffffffffffffffffffffffffffffffff1673ffffffffffffffffffffffffffffffffffffffff168152602001600182015481526020016002820160009054906101000a900460ff1615151515815260200160038201548152602001600482015481525050905060008160800151905060006116988561143a565b905080826116a69190612206565b9350505050919050565b60006116ba6118d1565b6116f0576040517f236582f100000000000000000000000000000000000000000000000000000000815260040160405180910390fd5b60006008838154811061170657611705612393565b5b9060005260206000209060050201905061171e6110b0565b6000816003015464e8d4a51000611733611933565b846001015461174291906122d9565b61174c9190612362565b61175691906123f9565b90508082600301546117689190612206565b826003018190555060008183600401546117829190612206565b90508083600401819055507f71bab65ced2e5750775a0613be067df48ef06cf92a496ebf7663ae06609249546117b661193d565b86846040516117c7939291906123c2565b60405180910390a1809350505050919050565b6117e261193d565b73ffffffffffffffffffffffffffffffffffffffff166118006112a1565b73ffffffffffffffffffffffffffffffffffffffff1614611856576040517f08c379a000000000000000000000000000000000000000000000000000000000815260040161184d906122b9565b60405180910390fd5b600073ffffffffffffffffffffffffffffffffffffffff168173ffffffffffffffffffffffffffffffffffffffff16036118c5576040517f08c379a00000000000000000000000000000000000000000000000000000000081526004016118bc90612504565b60405180910390fd5b6118ce81611a1c565b50565b6000600260009054906101000a900460ff16905090565b6000806118f36115af565b436118fe91906123f9565b90506119086115b9565b8161191391906122d9565b91505090565b600064e8d4a510008261192c91906122d9565b9050919050565b6000600454905090565b600033905090565b806005546119539190612206565b60058190555050565b6119dd8363a9059cbb60e01b848460405160240161197b929190612524565b604051602081830303815290604052907bffffffffffffffffffffffffffffffffffffffffffffffffffffffff19166020820180517bffffffffffffffffffffffffffffffffffffffffffffffffffffffff8381831617835250505050611aea565b505050565b80826005546119f191906123f9565b6119fb9190612206565b6005819055505050565b80600554611a1391906123f9565b60058190555050565b60008060009054906101000a900473ffffffffffffffffffffffffffffffffffffffff169050816000806101000a81548173ffffffffffffffffffffffffffffffffffffffff021916908373ffffffffffffffffffffffffffffffffffffffff1602179055508173ffffffffffffffffffffffffffffffffffffffff168173ffffffffffffffffffffffffffffffffffffffff167f8be0079c531659141344cd1fd0a4f28419497f9722a3daafe3b4186f6b6457e060405160405180910390a35050565b8060038190555050565b6000611b4c826040518060400160405280602081526020017f5361666545524332303a206c6f772d6c6576656c2063616c6c206661696c65648152508573ffffffffffffffffffffffffffffffffffffffff16611bb19092919063ffffffff16565b9050600081511115611bac5780806020019051810190611b6c9190612562565b611bab576040517f08c379a0000000000000000000000000000000000000000000000000000000008152600401611ba290612601565b60405180910390fd5b5b505050565b6060611bc08484600085611bc9565b90509392505050565b606082471015611c0e576040517f08c379a0000000000000000000000000000000000000000000000000000000008152600401611c0590612693565b60405180910390fd5b611c1785611cdd565b611c56576040517f08c379a0000000000000000000000000000000000000000000000000000000008152600401611c4d906126ff565b60405180910390fd5b6000808673ffffffffffffffffffffffffffffffffffffffff168587604051611c7f9190612799565b60006040518083038185875af1925050503d8060008114611cbc576040519150601f19603f3d011682016040523d82523d6000602084013e611cc1565b606091505b5091509150611cd1828286611d00565b92505050949350505050565b6000808273ffffffffffffffffffffffffffffffffffffffff163b119050919050565b60608315611d1057829050611d60565b600083511115611d235782518084602001fd5b816040517f08c379a0000000000000000000000000000000000000000000000000000000008152600401611d579190612805565b60405180910390fd5b9392505050565b6000819050919050565b611d7a81611d67565b82525050565b6000602082019050611d956000830184611d71565b92915050565b600080fd5b611da981611d67565b8114611db457600080fd5b50565b600081359050611dc681611da0565b92915050565b600060208284031215611de257611de1611d9b565b5b6000611df084828501611db7565b91505092915050565b600073ffffffffffffffffffffffffffffffffffffffff82169050919050565b6000611e2482611df9565b9050919050565b611e3481611e19565b8114611e3f57600080fd5b50565b600081359050611e5181611e2b565b92915050565b600060208284031215611e6d57611e6c611d9b565b5b6000611e7b84828501611e42565b91505092915050565b60008115159050919050565b611e9981611e84565b82525050565b6000602082019050611eb46000830184611e90565b92915050565b611ec381611e84565b8114611ece57600080fd5b50565b600081359050611ee081611eba565b92915050565b600080600060608486031215611eff57611efe611d9b565b5b6000611f0d86828701611e42565b9350506020611f1e86828701611db7565b9250506040611f2f86828701611ed1565b9150509250925092565b60008060008060808587031215611f5357611f52611d9b565b5b6000611f6187828801611e42565b9450506020611f7287828801611db7565b9350506040611f8387828801611db7565b9250506060611f9487828801611ed1565b91505092959194509250565b600081519050919050565b600082825260208201905092915050565b6000819050602082019050919050565b611fd581611e19565b82525050565b611fe481611d67565b82525050565b611ff381611e84565b82525050565b60a08201600082015161200f6000850182611fcc565b5060208201516120226020850182611fdb565b5060408201516120356040850182611fea565b5060608201516120486060850182611fdb565b50608082015161205b6080850182611fdb565b50505050565b600061206d8383611ff9565b60a08301905092915050565b6000602082019050919050565b600061209182611fa0565b61209b8185611fab565b93506120a683611fbc565b8060005b838110156120d75781516120be8882612061565b97506120c983612079565b9250506001810190506120aa565b5085935050505092915050565b600060208201905081810360008301526120fe8184612086565b905092915050565b60006020828403121561211c5761211b611d9b565b5b600061212a84828501611ed1565b91505092915050565b61213c81611e19565b82525050565b60006020820190506121576000830184612133565b92915050565b6000819050919050565b600061218261217d61217884611df9565b61215d565b611df9565b9050919050565b600061219482612167565b9050919050565b60006121a682612189565b9050919050565b6121b68161219b565b82525050565b60006020820190506121d160008301846121ad565b92915050565b7f4e487b7100000000000000000000000000000000000000000000000000000000600052601160045260246000fd5b600061221182611d67565b915061221c83611d67565b9250827fffffffffffffffffffffffffffffffffffffffffffffffffffffffffffffffff03821115612251576122506121d7565b5b828201905092915050565b600082825260208201905092915050565b7f4f776e61626c653a2063616c6c6572206973206e6f7420746865206f776e6572600082015250565b60006122a360208361225c565b91506122ae8261226d565b602082019050919050565b600060208201905081810360008301526122d281612296565b9050919050565b60006122e482611d67565b91506122ef83611d67565b9250817fffffffffffffffffffffffffffffffffffffffffffffffffffffffffffffffff0483118215151615612328576123276121d7565b5b828202905092915050565b7f4e487b7100000000000000000000000000000000000000000000000000000000600052601260045260246000fd5b600061236d82611d67565b915061237883611d67565b92508261238857612387612333565b5b828204905092915050565b7f4e487b7100000000000000000000000000000000000000000000000000000000600052603260045260246000fd5b60006060820190506123d76000830186612133565b6123e46020830185611d71565b6123f16040830184611d71565b949350505050565b600061240482611d67565b915061240f83611d67565b925082821015612422576124216121d7565b5b828203905092915050565b7f4e487b7100000000000000000000000000000000000000000000000000000000600052603160045260246000fd5b600060ff82169050919050565b60006124748261245c565b915060ff8203612487576124866121d7565b5b600182019050919050565b7f4f776e61626c653a206e6577206f776e657220697320746865207a65726f206160008201527f6464726573730000000000000000000000000000000000000000000000000000602082015250565b60006124ee60268361225c565b91506124f982612492565b604082019050919050565b6000602082019050818103600083015261251d816124e1565b9050919050565b60006040820190506125396000830185612133565b6125466020830184611d71565b9392505050565b60008151905061255c81611eba565b92915050565b60006020828403121561257857612577611d9b565b5b60006125868482850161254d565b91505092915050565b7f5361666545524332303a204552433230206f7065726174696f6e20646964206e60008201527f6f74207375636365656400000000000000000000000000000000000000000000602082015250565b60006125eb602a8361225c565b91506125f68261258f565b604082019050919050565b6000602082019050818103600083015261261a816125de565b9050919050565b7f416464726573733a20696e73756666696369656e742062616c616e636520666f60008201527f722063616c6c0000000000000000000000000000000000000000000000000000602082015250565b600061267d60268361225c565b915061268882612621565b604082019050919050565b600060208201905081810360008301526126ac81612670565b9050919050565b7f416464726573733a2063616c6c20746f206e6f6e2d636f6e7472616374000000600082015250565b60006126e9601d8361225c565b91506126f4826126b3565b602082019050919050565b60006020820190508181036000830152612718816126dc565b9050919050565b600081519050919050565b600081905092915050565b60005b83811015612753578082015181840152602081019050612738565b83811115612762576000848401525b50505050565b60006127738261271f565b61277d818561272a565b935061278d818560208601612735565b80840191505092915050565b60006127a58284612768565b915081905092915050565b600081519050919050565b6000601f19601f8301169050919050565b60006127d7826127b0565b6127e1818561225c565b93506127f1818560208601612735565b6127fa816127bb565b840191505092915050565b6000602082019050818103600083015261281f81846127cc565b90509291505056fea2646970667358221220dfa2faf1a68b6f6a1bf204d22596a0cd61dc2ef63c9969a6fc7198f871b645ea64736f6c634300080d0033",
  "devdoc": {
    "kind": "dev",
    "methods": {
      "owner()": {
        "details": "Returns the address of the current owner."
      },
      "renounceOwnership()": {
        "details": "Leaves the contract without owner. It will not be possible to call `onlyOwner` functions anymore. Can only be called by the current owner. NOTE: Renouncing ownership will leave the contract without an owner, thereby removing any functionality that is only available to the owner."
      },
      "transferOwnership(address)": {
        "details": "Transfers ownership of the contract to a new account (`newOwner`). Can only be called by the current owner."
      }
    },
    "version": 1
  },
  "userdoc": {
    "kind": "user",
    "methods": {},
    "version": 1
  },
  "storageLayout": {
    "storage": [
      {
        "astId": 7,
        "contract": "src/contracts/TopChef.sol:TopChef",
        "label": "_owner",
        "offset": 0,
        "slot": "0",
        "type": "t_address"
      },
      {
        "astId": 3343,
        "contract": "src/contracts/TopChef.sol:TopChef",
        "label": "_metricPerBlock",
        "offset": 0,
        "slot": "1",
        "type": "t_uint256"
      },
      {
        "astId": 3348,
        "contract": "src/contracts/TopChef.sol:TopChef",
        "label": "_rewardsActive",
        "offset": 0,
        "slot": "2",
        "type": "t_bool"
      },
      {
        "astId": 3350,
        "contract": "src/contracts/TopChef.sol:TopChef",
        "label": "_lastRewardBlock",
        "offset": 0,
        "slot": "3",
        "type": "t_uint256"
      },
      {
        "astId": 3352,
        "contract": "src/contracts/TopChef.sol:TopChef",
        "label": "_lifetimeShareValue",
        "offset": 0,
        "slot": "4",
        "type": "t_uint256"
      },
      {
        "astId": 3354,
        "contract": "src/contracts/TopChef.sol:TopChef",
        "label": "_totalAllocShares",
        "offset": 0,
        "slot": "5",
        "type": "t_uint256"
      },
      {
        "astId": 3357,
        "contract": "src/contracts/TopChef.sol:TopChef",
        "label": "metric",
        "offset": 0,
        "slot": "6",
        "type": "t_contract(MetricToken)3716"
      },
      {
        "astId": 3602,
        "contract": "src/contracts/TopChef.sol:TopChef",
        "label": "addressExistence",
        "offset": 0,
        "slot": "7",
        "type": "t_mapping(t_address,t_bool)"
      },
      {
        "astId": 5411,
        "contract": "src/contracts/TopChef.sol:TopChef",
        "label": "_allocations",
        "offset": 0,
        "slot": "8",
        "type": "t_array(t_struct(AllocationGroup)5884_storage)dyn_storage"
      }
    ],
    "types": {
      "t_address": {
        "encoding": "inplace",
        "label": "address",
        "numberOfBytes": "20"
      },
      "t_array(t_struct(AllocationGroup)5884_storage)dyn_storage": {
        "base": "t_struct(AllocationGroup)5884_storage",
        "encoding": "dynamic_array",
        "label": "struct TopChef.AllocationGroup[]",
        "numberOfBytes": "32"
      },
      "t_bool": {
        "encoding": "inplace",
        "label": "bool",
        "numberOfBytes": "1"
      },
      "t_contract(MetricToken)3716": {
        "encoding": "inplace",
        "label": "contract MetricToken",
        "numberOfBytes": "20"
      },
      "t_mapping(t_address,t_bool)": {
        "encoding": "mapping",
        "key": "t_address",
        "label": "mapping(address => bool)",
        "numberOfBytes": "32",
        "value": "t_bool"
      },
      "t_struct(AllocationGroup)5884_storage": {
        "encoding": "inplace",
        "label": "struct TopChef.AllocationGroup",
        "members": [
          {
            "astId": 5875,
            "contract": "src/contracts/TopChef.sol:TopChef",
            "label": "groupAddress",
            "offset": 0,
            "slot": "0",
            "type": "t_address"
          },
          {
            "astId": 5877,
            "contract": "src/contracts/TopChef.sol:TopChef",
            "label": "shares",
            "offset": 0,
            "slot": "1",
            "type": "t_uint256"
          },
          {
            "astId": 5879,
            "contract": "src/contracts/TopChef.sol:TopChef",
            "label": "autodistribute",
            "offset": 0,
            "slot": "2",
            "type": "t_bool"
          },
          {
            "astId": 5881,
            "contract": "src/contracts/TopChef.sol:TopChef",
            "label": "rewardDebt",
            "offset": 0,
            "slot": "3",
            "type": "t_uint256"
          },
          {
            "astId": 5883,
            "contract": "src/contracts/TopChef.sol:TopChef",
            "label": "claimable",
            "offset": 0,
            "slot": "4",
            "type": "t_uint256"
          }
        ],
        "numberOfBytes": "160"
      },
      "t_uint256": {
        "encoding": "inplace",
        "label": "uint256",
        "numberOfBytes": "32"
      }
    }
  }
}