{
  "address": "0xa513E6E4b8f2a923D98304ec87F64353C4D5C853",
  "abi": [
    {
      "inputs": [
        {
          "internalType": "address",
          "name": "metricTokenAddress",
          "type": "address"
        }
      ],
      "stateMutability": "nonpayable",
      "type": "constructor"
    },
    {
      "inputs": [],
      "name": "DuplicateAddress",
      "type": "error"
    },
    {
      "inputs": [],
      "name": "IndexDoesNotMatchAllocation",
      "type": "error"
    },
    {
      "inputs": [],
      "name": "NoClaimableRewardToWithdraw",
      "type": "error"
    },
    {
      "inputs": [],
      "name": "RewardsInactive",
      "type": "error"
    },
    {
      "inputs": [],
      "name": "SenderDoesNotRepresentGroup",
      "type": "error"
    },
    {
      "inputs": [],
      "name": "SharesNotGreaterThanZero",
      "type": "error"
    },
    {
      "anonymous": false,
      "inputs": [
        {
          "indexed": false,
          "internalType": "address",
          "name": "harvester",
          "type": "address"
        },
        {
          "indexed": false,
          "internalType": "uint256",
          "name": "agIndex",
          "type": "uint256"
        },
        {
          "indexed": false,
          "internalType": "uint256",
          "name": "amount",
          "type": "uint256"
        }
      ],
      "name": "Harvest",
      "type": "event"
    },
    {
      "anonymous": false,
      "inputs": [
        {
          "indexed": true,
          "internalType": "address",
          "name": "previousOwner",
          "type": "address"
        },
        {
          "indexed": true,
          "internalType": "address",
          "name": "newOwner",
          "type": "address"
        }
      ],
      "name": "OwnershipTransferred",
      "type": "event"
    },
    {
      "anonymous": false,
      "inputs": [
        {
          "indexed": false,
          "internalType": "address",
          "name": "withdrawer",
          "type": "address"
        },
        {
          "indexed": false,
          "internalType": "uint256",
          "name": "agIndex",
          "type": "uint256"
        },
        {
          "indexed": false,
          "internalType": "uint256",
          "name": "amount",
          "type": "uint256"
        }
      ],
      "name": "Withdraw",
      "type": "event"
    },
    {
      "inputs": [],
      "name": "ACC_METRIC_PRECISION",
      "outputs": [
        {
          "internalType": "uint256",
          "name": "",
          "type": "uint256"
        }
      ],
      "stateMutability": "view",
      "type": "function"
    },
    {
      "inputs": [
        {
          "internalType": "uint256",
          "name": "accumulatedWithPrecision",
          "type": "uint256"
        }
      ],
      "name": "accumulatedMetricDividedByShares",
      "outputs": [
        {
          "internalType": "uint256",
          "name": "",
          "type": "uint256"
        }
      ],
      "stateMutability": "view",
      "type": "function"
    },
    {
      "inputs": [
        {
          "internalType": "address",
          "name": "newAddress",
          "type": "address"
        },
        {
          "internalType": "uint256",
          "name": "newShares",
          "type": "uint256"
        }
      ],
      "name": "addAllocationGroup",
      "outputs": [],
      "stateMutability": "nonpayable",
      "type": "function"
    },
    {
      "inputs": [
        {
          "internalType": "address",
          "name": "",
          "type": "address"
        }
      ],
      "name": "addressExistence",
      "outputs": [
        {
          "internalType": "bool",
          "name": "",
          "type": "bool"
        }
      ],
      "stateMutability": "view",
      "type": "function"
    },
    {
      "inputs": [],
      "name": "areRewardsActive",
      "outputs": [
        {
          "internalType": "bool",
          "name": "",
          "type": "bool"
        }
      ],
      "stateMutability": "view",
      "type": "function"
    },
    {
      "inputs": [
        {
          "internalType": "uint256",
          "name": "agIndex",
          "type": "uint256"
        }
      ],
      "name": "claim",
      "outputs": [],
      "stateMutability": "nonpayable",
      "type": "function"
    },
    {
      "inputs": [],
      "name": "getAllocationGroups",
      "outputs": [
        {
          "components": [
            {
              "internalType": "address",
              "name": "groupAddress",
              "type": "address"
            },
            {
              "internalType": "uint256",
              "name": "shares",
              "type": "uint256"
            },
            {
              "internalType": "uint256",
              "name": "rewardDebt",
              "type": "uint256"
            },
            {
              "internalType": "uint256",
              "name": "claimable",
              "type": "uint256"
            }
          ],
          "internalType": "struct TopChef.AllocationGroup[]",
          "name": "",
          "type": "tuple[]"
        }
      ],
      "stateMutability": "view",
      "type": "function"
    },
    {
      "inputs": [],
      "name": "getLastRewardBlock",
      "outputs": [
        {
          "internalType": "uint256",
          "name": "",
          "type": "uint256"
        }
      ],
      "stateMutability": "view",
      "type": "function"
    },
    {
      "inputs": [],
      "name": "getLifeTimeShareValueEstimate",
      "outputs": [
        {
          "internalType": "uint256",
          "name": "",
          "type": "uint256"
        }
      ],
      "stateMutability": "view",
      "type": "function"
    },
    {
      "inputs": [],
      "name": "getMetricPerBlock",
      "outputs": [
        {
          "internalType": "uint256",
          "name": "",
          "type": "uint256"
        }
      ],
      "stateMutability": "view",
      "type": "function"
    },
    {
      "inputs": [],
      "name": "getMetricToken",
      "outputs": [
        {
          "internalType": "contract MetricToken",
          "name": "",
          "type": "address"
        }
      ],
      "stateMutability": "view",
      "type": "function"
    },
    {
      "inputs": [],
      "name": "getTotalAllocationShares",
      "outputs": [
        {
          "internalType": "uint256",
          "name": "",
          "type": "uint256"
        }
      ],
      "stateMutability": "view",
      "type": "function"
    },
    {
      "inputs": [
        {
          "internalType": "uint256",
          "name": "agIndex",
          "type": "uint256"
        }
      ],
      "name": "harvest",
      "outputs": [
        {
          "internalType": "uint256",
          "name": "",
          "type": "uint256"
        }
      ],
      "stateMutability": "nonpayable",
      "type": "function"
    },
    {
      "inputs": [],
      "name": "harvestAll",
      "outputs": [],
      "stateMutability": "nonpayable",
      "type": "function"
    },
    {
      "inputs": [],
      "name": "owner",
      "outputs": [
        {
          "internalType": "address",
          "name": "",
          "type": "address"
        }
      ],
      "stateMutability": "view",
      "type": "function"
    },
    {
      "inputs": [
        {
          "internalType": "uint256",
          "name": "agIndex",
          "type": "uint256"
        }
      ],
      "name": "removeAllocationGroup",
      "outputs": [],
      "stateMutability": "nonpayable",
      "type": "function"
    },
    {
      "inputs": [],
      "name": "renounceOwnership",
      "outputs": [],
      "stateMutability": "nonpayable",
      "type": "function"
    },
    {
      "inputs": [],
      "name": "setLifetimeShareValue",
      "outputs": [],
      "stateMutability": "nonpayable",
      "type": "function"
    },
    {
      "inputs": [
        {
          "internalType": "uint256",
          "name": "metricAmount",
          "type": "uint256"
        }
      ],
      "name": "setMetricPerBlock",
      "outputs": [],
      "stateMutability": "nonpayable",
      "type": "function"
    },
    {
      "inputs": [
        {
          "internalType": "address",
          "name": "metricTokenAddress",
          "type": "address"
        }
      ],
      "name": "setMetricToken",
      "outputs": [],
      "stateMutability": "nonpayable",
      "type": "function"
    },
    {
      "inputs": [
        {
          "internalType": "bool",
          "name": "isOn",
          "type": "bool"
        }
      ],
      "name": "toggleRewards",
      "outputs": [],
      "stateMutability": "nonpayable",
      "type": "function"
    },
    {
      "inputs": [
        {
          "internalType": "address",
          "name": "newOwner",
          "type": "address"
        }
      ],
      "name": "transferOwnership",
      "outputs": [],
      "stateMutability": "nonpayable",
      "type": "function"
    },
    {
      "inputs": [],
      "name": "updateAccumulatedAllocations",
      "outputs": [],
      "stateMutability": "nonpayable",
      "type": "function"
    },
    {
      "inputs": [
        {
          "internalType": "address",
          "name": "groupAddress",
          "type": "address"
        },
        {
          "internalType": "uint256",
          "name": "agIndex",
          "type": "uint256"
        },
        {
          "internalType": "uint256",
          "name": "shares",
          "type": "uint256"
        }
      ],
      "name": "updateAllocationGroup",
      "outputs": [],
      "stateMutability": "nonpayable",
      "type": "function"
    },
    {
      "inputs": [
        {
          "internalType": "uint256",
          "name": "agIndex",
          "type": "uint256"
        }
      ],
      "name": "viewPendingClaims",
      "outputs": [
        {
          "internalType": "uint256",
          "name": "",
          "type": "uint256"
        }
      ],
      "stateMutability": "view",
      "type": "function"
    },
    {
      "inputs": [
        {
          "internalType": "uint256",
          "name": "agIndex",
          "type": "uint256"
        }
      ],
      "name": "viewPendingHarvest",
      "outputs": [
        {
          "internalType": "uint256",
          "name": "",
          "type": "uint256"
        }
      ],
      "stateMutability": "view",
      "type": "function"
    },
    {
      "inputs": [
        {
          "internalType": "uint256",
          "name": "agIndex",
          "type": "uint256"
        }
      ],
      "name": "viewPendingRewards",
      "outputs": [
        {
          "internalType": "uint256",
          "name": "",
          "type": "uint256"
        }
      ],
      "stateMutability": "view",
      "type": "function"
    }
  ],
  "transactionHash": "0x590e26311bbef52b5fb555f5237c892e786e8888f9a77eb337dee63309ce2772",
  "args": [
    "0x0165878A594ca255338adfa4d48449f69242Eb8F"
  ],
  "numDeployments": 1,
  "solcInputHash": "e821a2549f8038179026fe5689ce9f02",
  "bytecode": "0x60806040523480156200001157600080fd5b5060405162002ce838038062002ce8833981810160405281019062000037919062000438565b620000576200004b6200009360201b60201c565b6200009b60201b60201c565b62000068816200015f60201b60201c565b6200007a60046200023260201b60201c565b6200008c6000620002e060201b60201c565b5062000587565b600033905090565b60008060009054906101000a900473ffffffffffffffffffffffffffffffffffffffff169050816000806101000a81548173ffffffffffffffffffffffffffffffffffffffff021916908373ffffffffffffffffffffffffffffffffffffffff1602179055508173ffffffffffffffffffffffffffffffffffffffff168173ffffffffffffffffffffffffffffffffffffffff167f8be0079c531659141344cd1fd0a4f28419497f9722a3daafe3b4186f6b6457e060405160405180910390a35050565b6200016f6200009360201b60201c565b73ffffffffffffffffffffffffffffffffffffffff16620001956200039c60201b60201c565b73ffffffffffffffffffffffffffffffffffffffff1614620001ee576040517f08c379a0000000000000000000000000000000000000000000000000000000008152600401620001e590620004cb565b60405180910390fd5b80600660006101000a81548173ffffffffffffffffffffffffffffffffffffffff021916908373ffffffffffffffffffffffffffffffffffffffff16021790555050565b620002426200009360201b60201c565b73ffffffffffffffffffffffffffffffffffffffff16620002686200039c60201b60201c565b73ffffffffffffffffffffffffffffffffffffffff1614620002c1576040517f08c379a0000000000000000000000000000000000000000000000000000000008152600401620002b890620004cb565b60405180910390fd5b670de0b6b3a764000081620002d7919062000526565b60018190555050565b620002f06200009360201b60201c565b73ffffffffffffffffffffffffffffffffffffffff16620003166200039c60201b60201c565b73ffffffffffffffffffffffffffffffffffffffff16146200036f576040517f08c379a00000000000000000000000000000000000000000000000000000000081526004016200036690620004cb565b60405180910390fd5b80600260006101000a81548160ff02191690831515021790555062000399620003c560201b60201c565b50565b60008060009054906101000a900473ffffffffffffffffffffffffffffffffffffffff16905090565b43600381905550565b600080fd5b600073ffffffffffffffffffffffffffffffffffffffff82169050919050565b60006200040082620003d3565b9050919050565b6200041281620003f3565b81146200041e57600080fd5b50565b600081519050620004328162000407565b92915050565b600060208284031215620004515762000450620003ce565b5b6000620004618482850162000421565b91505092915050565b600082825260208201905092915050565b7f4f776e61626c653a2063616c6c6572206973206e6f7420746865206f776e6572600082015250565b6000620004b36020836200046a565b9150620004c0826200047b565b602082019050919050565b60006020820190508181036000830152620004e681620004a4565b9050919050565b6000819050919050565b7f4e487b7100000000000000000000000000000000000000000000000000000000600052601160045260246000fd5b60006200053382620004ed565b91506200054083620004ed565b9250817fffffffffffffffffffffffffffffffffffffffffffffffffffffffffffffffff04831182151516156200057c576200057b620004f7565b5b828202905092915050565b61275180620005976000396000f3fe608060405234801561001057600080fd5b50600436106101a95760003560e01c80638c19ec8b116100f9578063bf4f6b5711610097578063d8009bb611610071578063d8009bb61461044a578063ddc632621461047a578063f2fde38b146104aa578063f33c9baa146104c6576101a9565b8063bf4f6b57146103f2578063bf62bee61461040e578063c5d836d91461042c576101a9565b8063945c5287116100d3578063945c52871461036c578063994cd56714610388578063a8e2a38b146103b8578063af2b0349146103d6576101a9565b80638c19ec8b146103285780638da5cb5b146103445780638ed955b914610362576101a9565b80635e175713116101665780636ac49a89116101405780636ac49a89146102d8578063715018a6146102f657806377d22d1a146103005780638b4a4ed51461030a576101a9565b80635e175713146102945780635f9b1bb5146102b25780636336694b146102bc576101a9565b80630419ba05146101ae5780631cd8f0fa146101cc5780631e718d27146101e857806322abbddf14610218578063379607f5146102485780635cae9a4814610264575b600080fd5b6101b66104e4565b6040516101c39190611cbd565b60405180910390f35b6101e660048036038101906101e19190611d09565b610526565b005b61020260048036038101906101fd9190611d09565b6105bf565b60405161020f9190611cbd565b60405180910390f35b610232600480360381019061022d9190611d94565b6105db565b60405161023f9190611ddc565b60405180910390f35b610262600480360381019061025d9190611d09565b6105fb565b005b61027e60048036038101906102799190611d09565b6106db565b60405161028b9190611cbd565b60405180910390f35b61029c61078e565b6040516102a99190611cbd565b60405180910390f35b6102ba610798565b005b6102d660048036038101906102d19190611d09565b6107d9565b005b6102e0610b62565b6040516102ed9190611cbd565b60405180910390f35b6102fe610b6b565b005b610308610bf3565b005b610312610c4b565b60405161031f9190611f19565b60405180910390f35b610342600480360381019061033d9190611f67565b610d1e565b005b61034c610dbf565b6040516103599190611fa3565b60405180910390f35b61036a610de8565b005b61038660048036038101906103819190611d94565b610e98565b005b6103a2600480360381019061039d9190611d09565b610f58565b6040516103af9190611cbd565b60405180910390f35b6103c0611088565b6040516103cd919061201d565b60405180910390f35b6103f060048036038101906103eb9190612038565b6110b2565b005b61040c60048036038101906104079190612078565b611378565b005b6104166114fe565b6040516104239190611cbd565b60405180910390f35b610434611508565b6040516104419190611cbd565b60405180910390f35b610464600480360381019061045f9190611d09565b611512565b6040516104719190611cbd565b60405180910390f35b610494600480360381019061048f9190611d09565b6115e4565b6040516104a19190611cbd565b60405180910390f35b6104c460048036038101906104bf9190611d94565b611718565b005b6104ce61180f565b6040516104db9190611ddc565b60405180910390f35b6000806104ef611826565b905060006104fc82611857565b90506000610508611871565b9050610513826105bf565b8161051e91906120fa565b935050505090565b61052e61187b565b73ffffffffffffffffffffffffffffffffffffffff1661054c610dbf565b73ffffffffffffffffffffffffffffffffffffffff16146105a2576040517f08c379a0000000000000000000000000000000000000000000000000000000008152600401610599906121ad565b60405180910390fd5b670de0b6b3a7640000816105b691906121cd565b60018190555050565b60006105c961078e565b826105d49190612256565b9050919050565b60076020528060005260406000206000915054906101000a900460ff1681565b60006008828154811061061157610610612287565b5b90600052602060002090600402019050600061062c836115e4565b9050600081146106d6576000826003018190555061067661064b611088565b8360000160009054906101000a900473ffffffffffffffffffffffffffffffffffffffff1683611883565b7ff279e6a1f5e320cca91135676d9cb6e44ca8a08c0b88342bcdb1144f6511b5688260000160009054906101000a900473ffffffffffffffffffffffffffffffffffffffff1684836040516106cd939291906122b6565b60405180910390a15b505050565b600080600883815481106106f2576106f1612287565b5b90600052602060002090600402016040518060800160405290816000820160009054906101000a900473ffffffffffffffffffffffffffffffffffffffff1673ffffffffffffffffffffffffffffffffffffffff1673ffffffffffffffffffffffffffffffffffffffff168152602001600182015481526020016002820154815260200160038201548152505090508060600151915050919050565b6000600554905090565b60006107a2611826565b905060006107af82611857565b90506107ba816105bf565b6004546107c791906120fa565b6004819055506107d5611909565b5050565b6107e161180f565b610817576040517f236582f100000000000000000000000000000000000000000000000000000000815260040160405180910390fd5b61081f61187b565b73ffffffffffffffffffffffffffffffffffffffff1661083d610dbf565b73ffffffffffffffffffffffffffffffffffffffff1614610893576040517f08c379a000000000000000000000000000000000000000000000000000000000815260040161088a906121ad565b60405180910390fd5b60088054905081106108d1576040517fd0333a0600000000000000000000000000000000000000000000000000000000815260040160405180910390fd5b6108da816115e4565b506000600882815481106108f1576108f0612287565b5b90600052602060002090600402016040518060800160405290816000820160009054906101000a900473ffffffffffffffffffffffffffffffffffffffff1673ffffffffffffffffffffffffffffffffffffffff1673ffffffffffffffffffffffffffffffffffffffff168152602001600182015481526020016002820154815260200160038201548152505090506000816060015190506109b7600884815481106109a05761099f612287565b5b906000526020600020906004020160010154611912565b600860016008805490506109cb91906122ed565b815481106109dc576109db612287565b5b9060005260206000209060040201600884815481106109fe576109fd612287565b5b90600052602060002090600402016000820160009054906101000a900473ffffffffffffffffffffffffffffffffffffffff168160000160006101000a81548173ffffffffffffffffffffffffffffffffffffffff021916908373ffffffffffffffffffffffffffffffffffffffff1602179055506001820154816001015560028201548160020155600382015481600301559050506008805480610aa657610aa5612321565b5b6001900381819060005260206000209060040201600080820160006101000a81549073ffffffffffffffffffffffffffffffffffffffff0219169055600182016000905560028201600090556003820160009055505090556000811115610b5d57610b1d610b12611088565b836000015183611883565b7ff279e6a1f5e320cca91135676d9cb6e44ca8a08c0b88342bcdb1144f6511b56882600001518483604051610b54939291906122b6565b60405180910390a15b505050565b64e8d4a5100081565b610b7361187b565b73ffffffffffffffffffffffffffffffffffffffff16610b91610dbf565b73ffffffffffffffffffffffffffffffffffffffff1614610be7576040517f08c379a0000000000000000000000000000000000000000000000000000000008152600401610bde906121ad565b60405180910390fd5b610bf16000611929565b565b610bfb61180f565b610c31576040517f236582f100000000000000000000000000000000000000000000000000000000815260040160405180910390fd5b610c396114fe565b431115610c4957610c48610798565b5b565b60606008805480602002602001604051908101604052809291908181526020016000905b82821015610d1557838290600052602060002090600402016040518060800160405290816000820160009054906101000a900473ffffffffffffffffffffffffffffffffffffffff1673ffffffffffffffffffffffffffffffffffffffff1673ffffffffffffffffffffffffffffffffffffffff168152602001600182015481526020016002820154815260200160038201548152505081526020019060010190610c6f565b50505050905090565b610d2661187b565b73ffffffffffffffffffffffffffffffffffffffff16610d44610dbf565b73ffffffffffffffffffffffffffffffffffffffff1614610d9a576040517f08c379a0000000000000000000000000000000000000000000000000000000008152600401610d91906121ad565b60405180910390fd5b80600260006101000a81548160ff021916908315150217905550610dbc611909565b50565b60008060009054906101000a900473ffffffffffffffffffffffffffffffffffffffff16905090565b610df061187b565b73ffffffffffffffffffffffffffffffffffffffff16610e0e610dbf565b73ffffffffffffffffffffffffffffffffffffffff1614610e64576040517f08c379a0000000000000000000000000000000000000000000000000000000008152600401610e5b906121ad565b60405180910390fd5b60005b6008805490508160ff161015610e9557610e838160ff166115e4565b5080610e8e9061235d565b9050610e67565b50565b610ea061187b565b73ffffffffffffffffffffffffffffffffffffffff16610ebe610dbf565b73ffffffffffffffffffffffffffffffffffffffff1614610f14576040517f08c379a0000000000000000000000000000000000000000000000000000000008152600401610f0b906121ad565b60405180910390fd5b80600660006101000a81548173ffffffffffffffffffffffffffffffffffffffff021916908373ffffffffffffffffffffffffffffffffffffffff16021790555050565b60008060088381548110610f6f57610f6e612287565b5b90600052602060002090600402016040518060800160405290816000820160009054906101000a900473ffffffffffffffffffffffffffffffffffffffff1673ffffffffffffffffffffffffffffffffffffffff1673ffffffffffffffffffffffffffffffffffffffff1681526020016001820154815260200160028201548152602001600382015481525050905061100661180f565b1561104957806040015164e8d4a5100061101e6104e4565b836020015161102d91906121cd565b6110379190612256565b61104191906122ed565b915050611083565b806040015164e8d4a5100061105c611871565b836020015161106b91906121cd565b6110759190612256565b61107f91906122ed565b9150505b919050565b6000600660009054906101000a900473ffffffffffffffffffffffffffffffffffffffff16905090565b6110ba61187b565b73ffffffffffffffffffffffffffffffffffffffff166110d8610dbf565b73ffffffffffffffffffffffffffffffffffffffff161461112e576040517f08c379a0000000000000000000000000000000000000000000000000000000008152600401611125906121ad565b60405180910390fd5b8160011515600760008373ffffffffffffffffffffffffffffffffffffffff1673ffffffffffffffffffffffffffffffffffffffff16815260200190815260200160002060009054906101000a900460ff161515036111b9576040517f0a47c55800000000000000000000000000000000000000000000000000000000815260040160405180910390fd5b6001600760008373ffffffffffffffffffffffffffffffffffffffff1673ffffffffffffffffffffffffffffffffffffffff16815260200190815260200160002060006101000a81548160ff0219169083151502179055506000821161124b576040517ff915581500000000000000000000000000000000000000000000000000000000815260040160405180910390fd5b61125361180f565b80156112665750600061126461078e565b115b1561127457611273610bf3565b5b600060405180608001604052808573ffffffffffffffffffffffffffffffffffffffff16815260200184815260200164e8d4a510006112b1611871565b866112bc91906121cd565b6112c69190612256565b815260200160008152509050600881908060018154018082558091505060019003906000526020600020906004020160009091909190915060008201518160000160006101000a81548173ffffffffffffffffffffffffffffffffffffffff021916908373ffffffffffffffffffffffffffffffffffffffff160217905550602082015181600101556040820151816002015560608201518160030155505061137281602001516119ed565b50505050565b61138061180f565b6113b6576040517f236582f100000000000000000000000000000000000000000000000000000000815260040160405180910390fd5b6113be61187b565b73ffffffffffffffffffffffffffffffffffffffff166113dc610dbf565b73ffffffffffffffffffffffffffffffffffffffff1614611432576040517f08c379a0000000000000000000000000000000000000000000000000000000008152600401611429906121ad565b60405180910390fd5b61143b826115e4565b5061146b6008838154811061145357611452612287565b5b90600052602060002090600402016001015482611a04565b82600883815481106114805761147f612287565b5b906000526020600020906004020160000160006101000a81548173ffffffffffffffffffffffffffffffffffffffff021916908373ffffffffffffffffffffffffffffffffffffffff16021790555080600883815481106114e4576114e3612287565b5b906000526020600020906004020160010181905550505050565b6000600354905090565b6000600154905090565b6000806008838154811061152957611528612287565b5b90600052602060002090600402016040518060800160405290816000820160009054906101000a900473ffffffffffffffffffffffffffffffffffffffff1673ffffffffffffffffffffffffffffffffffffffff1673ffffffffffffffffffffffffffffffffffffffff1681526020016001820154815260200160028201548152602001600382015481525050905060008160600151905060006115cc85610f58565b905080826115da91906120fa565b9350505050919050565b60006115ee61180f565b611624576040517f236582f100000000000000000000000000000000000000000000000000000000815260040160405180910390fd5b60006008838154811061163a57611639612287565b5b90600052602060002090600402019050611652610bf3565b6000816002015464e8d4a51000611667611871565b846001015461167691906121cd565b6116809190612256565b61168a91906122ed565b905080826002015461169c91906120fa565b826002018190555060008183600301546116b691906120fa565b9050808360030181905550600082111561170d577f71bab65ced2e5750775a0613be067df48ef06cf92a496ebf7663ae06609249546116f361187b565b8684604051611704939291906122b6565b60405180910390a15b809350505050919050565b61172061187b565b73ffffffffffffffffffffffffffffffffffffffff1661173e610dbf565b73ffffffffffffffffffffffffffffffffffffffff1614611794576040517f08c379a000000000000000000000000000000000000000000000000000000000815260040161178b906121ad565b60405180910390fd5b600073ffffffffffffffffffffffffffffffffffffffff168173ffffffffffffffffffffffffffffffffffffffff1603611803576040517f08c379a00000000000000000000000000000000000000000000000000000000081526004016117fa906123f8565b60405180910390fd5b61180c81611929565b50565b6000600260009054906101000a900460ff16905090565b6000806118316114fe565b4361183c91906122ed565b9050611846611508565b8161185191906121cd565b91505090565b600064e8d4a510008261186a91906121cd565b9050919050565b6000600454905090565b600033905090565b6119048363a9059cbb60e01b84846040516024016118a2929190612418565b604051602081830303815290604052907bffffffffffffffffffffffffffffffffffffffffffffffffffffffff19166020820180517bffffffffffffffffffffffffffffffffffffffffffffffffffffffff8381831617835250505050611a27565b505050565b43600381905550565b8060055461192091906122ed565b60058190555050565b60008060009054906101000a900473ffffffffffffffffffffffffffffffffffffffff169050816000806101000a81548173ffffffffffffffffffffffffffffffffffffffff021916908373ffffffffffffffffffffffffffffffffffffffff1602179055508173ffffffffffffffffffffffffffffffffffffffff168173ffffffffffffffffffffffffffffffffffffffff167f8be0079c531659141344cd1fd0a4f28419497f9722a3daafe3b4186f6b6457e060405160405180910390a35050565b806005546119fb91906120fa565b60058190555050565b8082600554611a1391906122ed565b611a1d91906120fa565b6005819055505050565b6000611a89826040518060400160405280602081526020017f5361666545524332303a206c6f772d6c6576656c2063616c6c206661696c65648152508573ffffffffffffffffffffffffffffffffffffffff16611aee9092919063ffffffff16565b9050600081511115611ae95780806020019051810190611aa99190612456565b611ae8576040517f08c379a0000000000000000000000000000000000000000000000000000000008152600401611adf906124f5565b60405180910390fd5b5b505050565b6060611afd8484600085611b06565b90509392505050565b606082471015611b4b576040517f08c379a0000000000000000000000000000000000000000000000000000000008152600401611b4290612587565b60405180910390fd5b611b5485611c1a565b611b93576040517f08c379a0000000000000000000000000000000000000000000000000000000008152600401611b8a906125f3565b60405180910390fd5b6000808673ffffffffffffffffffffffffffffffffffffffff168587604051611bbc919061268d565b60006040518083038185875af1925050503d8060008114611bf9576040519150601f19603f3d011682016040523d82523d6000602084013e611bfe565b606091505b5091509150611c0e828286611c3d565b92505050949350505050565b6000808273ffffffffffffffffffffffffffffffffffffffff163b119050919050565b60608315611c4d57829050611c9d565b600083511115611c605782518084602001fd5b816040517f08c379a0000000000000000000000000000000000000000000000000000000008152600401611c9491906126f9565b60405180910390fd5b9392505050565b6000819050919050565b611cb781611ca4565b82525050565b6000602082019050611cd26000830184611cae565b92915050565b600080fd5b611ce681611ca4565b8114611cf157600080fd5b50565b600081359050611d0381611cdd565b92915050565b600060208284031215611d1f57611d1e611cd8565b5b6000611d2d84828501611cf4565b91505092915050565b600073ffffffffffffffffffffffffffffffffffffffff82169050919050565b6000611d6182611d36565b9050919050565b611d7181611d56565b8114611d7c57600080fd5b50565b600081359050611d8e81611d68565b92915050565b600060208284031215611daa57611da9611cd8565b5b6000611db884828501611d7f565b91505092915050565b60008115159050919050565b611dd681611dc1565b82525050565b6000602082019050611df16000830184611dcd565b92915050565b600081519050919050565b600082825260208201905092915050565b6000819050602082019050919050565b611e2c81611d56565b82525050565b611e3b81611ca4565b82525050565b608082016000820151611e576000850182611e23565b506020820151611e6a6020850182611e32565b506040820151611e7d6040850182611e32565b506060820151611e906060850182611e32565b50505050565b6000611ea28383611e41565b60808301905092915050565b6000602082019050919050565b6000611ec682611df7565b611ed08185611e02565b9350611edb83611e13565b8060005b83811015611f0c578151611ef38882611e96565b9750611efe83611eae565b925050600181019050611edf565b5085935050505092915050565b60006020820190508181036000830152611f338184611ebb565b905092915050565b611f4481611dc1565b8114611f4f57600080fd5b50565b600081359050611f6181611f3b565b92915050565b600060208284031215611f7d57611f7c611cd8565b5b6000611f8b84828501611f52565b91505092915050565b611f9d81611d56565b82525050565b6000602082019050611fb86000830184611f94565b92915050565b6000819050919050565b6000611fe3611fde611fd984611d36565b611fbe565b611d36565b9050919050565b6000611ff582611fc8565b9050919050565b600061200782611fea565b9050919050565b61201781611ffc565b82525050565b6000602082019050612032600083018461200e565b92915050565b6000806040838503121561204f5761204e611cd8565b5b600061205d85828601611d7f565b925050602061206e85828601611cf4565b9150509250929050565b60008060006060848603121561209157612090611cd8565b5b600061209f86828701611d7f565b93505060206120b086828701611cf4565b92505060406120c186828701611cf4565b9150509250925092565b7f4e487b7100000000000000000000000000000000000000000000000000000000600052601160045260246000fd5b600061210582611ca4565b915061211083611ca4565b9250827fffffffffffffffffffffffffffffffffffffffffffffffffffffffffffffffff03821115612145576121446120cb565b5b828201905092915050565b600082825260208201905092915050565b7f4f776e61626c653a2063616c6c6572206973206e6f7420746865206f776e6572600082015250565b6000612197602083612150565b91506121a282612161565b602082019050919050565b600060208201905081810360008301526121c68161218a565b9050919050565b60006121d882611ca4565b91506121e383611ca4565b9250817fffffffffffffffffffffffffffffffffffffffffffffffffffffffffffffffff048311821515161561221c5761221b6120cb565b5b828202905092915050565b7f4e487b7100000000000000000000000000000000000000000000000000000000600052601260045260246000fd5b600061226182611ca4565b915061226c83611ca4565b92508261227c5761227b612227565b5b828204905092915050565b7f4e487b7100000000000000000000000000000000000000000000000000000000600052603260045260246000fd5b60006060820190506122cb6000830186611f94565b6122d86020830185611cae565b6122e56040830184611cae565b949350505050565b60006122f882611ca4565b915061230383611ca4565b925082821015612316576123156120cb565b5b828203905092915050565b7f4e487b7100000000000000000000000000000000000000000000000000000000600052603160045260246000fd5b600060ff82169050919050565b600061236882612350565b915060ff820361237b5761237a6120cb565b5b600182019050919050565b7f4f776e61626c653a206e6577206f776e657220697320746865207a65726f206160008201527f6464726573730000000000000000000000000000000000000000000000000000602082015250565b60006123e2602683612150565b91506123ed82612386565b604082019050919050565b60006020820190508181036000830152612411816123d5565b9050919050565b600060408201905061242d6000830185611f94565b61243a6020830184611cae565b9392505050565b60008151905061245081611f3b565b92915050565b60006020828403121561246c5761246b611cd8565b5b600061247a84828501612441565b91505092915050565b7f5361666545524332303a204552433230206f7065726174696f6e20646964206e60008201527f6f74207375636365656400000000000000000000000000000000000000000000602082015250565b60006124df602a83612150565b91506124ea82612483565b604082019050919050565b6000602082019050818103600083015261250e816124d2565b9050919050565b7f416464726573733a20696e73756666696369656e742062616c616e636520666f60008201527f722063616c6c0000000000000000000000000000000000000000000000000000602082015250565b6000612571602683612150565b915061257c82612515565b604082019050919050565b600060208201905081810360008301526125a081612564565b9050919050565b7f416464726573733a2063616c6c20746f206e6f6e2d636f6e7472616374000000600082015250565b60006125dd601d83612150565b91506125e8826125a7565b602082019050919050565b6000602082019050818103600083015261260c816125d0565b9050919050565b600081519050919050565b600081905092915050565b60005b8381101561264757808201518184015260208101905061262c565b83811115612656576000848401525b50505050565b600061266782612613565b612671818561261e565b9350612681818560208601612629565b80840191505092915050565b6000612699828461265c565b915081905092915050565b600081519050919050565b6000601f19601f8301169050919050565b60006126cb826126a4565b6126d58185612150565b93506126e5818560208601612629565b6126ee816126af565b840191505092915050565b6000602082019050818103600083015261271381846126c0565b90509291505056fea2646970667358221220531e94bd6a746c695e8062089e350a60f8631c74025f78826029e4b195d0d8dc64736f6c634300080d0033",
  "devdoc": {
    "kind": "dev",
    "methods": {
      "owner()": {
        "details": "Returns the address of the current owner."
      },
      "renounceOwnership()": {
        "details": "Leaves the contract without owner. It will not be possible to call `onlyOwner` functions anymore. Can only be called by the current owner. NOTE: Renouncing ownership will leave the contract without an owner, thereby removing any functionality that is only available to the owner."
      },
      "transferOwnership(address)": {
        "details": "Transfers ownership of the contract to a new account (`newOwner`). Can only be called by the current owner."
      }
    },
    "version": 1
  },
  "userdoc": {
    "kind": "user",
    "methods": {},
    "version": 1
  },
  "storageLayout": {
    "storage": [
      {
        "astId": 7,
        "contract": "src/contracts/TopChef.sol:TopChef",
        "label": "_owner",
        "offset": 0,
        "slot": "0",
        "type": "t_address"
      },
      {
        "astId": 3214,
        "contract": "src/contracts/TopChef.sol:TopChef",
        "label": "_metricPerBlock",
        "offset": 0,
        "slot": "1",
        "type": "t_uint256"
      },
      {
        "astId": 3219,
        "contract": "src/contracts/TopChef.sol:TopChef",
        "label": "_rewardsActive",
        "offset": 0,
        "slot": "2",
        "type": "t_bool"
      },
      {
        "astId": 3221,
        "contract": "src/contracts/TopChef.sol:TopChef",
        "label": "_lastRewardBlock",
        "offset": 0,
        "slot": "3",
        "type": "t_uint256"
      },
      {
        "astId": 3223,
        "contract": "src/contracts/TopChef.sol:TopChef",
        "label": "_lifetimeShareValue",
        "offset": 0,
        "slot": "4",
        "type": "t_uint256"
      },
      {
        "astId": 3225,
        "contract": "src/contracts/TopChef.sol:TopChef",
        "label": "_totalAllocShares",
        "offset": 0,
        "slot": "5",
        "type": "t_uint256"
      },
      {
        "astId": 3228,
        "contract": "src/contracts/TopChef.sol:TopChef",
        "label": "metric",
        "offset": 0,
        "slot": "6",
        "type": "t_contract(MetricToken)3554"
      },
      {
        "astId": 3473,
        "contract": "src/contracts/TopChef.sol:TopChef",
        "label": "addressExistence",
        "offset": 0,
        "slot": "7",
        "type": "t_mapping(t_address,t_bool)"
      },
      {
        "astId": 4647,
        "contract": "src/contracts/TopChef.sol:TopChef",
        "label": "_allocations",
        "offset": 0,
        "slot": "8",
        "type": "t_array(t_struct(AllocationGroup)5120_storage)dyn_storage"
      }
    ],
    "types": {
      "t_address": {
        "encoding": "inplace",
        "label": "address",
        "numberOfBytes": "20"
      },
      "t_array(t_struct(AllocationGroup)5120_storage)dyn_storage": {
        "base": "t_struct(AllocationGroup)5120_storage",
        "encoding": "dynamic_array",
        "label": "struct TopChef.AllocationGroup[]",
        "numberOfBytes": "32"
      },
      "t_bool": {
        "encoding": "inplace",
        "label": "bool",
        "numberOfBytes": "1"
      },
      "t_contract(MetricToken)3554": {
        "encoding": "inplace",
        "label": "contract MetricToken",
        "numberOfBytes": "20"
      },
      "t_mapping(t_address,t_bool)": {
        "encoding": "mapping",
        "key": "t_address",
        "label": "mapping(address => bool)",
        "numberOfBytes": "32",
        "value": "t_bool"
      },
      "t_struct(AllocationGroup)5120_storage": {
        "encoding": "inplace",
        "label": "struct TopChef.AllocationGroup",
        "members": [
          {
            "astId": 5113,
            "contract": "src/contracts/TopChef.sol:TopChef",
            "label": "groupAddress",
            "offset": 0,
            "slot": "0",
            "type": "t_address"
          },
          {
            "astId": 5115,
            "contract": "src/contracts/TopChef.sol:TopChef",
            "label": "shares",
            "offset": 0,
            "slot": "1",
            "type": "t_uint256"
          },
          {
            "astId": 5117,
            "contract": "src/contracts/TopChef.sol:TopChef",
            "label": "rewardDebt",
            "offset": 0,
            "slot": "2",
            "type": "t_uint256"
          },
          {
            "astId": 5119,
            "contract": "src/contracts/TopChef.sol:TopChef",
            "label": "claimable",
            "offset": 0,
            "slot": "3",
            "type": "t_uint256"
          }
        ],
        "numberOfBytes": "128"
      },
      "t_uint256": {
        "encoding": "inplace",
        "label": "uint256",
        "numberOfBytes": "32"
      }
    }
  }
}