{
  "address": "0xb724A8bF82010E2AE526226bD7Afd55afcF49b6A",
  "abi": [
    {
      "inputs": [
        {
          "internalType": "address",
          "name": "vault",
          "type": "address"
        }
      ],
      "stateMutability": "nonpayable",
      "type": "constructor"
    },
    {
      "inputs": [],
      "name": "NotTheApi",
      "type": "error"
    },
    {
      "anonymous": false,
      "inputs": [
        {
          "indexed": true,
          "internalType": "address",
          "name": "previousOwner",
          "type": "address"
        },
        {
          "indexed": true,
          "internalType": "address",
          "name": "newOwner",
          "type": "address"
        }
      ],
      "name": "OwnershipTransferred",
      "type": "event"
    },
    {
      "inputs": [
        {
          "internalType": "enum ACTION",
          "name": "",
          "type": "uint8"
        }
      ],
      "name": "actionCost",
      "outputs": [
        {
          "internalType": "uint256",
          "name": "",
          "type": "uint256"
        }
      ],
      "stateMutability": "view",
      "type": "function"
    },
    {
      "inputs": [
        {
          "internalType": "enum ACTION",
          "name": "",
          "type": "uint8"
        }
      ],
      "name": "actionStage",
      "outputs": [
        {
          "internalType": "enum STAGE",
          "name": "",
          "type": "uint8"
        }
      ],
      "stateMutability": "view",
      "type": "function"
    },
    {
      "inputs": [
        {
          "internalType": "address",
          "name": "_user",
          "type": "address"
        },
        {
          "internalType": "enum ACTION",
          "name": "action",
          "type": "uint8"
        }
      ],
      "name": "burnForAction",
      "outputs": [],
      "stateMutability": "nonpayable",
      "type": "function"
    },
    {
      "inputs": [
        {
          "internalType": "enum ACTION",
          "name": "action",
          "type": "uint8"
        }
      ],
      "name": "getActionCost",
      "outputs": [
        {
          "internalType": "uint256",
          "name": "",
          "type": "uint256"
        }
      ],
      "stateMutability": "view",
      "type": "function"
    },
    {
      "inputs": [],
      "name": "owner",
      "outputs": [
        {
          "internalType": "address",
          "name": "",
          "type": "address"
        }
      ],
      "stateMutability": "view",
      "type": "function"
    },
    {
      "inputs": [
        {
          "internalType": "address",
          "name": "_user",
          "type": "address"
        },
        {
          "internalType": "uint256",
          "name": "questionId",
          "type": "uint256"
        },
        {
          "internalType": "enum ACTION",
          "name": "action",
          "type": "uint8"
        }
      ],
      "name": "payForAction",
      "outputs": [],
      "stateMutability": "nonpayable",
      "type": "function"
    },
    {
      "inputs": [],
      "name": "questionApi",
      "outputs": [
        {
          "internalType": "address",
          "name": "",
          "type": "address"
        }
      ],
      "stateMutability": "view",
      "type": "function"
    },
    {
      "inputs": [],
      "name": "renounceOwnership",
      "outputs": [],
      "stateMutability": "nonpayable",
      "type": "function"
    },
    {
      "inputs": [
        {
          "internalType": "enum ACTION",
          "name": "action",
          "type": "uint8"
        },
        {
          "internalType": "uint256",
          "name": "cost",
          "type": "uint256"
        }
      ],
      "name": "setActionCost",
      "outputs": [],
      "stateMutability": "nonpayable",
      "type": "function"
    },
    {
      "inputs": [
        {
          "internalType": "address",
          "name": "_newApi",
          "type": "address"
        }
      ],
      "name": "setQuestionApi",
      "outputs": [],
      "stateMutability": "nonpayable",
      "type": "function"
    },
    {
      "inputs": [
        {
          "internalType": "address",
          "name": "newOwner",
          "type": "address"
        }
      ],
      "name": "transferOwnership",
      "outputs": [],
      "stateMutability": "nonpayable",
      "type": "function"
    }
  ],
  "transactionHash": "0xab7c4f0be46e187c80d7b37759e4a0e716b043508ed4389845c9436472b5476c",
  "args": [
    "0xA0b67CA0A36834BDf412f24744FAbee16F2FAcA2"
  ],
  "numDeployments": 1,
  "solcInputHash": "47b64a1bc1e11d0d714fb3e2e194e242",
  "bytecode": "0x60806040523480156200001157600080fd5b50604051620012ca380380620012ca83398181016040528101906200003791906200043d565b620000576200004b6200030760201b60201c565b6200030f60201b60201c565b80600260006101000a81548173ffffffffffffffffffffffffffffffffffffffff021916908373ffffffffffffffffffffffffffffffffffffffff160217905550670de0b6b3a764000060036000806003811115620000bb57620000ba6200046f565b5b6003811115620000d057620000cf6200046f565b5b815260200190815260200160002081905550670de0b6b3a764000060036000600160038111156200010657620001056200046f565b5b60038111156200011b576200011a6200046f565b5b815260200190815260200160002081905550670de0b6b3a764000060036000600260038111156200015157620001506200046f565b5b60038111156200016657620001656200046f565b5b815260200190815260200160002081905550683635c9adc5dea00000600360006003808111156200019c576200019b6200046f565b5b6003811115620001b157620001b06200046f565b5b815260200190815260200160002081905550600060046000806003811115620001df57620001de6200046f565b5b6003811115620001f457620001f36200046f565b5b815260200190815260200160002060006101000a81548160ff021916908360048111156200022757620002266200046f565b5b0217905550600060046000600160038111156200024957620002486200046f565b5b60038111156200025e576200025d6200046f565b5b815260200190815260200160002060006101000a81548160ff021916908360048111156200029157620002906200046f565b5b021790555060026004600060026003811115620002b357620002b26200046f565b5b6003811115620002c857620002c76200046f565b5b815260200190815260200160002060006101000a81548160ff02191690836004811115620002fb57620002fa6200046f565b5b0217905550506200049e565b600033905090565b60008060009054906101000a900473ffffffffffffffffffffffffffffffffffffffff169050816000806101000a81548173ffffffffffffffffffffffffffffffffffffffff021916908373ffffffffffffffffffffffffffffffffffffffff1602179055508173ffffffffffffffffffffffffffffffffffffffff168173ffffffffffffffffffffffffffffffffffffffff167f8be0079c531659141344cd1fd0a4f28419497f9722a3daafe3b4186f6b6457e060405160405180910390a35050565b600080fd5b600073ffffffffffffffffffffffffffffffffffffffff82169050919050565b60006200040582620003d8565b9050919050565b6200041781620003f8565b81146200042357600080fd5b50565b60008151905062000437816200040c565b92915050565b600060208284031215620004565762000455620003d3565b5b6000620004668482850162000426565b91505092915050565b7f4e487b7100000000000000000000000000000000000000000000000000000000600052602160045260246000fd5b610e1c80620004ae6000396000f3fe608060405234801561001057600080fd5b50600436106100a95760003560e01c8063715018a611610071578063715018a61461016457806377b696471461016e5780638da5cb5b1461018a578063c0875dfd146101a8578063d9eecddf146101c4578063f2fde38b146101f4576100a9565b8063099ef7d7146100ae578063101a6181146100de5780631956f19c146100fa5780631d67644d1461012a5780636baef49714610146575b600080fd5b6100c860048036038101906100c391906109c2565b610210565b6040516100d59190610a08565b60405180910390f35b6100f860048036038101906100f39190610a4f565b610251565b005b610114600480360381019061010f91906109c2565b61030d565b6040516101219190610b06565b60405180910390f35b610144600480360381019061013f9190610b7f565b61032d565b005b61014e6104ce565b60405161015b9190610be1565b60405180910390f35b61016c6104f4565b005b61018860048036038101906101839190610bfc565b61057c565b005b6101926106d4565b60405161019f9190610be1565b60405180910390f35b6101c260048036038101906101bd9190610c3c565b6106fd565b005b6101de60048036038101906101d991906109c2565b6107bd565b6040516101eb9190610a08565b60405180910390f35b61020e60048036038101906102099190610c3c565b6107d5565b005b60006003600083600381111561022957610228610a8f565b5b600381111561023b5761023a610a8f565b5b8152602001908152602001600020549050919050565b6102596108cc565b73ffffffffffffffffffffffffffffffffffffffff166102776106d4565b73ffffffffffffffffffffffffffffffffffffffff16146102cd576040517f08c379a00000000000000000000000000000000000000000000000000000000081526004016102c490610cc6565b60405180910390fd5b80600360008460038111156102e5576102e4610a8f565b5b60038111156102f7576102f6610a8f565b5b8152602001908152602001600020819055505050565b60046020528060005260406000206000915054906101000a900460ff1681565b600160009054906101000a900473ffffffffffffffffffffffffffffffffffffffff1673ffffffffffffffffffffffffffffffffffffffff1661036e6108cc565b73ffffffffffffffffffffffffffffffffffffffff16146103bb576040517f92471d5b00000000000000000000000000000000000000000000000000000000815260040160405180910390fd5b600260009054906101000a900473ffffffffffffffffffffffffffffffffffffffff1673ffffffffffffffffffffffffffffffffffffffff1663b2cb2d6f846003600085600381111561041157610410610a8f565b5b600381111561042357610422610a8f565b5b815260200190815260200160002054856004600087600381111561044a57610449610a8f565b5b600381111561045c5761045b610a8f565b5b815260200190815260200160002060009054906101000a900460ff166040518563ffffffff1660e01b81526004016104979493929190610ce6565b600060405180830381600087803b1580156104b157600080fd5b505af11580156104c5573d6000803e3d6000fd5b50505050505050565b600160009054906101000a900473ffffffffffffffffffffffffffffffffffffffff1681565b6104fc6108cc565b73ffffffffffffffffffffffffffffffffffffffff1661051a6106d4565b73ffffffffffffffffffffffffffffffffffffffff1614610570576040517f08c379a000000000000000000000000000000000000000000000000000000000815260040161056790610cc6565b60405180910390fd5b61057a60006108d4565b565b600160009054906101000a900473ffffffffffffffffffffffffffffffffffffffff1673ffffffffffffffffffffffffffffffffffffffff166105bd6108cc565b73ffffffffffffffffffffffffffffffffffffffff161461060a576040517f92471d5b00000000000000000000000000000000000000000000000000000000815260040160405180910390fd5b600260009054906101000a900473ffffffffffffffffffffffffffffffffffffffff1673ffffffffffffffffffffffffffffffffffffffff1663cd6869c483600360008560038111156106605761065f610a8f565b5b600381111561067257610671610a8f565b5b8152602001908152602001600020546040518363ffffffff1660e01b815260040161069e929190610d2b565b600060405180830381600087803b1580156106b857600080fd5b505af11580156106cc573d6000803e3d6000fd5b505050505050565b60008060009054906101000a900473ffffffffffffffffffffffffffffffffffffffff16905090565b6107056108cc565b73ffffffffffffffffffffffffffffffffffffffff166107236106d4565b73ffffffffffffffffffffffffffffffffffffffff1614610779576040517f08c379a000000000000000000000000000000000000000000000000000000000815260040161077090610cc6565b60405180910390fd5b80600160006101000a81548173ffffffffffffffffffffffffffffffffffffffff021916908373ffffffffffffffffffffffffffffffffffffffff16021790555050565b60036020528060005260406000206000915090505481565b6107dd6108cc565b73ffffffffffffffffffffffffffffffffffffffff166107fb6106d4565b73ffffffffffffffffffffffffffffffffffffffff1614610851576040517f08c379a000000000000000000000000000000000000000000000000000000000815260040161084890610cc6565b60405180910390fd5b600073ffffffffffffffffffffffffffffffffffffffff168173ffffffffffffffffffffffffffffffffffffffff16036108c0576040517f08c379a00000000000000000000000000000000000000000000000000000000081526004016108b790610dc6565b60405180910390fd5b6108c9816108d4565b50565b600033905090565b60008060009054906101000a900473ffffffffffffffffffffffffffffffffffffffff169050816000806101000a81548173ffffffffffffffffffffffffffffffffffffffff021916908373ffffffffffffffffffffffffffffffffffffffff1602179055508173ffffffffffffffffffffffffffffffffffffffff168173ffffffffffffffffffffffffffffffffffffffff167f8be0079c531659141344cd1fd0a4f28419497f9722a3daafe3b4186f6b6457e060405160405180910390a35050565b600080fd5b600481106109aa57600080fd5b50565b6000813590506109bc8161099d565b92915050565b6000602082840312156109d8576109d7610998565b5b60006109e6848285016109ad565b91505092915050565b6000819050919050565b610a02816109ef565b82525050565b6000602082019050610a1d60008301846109f9565b92915050565b610a2c816109ef565b8114610a3757600080fd5b50565b600081359050610a4981610a23565b92915050565b60008060408385031215610a6657610a65610998565b5b6000610a74858286016109ad565b9250506020610a8585828601610a3a565b9150509250929050565b7f4e487b7100000000000000000000000000000000000000000000000000000000600052602160045260246000fd5b60058110610acf57610ace610a8f565b5b50565b6000819050610ae082610abe565b919050565b6000610af082610ad2565b9050919050565b610b0081610ae5565b82525050565b6000602082019050610b1b6000830184610af7565b92915050565b600073ffffffffffffffffffffffffffffffffffffffff82169050919050565b6000610b4c82610b21565b9050919050565b610b5c81610b41565b8114610b6757600080fd5b50565b600081359050610b7981610b53565b92915050565b600080600060608486031215610b9857610b97610998565b5b6000610ba686828701610b6a565b9350506020610bb786828701610a3a565b9250506040610bc8868287016109ad565b9150509250925092565b610bdb81610b41565b82525050565b6000602082019050610bf66000830184610bd2565b92915050565b60008060408385031215610c1357610c12610998565b5b6000610c2185828601610b6a565b9250506020610c32858286016109ad565b9150509250929050565b600060208284031215610c5257610c51610998565b5b6000610c6084828501610b6a565b91505092915050565b600082825260208201905092915050565b7f4f776e61626c653a2063616c6c6572206973206e6f7420746865206f776e6572600082015250565b6000610cb0602083610c69565b9150610cbb82610c7a565b602082019050919050565b60006020820190508181036000830152610cdf81610ca3565b9050919050565b6000608082019050610cfb6000830187610bd2565b610d0860208301866109f9565b610d1560408301856109f9565b610d226060830184610af7565b95945050505050565b6000604082019050610d406000830185610bd2565b610d4d60208301846109f9565b9392505050565b7f4f776e61626c653a206e6577206f776e657220697320746865207a65726f206160008201527f6464726573730000000000000000000000000000000000000000000000000000602082015250565b6000610db0602683610c69565b9150610dbb82610d54565b604082019050919050565b60006020820190508181036000830152610ddf81610da3565b905091905056fea2646970667358221220705e7700c03a1935120a10891b53efbb8426b20bdf1d31ee3304f2609e307e0064736f6c634300080d0033",
  "devdoc": {
    "kind": "dev",
    "methods": {
      "owner()": {
        "details": "Returns the address of the current owner."
      },
      "renounceOwnership()": {
        "details": "Leaves the contract without owner. It will not be possible to call `onlyOwner` functions anymore. Can only be called by the current owner. NOTE: Renouncing ownership will leave the contract without an owner, thereby removing any functionality that is only available to the owner."
      },
      "setActionCost(uint8,uint256)": {
        "params": {
          "cost": "The new cost of creating a question"
        }
      },
      "setQuestionApi(address)": {
        "params": {
          "_newApi": "The new address of the question API."
        }
      },
      "transferOwnership(address)": {
        "details": "Transfers ownership of the contract to a new account (`newOwner`). Can only be called by the current owner."
      }
    },
    "version": 1
  },
  "userdoc": {
    "kind": "user",
    "methods": {
      "setActionCost(uint8,uint256)": {
        "notice": "Changes the cost of creating a question"
      },
      "setQuestionApi(address)": {
        "notice": "Sets the address of the question API."
      }
    },
    "version": 1
  },
  "storageLayout": {
    "storage": [
      {
        "astId": 7,
        "contract": "src/contracts/Protocol/ActionCostController.sol:ActionCostController",
        "label": "_owner",
        "offset": 0,
        "slot": "0",
        "type": "t_address"
      },
      {
        "astId": 6829,
        "contract": "src/contracts/Protocol/ActionCostController.sol:ActionCostController",
        "label": "questionApi",
        "offset": 0,
        "slot": "1",
        "type": "t_address"
      },
      {
        "astId": 3390,
        "contract": "src/contracts/Protocol/ActionCostController.sol:ActionCostController",
        "label": "_vault",
        "offset": 0,
        "slot": "2",
        "type": "t_contract(IVault)6721"
      },
      {
        "astId": 3395,
        "contract": "src/contracts/Protocol/ActionCostController.sol:ActionCostController",
        "label": "actionCost",
        "offset": 0,
        "slot": "3",
        "type": "t_mapping(t_enum(ACTION)4084,t_uint256)"
      },
      {
        "astId": 3401,
        "contract": "src/contracts/Protocol/ActionCostController.sol:ActionCostController",
        "label": "actionStage",
        "offset": 0,
        "slot": "4",
        "type": "t_mapping(t_enum(ACTION)4084,t_enum(STAGE)4108)"
      }
    ],
    "types": {
      "t_address": {
        "encoding": "inplace",
        "label": "address",
        "numberOfBytes": "20"
      },
      "t_contract(IVault)6721": {
        "encoding": "inplace",
        "label": "contract IVault",
        "numberOfBytes": "20"
      },
      "t_enum(ACTION)4084": {
        "encoding": "inplace",
        "label": "enum ACTION",
        "numberOfBytes": "1"
      },
      "t_enum(STAGE)4108": {
        "encoding": "inplace",
        "label": "enum STAGE",
        "numberOfBytes": "1"
      },
      "t_mapping(t_enum(ACTION)4084,t_enum(STAGE)4108)": {
        "encoding": "mapping",
        "key": "t_enum(ACTION)4084",
        "label": "mapping(enum ACTION => enum STAGE)",
        "numberOfBytes": "32",
        "value": "t_enum(STAGE)4108"
      },
      "t_mapping(t_enum(ACTION)4084,t_uint256)": {
        "encoding": "mapping",
        "key": "t_enum(ACTION)4084",
        "label": "mapping(enum ACTION => uint256)",
        "numberOfBytes": "32",
        "value": "t_uint256"
      },
      "t_uint256": {
        "encoding": "inplace",
        "label": "uint256",
        "numberOfBytes": "32"
      }
    }
  }
}