{
  "address": "0xA0b67CA0A36834BDf412f24744FAbee16F2FAcA2",
  "abi": [
    {
      "inputs": [
        {
          "internalType": "address",
          "name": "treasuryAddress",
          "type": "address"
        }
      ],
      "stateMutability": "nonpayable",
      "type": "constructor"
    },
    {
      "inputs": [],
      "name": "AlreadySlashed",
      "type": "error"
    },
    {
      "inputs": [],
      "name": "CannotUnvoteOwnQuestion",
      "type": "error"
    },
    {
      "inputs": [],
      "name": "ClaimNotReleased",
      "type": "error"
    },
    {
      "inputs": [],
      "name": "InvalidAddress",
      "type": "error"
    },
    {
      "inputs": [],
      "name": "InvalidStage",
      "type": "error"
    },
    {
      "inputs": [],
      "name": "NoMetricDeposited",
      "type": "error"
    },
    {
      "inputs": [],
      "name": "NotTheApi",
      "type": "error"
    },
    {
      "inputs": [],
      "name": "NotTheCostController",
      "type": "error"
    },
    {
      "inputs": [],
      "name": "NotTheDepositor",
      "type": "error"
    },
    {
      "inputs": [],
      "name": "QuestionHasInvalidStatus",
      "type": "error"
    },
    {
      "inputs": [],
      "name": "QuestionNotInReview",
      "type": "error"
    },
    {
      "inputs": [],
      "name": "QuestionNotInVoting",
      "type": "error"
    },
    {
      "inputs": [],
      "name": "QuestionNotPublished",
      "type": "error"
    },
    {
      "inputs": [],
      "name": "UserHasNotUnvoted",
      "type": "error"
    },
    {
      "anonymous": false,
      "inputs": [
        {
          "indexed": true,
          "internalType": "address",
          "name": "previousOwner",
          "type": "address"
        },
        {
          "indexed": true,
          "internalType": "address",
          "name": "newOwner",
          "type": "address"
        }
      ],
      "name": "OwnershipTransferred",
      "type": "event"
    },
    {
      "anonymous": false,
      "inputs": [
        {
          "indexed": true,
          "internalType": "address",
          "name": "user",
          "type": "address"
        },
        {
          "indexed": true,
          "internalType": "uint256",
          "name": "questionId",
          "type": "uint256"
        }
      ],
      "name": "Slashed",
      "type": "event"
    },
    {
      "anonymous": false,
      "inputs": [
        {
          "indexed": true,
          "internalType": "address",
          "name": "user",
          "type": "address"
        },
        {
          "indexed": true,
          "internalType": "uint256",
          "name": "amount",
          "type": "uint256"
        }
      ],
      "name": "Withdraw",
      "type": "event"
    },
    {
      "inputs": [
        {
          "internalType": "address",
          "name": "user",
          "type": "address"
        },
        {
          "internalType": "uint256",
          "name": "amount",
          "type": "uint256"
        }
      ],
      "name": "burnMetric",
      "outputs": [],
      "stateMutability": "nonpayable",
      "type": "function"
    },
    {
      "inputs": [],
      "name": "claimController",
      "outputs": [
        {
          "internalType": "contract IClaimController",
          "name": "",
          "type": "address"
        }
      ],
      "stateMutability": "view",
      "type": "function"
    },
    {
      "inputs": [],
      "name": "costController",
      "outputs": [
        {
          "internalType": "address",
          "name": "",
          "type": "address"
        }
      ],
      "stateMutability": "view",
      "type": "function"
    },
    {
      "inputs": [
        {
          "internalType": "address",
          "name": "",
          "type": "address"
        },
        {
          "internalType": "uint256",
          "name": "",
          "type": "uint256"
        }
      ],
      "name": "depositsByWithdrawers",
      "outputs": [
        {
          "internalType": "uint256",
          "name": "",
          "type": "uint256"
        }
      ],
      "stateMutability": "view",
      "type": "function"
    },
    {
      "inputs": [
        {
          "internalType": "uint256",
          "name": "questionId",
          "type": "uint256"
        },
        {
          "internalType": "enum STAGE",
          "name": "stage",
          "type": "uint8"
        },
        {
          "internalType": "address",
          "name": "user",
          "type": "address"
        }
      ],
      "name": "getAmountFromProperties",
      "outputs": [
        {
          "internalType": "uint256",
          "name": "",
          "type": "uint256"
        }
      ],
      "stateMutability": "view",
      "type": "function"
    },
    {
      "inputs": [
        {
          "internalType": "uint256",
          "name": "questionId",
          "type": "uint256"
        }
      ],
      "name": "getLockedMetricByQuestion",
      "outputs": [
        {
          "internalType": "uint256",
          "name": "",
          "type": "uint256"
        }
      ],
      "stateMutability": "view",
      "type": "function"
    },
    {
      "inputs": [
        {
          "internalType": "address",
          "name": "_user",
          "type": "address"
        }
      ],
      "name": "getLockedPerUser",
      "outputs": [
        {
          "internalType": "uint256",
          "name": "",
          "type": "uint256"
        }
      ],
      "stateMutability": "view",
      "type": "function"
    },
    {
      "inputs": [],
      "name": "getMetricTotalLockedBalance",
      "outputs": [
        {
          "internalType": "uint256",
          "name": "",
          "type": "uint256"
        }
      ],
      "stateMutability": "view",
      "type": "function"
    },
    {
      "inputs": [
        {
          "internalType": "uint256",
          "name": "questionId",
          "type": "uint256"
        },
        {
          "internalType": "enum STAGE",
          "name": "stage",
          "type": "uint8"
        },
        {
          "internalType": "address",
          "name": "user",
          "type": "address"
        }
      ],
      "name": "getUserFromProperties",
      "outputs": [
        {
          "internalType": "address",
          "name": "",
          "type": "address"
        }
      ],
      "stateMutability": "view",
      "type": "function"
    },
    {
      "inputs": [
        {
          "internalType": "uint256",
          "name": "questionId",
          "type": "uint256"
        },
        {
          "internalType": "enum STAGE",
          "name": "stage",
          "type": "uint8"
        },
        {
          "internalType": "address",
          "name": "user",
          "type": "address"
        }
      ],
      "name": "getVaultById",
      "outputs": [
        {
          "components": [
            {
              "internalType": "address",
              "name": "user",
              "type": "address"
            },
            {
              "internalType": "uint256",
              "name": "amount",
              "type": "uint256"
            },
            {
              "internalType": "enum STATUS",
              "name": "status",
              "type": "uint8"
            }
          ],
          "internalType": "struct lockAttributes",
          "name": "",
          "type": "tuple"
        }
      ],
      "stateMutability": "view",
      "type": "function"
    },
    {
      "inputs": [
        {
          "internalType": "address",
          "name": "user",
          "type": "address"
        }
      ],
      "name": "getVaultsByWithdrawer",
      "outputs": [
        {
          "internalType": "uint256[]",
          "name": "",
          "type": "uint256[]"
        }
      ],
      "stateMutability": "view",
      "type": "function"
    },
    {
      "inputs": [
        {
          "internalType": "address",
          "name": "user",
          "type": "address"
        },
        {
          "internalType": "uint256",
          "name": "amount",
          "type": "uint256"
        },
        {
          "internalType": "uint256",
          "name": "questionId",
          "type": "uint256"
        },
        {
          "internalType": "enum STAGE",
          "name": "stage",
          "type": "uint8"
        }
      ],
      "name": "lockMetric",
      "outputs": [],
      "stateMutability": "nonpayable",
      "type": "function"
    },
    {
      "inputs": [
        {
          "internalType": "uint256",
          "name": "",
          "type": "uint256"
        },
        {
          "internalType": "enum STAGE",
          "name": "",
          "type": "uint8"
        },
        {
          "internalType": "address",
          "name": "",
          "type": "address"
        }
      ],
      "name": "lockedMetric",
      "outputs": [
        {
          "internalType": "address",
          "name": "user",
          "type": "address"
        },
        {
          "internalType": "uint256",
          "name": "amount",
          "type": "uint256"
        },
        {
          "internalType": "enum STATUS",
          "name": "status",
          "type": "uint8"
        }
      ],
      "stateMutability": "view",
      "type": "function"
    },
    {
      "inputs": [
        {
          "internalType": "uint256",
          "name": "",
          "type": "uint256"
        }
      ],
      "name": "lockedMetricByQuestion",
      "outputs": [
        {
          "internalType": "uint256",
          "name": "",
          "type": "uint256"
        }
      ],
      "stateMutability": "view",
      "type": "function"
    },
    {
      "inputs": [],
      "name": "metric",
      "outputs": [
        {
          "internalType": "contract IERC20",
          "name": "",
          "type": "address"
        }
      ],
      "stateMutability": "view",
      "type": "function"
    },
    {
      "inputs": [],
      "name": "owner",
      "outputs": [
        {
          "internalType": "address",
          "name": "",
          "type": "address"
        }
      ],
      "stateMutability": "view",
      "type": "function"
    },
    {
      "inputs": [],
      "name": "question",
      "outputs": [
        {
          "internalType": "contract IBountyQuestion",
          "name": "",
          "type": "address"
        }
      ],
      "stateMutability": "view",
      "type": "function"
    },
    {
      "inputs": [],
      "name": "questionAPI",
      "outputs": [
        {
          "internalType": "contract IQuestionAPI",
          "name": "",
          "type": "address"
        }
      ],
      "stateMutability": "view",
      "type": "function"
    },
    {
      "inputs": [],
      "name": "questionApi",
      "outputs": [
        {
          "internalType": "address",
          "name": "",
          "type": "address"
        }
      ],
      "stateMutability": "view",
      "type": "function"
    },
    {
      "inputs": [],
      "name": "questionStateController",
      "outputs": [
        {
          "internalType": "contract IQuestionStateController",
          "name": "",
          "type": "address"
        }
      ],
      "stateMutability": "view",
      "type": "function"
    },
    {
      "inputs": [],
      "name": "renounceOwnership",
      "outputs": [],
      "stateMutability": "nonpayable",
      "type": "function"
    },
    {
      "inputs": [
        {
          "internalType": "address",
          "name": "_newApi",
          "type": "address"
        }
      ],
      "name": "setQuestionApi",
      "outputs": [],
      "stateMutability": "nonpayable",
      "type": "function"
    },
    {
      "inputs": [
        {
          "internalType": "address",
          "name": "_questionAPI",
          "type": "address"
        }
      ],
      "name": "setQuestionApiCC",
      "outputs": [],
      "stateMutability": "nonpayable",
      "type": "function"
    },
    {
      "inputs": [
        {
          "internalType": "address",
          "name": "_treasury",
          "type": "address"
        }
      ],
      "name": "setTreasury",
      "outputs": [],
      "stateMutability": "nonpayable",
      "type": "function"
    },
    {
      "inputs": [],
      "name": "status",
      "outputs": [
        {
          "internalType": "enum STATUS",
          "name": "",
          "type": "uint8"
        }
      ],
      "stateMutability": "view",
      "type": "function"
    },
    {
      "inputs": [
        {
          "internalType": "address",
          "name": "",
          "type": "address"
        }
      ],
      "name": "totalLockedInVaults",
      "outputs": [
        {
          "internalType": "uint256",
          "name": "",
          "type": "uint256"
        }
      ],
      "stateMutability": "view",
      "type": "function"
    },
    {
      "inputs": [
        {
          "internalType": "address",
          "name": "newOwner",
          "type": "address"
        }
      ],
      "name": "transferOwnership",
      "outputs": [],
      "stateMutability": "nonpayable",
      "type": "function"
    },
    {
      "inputs": [],
      "name": "treasury",
      "outputs": [
        {
          "internalType": "address",
          "name": "",
          "type": "address"
        }
      ],
      "stateMutability": "view",
      "type": "function"
    },
    {
      "inputs": [],
      "name": "updateBountyQuestion",
      "outputs": [],
      "stateMutability": "nonpayable",
      "type": "function"
    },
    {
      "inputs": [],
      "name": "updateClaimController",
      "outputs": [],
      "stateMutability": "nonpayable",
      "type": "function"
    },
    {
      "inputs": [],
      "name": "updateCostController",
      "outputs": [],
      "stateMutability": "nonpayable",
      "type": "function"
    },
    {
      "inputs": [],
      "name": "updateMetric",
      "outputs": [],
      "stateMutability": "nonpayable",
      "type": "function"
    },
    {
      "inputs": [],
      "name": "updateStateController",
      "outputs": [],
      "stateMutability": "nonpayable",
      "type": "function"
    },
    {
      "inputs": [
        {
          "internalType": "address",
          "name": "user",
          "type": "address"
        },
        {
          "internalType": "uint256",
          "name": "questionId",
          "type": "uint256"
        },
        {
          "internalType": "enum STAGE",
          "name": "stage",
          "type": "uint8"
        }
      ],
      "name": "withdrawMetric",
      "outputs": [],
      "stateMutability": "nonpayable",
      "type": "function"
    }
  ],
  "transactionHash": "0xd5a900d79d0da85d3830c771fb2f42d941368a1969f52ea994ce315ca3beff8a",
  "args": [
    "0xD3603df4BC1A9df587155bc03eeb166874d6077C"
  ],
  "numDeployments": 1,
  "solcInputHash": "47b64a1bc1e11d0d714fb3e2e194e242",
  "bytecode": "0x60806040523480156200001157600080fd5b50604051620037ff380380620037ff8339818101604052810190620000379190620001d5565b620000576200004b6200009f60201b60201c565b620000a760201b60201c565b80600860006101000a81548173ffffffffffffffffffffffffffffffffffffffff021916908373ffffffffffffffffffffffffffffffffffffffff1602179055505062000207565b600033905090565b60008060009054906101000a900473ffffffffffffffffffffffffffffffffffffffff169050816000806101000a81548173ffffffffffffffffffffffffffffffffffffffff021916908373ffffffffffffffffffffffffffffffffffffffff1602179055508173ffffffffffffffffffffffffffffffffffffffff168173ffffffffffffffffffffffffffffffffffffffff167f8be0079c531659141344cd1fd0a4f28419497f9722a3daafe3b4186f6b6457e060405160405180910390a35050565b600080fd5b600073ffffffffffffffffffffffffffffffffffffffff82169050919050565b60006200019d8262000170565b9050919050565b620001af8162000190565b8114620001bb57600080fd5b50565b600081519050620001cf81620001a4565b92915050565b600060208284031215620001ee57620001ed6200016b565b5b6000620001fe84828501620001be565b91505092915050565b6135e880620002176000396000f3fe608060405234801561001057600080fd5b50600436106102065760003560e01c806377f72a011161011a578063b2cb2d6f116100ad578063cd6869c41161007c578063cd6869c4146105bb578063daddff33146105d7578063f0f44260146105f5578063f2fde38b14610611578063fa992f3f1461062d57610206565b8063b2cb2d6f14610547578063b548fcae14610563578063c0875dfd14610581578063cb5519761461059d57610206565b80638dd86bc1116100e95780638dd86bc1146104d3578063942e8b13146104dd57806396cec7f0146104e7578063aa9ce2e61461051757610206565b806377f72a01146104375780638213d50b146104675780638ce58682146104975780638da5cb5b146104b557610206565b8063434c5c251161019d57806361d027b31161016c57806361d027b3146103a55780636b1c5cd2146103c35780636baef497146103df578063715018a6146103fd57806371546b811461040757610206565b8063434c5c251461031d57806345256335146103395780635ab0161e146103435780635adbf5ff1461037557610206565b80633d5a71d5116101d95780633d5a71d5146102815780633fad9ae01461029f578063434047d9146102bd5780634341bde2146102ed57610206565b8063063e9e3a1461020b57806311de9a6c1461023b578063200d2ed2146102595780633281226514610277575b600080fd5b61022560048036038101906102209190612bc8565b610637565b6040516102329190612c04565b60405180910390f35b61024361064f565b6040516102509190612c9e565b60405180910390f35b610261610675565b60405161026e9190612d30565b60405180910390f35b61027f610688565b005b61028961075b565b6040516102969190612d6c565b60405180910390f35b6102a7610781565b6040516102b49190612da8565b60405180910390f35b6102d760048036038101906102d29190612bc8565b6107a7565b6040516102e49190612c04565b60405180910390f35b61030760048036038101906103029190612e26565b6107c4565b6040516103149190612ee8565b60405180910390f35b61033760048036038101906103329190612f03565b610900565b005b6103416109c0565b005b61035d60048036038101906103589190612e26565b610a93565b60405161036c93929190612f3f565b60405180910390f35b61038f600480360381019061038a9190612f03565b610b04565b60405161039c9190612c04565b60405180910390f35b6103ad610b1c565b6040516103ba9190612f76565b60405180910390f35b6103dd60048036038101906103d89190612f91565b610b42565b005b6103e761154d565b6040516103f49190612f76565b60405180910390f35b610405611573565b005b610421600480360381019061041c9190612f03565b6115fb565b60405161042e9190613093565b60405180910390f35b610451600480360381019061044c9190612f03565b611692565b60405161045e9190612c04565b60405180910390f35b610481600480360381019061047c9190612e26565b6116db565b60405161048e9190612f76565b60405180910390f35b61049f61178f565b6040516104ac9190612c04565b60405180910390f35b6104bd611832565b6040516104ca9190612f76565b60405180910390f35b6104db61185b565b005b6104e561192e565b005b61050160048036038101906104fc9190612e26565b611a01565b60405161050e9190612c04565b60405180910390f35b610531600480360381019061052c91906130b5565b611a95565b60405161053e9190612c04565b60405180910390f35b610561600480360381019061055c91906130f5565b611ac6565b005b61056b611ca8565b6040516105789190612f76565b60405180910390f35b61059b60048036038101906105969190612f03565b611cce565b005b6105a5611d8e565b6040516105b2919061317d565b60405180910390f35b6105d560048036038101906105d091906130b5565b611db4565b005b6105df611eeb565b6040516105ec91906131b9565b60405180910390f35b61060f600480360381019061060a9190612f03565b611f11565b005b61062b60048036038101906106269190612f03565b611fd1565b005b6106356120c8565b005b600a6020528060005260406000206000915090505481565b600560009054906101000a900473ffffffffffffffffffffffffffffffffffffffff1681565b600760149054906101000a900460ff1681565b600260009054906101000a900473ffffffffffffffffffffffffffffffffffffffff1673ffffffffffffffffffffffffffffffffffffffff1663ceadfd526040518163ffffffff1660e01b8152600401602060405180830381865afa1580156106f5573d6000803e3d6000fd5b505050506040513d601f19601f8201168201806040525081019061071991906131e9565b600160006101000a81548173ffffffffffffffffffffffffffffffffffffffff021916908373ffffffffffffffffffffffffffffffffffffffff160217905550565b600260009054906101000a900473ffffffffffffffffffffffffffffffffffffffff1681565b600760009054906101000a900473ffffffffffffffffffffffffffffffffffffffff1681565b6000600a6000838152602001908152602001600020549050919050565b6107cc612b44565b600c600085815260200190815260200160002060008460048111156107f4576107f3612cb9565b5b600481111561080657610805612cb9565b5b815260200190815260200160002060008373ffffffffffffffffffffffffffffffffffffffff1673ffffffffffffffffffffffffffffffffffffffff1681526020019081526020016000206040518060600160405290816000820160009054906101000a900473ffffffffffffffffffffffffffffffffffffffff1673ffffffffffffffffffffffffffffffffffffffff1673ffffffffffffffffffffffffffffffffffffffff168152602001600182015481526020016002820160009054906101000a900460ff1660038111156108e1576108e0612cb9565b5b60038111156108f3576108f2612cb9565b5b8152505090509392505050565b61090861219b565b73ffffffffffffffffffffffffffffffffffffffff16610926611832565b73ffffffffffffffffffffffffffffffffffffffff161461097c576040517f08c379a000000000000000000000000000000000000000000000000000000000815260040161097390613273565b60405180910390fd5b80600260006101000a81548173ffffffffffffffffffffffffffffffffffffffff021916908373ffffffffffffffffffffffffffffffffffffffff16021790555050565b600260009054906101000a900473ffffffffffffffffffffffffffffffffffffffff1673ffffffffffffffffffffffffffffffffffffffff166367c48e056040518163ffffffff1660e01b8152600401602060405180830381865afa158015610a2d573d6000803e3d6000fd5b505050506040513d601f19601f82011682018060405250810190610a5191906131e9565b600660006101000a81548173ffffffffffffffffffffffffffffffffffffffff021916908373ffffffffffffffffffffffffffffffffffffffff160217905550565b600c60205282600052604060002060205281600052604060002060205280600052604060002060009250925050508060000160009054906101000a900473ffffffffffffffffffffffffffffffffffffffff16908060010154908060020160009054906101000a900460ff16905083565b600b6020528060005260406000206000915090505481565b600860009054906101000a900473ffffffffffffffffffffffffffffffffffffffff1681565b600360009054906101000a900473ffffffffffffffffffffffffffffffffffffffff1673ffffffffffffffffffffffffffffffffffffffff16610b8361219b565b73ffffffffffffffffffffffffffffffffffffffff1614610bd0576040517f92471d5b00000000000000000000000000000000000000000000000000000000815260040160405180910390fd5b600480811115610be357610be2612cb9565b5b60ff16816004811115610bf957610bf8612cb9565b5b60ff161115610c34576040517fe82a532900000000000000000000000000000000000000000000000000000000815260040160405180910390fd5b60006004811115610c4857610c47612cb9565b5b816004811115610c5b57610c5a612cb9565b5b03610d6a5760036005811115610c7457610c73612cb9565b5b600560009054906101000a900473ffffffffffffffffffffffffffffffffffffffff1673ffffffffffffffffffffffffffffffffffffffff166344c9af28846040518263ffffffff1660e01b8152600401610ccf9190612c04565b602060405180830381865afa158015610cec573d6000803e3d6000fd5b505050506040513d601f19601f82011682018060405250810190610d1091906132b8565b6005811115610d2257610d21612cb9565b5b14610d59576040517f9aded0d000000000000000000000000000000000000000000000000000000000815260040160405180910390fd5b610d65838360006121a3565b611548565b60016004811115610d7e57610d7d612cb9565b5b816004811115610d9157610d90612cb9565b5b0361112c578273ffffffffffffffffffffffffffffffffffffffff16600760009054906101000a900473ffffffffffffffffffffffffffffffffffffffff1673ffffffffffffffffffffffffffffffffffffffff1663710bc3cd846040518263ffffffff1660e01b8152600401610e089190612c04565b602060405180830381865afa158015610e25573d6000803e3d6000fd5b505050506040513d601f19601f82011682018060405250810190610e4991906131e9565b73ffffffffffffffffffffffffffffffffffffffff1603610e96576040517fb75800ca00000000000000000000000000000000000000000000000000000000815260040160405180910390fd5b60011515600560009054906101000a900473ffffffffffffffffffffffffffffffffffffffff1673ffffffffffffffffffffffffffffffffffffffff16636e0a7e6785856040518363ffffffff1660e01b8152600401610ef79291906132e5565b602060405180830381865afa158015610f14573d6000803e3d6000fd5b505050506040513d601f19601f82011682018060405250810190610f389190613346565b151503610f71576040517fad0aedd200000000000000000000000000000000000000000000000000000000815260040160405180910390fd5b60016005811115610f8557610f84612cb9565b5b600560009054906101000a900473ffffffffffffffffffffffffffffffffffffffff1673ffffffffffffffffffffffffffffffffffffffff166344c9af28846040518263ffffffff1660e01b8152600401610fe09190612c04565b602060405180830381865afa158015610ffd573d6000803e3d6000fd5b505050506040513d601f19601f8201168201806040525081019061102191906132b8565b600581111561103357611032612cb9565b5b1461106a576040517ffbddb1d000000000000000000000000000000000000000000000000000000000815260040160405180910390fd5b611076838360006121a3565b6000600c600084815260200190815260200160002060008060048111156110a05761109f612cb9565b5b60048111156110b2576110b1612cb9565b5b815260200190815260200160002060008573ffffffffffffffffffffffffffffffffffffffff1673ffffffffffffffffffffffffffffffffffffffff16815260200190815260200160002060020160006101000a81548160ff0219169083600381111561112257611121612cb9565b5b0217905550611547565b600260048111156111405761113f612cb9565b5b81600481111561115357611152612cb9565b5b036112615760058081111561116b5761116a612cb9565b5b600560009054906101000a900473ffffffffffffffffffffffffffffffffffffffff1673ffffffffffffffffffffffffffffffffffffffff166344c9af28846040518263ffffffff1660e01b81526004016111c69190612c04565b602060405180830381865afa1580156111e3573d6000803e3d6000fd5b505050506040513d601f19601f8201168201806040525081019061120791906132b8565b600581111561121957611218612cb9565b5b14611250576040517feb16fc3e00000000000000000000000000000000000000000000000000000000815260040160405180910390fd5b61125c838360026121a3565b611546565b6003600481111561127557611274612cb9565b5b81600481111561128857611287612cb9565b5b0361154457600360058111156112a1576112a0612cb9565b5b600560009054906101000a900473ffffffffffffffffffffffffffffffffffffffff1673ffffffffffffffffffffffffffffffffffffffff166344c9af28846040518263ffffffff1660e01b81526004016112fc9190612c04565b602060405180830381865afa158015611319573d6000803e3d6000fd5b505050506040513d601f19601f8201168201806040525081019061133d91906132b8565b600581111561134f5761134e612cb9565b5b14611386576040517f9aded0d000000000000000000000000000000000000000000000000000000000815260040160405180910390fd5b6002600381111561139a57611399612cb9565b5b600660009054906101000a900473ffffffffffffffffffffffffffffffffffffffff1673ffffffffffffffffffffffffffffffffffffffff1663b92e274a84866040518363ffffffff1660e01b81526004016113f7929190613373565b602060405180830381865afa158015611414573d6000803e3d6000fd5b505050506040513d601f19601f8201168201806040525081019061143891906133c1565b600381111561144a57611449612cb9565b5b14611481576040517f3bc914d300000000000000000000000000000000000000000000000000000000815260040160405180910390fd5b61148d838360026121a3565b6000600c60008481526020019081526020016000206000600260048111156114b8576114b7612cb9565b5b60048111156114ca576114c9612cb9565b5b815260200190815260200160002060008573ffffffffffffffffffffffffffffffffffffffff1673ffffffffffffffffffffffffffffffffffffffff16815260200190815260200160002060020160006101000a81548160ff0219169083600381111561153a57611539612cb9565b5b0217905550611545565b5b5b5b5b505050565b600360009054906101000a900473ffffffffffffffffffffffffffffffffffffffff1681565b61157b61219b565b73ffffffffffffffffffffffffffffffffffffffff16611599611832565b73ffffffffffffffffffffffffffffffffffffffff16146115ef576040517f08c379a00000000000000000000000000000000000000000000000000000000081526004016115e690613273565b60405180910390fd5b6115f960006126da565b565b6060600960008373ffffffffffffffffffffffffffffffffffffffff1673ffffffffffffffffffffffffffffffffffffffff16815260200190815260200160002080548060200260200160405190810160405280929190818152602001828054801561168657602002820191906000526020600020905b815481526020019060010190808311611672575b50505050509050919050565b6000600b60008373ffffffffffffffffffffffffffffffffffffffff1673ffffffffffffffffffffffffffffffffffffffff168152602001908152602001600020549050919050565b6000600c6000858152602001908152602001600020600084600481111561170557611704612cb9565b5b600481111561171757611716612cb9565b5b815260200190815260200160002060008373ffffffffffffffffffffffffffffffffffffffff1673ffffffffffffffffffffffffffffffffffffffff16815260200190815260200160002060000160009054906101000a900473ffffffffffffffffffffffffffffffffffffffff1690509392505050565b6000600460009054906101000a900473ffffffffffffffffffffffffffffffffffffffff1673ffffffffffffffffffffffffffffffffffffffff166370a08231306040518263ffffffff1660e01b81526004016117ec9190612f76565b602060405180830381865afa158015611809573d6000803e3d6000fd5b505050506040513d601f19601f8201168201806040525081019061182d9190613403565b905090565b60008060009054906101000a900473ffffffffffffffffffffffffffffffffffffffff16905090565b600260009054906101000a900473ffffffffffffffffffffffffffffffffffffffff1673ffffffffffffffffffffffffffffffffffffffff1663ad81ca786040518163ffffffff1660e01b8152600401602060405180830381865afa1580156118c8573d6000803e3d6000fd5b505050506040513d601f19601f820116820180604052508101906118ec91906131e9565b600760006101000a81548173ffffffffffffffffffffffffffffffffffffffff021916908373ffffffffffffffffffffffffffffffffffffffff160217905550565b600260009054906101000a900473ffffffffffffffffffffffffffffffffffffffff1673ffffffffffffffffffffffffffffffffffffffff1663a8e2a38b6040518163ffffffff1660e01b8152600401602060405180830381865afa15801561199b573d6000803e3d6000fd5b505050506040513d601f19601f820116820180604052508101906119bf91906131e9565b600460006101000a81548173ffffffffffffffffffffffffffffffffffffffff021916908373ffffffffffffffffffffffffffffffffffffffff160217905550565b6000600c60008581526020019081526020016000206000846004811115611a2b57611a2a612cb9565b5b6004811115611a3d57611a3c612cb9565b5b815260200190815260200160002060008373ffffffffffffffffffffffffffffffffffffffff1673ffffffffffffffffffffffffffffffffffffffff1681526020019081526020016000206001015490509392505050565b60096020528160005260406000208181548110611ab157600080fd5b90600052602060002001600091509150505481565b600160009054906101000a900473ffffffffffffffffffffffffffffffffffffffff1673ffffffffffffffffffffffffffffffffffffffff16611b0761219b565b73ffffffffffffffffffffffffffffffffffffffff1614611b54576040517f1ac379d700000000000000000000000000000000000000000000000000000000815260040160405180910390fd5b6005816004811115611b6957611b68612cb9565b5b60ff1610611ba3576040517fe82a532900000000000000000000000000000000000000000000000000000000815260040160405180910390fd5b60006003811115611bb757611bb6612cb9565b5b600c60008481526020019081526020016000206000836004811115611bdf57611bde612cb9565b5b6004811115611bf157611bf0612cb9565b5b815260200190815260200160002060008673ffffffffffffffffffffffffffffffffffffffff1673ffffffffffffffffffffffffffffffffffffffff16815260200190815260200160002060020160009054906101000a900460ff166003811115611c5f57611c5e612cb9565b5b14611c96576040517fbe9ad66900000000000000000000000000000000000000000000000000000000815260040160405180910390fd5b611ca28484848461279e565b50505050565b600160009054906101000a900473ffffffffffffffffffffffffffffffffffffffff1681565b611cd661219b565b73ffffffffffffffffffffffffffffffffffffffff16611cf4611832565b73ffffffffffffffffffffffffffffffffffffffff1614611d4a576040517f08c379a0000000000000000000000000000000000000000000000000000000008152600401611d4190613273565b60405180910390fd5b80600360006101000a81548173ffffffffffffffffffffffffffffffffffffffff021916908373ffffffffffffffffffffffffffffffffffffffff16021790555050565b600460009054906101000a900473ffffffffffffffffffffffffffffffffffffffff1681565b600160009054906101000a900473ffffffffffffffffffffffffffffffffffffffff1673ffffffffffffffffffffffffffffffffffffffff16611df561219b565b73ffffffffffffffffffffffffffffffffffffffff1614611e42576040517f1ac379d700000000000000000000000000000000000000000000000000000000815260040160405180910390fd5b600460009054906101000a900473ffffffffffffffffffffffffffffffffffffffff1673ffffffffffffffffffffffffffffffffffffffff166323b872dd8361dead846040518463ffffffff1660e01b8152600401611ea393929190613430565b6020604051808303816000875af1158015611ec2573d6000803e3d6000fd5b505050506040513d601f19601f82011682018060405250810190611ee69190613346565b505050565b600660009054906101000a900473ffffffffffffffffffffffffffffffffffffffff1681565b611f1961219b565b73ffffffffffffffffffffffffffffffffffffffff16611f37611832565b73ffffffffffffffffffffffffffffffffffffffff1614611f8d576040517f08c379a0000000000000000000000000000000000000000000000000000000008152600401611f8490613273565b60405180910390fd5b80600860006101000a81548173ffffffffffffffffffffffffffffffffffffffff021916908373ffffffffffffffffffffffffffffffffffffffff16021790555050565b611fd961219b565b73ffffffffffffffffffffffffffffffffffffffff16611ff7611832565b73ffffffffffffffffffffffffffffffffffffffff161461204d576040517f08c379a000000000000000000000000000000000000000000000000000000000815260040161204490613273565b60405180910390fd5b600073ffffffffffffffffffffffffffffffffffffffff168173ffffffffffffffffffffffffffffffffffffffff16036120bc576040517f08c379a00000000000000000000000000000000000000000000000000000000081526004016120b3906134d9565b60405180910390fd5b6120c5816126da565b50565b600260009054906101000a900473ffffffffffffffffffffffffffffffffffffffff1673ffffffffffffffffffffffffffffffffffffffff16639dde027b6040518163ffffffff1660e01b8152600401602060405180830381865afa158015612135573d6000803e3d6000fd5b505050506040513d601f19601f8201168201806040525081019061215991906131e9565b600560006101000a81548173ffffffffffffffffffffffffffffffffffffffff021916908373ffffffffffffffffffffffffffffffffffffffff160217905550565b600033905090565b600c600083815260200190815260200160002060008260048111156121cb576121ca612cb9565b5b60048111156121dd576121dc612cb9565b5b815260200190815260200160002060008473ffffffffffffffffffffffffffffffffffffffff1673ffffffffffffffffffffffffffffffffffffffff16815260200190815260200160002060000160009054906101000a900473ffffffffffffffffffffffffffffffffffffffff1673ffffffffffffffffffffffffffffffffffffffff168373ffffffffffffffffffffffffffffffffffffffff16146122b0576040517f7ff62b7d00000000000000000000000000000000000000000000000000000000815260040160405180910390fd5b600160038111156122c4576122c3612cb9565b5b600c600084815260200190815260200160002060008360048111156122ec576122eb612cb9565b5b60048111156122fe576122fd612cb9565b5b815260200190815260200160002060008573ffffffffffffffffffffffffffffffffffffffff1673ffffffffffffffffffffffffffffffffffffffff16815260200190815260200160002060020160009054906101000a900460ff16600381111561236c5761236b612cb9565b5b146123a3576040517f7109e46600000000000000000000000000000000000000000000000000000000815260040160405180910390fd5b6000600c600084815260200190815260200160002060008360048111156123cd576123cc612cb9565b5b60048111156123df576123de612cb9565b5b815260200190815260200160002060008573ffffffffffffffffffffffffffffffffffffffff1673ffffffffffffffffffffffffffffffffffffffff1681526020019081526020016000206001015490506002600c6000858152602001908152602001600020600084600481111561245a57612459612cb9565b5b600481111561246c5761246b612cb9565b5b815260200190815260200160002060008673ffffffffffffffffffffffffffffffffffffffff1673ffffffffffffffffffffffffffffffffffffffff16815260200190815260200160002060020160006101000a81548160ff021916908360038111156124dc576124db612cb9565b5b02179055506000600c6000858152602001908152602001600020600084600481111561250b5761250a612cb9565b5b600481111561251d5761251c612cb9565b5b815260200190815260200160002060008673ffffffffffffffffffffffffffffffffffffffff1673ffffffffffffffffffffffffffffffffffffffff1681526020019081526020016000206001018190555080600a600085815260200190815260200160002060008282546125929190613528565b9250508190555080600b60008673ffffffffffffffffffffffffffffffffffffffff1673ffffffffffffffffffffffffffffffffffffffff16815260200190815260200160002060008282546125e89190613528565b92505081905550600460009054906101000a900473ffffffffffffffffffffffffffffffffffffffff1673ffffffffffffffffffffffffffffffffffffffff1663a9059cbb85836040518363ffffffff1660e01b815260040161264c9291906132e5565b6020604051808303816000875af115801561266b573d6000803e3d6000fd5b505050506040513d601f19601f8201168201806040525081019061268f9190613346565b50808473ffffffffffffffffffffffffffffffffffffffff167f884edad9ce6fa2440d8a54cc123490eb96d2768479d49ff9c7366125a942436460405160405180910390a350505050565b60008060009054906101000a900473ffffffffffffffffffffffffffffffffffffffff169050816000806101000a81548173ffffffffffffffffffffffffffffffffffffffff021916908373ffffffffffffffffffffffffffffffffffffffff1602179055508173ffffffffffffffffffffffffffffffffffffffff168173ffffffffffffffffffffffffffffffffffffffff167f8be0079c531659141344cd1fd0a4f28419497f9722a3daafe3b4186f6b6457e060405160405180910390a35050565b83600c600084815260200190815260200160002060008360048111156127c7576127c6612cb9565b5b60048111156127d9576127d8612cb9565b5b815260200190815260200160002060008673ffffffffffffffffffffffffffffffffffffffff1673ffffffffffffffffffffffffffffffffffffffff16815260200190815260200160002060000160006101000a81548173ffffffffffffffffffffffffffffffffffffffff021916908373ffffffffffffffffffffffffffffffffffffffff16021790555082600c6000848152602001908152602001600020600083600481111561288e5761288d612cb9565b5b60048111156128a05761289f612cb9565b5b815260200190815260200160002060008673ffffffffffffffffffffffffffffffffffffffff1673ffffffffffffffffffffffffffffffffffffffff16815260200190815260200160002060010160008282546128fd919061355c565b9250508190555082600a60008481526020019081526020016000206000828254612927919061355c565b925050819055506001600c6000848152602001908152602001600020600083600481111561295857612957612cb9565b5b600481111561296a57612969612cb9565b5b815260200190815260200160002060008673ffffffffffffffffffffffffffffffffffffffff1673ffffffffffffffffffffffffffffffffffffffff16815260200190815260200160002060020160006101000a81548160ff021916908360038111156129da576129d9612cb9565b5b021790555082600b60008673ffffffffffffffffffffffffffffffffffffffff1673ffffffffffffffffffffffffffffffffffffffff1681526020019081526020016000206000828254612a2e919061355c565b92505081905550600960008573ffffffffffffffffffffffffffffffffffffffff1673ffffffffffffffffffffffffffffffffffffffff168152602001908152602001600020829080600181540180825580915050600190039060005260206000200160009091909190915055600460009054906101000a900473ffffffffffffffffffffffffffffffffffffffff1673ffffffffffffffffffffffffffffffffffffffff166323b872dd8530866040518463ffffffff1660e01b8152600401612afa93929190613430565b6020604051808303816000875af1158015612b19573d6000803e3d6000fd5b505050506040513d601f19601f82011682018060405250810190612b3d9190613346565b5050505050565b6040518060600160405280600073ffffffffffffffffffffffffffffffffffffffff1681526020016000815260200160006003811115612b8757612b86612cb9565b5b81525090565b600080fd5b6000819050919050565b612ba581612b92565b8114612bb057600080fd5b50565b600081359050612bc281612b9c565b92915050565b600060208284031215612bde57612bdd612b8d565b5b6000612bec84828501612bb3565b91505092915050565b612bfe81612b92565b82525050565b6000602082019050612c196000830184612bf5565b92915050565b600073ffffffffffffffffffffffffffffffffffffffff82169050919050565b6000819050919050565b6000612c64612c5f612c5a84612c1f565b612c3f565b612c1f565b9050919050565b6000612c7682612c49565b9050919050565b6000612c8882612c6b565b9050919050565b612c9881612c7d565b82525050565b6000602082019050612cb36000830184612c8f565b92915050565b7f4e487b7100000000000000000000000000000000000000000000000000000000600052602160045260246000fd5b60048110612cf957612cf8612cb9565b5b50565b6000819050612d0a82612ce8565b919050565b6000612d1a82612cfc565b9050919050565b612d2a81612d0f565b82525050565b6000602082019050612d456000830184612d21565b92915050565b6000612d5682612c6b565b9050919050565b612d6681612d4b565b82525050565b6000602082019050612d816000830184612d5d565b92915050565b6000612d9282612c6b565b9050919050565b612da281612d87565b82525050565b6000602082019050612dbd6000830184612d99565b92915050565b60058110612dd057600080fd5b50565b600081359050612de281612dc3565b92915050565b6000612df382612c1f565b9050919050565b612e0381612de8565b8114612e0e57600080fd5b50565b600081359050612e2081612dfa565b92915050565b600080600060608486031215612e3f57612e3e612b8d565b5b6000612e4d86828701612bb3565b9350506020612e5e86828701612dd3565b9250506040612e6f86828701612e11565b9150509250925092565b612e8281612de8565b82525050565b612e9181612b92565b82525050565b612ea081612d0f565b82525050565b606082016000820151612ebc6000850182612e79565b506020820151612ecf6020850182612e88565b506040820151612ee26040850182612e97565b50505050565b6000606082019050612efd6000830184612ea6565b92915050565b600060208284031215612f1957612f18612b8d565b5b6000612f2784828501612e11565b91505092915050565b612f3981612de8565b82525050565b6000606082019050612f546000830186612f30565b612f616020830185612bf5565b612f6e6040830184612d21565b949350505050565b6000602082019050612f8b6000830184612f30565b92915050565b600080600060608486031215612faa57612fa9612b8d565b5b6000612fb886828701612e11565b9350506020612fc986828701612bb3565b9250506040612fda86828701612dd3565b9150509250925092565b600081519050919050565b600082825260208201905092915050565b6000819050602082019050919050565b600061301c8383612e88565b60208301905092915050565b6000602082019050919050565b600061304082612fe4565b61304a8185612fef565b935061305583613000565b8060005b8381101561308657815161306d8882613010565b975061307883613028565b925050600181019050613059565b5085935050505092915050565b600060208201905081810360008301526130ad8184613035565b905092915050565b600080604083850312156130cc576130cb612b8d565b5b60006130da85828601612e11565b92505060206130eb85828601612bb3565b9150509250929050565b6000806000806080858703121561310f5761310e612b8d565b5b600061311d87828801612e11565b945050602061312e87828801612bb3565b935050604061313f87828801612bb3565b925050606061315087828801612dd3565b91505092959194509250565b600061316782612c6b565b9050919050565b6131778161315c565b82525050565b6000602082019050613192600083018461316e565b92915050565b60006131a382612c6b565b9050919050565b6131b381613198565b82525050565b60006020820190506131ce60008301846131aa565b92915050565b6000815190506131e381612dfa565b92915050565b6000602082840312156131ff576131fe612b8d565b5b600061320d848285016131d4565b91505092915050565b600082825260208201905092915050565b7f4f776e61626c653a2063616c6c6572206973206e6f7420746865206f776e6572600082015250565b600061325d602083613216565b915061326882613227565b602082019050919050565b6000602082019050818103600083015261328c81613250565b9050919050565b600681106132a057600080fd5b50565b6000815190506132b281613293565b92915050565b6000602082840312156132ce576132cd612b8d565b5b60006132dc848285016132a3565b91505092915050565b60006040820190506132fa6000830185612f30565b6133076020830184612bf5565b9392505050565b60008115159050919050565b6133238161330e565b811461332e57600080fd5b50565b6000815190506133408161331a565b92915050565b60006020828403121561335c5761335b612b8d565b5b600061336a84828501613331565b91505092915050565b60006040820190506133886000830185612bf5565b6133956020830184612f30565b9392505050565b600481106133a957600080fd5b50565b6000815190506133bb8161339c565b92915050565b6000602082840312156133d7576133d6612b8d565b5b60006133e5848285016133ac565b91505092915050565b6000815190506133fd81612b9c565b92915050565b60006020828403121561341957613418612b8d565b5b6000613427848285016133ee565b91505092915050565b60006060820190506134456000830186612f30565b6134526020830185612f30565b61345f6040830184612bf5565b949350505050565b7f4f776e61626c653a206e6577206f776e657220697320746865207a65726f206160008201527f6464726573730000000000000000000000000000000000000000000000000000602082015250565b60006134c3602683613216565b91506134ce82613467565b604082019050919050565b600060208201905081810360008301526134f2816134b6565b9050919050565b7f4e487b7100000000000000000000000000000000000000000000000000000000600052601160045260246000fd5b600061353382612b92565b915061353e83612b92565b925082821015613551576135506134f9565b5b828203905092915050565b600061356782612b92565b915061357283612b92565b9250827fffffffffffffffffffffffffffffffffffffffffffffffffffffffffffffffff038211156135a7576135a66134f9565b5b82820190509291505056fea2646970667358221220372e832f465fc9badb867dabc251b9b131cdca922ecbf06c9ab726ff69212d2f64736f6c634300080d0033",
  "devdoc": {
    "kind": "dev",
    "methods": {
      "constructor": {
        "params": {
          "treasuryAddress": "The treasury address."
        }
      },
      "getMetricTotalLockedBalance()": {
        "returns": {
          "_0": "The total amount of Metric locked in the vault."
        }
      },
      "getVaultById(uint256,uint8,address)": {
        "params": {
          "questionId": "The question id.",
          "stage": "The stage of the question.",
          "user": "The address of the user."
        },
        "returns": {
          "_0": "A struct containing the attributes of the question (withdrawer, amount, status)."
        }
      },
      "getVaultsByWithdrawer(address)": {
        "params": {
          "user": "The address of the user."
        },
        "returns": {
          "_0": "The questions that the user has created."
        }
      },
      "lockMetric(address,uint256,uint256,uint8)": {
        "params": {
          "amount": "The amount of METRIC to lock",
          "questionId": "The question id'",
          "stage": "The stage for which METRIC is locked",
          "user": "The address of the user locking the METRIC"
        }
      },
      "owner()": {
        "details": "Returns the address of the current owner."
      },
      "renounceOwnership()": {
        "details": "Leaves the contract without owner. It will not be possible to call `onlyOwner` functions anymore. Can only be called by the current owner. NOTE: Renouncing ownership will leave the contract without an owner, thereby removing any functionality that is only available to the owner."
      },
      "setQuestionApi(address)": {
        "params": {
          "_newApi": "The new address of the question API."
        }
      },
      "transferOwnership(address)": {
        "details": "Transfers ownership of the contract to a new account (`newOwner`). Can only be called by the current owner."
      },
      "withdrawMetric(address,uint256,uint8)": {
        "params": {
          "questionId": "The question id",
          "stage": "The stage for which the user is withdrawing metric from a question.",
          "user": "The address of the user withdrawing the METRIC"
        }
      }
    },
    "version": 1
  },
  "userdoc": {
    "errors": {
      "AlreadySlashed()": [
        {
          "notice": "Throw if the same question is slashed twice."
        }
      ],
      "CannotUnvoteOwnQuestion()": [
        {
          "notice": "Throw if creator of question tries to unvote"
        }
      ],
      "ClaimNotReleased()": [
        {
          "notice": "Throw if user tries to withdraw Metric from a claim that is not released."
        }
      ],
      "InvalidAddress()": [
        {
          "notice": "Throw if address is equal to address(0)."
        }
      ],
      "InvalidStage()": [
        {
          "notice": "Throw if user tries to lock METRIC for a stage that does not require locking."
        }
      ],
      "NoMetricDeposited()": [
        {
          "notice": "Throw if user tries to withdraw Metric without having first deposited."
        }
      ],
      "NotTheDepositor()": [
        {
          "notice": "Throw if user tries to withdraw Metric from a question it does not own."
        }
      ],
      "QuestionHasInvalidStatus()": [
        {
          "notice": "Throw if user tries to lock Metric for a question that has a different state than UNINT."
        }
      ],
      "QuestionNotInReview()": [
        {
          "notice": "Throw if user tries to withdraw Metric from a question that is not in the review state."
        }
      ],
      "QuestionNotInVoting()": [
        {
          "notice": "Throw if user tries to claim Metric for unvoting on a question that is not in the VOTING state."
        }
      ],
      "QuestionNotPublished()": [
        {
          "notice": "Throw if user tries to claim Metric for a question that has not been published (yet)."
        }
      ],
      "UserHasNotUnvoted()": [
        {
          "notice": "Throw if user tries to claim Metric for a question that was not unvoted"
        }
      ]
    },
    "events": {
      "Slashed(address,uint256)": {
        "notice": "Event emitted when a question is slashed."
      },
      "Withdraw(address,uint256)": {
        "notice": "Event emitted when Metric is withdrawn."
      }
    },
    "kind": "user",
    "methods": {
      "constructor": {
        "notice": "Constructor sets the question Metric token, QuestionStateController and the treasury."
      },
      "depositsByWithdrawers(address,uint256)": {
        "notice": "Keeps track of the quantity of deposits per user."
      },
      "getMetricTotalLockedBalance()": {
        "notice": "Gets the total amount of Metric locked in the vault."
      },
      "getVaultById(uint256,uint8,address)": {
        "notice": "Gets the information about the vault attributes of a question."
      },
      "getVaultsByWithdrawer(address)": {
        "notice": "Gets the questions that a user has created."
      },
      "lockMetric(address,uint256,uint256,uint8)": {
        "notice": "Locks METRIC for creating a question"
      },
      "lockedMetric(uint256,uint8,address)": {
        "notice": "Keeps track of the quantity of withdrawals per user."
      },
      "lockedMetricByQuestion(uint256)": {
        "notice": "Keeps track of the amount of METRIC locked per question"
      },
      "setQuestionApi(address)": {
        "notice": "Sets the address of the question API."
      },
      "setTreasury(address)": {
        "notice": "Allows owner to update the treasury address and questionApi."
      },
      "totalLockedInVaults(address)": {
        "notice": "Keeps track of total amount in vault for a given user."
      },
      "treasury()": {
        "notice": "Address to the MetricsDAO treasury."
      },
      "updateStateController()": {
        "notice": "Allows anyone to update the controllers."
      },
      "withdrawMetric(address,uint256,uint8)": {
        "notice": "Allows a user to withdraw METRIC locked for a question, after the question is published."
      }
    },
    "version": 1
  },
  "storageLayout": {
    "storage": [
      {
        "astId": 7,
        "contract": "src/contracts/Protocol/Vault.sol:Vault",
        "label": "_owner",
        "offset": 0,
        "slot": "0",
        "type": "t_address"
      },
      {
        "astId": 6866,
        "contract": "src/contracts/Protocol/Vault.sol:Vault",
        "label": "costController",
        "offset": 0,
        "slot": "1",
        "type": "t_address"
      },
      {
        "astId": 6869,
        "contract": "src/contracts/Protocol/Vault.sol:Vault",
        "label": "questionAPI",
        "offset": 0,
        "slot": "2",
        "type": "t_contract(IQuestionAPI)6628"
      },
      {
        "astId": 6829,
        "contract": "src/contracts/Protocol/Vault.sol:Vault",
        "label": "questionApi",
        "offset": 0,
        "slot": "3",
        "type": "t_address"
      },
      {
        "astId": 5795,
        "contract": "src/contracts/Protocol/Vault.sol:Vault",
        "label": "metric",
        "offset": 0,
        "slot": "4",
        "type": "t_contract(IERC20)868"
      },
      {
        "astId": 5798,
        "contract": "src/contracts/Protocol/Vault.sol:Vault",
        "label": "questionStateController",
        "offset": 0,
        "slot": "5",
        "type": "t_contract(IQuestionStateController)6688"
      },
      {
        "astId": 5801,
        "contract": "src/contracts/Protocol/Vault.sol:Vault",
        "label": "claimController",
        "offset": 0,
        "slot": "6",
        "type": "t_contract(IClaimController)6600"
      },
      {
        "astId": 5804,
        "contract": "src/contracts/Protocol/Vault.sol:Vault",
        "label": "question",
        "offset": 0,
        "slot": "7",
        "type": "t_contract(IBountyQuestion)6537"
      },
      {
        "astId": 5807,
        "contract": "src/contracts/Protocol/Vault.sol:Vault",
        "label": "status",
        "offset": 20,
        "slot": "7",
        "type": "t_enum(STATUS)4113"
      },
      {
        "astId": 5810,
        "contract": "src/contracts/Protocol/Vault.sol:Vault",
        "label": "treasury",
        "offset": 0,
        "slot": "8",
        "type": "t_address"
      },
      {
        "astId": 5819,
        "contract": "src/contracts/Protocol/Vault.sol:Vault",
        "label": "depositsByWithdrawers",
        "offset": 0,
        "slot": "9",
        "type": "t_mapping(t_address,t_array(t_uint256)dyn_storage)"
      },
      {
        "astId": 5824,
        "contract": "src/contracts/Protocol/Vault.sol:Vault",
        "label": "lockedMetricByQuestion",
        "offset": 0,
        "slot": "10",
        "type": "t_mapping(t_uint256,t_uint256)"
      },
      {
        "astId": 5829,
        "contract": "src/contracts/Protocol/Vault.sol:Vault",
        "label": "totalLockedInVaults",
        "offset": 0,
        "slot": "11",
        "type": "t_mapping(t_address,t_uint256)"
      },
      {
        "astId": 5840,
        "contract": "src/contracts/Protocol/Vault.sol:Vault",
        "label": "lockedMetric",
        "offset": 0,
        "slot": "12",
        "type": "t_mapping(t_uint256,t_mapping(t_enum(STAGE)4108,t_mapping(t_address,t_struct(lockAttributes)5744_storage)))"
      }
    ],
    "types": {
      "t_address": {
        "encoding": "inplace",
        "label": "address",
        "numberOfBytes": "20"
      },
      "t_array(t_uint256)dyn_storage": {
        "base": "t_uint256",
        "encoding": "dynamic_array",
        "label": "uint256[]",
        "numberOfBytes": "32"
      },
      "t_contract(IBountyQuestion)6537": {
        "encoding": "inplace",
        "label": "contract IBountyQuestion",
        "numberOfBytes": "20"
      },
      "t_contract(IClaimController)6600": {
        "encoding": "inplace",
        "label": "contract IClaimController",
        "numberOfBytes": "20"
      },
      "t_contract(IERC20)868": {
        "encoding": "inplace",
        "label": "contract IERC20",
        "numberOfBytes": "20"
      },
      "t_contract(IQuestionAPI)6628": {
        "encoding": "inplace",
        "label": "contract IQuestionAPI",
        "numberOfBytes": "20"
      },
      "t_contract(IQuestionStateController)6688": {
        "encoding": "inplace",
        "label": "contract IQuestionStateController",
        "numberOfBytes": "20"
      },
      "t_enum(STAGE)4108": {
        "encoding": "inplace",
        "label": "enum STAGE",
        "numberOfBytes": "1"
      },
      "t_enum(STATUS)4113": {
        "encoding": "inplace",
        "label": "enum STATUS",
        "numberOfBytes": "1"
      },
      "t_mapping(t_address,t_array(t_uint256)dyn_storage)": {
        "encoding": "mapping",
        "key": "t_address",
        "label": "mapping(address => uint256[])",
        "numberOfBytes": "32",
        "value": "t_array(t_uint256)dyn_storage"
      },
      "t_mapping(t_address,t_struct(lockAttributes)5744_storage)": {
        "encoding": "mapping",
        "key": "t_address",
        "label": "mapping(address => struct lockAttributes)",
        "numberOfBytes": "32",
        "value": "t_struct(lockAttributes)5744_storage"
      },
      "t_mapping(t_address,t_uint256)": {
        "encoding": "mapping",
        "key": "t_address",
        "label": "mapping(address => uint256)",
        "numberOfBytes": "32",
        "value": "t_uint256"
      },
      "t_mapping(t_enum(STAGE)4108,t_mapping(t_address,t_struct(lockAttributes)5744_storage))": {
        "encoding": "mapping",
        "key": "t_enum(STAGE)4108",
        "label": "mapping(enum STAGE => mapping(address => struct lockAttributes))",
        "numberOfBytes": "32",
        "value": "t_mapping(t_address,t_struct(lockAttributes)5744_storage)"
      },
      "t_mapping(t_uint256,t_mapping(t_enum(STAGE)4108,t_mapping(t_address,t_struct(lockAttributes)5744_storage)))": {
        "encoding": "mapping",
        "key": "t_uint256",
        "label": "mapping(uint256 => mapping(enum STAGE => mapping(address => struct lockAttributes)))",
        "numberOfBytes": "32",
        "value": "t_mapping(t_enum(STAGE)4108,t_mapping(t_address,t_struct(lockAttributes)5744_storage))"
      },
      "t_mapping(t_uint256,t_uint256)": {
        "encoding": "mapping",
        "key": "t_uint256",
        "label": "mapping(uint256 => uint256)",
        "numberOfBytes": "32",
        "value": "t_uint256"
      },
      "t_struct(lockAttributes)5744_storage": {
        "encoding": "inplace",
        "label": "struct lockAttributes",
        "members": [
          {
            "astId": 5738,
            "contract": "src/contracts/Protocol/Vault.sol:Vault",
            "label": "user",
            "offset": 0,
            "slot": "0",
            "type": "t_address"
          },
          {
            "astId": 5740,
            "contract": "src/contracts/Protocol/Vault.sol:Vault",
            "label": "amount",
            "offset": 0,
            "slot": "1",
            "type": "t_uint256"
          },
          {
            "astId": 5743,
            "contract": "src/contracts/Protocol/Vault.sol:Vault",
            "label": "status",
            "offset": 0,
            "slot": "2",
            "type": "t_enum(STATUS)4113"
          }
        ],
        "numberOfBytes": "96"
      },
      "t_uint256": {
        "encoding": "inplace",
        "label": "uint256",
        "numberOfBytes": "32"
      }
    }
  }
}