{
  "contractName": "MetricToken",
  "abi": [
    {
      "inputs": [],
      "stateMutability": "nonpayable",
      "type": "constructor"
    },
    {
      "anonymous": false,
      "inputs": [
        {
          "indexed": true,
          "internalType": "address",
          "name": "owner",
          "type": "address"
        },
        {
          "indexed": true,
          "internalType": "address",
          "name": "spender",
          "type": "address"
        },
        {
          "indexed": false,
          "internalType": "uint256",
          "name": "value",
          "type": "uint256"
        }
      ],
      "name": "Approval",
      "type": "event"
    },
    {
      "anonymous": false,
      "inputs": [
        {
          "indexed": true,
          "internalType": "address",
          "name": "delegator",
          "type": "address"
        },
        {
          "indexed": true,
          "internalType": "address",
          "name": "fromDelegate",
          "type": "address"
        },
        {
          "indexed": true,
          "internalType": "address",
          "name": "toDelegate",
          "type": "address"
        }
      ],
      "name": "DelegateChanged",
      "type": "event"
    },
    {
      "anonymous": false,
      "inputs": [
        {
          "indexed": true,
          "internalType": "address",
          "name": "delegate",
          "type": "address"
        },
        {
          "indexed": false,
          "internalType": "uint256",
          "name": "previousBalance",
          "type": "uint256"
        },
        {
          "indexed": false,
          "internalType": "uint256",
          "name": "newBalance",
          "type": "uint256"
        }
      ],
      "name": "DelegateVotesChanged",
      "type": "event"
    },
    {
      "anonymous": false,
      "inputs": [
        {
          "indexed": true,
          "internalType": "bytes32",
          "name": "role",
          "type": "bytes32"
        },
        {
          "indexed": true,
          "internalType": "bytes32",
          "name": "previousAdminRole",
          "type": "bytes32"
        },
        {
          "indexed": true,
          "internalType": "bytes32",
          "name": "newAdminRole",
          "type": "bytes32"
        }
      ],
      "name": "RoleAdminChanged",
      "type": "event"
    },
    {
      "anonymous": false,
      "inputs": [
        {
          "indexed": true,
          "internalType": "bytes32",
          "name": "role",
          "type": "bytes32"
        },
        {
          "indexed": true,
          "internalType": "address",
          "name": "account",
          "type": "address"
        },
        {
          "indexed": true,
          "internalType": "address",
          "name": "sender",
          "type": "address"
        }
      ],
      "name": "RoleGranted",
      "type": "event"
    },
    {
      "anonymous": false,
      "inputs": [
        {
          "indexed": true,
          "internalType": "bytes32",
          "name": "role",
          "type": "bytes32"
        },
        {
          "indexed": true,
          "internalType": "address",
          "name": "account",
          "type": "address"
        },
        {
          "indexed": true,
          "internalType": "address",
          "name": "sender",
          "type": "address"
        }
      ],
      "name": "RoleRevoked",
      "type": "event"
    },
    {
      "anonymous": false,
      "inputs": [
        {
          "indexed": false,
          "internalType": "uint256",
          "name": "id",
          "type": "uint256"
        }
      ],
      "name": "Snapshot",
      "type": "event"
    },
    {
      "anonymous": false,
      "inputs": [
        {
          "indexed": true,
          "internalType": "address",
          "name": "from",
          "type": "address"
        },
        {
          "indexed": true,
          "internalType": "address",
          "name": "to",
          "type": "address"
        },
        {
          "indexed": false,
          "internalType": "uint256",
          "name": "value",
          "type": "uint256"
        }
      ],
      "name": "Transfer",
      "type": "event"
    },
    {
      "inputs": [],
      "name": "DEFAULT_ADMIN_ROLE",
      "outputs": [
        {
          "internalType": "bytes32",
          "name": "",
          "type": "bytes32"
        }
      ],
      "stateMutability": "view",
      "type": "function"
    },
    {
      "inputs": [],
      "name": "DOMAIN_SEPARATOR",
      "outputs": [
        {
          "internalType": "bytes32",
          "name": "",
          "type": "bytes32"
        }
      ],
      "stateMutability": "view",
      "type": "function"
    },
    {
      "inputs": [],
      "name": "MINTER_ROLE",
      "outputs": [
        {
          "internalType": "bytes32",
          "name": "",
          "type": "bytes32"
        }
      ],
      "stateMutability": "view",
      "type": "function"
    },
    {
      "inputs": [],
      "name": "SNAPSHOT_ROLE",
      "outputs": [
        {
          "internalType": "bytes32",
          "name": "",
          "type": "bytes32"
        }
      ],
      "stateMutability": "view",
      "type": "function"
    },
    {
      "inputs": [
        {
          "internalType": "address",
          "name": "owner",
          "type": "address"
        },
        {
          "internalType": "address",
          "name": "spender",
          "type": "address"
        }
      ],
      "name": "allowance",
      "outputs": [
        {
          "internalType": "uint256",
          "name": "",
          "type": "uint256"
        }
      ],
      "stateMutability": "view",
      "type": "function"
    },
    {
      "inputs": [
        {
          "internalType": "address",
          "name": "spender",
          "type": "address"
        },
        {
          "internalType": "uint256",
          "name": "amount",
          "type": "uint256"
        }
      ],
      "name": "approve",
      "outputs": [
        {
          "internalType": "bool",
          "name": "",
          "type": "bool"
        }
      ],
      "stateMutability": "nonpayable",
      "type": "function"
    },
    {
      "inputs": [
        {
          "internalType": "address",
          "name": "account",
          "type": "address"
        }
      ],
      "name": "balanceOf",
      "outputs": [
        {
          "internalType": "uint256",
          "name": "",
          "type": "uint256"
        }
      ],
      "stateMutability": "view",
      "type": "function"
    },
    {
      "inputs": [
        {
          "internalType": "address",
          "name": "account",
          "type": "address"
        },
        {
          "internalType": "uint256",
          "name": "snapshotId",
          "type": "uint256"
        }
      ],
      "name": "balanceOfAt",
      "outputs": [
        {
          "internalType": "uint256",
          "name": "",
          "type": "uint256"
        }
      ],
      "stateMutability": "view",
      "type": "function"
    },
    {
      "inputs": [
        {
          "internalType": "uint256",
          "name": "amount",
          "type": "uint256"
        }
      ],
      "name": "burn",
      "outputs": [],
      "stateMutability": "nonpayable",
      "type": "function"
    },
    {
      "inputs": [
        {
          "internalType": "address",
          "name": "account",
          "type": "address"
        },
        {
          "internalType": "uint256",
          "name": "amount",
          "type": "uint256"
        }
      ],
      "name": "burnFrom",
      "outputs": [],
      "stateMutability": "nonpayable",
      "type": "function"
    },
    {
      "inputs": [
        {
          "internalType": "address",
          "name": "account",
          "type": "address"
        },
        {
          "internalType": "uint32",
          "name": "pos",
          "type": "uint32"
        }
      ],
      "name": "checkpoints",
      "outputs": [
        {
          "components": [
            {
              "internalType": "uint32",
              "name": "fromBlock",
              "type": "uint32"
            },
            {
              "internalType": "uint224",
              "name": "votes",
              "type": "uint224"
            }
          ],
          "internalType": "struct ERC20Votes.Checkpoint",
          "name": "",
          "type": "tuple"
        }
      ],
      "stateMutability": "view",
      "type": "function"
    },
    {
      "inputs": [],
      "name": "decimals",
      "outputs": [
        {
          "internalType": "uint8",
          "name": "",
          "type": "uint8"
        }
      ],
      "stateMutability": "view",
      "type": "function"
    },
    {
      "inputs": [
        {
          "internalType": "address",
          "name": "spender",
          "type": "address"
        },
        {
          "internalType": "uint256",
          "name": "subtractedValue",
          "type": "uint256"
        }
      ],
      "name": "decreaseAllowance",
      "outputs": [
        {
          "internalType": "bool",
          "name": "",
          "type": "bool"
        }
      ],
      "stateMutability": "nonpayable",
      "type": "function"
    },
    {
      "inputs": [
        {
          "internalType": "address",
          "name": "delegatee",
          "type": "address"
        }
      ],
      "name": "delegate",
      "outputs": [],
      "stateMutability": "nonpayable",
      "type": "function"
    },
    {
      "inputs": [
        {
          "internalType": "address",
          "name": "delegatee",
          "type": "address"
        },
        {
          "internalType": "uint256",
          "name": "nonce",
          "type": "uint256"
        },
        {
          "internalType": "uint256",
          "name": "expiry",
          "type": "uint256"
        },
        {
          "internalType": "uint8",
          "name": "v",
          "type": "uint8"
        },
        {
          "internalType": "bytes32",
          "name": "r",
          "type": "bytes32"
        },
        {
          "internalType": "bytes32",
          "name": "s",
          "type": "bytes32"
        }
      ],
      "name": "delegateBySig",
      "outputs": [],
      "stateMutability": "nonpayable",
      "type": "function"
    },
    {
      "inputs": [
        {
          "internalType": "address",
          "name": "account",
          "type": "address"
        }
      ],
      "name": "delegates",
      "outputs": [
        {
          "internalType": "address",
          "name": "",
          "type": "address"
        }
      ],
      "stateMutability": "view",
      "type": "function"
    },
    {
      "inputs": [
        {
          "internalType": "uint256",
          "name": "blockNumber",
          "type": "uint256"
        }
      ],
      "name": "getPastTotalSupply",
      "outputs": [
        {
          "internalType": "uint256",
          "name": "",
          "type": "uint256"
        }
      ],
      "stateMutability": "view",
      "type": "function"
    },
    {
      "inputs": [
        {
          "internalType": "address",
          "name": "account",
          "type": "address"
        },
        {
          "internalType": "uint256",
          "name": "blockNumber",
          "type": "uint256"
        }
      ],
      "name": "getPastVotes",
      "outputs": [
        {
          "internalType": "uint256",
          "name": "",
          "type": "uint256"
        }
      ],
      "stateMutability": "view",
      "type": "function"
    },
    {
      "inputs": [
        {
          "internalType": "bytes32",
          "name": "role",
          "type": "bytes32"
        }
      ],
      "name": "getRoleAdmin",
      "outputs": [
        {
          "internalType": "bytes32",
          "name": "",
          "type": "bytes32"
        }
      ],
      "stateMutability": "view",
      "type": "function"
    },
    {
      "inputs": [
        {
          "internalType": "address",
          "name": "account",
          "type": "address"
        }
      ],
      "name": "getVotes",
      "outputs": [
        {
          "internalType": "uint256",
          "name": "",
          "type": "uint256"
        }
      ],
      "stateMutability": "view",
      "type": "function"
    },
    {
      "inputs": [
        {
          "internalType": "bytes32",
          "name": "role",
          "type": "bytes32"
        },
        {
          "internalType": "address",
          "name": "account",
          "type": "address"
        }
      ],
      "name": "grantRole",
      "outputs": [],
      "stateMutability": "nonpayable",
      "type": "function"
    },
    {
      "inputs": [
        {
          "internalType": "bytes32",
          "name": "role",
          "type": "bytes32"
        },
        {
          "internalType": "address",
          "name": "account",
          "type": "address"
        }
      ],
      "name": "hasRole",
      "outputs": [
        {
          "internalType": "bool",
          "name": "",
          "type": "bool"
        }
      ],
      "stateMutability": "view",
      "type": "function"
    },
    {
      "inputs": [
        {
          "internalType": "address",
          "name": "spender",
          "type": "address"
        },
        {
          "internalType": "uint256",
          "name": "addedValue",
          "type": "uint256"
        }
      ],
      "name": "increaseAllowance",
      "outputs": [
        {
          "internalType": "bool",
          "name": "",
          "type": "bool"
        }
      ],
      "stateMutability": "nonpayable",
      "type": "function"
    },
    {
      "inputs": [],
      "name": "name",
      "outputs": [
        {
          "internalType": "string",
          "name": "",
          "type": "string"
        }
      ],
      "stateMutability": "view",
      "type": "function"
    },
    {
      "inputs": [
        {
          "internalType": "address",
          "name": "owner",
          "type": "address"
        }
      ],
      "name": "nonces",
      "outputs": [
        {
          "internalType": "uint256",
          "name": "",
          "type": "uint256"
        }
      ],
      "stateMutability": "view",
      "type": "function"
    },
    {
      "inputs": [
        {
          "internalType": "address",
          "name": "account",
          "type": "address"
        }
      ],
      "name": "numCheckpoints",
      "outputs": [
        {
          "internalType": "uint32",
          "name": "",
          "type": "uint32"
        }
      ],
      "stateMutability": "view",
      "type": "function"
    },
    {
      "inputs": [
        {
          "internalType": "address",
          "name": "owner",
          "type": "address"
        },
        {
          "internalType": "address",
          "name": "spender",
          "type": "address"
        },
        {
          "internalType": "uint256",
          "name": "value",
          "type": "uint256"
        },
        {
          "internalType": "uint256",
          "name": "deadline",
          "type": "uint256"
        },
        {
          "internalType": "uint8",
          "name": "v",
          "type": "uint8"
        },
        {
          "internalType": "bytes32",
          "name": "r",
          "type": "bytes32"
        },
        {
          "internalType": "bytes32",
          "name": "s",
          "type": "bytes32"
        }
      ],
      "name": "permit",
      "outputs": [],
      "stateMutability": "nonpayable",
      "type": "function"
    },
    {
      "inputs": [
        {
          "internalType": "bytes32",
          "name": "role",
          "type": "bytes32"
        },
        {
          "internalType": "address",
          "name": "account",
          "type": "address"
        }
      ],
      "name": "renounceRole",
      "outputs": [],
      "stateMutability": "nonpayable",
      "type": "function"
    },
    {
      "inputs": [
        {
          "internalType": "bytes32",
          "name": "role",
          "type": "bytes32"
        },
        {
          "internalType": "address",
          "name": "account",
          "type": "address"
        }
      ],
      "name": "revokeRole",
      "outputs": [],
      "stateMutability": "nonpayable",
      "type": "function"
    },
    {
      "inputs": [
        {
          "internalType": "bytes4",
          "name": "interfaceId",
          "type": "bytes4"
        }
      ],
      "name": "supportsInterface",
      "outputs": [
        {
          "internalType": "bool",
          "name": "",
          "type": "bool"
        }
      ],
      "stateMutability": "view",
      "type": "function"
    },
    {
      "inputs": [],
      "name": "symbol",
      "outputs": [
        {
          "internalType": "string",
          "name": "",
          "type": "string"
        }
      ],
      "stateMutability": "view",
      "type": "function"
    },
    {
      "inputs": [],
      "name": "totalSupply",
      "outputs": [
        {
          "internalType": "uint256",
          "name": "",
          "type": "uint256"
        }
      ],
      "stateMutability": "view",
      "type": "function"
    },
    {
      "inputs": [
        {
          "internalType": "uint256",
          "name": "snapshotId",
          "type": "uint256"
        }
      ],
      "name": "totalSupplyAt",
      "outputs": [
        {
          "internalType": "uint256",
          "name": "",
          "type": "uint256"
        }
      ],
      "stateMutability": "view",
      "type": "function"
    },
    {
      "inputs": [
        {
          "internalType": "address",
          "name": "recipient",
          "type": "address"
        },
        {
          "internalType": "uint256",
          "name": "amount",
          "type": "uint256"
        }
      ],
      "name": "transfer",
      "outputs": [
        {
          "internalType": "bool",
          "name": "",
          "type": "bool"
        }
      ],
      "stateMutability": "nonpayable",
      "type": "function"
    },
    {
      "inputs": [
        {
          "internalType": "address",
          "name": "sender",
          "type": "address"
        },
        {
          "internalType": "address",
          "name": "recipient",
          "type": "address"
        },
        {
          "internalType": "uint256",
          "name": "amount",
          "type": "uint256"
        }
      ],
      "name": "transferFrom",
      "outputs": [
        {
          "internalType": "bool",
          "name": "",
          "type": "bool"
        }
      ],
      "stateMutability": "nonpayable",
      "type": "function"
    },
    {
      "inputs": [],
      "name": "snapshot",
      "outputs": [],
      "stateMutability": "nonpayable",
      "type": "function"
    },
    {
      "inputs": [
        {
          "internalType": "address",
          "name": "to",
          "type": "address"
        },
        {
          "internalType": "uint256",
          "name": "amount",
          "type": "uint256"
        }
      ],
      "name": "mint",
      "outputs": [],
      "stateMutability": "nonpayable",
      "type": "function"
    }
  ],
  "bytecode": "0x6101606040527f6e71edae12b1b97f4d1f60370fef10105fa2faae0126114a169c64845d6126c9610140908152503480156200003a57600080fd5b506040518060400160405280600c81526020017f4d657472696320546f6b656e0000000000000000000000000000000000000000815250806040518060400160405280600181526020017f31000000000000000000000000000000000000000000000000000000000000008152506040518060400160405280600c81526020017f4d657472696320546f6b656e00000000000000000000000000000000000000008152506040518060400160405280600681526020017f4d4554524943000000000000000000000000000000000000000000000000000081525081600390805190602001906200012c9291906200107f565b508060049080519060200190620001459291906200107f565b50505060008280519060200120905060008280519060200120905060007f8b73c3c69bb8fe3d512ecc4cf759cc79239f7b179b0ffacaa9a75d522b39400f90508260e081815250508161010081815250504660a08181525050620001b1818484620002ba60201b60201c565b608081815250503073ffffffffffffffffffffffffffffffffffffffff1660c08173ffffffffffffffffffffffffffffffffffffffff1681525050806101208181525050505050505050620002106000801b33620002f660201b60201c565b620002427f5fdbd35e8da83ee755d5e62a539e5ed7f47126abede0b8b10f9ea43dc6eed07f33620002f660201b60201c565b620002823362000257620003e860201b60201c565b600a620002659190620012c9565b633b9aca006200027691906200131a565b620003f160201b60201c565b620002b47f9f2df0fed2c77648de5860a4cc508cd0818c85b8b8a1ab4ceeef8d981c8956a633620002f660201b60201c565b6200180a565b60008383834630604051602001620002d7959493929190620013ec565b6040516020818303038152906040528051906020012090509392505050565b6200030882826200040c60201b60201c565b620003e45760016009600084815260200190815260200160002060000160008373ffffffffffffffffffffffffffffffffffffffff1673ffffffffffffffffffffffffffffffffffffffff16815260200190815260200160002060006101000a81548160ff021916908315150217905550620003896200047760201b60201c565b73ffffffffffffffffffffffffffffffffffffffff168173ffffffffffffffffffffffffffffffffffffffff16837f2f8788117e7eff1d82e926ec794901d17c78024a50270940304540a733656f0d60405160405180910390a45b5050565b60006012905090565b6200040882826200047f60201b620016dc1760201c565b5050565b60006009600084815260200190815260200160002060000160008373ffffffffffffffffffffffffffffffffffffffff1673ffffffffffffffffffffffffffffffffffffffff16815260200190815260200160002060009054906101000a900460ff16905092915050565b600033905090565b6200049682826200053d60201b620017691760201c565b620004a6620006b660201b60201c565b7bffffffffffffffffffffffffffffffffffffffffffffffffffffffff16620004d4620006da60201b60201c565b111562000518576040517f08c379a00000000000000000000000000000000000000000000000000000000081526004016200050f90620014d0565b60405180910390fd5b62000537600d620006e460201b620018c91783620006fc60201b60201c565b50505050565b600073ffffffffffffffffffffffffffffffffffffffff168273ffffffffffffffffffffffffffffffffffffffff161415620005b0576040517f08c379a0000000000000000000000000000000000000000000000000000000008152600401620005a79062001542565b60405180910390fd5b620005c460008383620009ad60201b60201c565b8060026000828254620005d8919062001564565b92505081905550806000808473ffffffffffffffffffffffffffffffffffffffff1673ffffffffffffffffffffffffffffffffffffffff16815260200190815260200160002060008282546200062f919062001564565b925050819055508173ffffffffffffffffffffffffffffffffffffffff16600073ffffffffffffffffffffffffffffffffffffffff167fddf252ad1be2c89b69c2b068fc378daa952ba7f163c4a11628f55a4df523b3ef83604051620006969190620015c1565b60405180910390a3620006b260008383620009ca60201b60201c565b5050565b60007bffffffffffffffffffffffffffffffffffffffffffffffffffffffff905090565b6000600254905090565b60008183620006f4919062001564565b905092915050565b60008060008580549050905060008114620007715785600182620007219190620015de565b8154811062000735576200073462001619565b5b9060005260206000200160000160049054906101000a90047bffffffffffffffffffffffffffffffffffffffffffffffffffffffff1662000774565b60005b7bffffffffffffffffffffffffffffffffffffffffffffffffffffffff169250620007a083858760201c565b9150600081118015620007f957504386600183620007bf9190620015de565b81548110620007d357620007d262001619565b5b9060005260206000200160000160009054906101000a900463ffffffff1663ffffffff16145b156200089a576200081582620009e760201b620018df1760201c565b86600183620008259190620015de565b8154811062000839576200083862001619565b5b9060005260206000200160000160046101000a8154817bffffffffffffffffffffffffffffffffffffffffffffffffffffffff02191690837bffffffffffffffffffffffffffffffffffffffffffffffffffffffff160217905550620009a4565b856040518060400160405280620008bc4362000a5560201b6200194a1760201c565b63ffffffff168152602001620008dd85620009e760201b620018df1760201c565b7bffffffffffffffffffffffffffffffffffffffffffffffffffffffff168152509080600181540180825580915050600190039060005260206000200160009091909190915060008201518160000160006101000a81548163ffffffff021916908363ffffffff16021790555060208201518160000160046101000a8154817bffffffffffffffffffffffffffffffffffffffffffffffffffffffff02191690837bffffffffffffffffffffffffffffffffffffffffffffffffffffffff16021790555050505b50935093915050565b620009c583838362000aab60201b6200199d1760201c565b505050565b620009e283838362000ba660201b62001a571760201c565b505050565b60007bffffffffffffffffffffffffffffffffffffffffffffffffffffffff801682111562000a4d576040517f08c379a000000000000000000000000000000000000000000000000000000000815260040162000a4490620016be565b60405180910390fd5b819050919050565b600063ffffffff801682111562000aa3576040517f08c379a000000000000000000000000000000000000000000000000000000000815260040162000a9a9062001756565b60405180910390fd5b819050919050565b62000ac383838362000bf660201b62001a821760201c565b600073ffffffffffffffffffffffffffffffffffffffff168373ffffffffffffffffffffffffffffffffffffffff16141562000b205762000b0a8262000bfb60201b60201c565b62000b1a62000c5e60201b60201c565b62000ba1565b600073ffffffffffffffffffffffffffffffffffffffff168273ffffffffffffffffffffffffffffffffffffffff16141562000b7d5762000b678362000bfb60201b60201c565b62000b7762000c5e60201b60201c565b62000ba0565b62000b8e8362000bfb60201b60201c565b62000b9f8262000bfb60201b60201c565b5b5b505050565b62000bbe83838362000c8260201b62001a871760201c565b62000bf162000bd38462000c8760201b60201c565b62000be48462000c8760201b60201c565b8362000cf060201b60201c565b505050565b505050565b62000c5b600560008373ffffffffffffffffffffffffffffffffffffffff1673ffffffffffffffffffffffffffffffffffffffff16815260200190815260200160002062000c4f8362000f1360201b60201c565b62000f5b60201b60201c565b50565b62000c80600662000c74620006da60201b60201c565b62000f5b60201b60201c565b565b505050565b6000600b60008373ffffffffffffffffffffffffffffffffffffffff1673ffffffffffffffffffffffffffffffffffffffff16815260200190815260200160002060009054906101000a900473ffffffffffffffffffffffffffffffffffffffff169050919050565b8173ffffffffffffffffffffffffffffffffffffffff168373ffffffffffffffffffffffffffffffffffffffff161415801562000d2d5750600081115b1562000f0e57600073ffffffffffffffffffffffffffffffffffffffff168373ffffffffffffffffffffffffffffffffffffffff161462000e205760008062000dc7600c60008773ffffffffffffffffffffffffffffffffffffffff1673ffffffffffffffffffffffffffffffffffffffff16815260200190815260200160002062000fe760201b62001a8c1785620006fc60201b60201c565b915091508473ffffffffffffffffffffffffffffffffffffffff167fdec2bacdd2f05b59de34da9b523dff8be42e5e38e818c82fdb0bae774387a724838360405162000e1592919062001778565b60405180910390a250505b600073ffffffffffffffffffffffffffffffffffffffff168273ffffffffffffffffffffffffffffffffffffffff161462000f0d5760008062000eb4600c60008673ffffffffffffffffffffffffffffffffffffffff1673ffffffffffffffffffffffffffffffffffffffff168152602001908152602001600020620006e460201b620018c91785620006fc60201b60201c565b915091508373ffffffffffffffffffffffffffffffffffffffff167fdec2bacdd2f05b59de34da9b523dff8be42e5e38e818c82fdb0bae774387a724838360405162000f0292919062001778565b60405180910390a250505b5b505050565b60008060008373ffffffffffffffffffffffffffffffffffffffff1673ffffffffffffffffffffffffffffffffffffffff168152602001908152602001600020549050919050565b600062000f6d62000fff60201b60201c565b90508062000f84846000016200101d60201b60201c565b101562000fe25782600001819080600181540180825580915050600190039060005260206000200160009091909190915055826001018290806001815401808255809150506001900390600052602060002001600090919091909150555b505050565b6000818362000ff79190620015de565b905092915050565b60006200101860086200107160201b62001aa21760201c565b905090565b600080828054905014156200103657600090506200106c565b81600183805490506200104a9190620015de565b815481106200105e576200105d62001619565b5b906000526020600020015490505b919050565b600081600001549050919050565b8280546200108d90620017d4565b90600052602060002090601f016020900481019282620010b15760008555620010fd565b82601f10620010cc57805160ff1916838001178555620010fd565b82800160010185558215620010fd579182015b82811115620010fc578251825591602001919060010190620010df565b5b5090506200110c919062001110565b5090565b5b808211156200112b57600081600090555060010162001111565b5090565b7f4e487b7100000000000000000000000000000000000000000000000000000000600052601160045260246000fd5b60008160011c9050919050565b6000808291508390505b6001851115620011bd578086048111156200119557620011946200112f565b5b6001851615620011a55780820291505b8081029050620011b5856200115e565b945062001175565b94509492505050565b600082620011d85760019050620012ab565b81620011e85760009050620012ab565b81600181146200120157600281146200120c5762001242565b6001915050620012ab565b60ff8411156200122157620012206200112f565b5b8360020a9150848211156200123b576200123a6200112f565b5b50620012ab565b5060208310610133831016604e8410600b84101617156200127c5782820a9050838111156200127657620012756200112f565b5b620012ab565b6200128b84848460016200116b565b92509050818404811115620012a557620012a46200112f565b5b81810290505b9392505050565b6000819050919050565b600060ff82169050919050565b6000620012d682620012b2565b9150620012e383620012bc565b9250620013127fffffffffffffffffffffffffffffffffffffffffffffffffffffffffffffffff8484620011c6565b905092915050565b60006200132782620012b2565b91506200133483620012b2565b9250817fffffffffffffffffffffffffffffffffffffffffffffffffffffffffffffffff048311821515161562001370576200136f6200112f565b5b828202905092915050565b6000819050919050565b62001390816200137b565b82525050565b620013a181620012b2565b82525050565b600073ffffffffffffffffffffffffffffffffffffffff82169050919050565b6000620013d482620013a7565b9050919050565b620013e681620013c7565b82525050565b600060a08201905062001403600083018862001385565b62001412602083018762001385565b62001421604083018662001385565b62001430606083018562001396565b6200143f6080830184620013db565b9695505050505050565b600082825260208201905092915050565b7f4552433230566f7465733a20746f74616c20737570706c79207269736b73206f60008201527f766572666c6f77696e6720766f74657300000000000000000000000000000000602082015250565b6000620014b860308362001449565b9150620014c5826200145a565b604082019050919050565b60006020820190508181036000830152620014eb81620014a9565b9050919050565b7f45524332303a206d696e7420746f20746865207a65726f206164647265737300600082015250565b60006200152a601f8362001449565b91506200153782620014f2565b602082019050919050565b600060208201905081810360008301526200155d816200151b565b9050919050565b60006200157182620012b2565b91506200157e83620012b2565b9250827fffffffffffffffffffffffffffffffffffffffffffffffffffffffffffffffff03821115620015b657620015b56200112f565b5b828201905092915050565b6000602082019050620015d8600083018462001396565b92915050565b6000620015eb82620012b2565b9150620015f883620012b2565b9250828210156200160e576200160d6200112f565b5b828203905092915050565b7f4e487b7100000000000000000000000000000000000000000000000000000000600052603260045260246000fd5b7f53616665436173743a2076616c756520646f65736e27742066697420696e203260008201527f3234206269747300000000000000000000000000000000000000000000000000602082015250565b6000620016a660278362001449565b9150620016b38262001648565b604082019050919050565b60006020820190508181036000830152620016d98162001697565b9050919050565b7f53616665436173743a2076616c756520646f65736e27742066697420696e203360008201527f3220626974730000000000000000000000000000000000000000000000000000602082015250565b60006200173e60268362001449565b91506200174b82620016e0565b604082019050919050565b6000602082019050818103600083015262001771816200172f565b9050919050565b60006040820190506200178f600083018562001396565b6200179e602083018462001396565b9392505050565b7f4e487b7100000000000000000000000000000000000000000000000000000000600052602260045260246000fd5b60006002820490506001821680620017ed57607f821691505b60208210811415620018045762001803620017a5565b5b50919050565b60805160a05160c05160e0516101005161012051610140516150a56200186560003960006113fd0152600061219a015260006121dc015260006121bb015260006120f0015260006121460152600061216f01526150a56000f3fe608060405234801561001057600080fd5b50600436106102275760003560e01c80637028e2cd116101305780639ab24eb0116100b8578063d505accf1161007c578063d505accf146106fc578063d539139314610718578063d547741f14610736578063dd62ed3e14610752578063f1127ed81461078257610227565b80639ab24eb014610632578063a217fddf14610662578063a457c2d714610680578063a9059cbb146106b0578063c3cda520146106e057610227565b80638e539e8c116100ff5780638e539e8c1461057a57806391d14854146105aa57806395d89b41146105da5780639711715a146105f8578063981b24d01461060257610227565b80637028e2cd146104e057806370a08231146104fe57806379cc67901461052e5780637ecebe001461054a57610227565b806336568abe116101b357806342966c681161018257806342966c68146104185780634ee2cd7e14610434578063587cde1e146104645780635c19a95c146104945780636fcfff45146104b057610227565b806336568abe14610380578063395093511461039c5780633a46b1a8146103cc57806340c10f19146103fc57610227565b806323b872dd116101fa57806323b872dd146102c8578063248a9ca3146102f85780632f2ff15d14610328578063313ce567146103445780633644e5151461036257610227565b806301ffc9a71461022c57806306fdde031461025c578063095ea7b31461027a57806318160ddd146102aa575b600080fd5b6102466004803603810190610241919061363f565b6107b2565b6040516102539190613687565b60405180910390f35b61026461082c565b604051610271919061373b565b60405180910390f35b610294600480360381019061028f91906137f1565b6108be565b6040516102a19190613687565b60405180910390f35b6102b26108dc565b6040516102bf9190613840565b60405180910390f35b6102e260048036038101906102dd919061385b565b6108e6565b6040516102ef9190613687565b60405180910390f35b610312600480360381019061030d91906138e4565b6109de565b60405161031f9190613920565b60405180910390f35b610342600480360381019061033d919061393b565b6109fe565b005b61034c610a27565b6040516103599190613997565b60405180910390f35b61036a610a30565b6040516103779190613920565b60405180910390f35b61039a6004803603810190610395919061393b565b610a3f565b005b6103b660048036038101906103b191906137f1565b610ac2565b6040516103c39190613687565b60405180910390f35b6103e660048036038101906103e191906137f1565b610b6e565b6040516103f39190613840565b60405180910390f35b610416600480360381019061041191906137f1565b610c02565b005b610432600480360381019061042d91906139b2565b610c43565b005b61044e600480360381019061044991906137f1565b610c57565b60405161045b9190613840565b60405180910390f35b61047e600480360381019061047991906139df565b610cc7565b60405161048b9190613a1b565b60405180910390f35b6104ae60048036038101906104a991906139df565b610d30565b005b6104ca60048036038101906104c591906139df565b610d44565b6040516104d79190613a55565b60405180910390f35b6104e8610d98565b6040516104f59190613920565b60405180910390f35b610518600480360381019061051391906139df565b610dbc565b6040516105259190613840565b60405180910390f35b610548600480360381019061054391906137f1565b610e04565b005b610564600480360381019061055f91906139df565b610e7f565b6040516105719190613840565b60405180910390f35b610594600480360381019061058f91906139b2565b610ecf565b6040516105a19190613840565b60405180910390f35b6105c460048036038101906105bf919061393b565b610f25565b6040516105d19190613687565b60405180910390f35b6105e2610f90565b6040516105ef919061373b565b60405180910390f35b610600611022565b005b61061c600480360381019061061791906139b2565b611060565b6040516106299190613840565b60405180910390f35b61064c600480360381019061064791906139df565b611091565b6040516106599190613840565b60405180910390f35b61066a6111a2565b6040516106779190613920565b60405180910390f35b61069a600480360381019061069591906137f1565b6111a9565b6040516106a79190613687565b60405180910390f35b6106ca60048036038101906106c591906137f1565b611294565b6040516106d79190613687565b60405180910390f35b6106fa60048036038101906106f59190613a9c565b6112b2565b005b61071660048036038101906107119190613b29565b6113b6565b005b6107206114f8565b60405161072d9190613920565b60405180910390f35b610750600480360381019061074b919061393b565b61151c565b005b61076c60048036038101906107679190613bcb565b611545565b6040516107799190613840565b60405180910390f35b61079c60048036038101906107979190613c37565b6115cc565b6040516107a99190613cec565b60405180910390f35b60007f7965db0b000000000000000000000000000000000000000000000000000000007bffffffffffffffffffffffffffffffffffffffffffffffffffffffff1916827bffffffffffffffffffffffffffffffffffffffffffffffffffffffff19161480610825575061082482611ab0565b5b9050919050565b60606003805461083b90613d36565b80601f016020809104026020016040519081016040528092919081815260200182805461086790613d36565b80156108b45780601f10610889576101008083540402835291602001916108b4565b820191906000526020600020905b81548152906001019060200180831161089757829003601f168201915b5050505050905090565b60006108d26108cb611b1a565b8484611b22565b6001905092915050565b6000600254905090565b60006108f3848484611ced565b6000600160008673ffffffffffffffffffffffffffffffffffffffff1673ffffffffffffffffffffffffffffffffffffffff168152602001908152602001600020600061093e611b1a565b73ffffffffffffffffffffffffffffffffffffffff1673ffffffffffffffffffffffffffffffffffffffff168152602001908152602001600020549050828110156109be576040517f08c379a00000000000000000000000000000000000000000000000000000000081526004016109b590613dda565b60405180910390fd5b6109d2856109ca611b1a565b858403611b22565b60019150509392505050565b600060096000838152602001908152602001600020600101549050919050565b610a07826109de565b610a1881610a13611b1a565b611f6e565b610a22838361200b565b505050565b60006012905090565b6000610a3a6120ec565b905090565b610a47611b1a565b73ffffffffffffffffffffffffffffffffffffffff168173ffffffffffffffffffffffffffffffffffffffff1614610ab4576040517f08c379a0000000000000000000000000000000000000000000000000000000008152600401610aab90613e6c565b60405180910390fd5b610abe8282612206565b5050565b6000610b64610acf611b1a565b848460016000610add611b1a565b73ffffffffffffffffffffffffffffffffffffffff1673ffffffffffffffffffffffffffffffffffffffff16815260200190815260200160002060008873ffffffffffffffffffffffffffffffffffffffff1673ffffffffffffffffffffffffffffffffffffffff16815260200190815260200160002054610b5f9190613ebb565b611b22565b6001905092915050565b6000438210610bb2576040517f08c379a0000000000000000000000000000000000000000000000000000000008152600401610ba990613f5d565b60405180910390fd5b610bfa600c60008573ffffffffffffffffffffffffffffffffffffffff1673ffffffffffffffffffffffffffffffffffffffff168152602001908152602001600020836122e8565b905092915050565b7f9f2df0fed2c77648de5860a4cc508cd0818c85b8b8a1ab4ceeef8d981c8956a6610c3481610c2f611b1a565b611f6e565b610c3e83836123f4565b505050565b610c54610c4e611b1a565b82612402565b50565b6000806000610ca484600560008873ffffffffffffffffffffffffffffffffffffffff1673ffffffffffffffffffffffffffffffffffffffff168152602001908152602001600020612410565b9150915081610cbb57610cb685610dbc565b610cbd565b805b9250505092915050565b6000600b60008373ffffffffffffffffffffffffffffffffffffffff1673ffffffffffffffffffffffffffffffffffffffff16815260200190815260200160002060009054906101000a900473ffffffffffffffffffffffffffffffffffffffff169050919050565b610d41610d3b611b1a565b82612506565b50565b6000610d91600c60008473ffffffffffffffffffffffffffffffffffffffff1673ffffffffffffffffffffffffffffffffffffffff1681526020019081526020016000208054905061194a565b9050919050565b7f5fdbd35e8da83ee755d5e62a539e5ed7f47126abede0b8b10f9ea43dc6eed07f81565b60008060008373ffffffffffffffffffffffffffffffffffffffff1673ffffffffffffffffffffffffffffffffffffffff168152602001908152602001600020549050919050565b6000610e1783610e12611b1a565b611545565b905081811015610e5c576040517f08c379a0000000000000000000000000000000000000000000000000000000008152600401610e5390613fef565b60405180910390fd5b610e7083610e68611b1a565b848403611b22565b610e7a8383612402565b505050565b6000610ec8600a60008473ffffffffffffffffffffffffffffffffffffffff1673ffffffffffffffffffffffffffffffffffffffff168152602001908152602001600020611aa2565b9050919050565b6000438210610f13576040517f08c379a0000000000000000000000000000000000000000000000000000000008152600401610f0a90613f5d565b60405180910390fd5b610f1e600d836122e8565b9050919050565b60006009600084815260200190815260200160002060000160008373ffffffffffffffffffffffffffffffffffffffff1673ffffffffffffffffffffffffffffffffffffffff16815260200190815260200160002060009054906101000a900460ff16905092915050565b606060048054610f9f90613d36565b80601f0160208091040260200160405190810160405280929190818152602001828054610fcb90613d36565b80156110185780601f10610fed57610100808354040283529160200191611018565b820191906000526020600020905b815481529060010190602001808311610ffb57829003601f168201915b5050505050905090565b7f5fdbd35e8da83ee755d5e62a539e5ed7f47126abede0b8b10f9ea43dc6eed07f6110548161104f611b1a565b611f6e565b61105c612620565b5050565b6000806000611070846006612410565b9150915081611086576110816108dc565b611088565b805b92505050919050565b600080600c60008473ffffffffffffffffffffffffffffffffffffffff1673ffffffffffffffffffffffffffffffffffffffff1681526020019081526020016000208054905090506000811461117957600c60008473ffffffffffffffffffffffffffffffffffffffff1673ffffffffffffffffffffffffffffffffffffffff16815260200190815260200160002060018261112d919061400f565b8154811061113e5761113d614043565b5b9060005260206000200160000160049054906101000a90047bffffffffffffffffffffffffffffffffffffffffffffffffffffffff1661117c565b60005b7bffffffffffffffffffffffffffffffffffffffffffffffffffffffff16915050919050565b6000801b81565b600080600160006111b8611b1a565b73ffffffffffffffffffffffffffffffffffffffff1673ffffffffffffffffffffffffffffffffffffffff16815260200190815260200160002060008573ffffffffffffffffffffffffffffffffffffffff1673ffffffffffffffffffffffffffffffffffffffff16815260200190815260200160002054905082811015611275576040517f08c379a000000000000000000000000000000000000000000000000000000000815260040161126c906140e4565b60405180910390fd5b611289611280611b1a565b85858403611b22565b600191505092915050565b60006112a86112a1611b1a565b8484611ced565b6001905092915050565b834211156112f5576040517f08c379a00000000000000000000000000000000000000000000000000000000081526004016112ec90614150565b60405180910390fd5b600061135761134f7fe48329057bfd03d55e49b547132e39cffd9c1820ad7b9d4c5307691425d15adf8989896040516020016113349493929190614170565b60405160208183030381529060405280519060200120612676565b858585612690565b9050611362816126bb565b86146113a3576040517f08c379a000000000000000000000000000000000000000000000000000000000815260040161139a90614201565b60405180910390fd5b6113ad8188612506565b50505050505050565b834211156113f9576040517f08c379a00000000000000000000000000000000000000000000000000000000081526004016113f09061426d565b60405180910390fd5b60007f00000000000000000000000000000000000000000000000000000000000000008888886114288c6126bb565b8960405160200161143e9695949392919061428d565b604051602081830303815290604052805190602001209050600061146182612676565b9050600061147182878787612690565b90508973ffffffffffffffffffffffffffffffffffffffff168173ffffffffffffffffffffffffffffffffffffffff16146114e1576040517f08c379a00000000000000000000000000000000000000000000000000000000081526004016114d89061433a565b60405180910390fd5b6114ec8a8a8a611b22565b50505050505050505050565b7f9f2df0fed2c77648de5860a4cc508cd0818c85b8b8a1ab4ceeef8d981c8956a681565b611525826109de565b61153681611531611b1a565b611f6e565b6115408383612206565b505050565b6000600160008473ffffffffffffffffffffffffffffffffffffffff1673ffffffffffffffffffffffffffffffffffffffff16815260200190815260200160002060008373ffffffffffffffffffffffffffffffffffffffff1673ffffffffffffffffffffffffffffffffffffffff16815260200190815260200160002054905092915050565b6115d46135a4565b600c60008473ffffffffffffffffffffffffffffffffffffffff1673ffffffffffffffffffffffffffffffffffffffff1681526020019081526020016000208263ffffffff168154811061162b5761162a614043565b5b906000526020600020016040518060400160405290816000820160009054906101000a900463ffffffff1663ffffffff1663ffffffff1681526020016000820160049054906101000a90047bffffffffffffffffffffffffffffffffffffffffffffffffffffffff167bffffffffffffffffffffffffffffffffffffffffffffffffffffffff167bffffffffffffffffffffffffffffffffffffffffffffffffffffffff1681525050905092915050565b6116e68282611769565b6116ee612719565b7bffffffffffffffffffffffffffffffffffffffffffffffffffffffff166117146108dc565b1115611755576040517f08c379a000000000000000000000000000000000000000000000000000000000815260040161174c906143cc565b60405180910390fd5b611763600d6118c98361273d565b50505050565b600073ffffffffffffffffffffffffffffffffffffffff168273ffffffffffffffffffffffffffffffffffffffff1614156117d9576040517f08c379a00000000000000000000000000000000000000000000000000000000081526004016117d090614438565b60405180910390fd5b6117e5600083836129b5565b80600260008282546117f79190613ebb565b92505081905550806000808473ffffffffffffffffffffffffffffffffffffffff1673ffffffffffffffffffffffffffffffffffffffff168152602001908152602001600020600082825461184c9190613ebb565b925050819055508173ffffffffffffffffffffffffffffffffffffffff16600073ffffffffffffffffffffffffffffffffffffffff167fddf252ad1be2c89b69c2b068fc378daa952ba7f163c4a11628f55a4df523b3ef836040516118b19190613840565b60405180910390a36118c5600083836129c5565b5050565b600081836118d79190613ebb565b905092915050565b60007bffffffffffffffffffffffffffffffffffffffffffffffffffffffff8016821115611942576040517f08c379a0000000000000000000000000000000000000000000000000000000008152600401611939906144ca565b60405180910390fd5b819050919050565b600063ffffffff8016821115611995576040517f08c379a000000000000000000000000000000000000000000000000000000000815260040161198c9061455c565b60405180910390fd5b819050919050565b6119a8838383611a82565b600073ffffffffffffffffffffffffffffffffffffffff168373ffffffffffffffffffffffffffffffffffffffff1614156119f3576119e6826129d5565b6119ee612a28565b611a52565b600073ffffffffffffffffffffffffffffffffffffffff168273ffffffffffffffffffffffffffffffffffffffff161415611a3e57611a31836129d5565b611a39612a28565b611a51565b611a47836129d5565b611a50826129d5565b5b5b505050565b611a62838383611a87565b611a7d611a6e84610cc7565b611a7784610cc7565b83612a3c565b505050565b505050565b505050565b60008183611a9a919061400f565b905092915050565b600081600001549050919050565b60007f01ffc9a7000000000000000000000000000000000000000000000000000000007bffffffffffffffffffffffffffffffffffffffffffffffffffffffff1916827bffffffffffffffffffffffffffffffffffffffffffffffffffffffff1916149050919050565b600033905090565b600073ffffffffffffffffffffffffffffffffffffffff168373ffffffffffffffffffffffffffffffffffffffff161415611b92576040517f08c379a0000000000000000000000000000000000000000000000000000000008152600401611b89906145ee565b60405180910390fd5b600073ffffffffffffffffffffffffffffffffffffffff168273ffffffffffffffffffffffffffffffffffffffff161415611c02576040517f08c379a0000000000000000000000000000000000000000000000000000000008152600401611bf990614680565b60405180910390fd5b80600160008573ffffffffffffffffffffffffffffffffffffffff1673ffffffffffffffffffffffffffffffffffffffff16815260200190815260200160002060008473ffffffffffffffffffffffffffffffffffffffff1673ffffffffffffffffffffffffffffffffffffffff168152602001908152602001600020819055508173ffffffffffffffffffffffffffffffffffffffff168373ffffffffffffffffffffffffffffffffffffffff167f8c5be1e5ebec7d5bd14f71427d1e84f3dd0314c0f7b2291e5b200ac8c7c3b92583604051611ce09190613840565b60405180910390a3505050565b600073ffffffffffffffffffffffffffffffffffffffff168373ffffffffffffffffffffffffffffffffffffffff161415611d5d576040517f08c379a0000000000000000000000000000000000000000000000000000000008152600401611d5490614712565b60405180910390fd5b600073ffffffffffffffffffffffffffffffffffffffff168273ffffffffffffffffffffffffffffffffffffffff161415611dcd576040517f08c379a0000000000000000000000000000000000000000000000000000000008152600401611dc4906147a4565b60405180910390fd5b611dd88383836129b5565b60008060008573ffffffffffffffffffffffffffffffffffffffff1673ffffffffffffffffffffffffffffffffffffffff16815260200190815260200160002054905081811015611e5e576040517f08c379a0000000000000000000000000000000000000000000000000000000008152600401611e5590614836565b60405180910390fd5b8181036000808673ffffffffffffffffffffffffffffffffffffffff1673ffffffffffffffffffffffffffffffffffffffff16815260200190815260200160002081905550816000808573ffffffffffffffffffffffffffffffffffffffff1673ffffffffffffffffffffffffffffffffffffffff1681526020019081526020016000206000828254611ef19190613ebb565b925050819055508273ffffffffffffffffffffffffffffffffffffffff168473ffffffffffffffffffffffffffffffffffffffff167fddf252ad1be2c89b69c2b068fc378daa952ba7f163c4a11628f55a4df523b3ef84604051611f559190613840565b60405180910390a3611f688484846129c5565b50505050565b611f788282610f25565b61200757611f9d8173ffffffffffffffffffffffffffffffffffffffff166014612c35565b611fab8360001c6020612c35565b604051602001611fbc92919061492a565b6040516020818303038152906040526040517f08c379a0000000000000000000000000000000000000000000000000000000008152600401611ffe919061373b565b60405180910390fd5b5050565b6120158282610f25565b6120e85760016009600084815260200190815260200160002060000160008373ffffffffffffffffffffffffffffffffffffffff1673ffffffffffffffffffffffffffffffffffffffff16815260200190815260200160002060006101000a81548160ff02191690831515021790555061208d611b1a565b73ffffffffffffffffffffffffffffffffffffffff168173ffffffffffffffffffffffffffffffffffffffff16837f2f8788117e7eff1d82e926ec794901d17c78024a50270940304540a733656f0d60405160405180910390a45b5050565b60007f000000000000000000000000000000000000000000000000000000000000000073ffffffffffffffffffffffffffffffffffffffff163073ffffffffffffffffffffffffffffffffffffffff1614801561216857507f000000000000000000000000000000000000000000000000000000000000000046145b15612195577f00000000000000000000000000000000000000000000000000000000000000009050612203565b6122007f00000000000000000000000000000000000000000000000000000000000000007f00000000000000000000000000000000000000000000000000000000000000007f0000000000000000000000000000000000000000000000000000000000000000612e71565b90505b90565b6122108282610f25565b156122e45760006009600084815260200190815260200160002060000160008373ffffffffffffffffffffffffffffffffffffffff1673ffffffffffffffffffffffffffffffffffffffff16815260200190815260200160002060006101000a81548160ff021916908315150217905550612289611b1a565b73ffffffffffffffffffffffffffffffffffffffff168173ffffffffffffffffffffffffffffffffffffffff16837ff6391f5c32d9c69d2a47ea670b442974b53935d1edc7fd64eb21e047a839171b60405160405180910390a45b5050565b6000808380549050905060005b818110156123675760006123098284612eab565b90508486828154811061231f5761231e614043565b5b9060005260206000200160000160009054906101000a900463ffffffff1663ffffffff16111561235157809250612361565b60018161235e9190613ebb565b91505b506122f5565b600082146123c9578460018361237d919061400f565b8154811061238e5761238d614043565b5b9060005260206000200160000160049054906101000a90047bffffffffffffffffffffffffffffffffffffffffffffffffffffffff166123cc565b60005b7bffffffffffffffffffffffffffffffffffffffffffffffffffffffff169250505092915050565b6123fe82826116dc565b5050565b61240c8282612ed1565b5050565b60008060008411612456576040517f08c379a000000000000000000000000000000000000000000000000000000000815260040161244d906149b0565b60405180910390fd5b61245e612eef565b8411156124a0576040517f08c379a000000000000000000000000000000000000000000000000000000000815260040161249790614a1c565b60405180910390fd5b60006124b88585600001612f0090919063ffffffff16565b905083600001805490508114156124d65760008092509250506124ff565b60018460010182815481106124ee576124ed614043565b5b906000526020600020015492509250505b9250929050565b600061251183610cc7565b9050600061251e84610dbc565b905082600b60008673ffffffffffffffffffffffffffffffffffffffff1673ffffffffffffffffffffffffffffffffffffffff16815260200190815260200160002060006101000a81548173ffffffffffffffffffffffffffffffffffffffff021916908373ffffffffffffffffffffffffffffffffffffffff1602179055508273ffffffffffffffffffffffffffffffffffffffff168273ffffffffffffffffffffffffffffffffffffffff168573ffffffffffffffffffffffffffffffffffffffff167f3134e8a2e6d97e929a7e54011ea5485d7d196dd5f0ba4d4ef95803e8e3fc257f60405160405180910390a461261a828483612a3c565b50505050565b600061262c6008612fda565b6000612636612eef565b90507f8030e83b04d87bef53480e26263266d6ca66863aa8506aca6f2559d18aa1cb67816040516126679190613840565b60405180910390a18091505090565b60006126896126836120ec565b83612ff0565b9050919050565b60008060006126a187878787613023565b915091506126ae81613130565b8192505050949350505050565b600080600a60008473ffffffffffffffffffffffffffffffffffffffff1673ffffffffffffffffffffffffffffffffffffffff168152602001908152602001600020905061270881611aa2565b915061271381612fda565b50919050565b60007bffffffffffffffffffffffffffffffffffffffffffffffffffffffff905090565b600080600085805490509050600081146127ab578560018261275f919061400f565b815481106127705761276f614043565b5b9060005260206000200160000160049054906101000a90047bffffffffffffffffffffffffffffffffffffffffffffffffffffffff166127ae565b60005b7bffffffffffffffffffffffffffffffffffffffffffffffffffffffff1692506127dc83858763ffffffff16565b915060008111801561282f575043866001836127f8919061400f565b8154811061280957612808614043565b5b9060005260206000200160000160009054906101000a900463ffffffff1663ffffffff16145b156128bc5761283d826118df565b8660018361284b919061400f565b8154811061285c5761285b614043565b5b9060005260206000200160000160046101000a8154817bffffffffffffffffffffffffffffffffffffffffffffffffffffffff02191690837bffffffffffffffffffffffffffffffffffffffffffffffffffffffff1602179055506129ac565b8560405180604001604052806128d14361194a565b63ffffffff1681526020016128e5856118df565b7bffffffffffffffffffffffffffffffffffffffffffffffffffffffff168152509080600181540180825580915050600190039060005260206000200160009091909190915060008201518160000160006101000a81548163ffffffff021916908363ffffffff16021790555060208201518160000160046101000a8154817bffffffffffffffffffffffffffffffffffffffffffffffffffffffff02191690837bffffffffffffffffffffffffffffffffffffffffffffffffffffffff16021790555050505b50935093915050565b6129c083838361199d565b505050565b6129d0838383611a57565b505050565b612a25600560008373ffffffffffffffffffffffffffffffffffffffff1673ffffffffffffffffffffffffffffffffffffffff168152602001908152602001600020612a2083610dbc565b613305565b50565b612a3a6006612a356108dc565b613305565b565b8173ffffffffffffffffffffffffffffffffffffffff168373ffffffffffffffffffffffffffffffffffffffff1614158015612a785750600081115b15612c3057600073ffffffffffffffffffffffffffffffffffffffff168373ffffffffffffffffffffffffffffffffffffffff1614612b5657600080612aff600c60008773ffffffffffffffffffffffffffffffffffffffff1673ffffffffffffffffffffffffffffffffffffffff168152602001908152602001600020611a8c8561273d565b915091508473ffffffffffffffffffffffffffffffffffffffff167fdec2bacdd2f05b59de34da9b523dff8be42e5e38e818c82fdb0bae774387a7248383604051612b4b929190614a3c565b60405180910390a250505b600073ffffffffffffffffffffffffffffffffffffffff168273ffffffffffffffffffffffffffffffffffffffff1614612c2f57600080612bd8600c60008673ffffffffffffffffffffffffffffffffffffffff1673ffffffffffffffffffffffffffffffffffffffff1681526020019081526020016000206118c98561273d565b915091508373ffffffffffffffffffffffffffffffffffffffff167fdec2bacdd2f05b59de34da9b523dff8be42e5e38e818c82fdb0bae774387a7248383604051612c24929190614a3c565b60405180910390a250505b5b505050565b606060006002836002612c489190614a65565b612c529190613ebb565b67ffffffffffffffff811115612c6b57612c6a614abf565b5b6040519080825280601f01601f191660200182016040528015612c9d5781602001600182028036833780820191505090505b5090507f300000000000000000000000000000000000000000000000000000000000000081600081518110612cd557612cd4614043565b5b60200101907effffffffffffffffffffffffffffffffffffffffffffffffffffffffffffff1916908160001a9053507f780000000000000000000000000000000000000000000000000000000000000081600181518110612d3957612d38614043565b5b60200101907effffffffffffffffffffffffffffffffffffffffffffffffffffffffffffff1916908160001a90535060006001846002612d799190614a65565b612d839190613ebb565b90505b6001811115612e23577f3031323334353637383961626364656600000000000000000000000000000000600f861660108110612dc557612dc4614043565b5b1a60f81b828281518110612ddc57612ddb614043565b5b60200101907effffffffffffffffffffffffffffffffffffffffffffffffffffffffffffff1916908160001a905350600485901c945080612e1c90614aee565b9050612d86565b5060008414612e67576040517f08c379a0000000000000000000000000000000000000000000000000000000008152600401612e5e90614b64565b60405180910390fd5b8091505092915050565b60008383834630604051602001612e8c959493929190614b84565b6040516020818303038152906040528051906020012090509392505050565b60006002828418612ebc9190614c06565b828416612ec99190613ebb565b905092915050565b612edb8282613380565b612ee9600d611a8c8361273d565b50505050565b6000612efb6008611aa2565b905090565b60008083805490501415612f175760009050612fd4565b600080848054905090505b80821015612f7b576000612f368383612eab565b905084868281548110612f4c57612f4b614043565b5b90600052602060002001541115612f6557809150612f75565b600181612f729190613ebb565b92505b50612f22565b600082118015612fb357508385600184612f95919061400f565b81548110612fa657612fa5614043565b5b9060005260206000200154145b15612fce57600182612fc5919061400f565b92505050612fd4565b81925050505b92915050565b6001816000016000828254019250508190555050565b60008282604051602001613005929190614ca4565b60405160208183030381529060405280519060200120905092915050565b6000807f7fffffffffffffffffffffffffffffff5d576e7357a4501ddfe92f46681b20a08360001c111561305e576000600391509150613127565b601b8560ff16141580156130765750601c8560ff1614155b15613088576000600491509150613127565b6000600187878787604051600081526020016040526040516130ad9493929190614cdb565b6020604051602081039080840390855afa1580156130cf573d6000803e3d6000fd5b505050602060405103519050600073ffffffffffffffffffffffffffffffffffffffff168173ffffffffffffffffffffffffffffffffffffffff16141561311e57600060019250925050613127565b80600092509250505b94509492505050565b6000600481111561314457613143614d20565b5b81600481111561315757613156614d20565b5b141561316257613302565b6001600481111561317657613175614d20565b5b81600481111561318957613188614d20565b5b14156131ca576040517f08c379a00000000000000000000000000000000000000000000000000000000081526004016131c190614d9b565b60405180910390fd5b600260048111156131de576131dd614d20565b5b8160048111156131f1576131f0614d20565b5b1415613232576040517f08c379a000000000000000000000000000000000000000000000000000000000815260040161322990614e07565b60405180910390fd5b6003600481111561324657613245614d20565b5b81600481111561325957613258614d20565b5b141561329a576040517f08c379a000000000000000000000000000000000000000000000000000000000815260040161329190614e99565b60405180910390fd5b6004808111156132ad576132ac614d20565b5b8160048111156132c0576132bf614d20565b5b1415613301576040517f08c379a00000000000000000000000000000000000000000000000000000000081526004016132f890614f2b565b60405180910390fd5b5b50565b600061330f612eef565b90508061331e84600001613557565b101561337b5782600001819080600181540180825580915050600190039060005260206000200160009091909190915055826001018290806001815401808255809150506001900390600052602060002001600090919091909150555b505050565b600073ffffffffffffffffffffffffffffffffffffffff168273ffffffffffffffffffffffffffffffffffffffff1614156133f0576040517f08c379a00000000000000000000000000000000000000000000000000000000081526004016133e790614fbd565b60405180910390fd5b6133fc826000836129b5565b60008060008473ffffffffffffffffffffffffffffffffffffffff1673ffffffffffffffffffffffffffffffffffffffff16815260200190815260200160002054905081811015613482576040517f08c379a00000000000000000000000000000000000000000000000000000000081526004016134799061504f565b60405180910390fd5b8181036000808573ffffffffffffffffffffffffffffffffffffffff1673ffffffffffffffffffffffffffffffffffffffff1681526020019081526020016000208190555081600260008282546134d9919061400f565b92505081905550600073ffffffffffffffffffffffffffffffffffffffff168373ffffffffffffffffffffffffffffffffffffffff167fddf252ad1be2c89b69c2b068fc378daa952ba7f163c4a11628f55a4df523b3ef8460405161353e9190613840565b60405180910390a3613552836000846129c5565b505050565b6000808280549050141561356e576000905061359f565b8160018380549050613580919061400f565b8154811061359157613590614043565b5b906000526020600020015490505b919050565b6040518060400160405280600063ffffffff16815260200160007bffffffffffffffffffffffffffffffffffffffffffffffffffffffff1681525090565b600080fd5b60007fffffffff0000000000000000000000000000000000000000000000000000000082169050919050565b61361c816135e7565b811461362757600080fd5b50565b60008135905061363981613613565b92915050565b600060208284031215613655576136546135e2565b5b60006136638482850161362a565b91505092915050565b60008115159050919050565b6136818161366c565b82525050565b600060208201905061369c6000830184613678565b92915050565b600081519050919050565b600082825260208201905092915050565b60005b838110156136dc5780820151818401526020810190506136c1565b838111156136eb576000848401525b50505050565b6000601f19601f8301169050919050565b600061370d826136a2565b61371781856136ad565b93506137278185602086016136be565b613730816136f1565b840191505092915050565b600060208201905081810360008301526137558184613702565b905092915050565b600073ffffffffffffffffffffffffffffffffffffffff82169050919050565b60006137888261375d565b9050919050565b6137988161377d565b81146137a357600080fd5b50565b6000813590506137b58161378f565b92915050565b6000819050919050565b6137ce816137bb565b81146137d957600080fd5b50565b6000813590506137eb816137c5565b92915050565b60008060408385031215613808576138076135e2565b5b6000613816858286016137a6565b9250506020613827858286016137dc565b9150509250929050565b61383a816137bb565b82525050565b60006020820190506138556000830184613831565b92915050565b600080600060608486031215613874576138736135e2565b5b6000613882868287016137a6565b9350506020613893868287016137a6565b92505060406138a4868287016137dc565b9150509250925092565b6000819050919050565b6138c1816138ae565b81146138cc57600080fd5b50565b6000813590506138de816138b8565b92915050565b6000602082840312156138fa576138f96135e2565b5b6000613908848285016138cf565b91505092915050565b61391a816138ae565b82525050565b60006020820190506139356000830184613911565b92915050565b60008060408385031215613952576139516135e2565b5b6000613960858286016138cf565b9250506020613971858286016137a6565b9150509250929050565b600060ff82169050919050565b6139918161397b565b82525050565b60006020820190506139ac6000830184613988565b92915050565b6000602082840312156139c8576139c76135e2565b5b60006139d6848285016137dc565b91505092915050565b6000602082840312156139f5576139f46135e2565b5b6000613a03848285016137a6565b91505092915050565b613a158161377d565b82525050565b6000602082019050613a306000830184613a0c565b92915050565b600063ffffffff82169050919050565b613a4f81613a36565b82525050565b6000602082019050613a6a6000830184613a46565b92915050565b613a798161397b565b8114613a8457600080fd5b50565b600081359050613a9681613a70565b92915050565b60008060008060008060c08789031215613ab957613ab86135e2565b5b6000613ac789828a016137a6565b9650506020613ad889828a016137dc565b9550506040613ae989828a016137dc565b9450506060613afa89828a01613a87565b9350506080613b0b89828a016138cf565b92505060a0613b1c89828a016138cf565b9150509295509295509295565b600080600080600080600060e0888a031215613b4857613b476135e2565b5b6000613b568a828b016137a6565b9750506020613b678a828b016137a6565b9650506040613b788a828b016137dc565b9550506060613b898a828b016137dc565b9450506080613b9a8a828b01613a87565b93505060a0613bab8a828b016138cf565b92505060c0613bbc8a828b016138cf565b91505092959891949750929550565b60008060408385031215613be257613be16135e2565b5b6000613bf0858286016137a6565b9250506020613c01858286016137a6565b9150509250929050565b613c1481613a36565b8114613c1f57600080fd5b50565b600081359050613c3181613c0b565b92915050565b60008060408385031215613c4e57613c4d6135e2565b5b6000613c5c858286016137a6565b9250506020613c6d85828601613c22565b9150509250929050565b613c8081613a36565b82525050565b60007bffffffffffffffffffffffffffffffffffffffffffffffffffffffff82169050919050565b613cb781613c86565b82525050565b604082016000820151613cd36000850182613c77565b506020820151613ce66020850182613cae565b50505050565b6000604082019050613d016000830184613cbd565b92915050565b7f4e487b7100000000000000000000000000000000000000000000000000000000600052602260045260246000fd5b60006002820490506001821680613d4e57607f821691505b60208210811415613d6257613d61613d07565b5b50919050565b7f45524332303a207472616e7366657220616d6f756e742065786365656473206160008201527f6c6c6f77616e6365000000000000000000000000000000000000000000000000602082015250565b6000613dc46028836136ad565b9150613dcf82613d68565b604082019050919050565b60006020820190508181036000830152613df381613db7565b9050919050565b7f416363657373436f6e74726f6c3a2063616e206f6e6c792072656e6f756e636560008201527f20726f6c657320666f722073656c660000000000000000000000000000000000602082015250565b6000613e56602f836136ad565b9150613e6182613dfa565b604082019050919050565b60006020820190508181036000830152613e8581613e49565b9050919050565b7f4e487b7100000000000000000000000000000000000000000000000000000000600052601160045260246000fd5b6000613ec6826137bb565b9150613ed1836137bb565b9250827fffffffffffffffffffffffffffffffffffffffffffffffffffffffffffffffff03821115613f0657613f05613e8c565b5b828201905092915050565b7f4552433230566f7465733a20626c6f636b206e6f7420796574206d696e656400600082015250565b6000613f47601f836136ad565b9150613f5282613f11565b602082019050919050565b60006020820190508181036000830152613f7681613f3a565b9050919050565b7f45524332303a206275726e20616d6f756e74206578636565647320616c6c6f7760008201527f616e636500000000000000000000000000000000000000000000000000000000602082015250565b6000613fd96024836136ad565b9150613fe482613f7d565b604082019050919050565b6000602082019050818103600083015261400881613fcc565b9050919050565b600061401a826137bb565b9150614025836137bb565b92508282101561403857614037613e8c565b5b828203905092915050565b7f4e487b7100000000000000000000000000000000000000000000000000000000600052603260045260246000fd5b7f45524332303a2064656372656173656420616c6c6f77616e63652062656c6f7760008201527f207a65726f000000000000000000000000000000000000000000000000000000602082015250565b60006140ce6025836136ad565b91506140d982614072565b604082019050919050565b600060208201905081810360008301526140fd816140c1565b9050919050565b7f4552433230566f7465733a207369676e61747572652065787069726564000000600082015250565b600061413a601d836136ad565b915061414582614104565b602082019050919050565b600060208201905081810360008301526141698161412d565b9050919050565b60006080820190506141856000830187613911565b6141926020830186613a0c565b61419f6040830185613831565b6141ac6060830184613831565b95945050505050565b7f4552433230566f7465733a20696e76616c6964206e6f6e636500000000000000600082015250565b60006141eb6019836136ad565b91506141f6826141b5565b602082019050919050565b6000602082019050818103600083015261421a816141de565b9050919050565b7f45524332305065726d69743a206578706972656420646561646c696e65000000600082015250565b6000614257601d836136ad565b915061426282614221565b602082019050919050565b600060208201905081810360008301526142868161424a565b9050919050565b600060c0820190506142a26000830189613911565b6142af6020830188613a0c565b6142bc6040830187613a0c565b6142c96060830186613831565b6142d66080830185613831565b6142e360a0830184613831565b979650505050505050565b7f45524332305065726d69743a20696e76616c6964207369676e61747572650000600082015250565b6000614324601e836136ad565b915061432f826142ee565b602082019050919050565b6000602082019050818103600083015261435381614317565b9050919050565b7f4552433230566f7465733a20746f74616c20737570706c79207269736b73206f60008201527f766572666c6f77696e6720766f74657300000000000000000000000000000000602082015250565b60006143b66030836136ad565b91506143c18261435a565b604082019050919050565b600060208201905081810360008301526143e5816143a9565b9050919050565b7f45524332303a206d696e7420746f20746865207a65726f206164647265737300600082015250565b6000614422601f836136ad565b915061442d826143ec565b602082019050919050565b6000602082019050818103600083015261445181614415565b9050919050565b7f53616665436173743a2076616c756520646f65736e27742066697420696e203260008201527f3234206269747300000000000000000000000000000000000000000000000000602082015250565b60006144b46027836136ad565b91506144bf82614458565b604082019050919050565b600060208201905081810360008301526144e3816144a7565b9050919050565b7f53616665436173743a2076616c756520646f65736e27742066697420696e203360008201527f3220626974730000000000000000000000000000000000000000000000000000602082015250565b60006145466026836136ad565b9150614551826144ea565b604082019050919050565b6000602082019050818103600083015261457581614539565b9050919050565b7f45524332303a20617070726f76652066726f6d20746865207a65726f2061646460008201527f7265737300000000000000000000000000000000000000000000000000000000602082015250565b60006145d86024836136ad565b91506145e38261457c565b604082019050919050565b60006020820190508181036000830152614607816145cb565b9050919050565b7f45524332303a20617070726f766520746f20746865207a65726f20616464726560008201527f7373000000000000000000000000000000000000000000000000000000000000602082015250565b600061466a6022836136ad565b91506146758261460e565b604082019050919050565b600060208201905081810360008301526146998161465d565b9050919050565b7f45524332303a207472616e736665722066726f6d20746865207a65726f20616460008201527f6472657373000000000000000000000000000000000000000000000000000000602082015250565b60006146fc6025836136ad565b9150614707826146a0565b604082019050919050565b6000602082019050818103600083015261472b816146ef565b9050919050565b7f45524332303a207472616e7366657220746f20746865207a65726f206164647260008201527f6573730000000000000000000000000000000000000000000000000000000000602082015250565b600061478e6023836136ad565b915061479982614732565b604082019050919050565b600060208201905081810360008301526147bd81614781565b9050919050565b7f45524332303a207472616e7366657220616d6f756e742065786365656473206260008201527f616c616e63650000000000000000000000000000000000000000000000000000602082015250565b60006148206026836136ad565b915061482b826147c4565b604082019050919050565b6000602082019050818103600083015261484f81614813565b9050919050565b600081905092915050565b7f416363657373436f6e74726f6c3a206163636f756e7420000000000000000000600082015250565b6000614897601783614856565b91506148a282614861565b601782019050919050565b60006148b8826136a2565b6148c28185614856565b93506148d28185602086016136be565b80840191505092915050565b7f206973206d697373696e6720726f6c6520000000000000000000000000000000600082015250565b6000614914601183614856565b915061491f826148de565b601182019050919050565b60006149358261488a565b915061494182856148ad565b915061494c82614907565b915061495882846148ad565b91508190509392505050565b7f4552433230536e617073686f743a206964206973203000000000000000000000600082015250565b600061499a6016836136ad565b91506149a582614964565b602082019050919050565b600060208201905081810360008301526149c98161498d565b9050919050565b7f4552433230536e617073686f743a206e6f6e6578697374656e74206964000000600082015250565b6000614a06601d836136ad565b9150614a11826149d0565b602082019050919050565b60006020820190508181036000830152614a35816149f9565b9050919050565b6000604082019050614a516000830185613831565b614a5e6020830184613831565b9392505050565b6000614a70826137bb565b9150614a7b836137bb565b9250817fffffffffffffffffffffffffffffffffffffffffffffffffffffffffffffffff0483118215151615614ab457614ab3613e8c565b5b828202905092915050565b7f4e487b7100000000000000000000000000000000000000000000000000000000600052604160045260246000fd5b6000614af9826137bb565b91506000821415614b0d57614b0c613e8c565b5b600182039050919050565b7f537472696e67733a20686578206c656e67746820696e73756666696369656e74600082015250565b6000614b4e6020836136ad565b9150614b5982614b18565b602082019050919050565b60006020820190508181036000830152614b7d81614b41565b9050919050565b600060a082019050614b996000830188613911565b614ba66020830187613911565b614bb36040830186613911565b614bc06060830185613831565b614bcd6080830184613a0c565b9695505050505050565b7f4e487b7100000000000000000000000000000000000000000000000000000000600052601260045260246000fd5b6000614c11826137bb565b9150614c1c836137bb565b925082614c2c57614c2b614bd7565b5b828204905092915050565b7f1901000000000000000000000000000000000000000000000000000000000000600082015250565b6000614c6d600283614856565b9150614c7882614c37565b600282019050919050565b6000819050919050565b614c9e614c99826138ae565b614c83565b82525050565b6000614caf82614c60565b9150614cbb8285614c8d565b602082019150614ccb8284614c8d565b6020820191508190509392505050565b6000608082019050614cf06000830187613911565b614cfd6020830186613988565b614d0a6040830185613911565b614d176060830184613911565b95945050505050565b7f4e487b7100000000000000000000000000000000000000000000000000000000600052602160045260246000fd5b7f45434453413a20696e76616c6964207369676e61747572650000000000000000600082015250565b6000614d856018836136ad565b9150614d9082614d4f565b602082019050919050565b60006020820190508181036000830152614db481614d78565b9050919050565b7f45434453413a20696e76616c6964207369676e6174757265206c656e67746800600082015250565b6000614df1601f836136ad565b9150614dfc82614dbb565b602082019050919050565b60006020820190508181036000830152614e2081614de4565b9050919050565b7f45434453413a20696e76616c6964207369676e6174757265202773272076616c60008201527f7565000000000000000000000000000000000000000000000000000000000000602082015250565b6000614e836022836136ad565b9150614e8e82614e27565b604082019050919050565b60006020820190508181036000830152614eb281614e76565b9050919050565b7f45434453413a20696e76616c6964207369676e6174757265202776272076616c60008201527f7565000000000000000000000000000000000000000000000000000000000000602082015250565b6000614f156022836136ad565b9150614f2082614eb9565b604082019050919050565b60006020820190508181036000830152614f4481614f08565b9050919050565b7f45524332303a206275726e2066726f6d20746865207a65726f2061646472657360008201527f7300000000000000000000000000000000000000000000000000000000000000602082015250565b6000614fa76021836136ad565b9150614fb282614f4b565b604082019050919050565b60006020820190508181036000830152614fd681614f9a565b9050919050565b7f45524332303a206275726e20616d6f756e7420657863656564732062616c616e60008201527f6365000000000000000000000000000000000000000000000000000000000000602082015250565b60006150396022836136ad565b915061504482614fdd565b604082019050919050565b600060208201905081810360008301526150688161502c565b905091905056fea264697066735822122037fd464579deea841b5e2bf90ae414360f837cd477f9ccbfbb61a87e38c942aa64736f6c634300080b0033",
  "immutableReferences": {
    "2094": [
      {
        "length": 32,
        "start": 5117
      }
    ],
    "3051": [
      {
        "length": 32,
        "start": 8559
      }
    ],
    "3053": [
      {
        "length": 32,
        "start": 8518
      }
    ],
    "3055": [
      {
        "length": 32,
        "start": 8432
      }
    ],
    "3057": [
      {
        "length": 32,
        "start": 8635
      }
    ],
    "3059": [
      {
        "length": 32,
        "start": 8668
      }
    ],
    "3061": [
      {
        "length": 32,
        "start": 8602
      }
    ]
  },
  "source": "// SPDX-License-Identifier: MIT\npragma solidity 0.8.11;\n\nimport \"@openzeppelin/contracts/token/ERC20/ERC20.sol\";\nimport \"@openzeppelin/contracts/token/ERC20/extensions/ERC20Burnable.sol\";\nimport \"@openzeppelin/contracts/token/ERC20/extensions/ERC20Snapshot.sol\";\nimport \"@openzeppelin/contracts/access/AccessControl.sol\";\nimport \"@openzeppelin/contracts/token/ERC20/extensions/draft-ERC20Permit.sol\";\nimport \"@openzeppelin/contracts/token/ERC20/extensions/ERC20Votes.sol\";\n\ncontract MetricToken is ERC20, ERC20Burnable, ERC20Snapshot, AccessControl, ERC20Permit, ERC20Votes {\n    bytes32 public constant SNAPSHOT_ROLE = keccak256(\"SNAPSHOT_ROLE\");\n    bytes32 public constant MINTER_ROLE = keccak256(\"MINTER_ROLE\");\n\n    constructor() ERC20(\"Metric Token\", \"METRIC\") ERC20Permit(\"Metric Token\") {\n        _grantRole(DEFAULT_ADMIN_ROLE, msg.sender);\n        _grantRole(SNAPSHOT_ROLE, msg.sender);\n        _mint(msg.sender, 1000000000 * 10 ** decimals());\n        _grantRole(MINTER_ROLE, msg.sender);\n    }\n\n    function snapshot() public onlyRole(SNAPSHOT_ROLE) {\n        _snapshot();\n    }\n\n    function mint(address to, uint256 amount) public onlyRole(MINTER_ROLE) {\n        _mint(to, amount);\n    }\n\n    // The following functions are overrides required by Solidity.\n\n    function _beforeTokenTransfer(address from, address to, uint256 amount)\n        internal\n        override(ERC20, ERC20Snapshot)\n    {\n        super._beforeTokenTransfer(from, to, amount);\n    }\n\n    function _afterTokenTransfer(address from, address to, uint256 amount)\n        internal\n        override(ERC20, ERC20Votes)\n    {\n        super._afterTokenTransfer(from, to, amount);\n    }\n\n    function _mint(address to, uint256 amount)\n        internal\n        override(ERC20, ERC20Votes)\n    {\n        super._mint(to, amount);\n    }\n\n    function _burn(address account, uint256 amount)\n        internal\n        override(ERC20, ERC20Votes)\n    {\n        super._burn(account, amount);\n    }\n}",
  "sourcePath": "/Users/edward/code/core-evm-contracts/contracts/MetricToken.sol",
  "compiler": {
    "name": "solc",
    "version": "0.8.11+commit.d7f03943.Emscripten.clang"
  },
  "schemaVersion": "3.4.4",
  "updatedAt": "2022-01-21T19:50:01.834Z",
  "devdoc": {
    "kind": "dev",
    "methods": {
      "DOMAIN_SEPARATOR()": {
        "details": "See {IERC20Permit-DOMAIN_SEPARATOR}."
      },
      "allowance(address,address)": {
        "details": "See {IERC20-allowance}."
      },
      "approve(address,uint256)": {
        "details": "See {IERC20-approve}. Requirements: - `spender` cannot be the zero address."
      },
      "balanceOf(address)": {
        "details": "See {IERC20-balanceOf}."
      },
      "balanceOfAt(address,uint256)": {
        "details": "Retrieves the balance of `account` at the time `snapshotId` was created."
      },
      "burn(uint256)": {
        "details": "Destroys `amount` tokens from the caller. See {ERC20-_burn}."
      },
      "burnFrom(address,uint256)": {
        "details": "Destroys `amount` tokens from `account`, deducting from the caller's allowance. See {ERC20-_burn} and {ERC20-allowance}. Requirements: - the caller must have allowance for ``accounts``'s tokens of at least `amount`."
      },
      "checkpoints(address,uint32)": {
        "details": "Get the `pos`-th checkpoint for `account`."
      },
      "decimals()": {
        "details": "Returns the number of decimals used to get its user representation. For example, if `decimals` equals `2`, a balance of `505` tokens should be displayed to a user as `5.05` (`505 / 10 ** 2`). Tokens usually opt for a value of 18, imitating the relationship between Ether and Wei. This is the value {ERC20} uses, unless this function is overridden; NOTE: This information is only used for _display_ purposes: it in no way affects any of the arithmetic of the contract, including {IERC20-balanceOf} and {IERC20-transfer}."
      },
      "decreaseAllowance(address,uint256)": {
        "details": "Atomically decreases the allowance granted to `spender` by the caller. This is an alternative to {approve} that can be used as a mitigation for problems described in {IERC20-approve}. Emits an {Approval} event indicating the updated allowance. Requirements: - `spender` cannot be the zero address. - `spender` must have allowance for the caller of at least `subtractedValue`."
      },
      "delegate(address)": {
        "details": "Delegate votes from the sender to `delegatee`."
      },
      "delegateBySig(address,uint256,uint256,uint8,bytes32,bytes32)": {
        "details": "Delegates votes from signer to `delegatee`"
      },
      "delegates(address)": {
        "details": "Get the address `account` is currently delegating to."
      },
      "getPastTotalSupply(uint256)": {
        "details": "Retrieve the `totalSupply` at the end of `blockNumber`. Note, this value is the sum of all balances. It is but NOT the sum of all the delegated votes! Requirements: - `blockNumber` must have been already mined"
      },
      "getPastVotes(address,uint256)": {
        "details": "Retrieve the number of votes for `account` at the end of `blockNumber`. Requirements: - `blockNumber` must have been already mined"
      },
      "getRoleAdmin(bytes32)": {
        "details": "Returns the admin role that controls `role`. See {grantRole} and {revokeRole}. To change a role's admin, use {_setRoleAdmin}."
      },
      "getVotes(address)": {
        "details": "Gets the current votes balance for `account`"
      },
      "grantRole(bytes32,address)": {
        "details": "Grants `role` to `account`. If `account` had not been already granted `role`, emits a {RoleGranted} event. Requirements: - the caller must have ``role``'s admin role."
      },
      "hasRole(bytes32,address)": {
        "details": "Returns `true` if `account` has been granted `role`."
      },
      "increaseAllowance(address,uint256)": {
        "details": "Atomically increases the allowance granted to `spender` by the caller. This is an alternative to {approve} that can be used as a mitigation for problems described in {IERC20-approve}. Emits an {Approval} event indicating the updated allowance. Requirements: - `spender` cannot be the zero address."
      },
      "name()": {
        "details": "Returns the name of the token."
      },
      "nonces(address)": {
        "details": "See {IERC20Permit-nonces}."
      },
      "numCheckpoints(address)": {
        "details": "Get number of checkpoints for `account`."
      },
      "permit(address,address,uint256,uint256,uint8,bytes32,bytes32)": {
        "details": "See {IERC20Permit-permit}."
      },
      "renounceRole(bytes32,address)": {
        "details": "Revokes `role` from the calling account. Roles are often managed via {grantRole} and {revokeRole}: this function's purpose is to provide a mechanism for accounts to lose their privileges if they are compromised (such as when a trusted device is misplaced). If the calling account had been revoked `role`, emits a {RoleRevoked} event. Requirements: - the caller must be `account`."
      },
      "revokeRole(bytes32,address)": {
        "details": "Revokes `role` from `account`. If `account` had been granted `role`, emits a {RoleRevoked} event. Requirements: - the caller must have ``role``'s admin role."
      },
      "supportsInterface(bytes4)": {
        "details": "See {IERC165-supportsInterface}."
      },
      "symbol()": {
        "details": "Returns the symbol of the token, usually a shorter version of the name."
      },
      "totalSupply()": {
        "details": "See {IERC20-totalSupply}."
      },
      "totalSupplyAt(uint256)": {
        "details": "Retrieves the total supply at the time `snapshotId` was created."
      },
      "transfer(address,uint256)": {
        "details": "See {IERC20-transfer}. Requirements: - `recipient` cannot be the zero address. - the caller must have a balance of at least `amount`."
      },
      "transferFrom(address,address,uint256)": {
        "details": "See {IERC20-transferFrom}. Emits an {Approval} event indicating the updated allowance. This is not required by the EIP. See the note at the beginning of {ERC20}. Requirements: - `sender` and `recipient` cannot be the zero address. - `sender` must have a balance of at least `amount`. - the caller must have allowance for ``sender``'s tokens of at least `amount`."
      }
    },
    "version": 1
  },
  "userdoc": {
    "kind": "user",
    "methods": {},
    "version": 1
  }
}